{"contracts/MonadPay.sol":{"MonadPay":{"abi":[{"inputs":[{"internalType":"address","name":"_feeRecipient","type":"address"}],"stateMutability":"nonpayable","type":"constructor"},{"inputs":[{"internalType":"address","name":"owner","type":"address"}],"name":"OwnableInvalidOwner","type":"error"},{"inputs":[{"internalType":"address","name":"account","type":"address"}],"name":"OwnableUnauthorizedAccount","type":"error"},{"inputs":[],"name":"ReentrancyGuardReentrantCall","type":"error"},{"anonymous":false,"inputs":[{"indexed":true,"internalType":"uint256","name":"paymentId","type":"uint256"},{"indexed":false,"internalType":"enum MonadPay.PaymentType","name":"paymentType","type":"uint8"},{"indexed":true,"internalType":"address","name":"recipient","type":"address"},{"indexed":false,"internalType":"uint256","name":"amount","type":"uint256"}],"name":"AutoRefundExecuted","type":"event"},{"anonymous":false,"inputs":[{"indexed":true,"internalType":"address","name":"from","type":"address"},{"indexed":false,"internalType":"uint256","name":"totalAmount","type":"uint256"},{"indexed":false,"internalType":"uint256","name":"recipientCount","type":"uint256"}],"name":"BatchPaymentProcessed","type":"event"},{"anonymous":false,"inputs":[{"indexed":true,"internalType":"uint256","name":"conditionalId","type":"uint256"},{"indexed":true,"internalType":"address","name":"canceller","type":"address"}],"name":"ConditionalPaymentCancelled","type":"event"},{"anonymous":false,"inputs":[{"indexed":true,"internalType":"uint256","name":"conditionalId","type":"uint256"},{"indexed":true,"internalType":"address","name":"payer","type":"address"},{"indexed":true,"internalType":"address","name":"recipient","type":"address"},{"indexed":false,"internalType":"uint256","name":"amount","type":"uint256"},{"indexed":false,"internalType":"enum MonadPay.ConditionType","name":"conditionType","type":"uint8"},{"indexed":false,"internalType":"uint256","name":"conditionValue","type":"uint256"}],"name":"ConditionalPaymentCreated","type":"event"},{"anonymous":false,"inputs":[{"indexed":true,"internalType":"uint256","name":"conditionalId","type":"uint256"},{"indexed":true,"internalType":"address","name":"recipient","type":"address"},{"indexed":false,"internalType":"uint256","name":"amount","type":"uint256"}],"name":"ConditionalPaymentExecuted","type":"event"},{"anonymous":false,"inputs":[{"indexed":true,"internalType":"address","name":"contractAddress","type":"address"},{"indexed":false,"internalType":"bool","name":"whitelisted","type":"bool"}],"name":"ContractWhitelisted","type":"event"},{"anonymous":false,"inputs":[{"indexed":true,"internalType":"uint256","name":"customContractId","type":"uint256"},{"indexed":true,"internalType":"address","name":"canceller","type":"address"}],"name":"CustomContractPaymentCancelled","type":"event"},{"anonymous":false,"inputs":[{"indexed":true,"internalType":"uint256","name":"customContractId","type":"uint256"},{"indexed":true,"internalType":"address","name":"payer","type":"address"},{"indexed":true,"internalType":"address","name":"recipient","type":"address"},{"indexed":false,"internalType":"address","name":"targetContract","type":"address"},{"indexed":false,"internalType":"uint256","name":"amount","type":"uint256"},{"indexed":false,"internalType":"address","name":"token","type":"address"}],"name":"CustomContractPaymentCreated","type":"event"},{"anonymous":false,"inputs":[{"indexed":true,"internalType":"uint256","name":"customContractId","type":"uint256"},{"indexed":true,"internalType":"address","name":"payer","type":"address"},{"indexed":true,"internalType":"address","name":"recipient","type":"address"},{"indexed":false,"internalType":"address","name":"targetContract","type":"address"},{"indexed":false,"internalType":"uint256","name":"amount","type":"uint256"},{"indexed":false,"internalType":"bool","name":"success","type":"bool"}],"name":"CustomContractPaymentExecuted","type":"event"},{"anonymous":false,"inputs":[{"indexed":true,"internalType":"uint256","name":"date","type":"uint256"},{"indexed":false,"internalType":"uint256","name":"dailyPayments","type":"uint256"},{"indexed":false,"internalType":"uint256","name":"dailyVolume","type":"uint256"}],"name":"DailyAnalyticsUpdated","type":"event"},{"anonymous":false,"inputs":[{"indexed":true,"internalType":"uint256","name":"escrowId","type":"uint256"},{"indexed":true,"internalType":"address","name":"raiser","type":"address"}],"name":"DisputeRaised","type":"event"},{"anonymous":false,"inputs":[{"indexed":true,"internalType":"uint256","name":"escrowId","type":"uint256"},{"indexed":false,"internalType":"enum MonadPay.DisputeStatus","name":"resolution","type":"uint8"},{"indexed":true,"internalType":"address","name":"resolver","type":"address"}],"name":"DisputeResolved","type":"event"},{"anonymous":false,"inputs":[{"indexed":true,"internalType":"uint256","name":"escrowId","type":"uint256"},{"indexed":true,"internalType":"address","name":"payer","type":"address"},{"indexed":true,"internalType":"address","name":"recipient","type":"address"},{"indexed":false,"internalType":"address","name":"arbiter","type":"address"},{"indexed":false,"internalType":"uint256","name":"amount","type":"uint256"},{"indexed":false,"internalType":"address","name":"token","type":"address"},{"indexed":false,"internalType":"uint256","name":"deadline","type":"uint256"}],"name":"EscrowCreated","type":"event"},{"anonymous":false,"inputs":[{"indexed":true,"internalType":"uint256","name":"escrowId","type":"uint256"},{"indexed":true,"internalType":"address","name":"payer","type":"address"},{"indexed":false,"internalType":"uint256","name":"amount","type":"uint256"}],"name":"EscrowRefunded","type":"event"},{"anonymous":false,"inputs":[{"indexed":true,"internalType":"uint256","name":"escrowId","type":"uint256"},{"indexed":true,"internalType":"address","name":"recipient","type":"address"},{"indexed":false,"internalType":"uint256","name":"amount","type":"uint256"}],"name":"EscrowReleased","type":"event"},{"anonymous":false,"inputs":[{"indexed":true,"internalType":"uint256","name":"multiSigId","type":"uint256"},{"indexed":true,"internalType":"address","name":"canceller","type":"address"}],"name":"MultiSigPaymentCancelled","type":"event"},{"anonymous":false,"inputs":[{"indexed":true,"internalType":"uint256","name":"multiSigId","type":"uint256"},{"indexed":true,"internalType":"address","name":"creator","type":"address"},{"indexed":true,"internalType":"address","name":"recipient","type":"address"},{"indexed":false,"internalType":"uint256","name":"amount","type":"uint256"},{"indexed":false,"internalType":"uint256","name":"requiredSignatures","type":"uint256"}],"name":"MultiSigPaymentCreated","type":"event"},{"anonymous":false,"inputs":[{"indexed":true,"internalType":"uint256","name":"multiSigId","type":"uint256"},{"indexed":true,"internalType":"address","name":"recipient","type":"address"},{"indexed":false,"internalType":"uint256","name":"amount","type":"uint256"}],"name":"MultiSigPaymentExecuted","type":"event"},{"anonymous":false,"inputs":[{"indexed":true,"internalType":"uint256","name":"multiSigId","type":"uint256"},{"indexed":true,"internalType":"address","name":"signer","type":"address"},{"indexed":false,"internalType":"uint256","name":"currentSignatures","type":"uint256"},{"indexed":false,"internalType":"uint256","name":"requiredSignatures","type":"uint256"}],"name":"MultiSigPaymentSigned","type":"event"},{"anonymous":false,"inputs":[{"indexed":true,"internalType":"uint256","name":"nftPaymentId","type":"uint256"},{"indexed":true,"internalType":"address","name":"canceller","type":"address"}],"name":"NFTPaymentCancelled","type":"event"},{"anonymous":false,"inputs":[{"indexed":true,"internalType":"uint256","name":"nftPaymentId","type":"uint256"},{"indexed":true,"internalType":"address","name":"payer","type":"address"},{"indexed":true,"internalType":"address","name":"recipient","type":"address"},{"indexed":false,"internalType":"address","name":"nftContract","type":"address"},{"indexed":false,"internalType":"uint256","name":"tokenId","type":"uint256"},{"indexed":false,"internalType":"uint256","name":"price","type":"uint256"}],"name":"NFTPaymentCreated","type":"event"},{"anonymous":false,"inputs":[{"indexed":true,"internalType":"uint256","name":"nftPaymentId","type":"uint256"},{"indexed":true,"internalType":"address","name":"payer","type":"address"},{"indexed":true,"internalType":"address","name":"recipient","type":"address"},{"indexed":false,"internalType":"address","name":"nftContract","type":"address"},{"indexed":false,"internalType":"uint256","name":"tokenId","type":"uint256"}],"name":"NFTPaymentExecuted","type":"event"},{"anonymous":false,"inputs":[{"indexed":true,"internalType":"address","name":"previousOwner","type":"address"},{"indexed":true,"internalType":"address","name":"newOwner","type":"address"}],"name":"OwnershipTransferred","type":"event"},{"anonymous":false,"inputs":[{"indexed":false,"internalType":"uint256","name":"totalPayments","type":"uint256"},{"indexed":false,"internalType":"uint256","name":"totalVolume","type":"uint256"},{"indexed":false,"internalType":"uint256","name":"totalFees","type":"uint256"}],"name":"PaymentAnalyticsUpdated","type":"event"},{"anonymous":false,"inputs":[{"indexed":true,"internalType":"bytes32","name":"linkHash","type":"bytes32"},{"indexed":true,"internalType":"address","name":"from","type":"address"},{"indexed":true,"internalType":"address","name":"to","type":"address"},{"indexed":false,"internalType":"uint256","name":"amount","type":"uint256"},{"indexed":false,"internalType":"address","name":"token","type":"address"},{"indexed":false,"internalType":"string","name":"label","type":"string"}],"name":"PaymentProcessed","type":"event"},{"anonymous":false,"inputs":[{"indexed":true,"internalType":"uint256","name":"refundId","type":"uint256"},{"indexed":true,"internalType":"address","name":"approver","type":"address"}],"name":"RefundApproved","type":"event"},{"anonymous":false,"inputs":[{"indexed":true,"internalType":"uint256","name":"refundId","type":"uint256"},{"indexed":true,"internalType":"uint256","name":"paymentId","type":"uint256"},{"indexed":true,"internalType":"address","name":"recipient","type":"address"},{"indexed":false,"internalType":"uint256","name":"amount","type":"uint256"}],"name":"RefundProcessed","type":"event"},{"anonymous":false,"inputs":[{"indexed":true,"internalType":"uint256","name":"refundId","type":"uint256"},{"indexed":true,"internalType":"uint256","name":"paymentId","type":"uint256"},{"indexed":false,"internalType":"enum MonadPay.PaymentType","name":"paymentType","type":"uint8"},{"indexed":true,"internalType":"address","name":"requester","type":"address"},{"indexed":false,"internalType":"string","name":"reason","type":"string"}],"name":"RefundRequested","type":"event"},{"anonymous":false,"inputs":[{"indexed":true,"internalType":"uint256","name":"splitId","type":"uint256"},{"indexed":true,"internalType":"address","name":"payer","type":"address"},{"indexed":false,"internalType":"uint256","name":"totalAmount","type":"uint256"},{"indexed":false,"internalType":"uint256","name":"recipientCount","type":"uint256"}],"name":"SplitPaymentCreated","type":"event"},{"anonymous":false,"inputs":[{"indexed":true,"internalType":"uint256","name":"splitId","type":"uint256"},{"indexed":true,"internalType":"address","name":"payer","type":"address"},{"indexed":false,"internalType":"uint256","name":"totalAmount","type":"uint256"},{"indexed":false,"internalType":"uint256","name":"recipientCount","type":"uint256"}],"name":"SplitPaymentExecuted","type":"event"},{"anonymous":false,"inputs":[{"indexed":true,"internalType":"uint256","name":"subscriptionId","type":"uint256"},{"indexed":true,"internalType":"address","name":"subscriber","type":"address"},{"indexed":true,"internalType":"address","name":"recipient","type":"address"},{"indexed":false,"internalType":"uint256","name":"amount","type":"uint256"},{"indexed":false,"internalType":"uint256","name":"interval","type":"uint256"}],"name":"SubscriptionCreated","type":"event"},{"anonymous":false,"inputs":[{"indexed":true,"internalType":"uint256","name":"subscriptionId","type":"uint256"},{"indexed":false,"internalType":"uint256","name":"amount","type":"uint256"},{"indexed":false,"internalType":"uint256","name":"timestamp","type":"uint256"}],"name":"SubscriptionPayment","type":"event"},{"inputs":[],"name":"analytics","outputs":[{"internalType":"uint256","name":"totalPayments","type":"uint256"},{"internalType":"uint256","name":"totalVolume","type":"uint256"},{"internalType":"uint256","name":"totalFees","type":"uint256"},{"internalType":"uint256","name":"successfulPayments","type":"uint256"},{"internalType":"uint256","name":"failedPayments","type":"uint256"},{"internalType":"uint256","name":"refundedPayments","type":"uint256"}],"stateMutability":"view","type":"function"},{"inputs":[{"internalType":"uint256","name":"refundId","type":"uint256"}],"name":"approveRefund","outputs":[],"stateMutability":"nonpayable","type":"function"},{"inputs":[{"internalType":"uint256","name":"","type":"uint256"}],"name":"autoRefundEnabled","outputs":[{"internalType":"bool","name":"","type":"bool"}],"stateMutability":"view","type":"function"},{"inputs":[{"internalType":"address[]","name":"recipients","type":"address[]"},{"internalType":"uint256[]","name":"amounts","type":"uint256[]"},{"internalType":"address","name":"token","type":"address"}],"name":"batchPayment","outputs":[],"stateMutability":"payable","type":"function"},{"inputs":[{"internalType":"uint256","name":"splitId","type":"uint256"},{"internalType":"uint256","name":"recipientIndex","type":"uint256"}],"name":"calculateSplitAmount","outputs":[{"internalType":"uint256","name":"","type":"uint256"}],"stateMutability":"view","type":"function"},{"inputs":[{"internalType":"uint256","name":"customContractId","type":"uint256"}],"name":"canExecuteCustomContractPayment","outputs":[{"internalType":"bool","name":"","type":"bool"}],"stateMutability":"view","type":"function"},{"inputs":[{"internalType":"uint256","name":"nftPaymentId","type":"uint256"}],"name":"canExecuteNFTPayment","outputs":[{"internalType":"bool","name":"","type":"bool"}],"stateMutability":"view","type":"function"},{"inputs":[{"internalType":"uint256","name":"conditionalId","type":"uint256"}],"name":"cancelConditionalPayment","outputs":[],"stateMutability":"nonpayable","type":"function"},{"inputs":[{"internalType":"uint256","name":"customContractId","type":"uint256"}],"name":"cancelCustomContractPayment","outputs":[],"stateMutability":"nonpayable","type":"function"},{"inputs":[{"internalType":"uint256","name":"multiSigId","type":"uint256"}],"name":"cancelMultiSigPayment","outputs":[],"stateMutability":"nonpayable","type":"function"},{"inputs":[{"internalType":"uint256","name":"nftPaymentId","type":"uint256"}],"name":"cancelNFTPayment","outputs":[],"stateMutability":"nonpayable","type":"function"},{"inputs":[{"internalType":"uint256","name":"subscriptionId","type":"uint256"}],"name":"cancelSubscription","outputs":[],"stateMutability":"nonpayable","type":"function"},{"inputs":[{"internalType":"uint256","name":"conditionalId","type":"uint256"}],"name":"checkCondition","outputs":[{"internalType":"bool","name":"","type":"bool"}],"stateMutability":"view","type":"function"},{"inputs":[{"internalType":"uint256","name":"","type":"uint256"}],"name":"conditionalPayments","outputs":[{"internalType":"address","name":"payer","type":"address"},{"internalType":"address","name":"recipient","type":"address"},{"internalType":"uint256","name":"amount","type":"uint256"},{"internalType":"address","name":"token","type":"address"},{"internalType":"enum MonadPay.ConditionType","name":"conditionType","type":"uint8"},{"internalType":"uint256","name":"conditionValue","type":"uint256"},{"internalType":"address","name":"priceOracle","type":"address"},{"internalType":"bool","name":"executed","type":"bool"},{"internalType":"bool","name":"cancelled","type":"bool"},{"internalType":"string","name":"description","type":"string"},{"internalType":"uint256","name":"createdAt","type":"uint256"}],"stateMutability":"view","type":"function"},{"inputs":[{"internalType":"address","name":"recipient","type":"address"},{"internalType":"uint256","name":"amount","type":"uint256"},{"internalType":"address","name":"token","type":"address"},{"internalType":"enum MonadPay.ConditionType","name":"conditionType","type":"uint8"},{"internalType":"uint256","name":"conditionValue","type":"uint256"},{"internalType":"address","name":"priceOracle","type":"address"},{"internalType":"string","name":"description","type":"string"}],"name":"createConditionalPayment","outputs":[{"internalType":"uint256","name":"","type":"uint256"}],"stateMutability":"payable","type":"function"},{"inputs":[{"internalType":"address","name":"recipient","type":"address"},{"internalType":"uint256","name":"amount","type":"uint256"},{"internalType":"address","name":"token","type":"address"},{"internalType":"address","name":"targetContract","type":"address"},{"internalType":"bytes","name":"callData","type":"bytes"},{"internalType":"bytes","name":"expectedReturn","type":"bytes"},{"internalType":"bool","name":"requiresReturn","type":"bool"},{"internalType":"uint256","name":"gasLimit","type":"uint256"},{"internalType":"uint256","name":"deadline","type":"uint256"},{"internalType":"string","name":"description","type":"string"}],"name":"createCustomContractPayment","outputs":[{"internalType":"uint256","name":"","type":"uint256"}],"stateMutability":"payable","type":"function"},{"inputs":[{"internalType":"address","name":"recipient","type":"address"},{"internalType":"address","name":"arbiter","type":"address"},{"internalType":"uint256","name":"amount","type":"uint256"},{"internalType":"address","name":"token","type":"address"},{"internalType":"uint256","name":"deadline","type":"uint256"},{"internalType":"string","name":"description","type":"string"}],"name":"createEscrow","outputs":[{"internalType":"uint256","name":"","type":"uint256"}],"stateMutability":"payable","type":"function"},{"inputs":[{"internalType":"address[]","name":"signers","type":"address[]"},{"internalType":"address","name":"recipient","type":"address"},{"internalType":"uint256","name":"amount","type":"uint256"},{"internalType":"address","name":"token","type":"address"},{"internalType":"uint256","name":"requiredSignatures","type":"uint256"},{"internalType":"uint256","name":"deadline","type":"uint256"},{"internalType":"string","name":"description","type":"string"}],"name":"createMultiSigPayment","outputs":[{"internalType":"uint256","name":"","type":"uint256"}],"stateMutability":"payable","type":"function"},{"inputs":[{"internalType":"address","name":"recipient","type":"address"},{"internalType":"address","name":"nftContract","type":"address"},{"internalType":"uint256","name":"tokenId","type":"uint256"},{"internalType":"uint256","name":"price","type":"uint256"},{"internalType":"address","name":"paymentToken","type":"address"},{"internalType":"string","name":"description","type":"string"},{"internalType":"uint256","name":"deadline","type":"uint256"}],"name":"createNFTPayment","outputs":[{"internalType":"uint256","name":"","type":"uint256"}],"stateMutability":"payable","type":"function"},{"inputs":[{"components":[{"internalType":"address","name":"recipient","type":"address"},{"internalType":"uint256","name":"percentage","type":"uint256"}],"internalType":"struct MonadPay.SplitRecipient[]","name":"recipients","type":"tuple[]"},{"internalType":"uint256","name":"totalAmount","type":"uint256"},{"internalType":"address","name":"token","type":"address"},{"internalType":"string","name":"description","type":"string"}],"name":"createSplitPayment","outputs":[{"internalType":"uint256","name":"","type":"uint256"}],"stateMutability":"payable","type":"function"},{"inputs":[{"internalType":"address","name":"recipient","type":"address"},{"internalType":"uint256","name":"amount","type":"uint256"},{"internalType":"address","name":"token","type":"address"},{"internalType":"uint256","name":"interval","type":"uint256"}],"name":"createSubscription","outputs":[{"internalType":"uint256","name":"","type":"uint256"}],"stateMutability":"nonpayable","type":"function"},{"inputs":[{"internalType":"uint256","name":"","type":"uint256"}],"name":"customContractPayments","outputs":[{"internalType":"address","name":"payer","type":"address"},{"internalType":"address","name":"recipient","type":"address"},{"internalType":"uint256","name":"amount","type":"uint256"},{"internalType":"address","name":"token","type":"address"},{"internalType":"address","name":"targetContract","type":"address"},{"internalType":"bytes","name":"callData","type":"bytes"},{"internalType":"bytes","name":"expectedReturn","type":"bytes"},{"internalType":"bool","name":"requiresReturn","type":"bool"},{"internalType":"uint256","name":"gasLimit","type":"uint256"},{"internalType":"bool","name":"executed","type":"bool"},{"internalType":"bool","name":"cancelled","type":"bool"},{"internalType":"string","name":"description","type":"string"},{"internalType":"uint256","name":"createdAt","type":"uint256"},{"internalType":"uint256","name":"deadline","type":"uint256"}],"stateMutability":"view","type":"function"},{"inputs":[{"internalType":"uint256","name":"","type":"uint256"}],"name":"dailyAnalytics","outputs":[{"internalType":"uint256","name":"totalPayments","type":"uint256"},{"internalType":"uint256","name":"totalVolume","type":"uint256"},{"internalType":"uint256","name":"totalFees","type":"uint256"},{"internalType":"uint256","name":"successfulPayments","type":"uint256"},{"internalType":"uint256","name":"failedPayments","type":"uint256"},{"internalType":"uint256","name":"refundedPayments","type":"uint256"}],"stateMutability":"view","type":"function"},{"inputs":[{"internalType":"uint256","name":"","type":"uint256"}],"name":"disputes","outputs":[{"internalType":"enum MonadPay.DisputeStatus","name":"","type":"uint8"}],"stateMutability":"view","type":"function"},{"inputs":[{"internalType":"uint256","name":"paymentId","type":"uint256"},{"internalType":"enum MonadPay.PaymentType","name":"paymentType","type":"uint8"},{"internalType":"uint256","name":"deadline","type":"uint256"}],"name":"enableAutoRefund","outputs":[],"stateMutability":"nonpayable","type":"function"},{"inputs":[],"name":"escrowFee","outputs":[{"internalType":"uint256","name":"","type":"uint256"}],"stateMutability":"view","type":"function"},{"inputs":[{"internalType":"uint256","name":"","type":"uint256"}],"name":"escrowPayments","outputs":[{"internalType":"address","name":"payer","type":"address"},{"internalType":"address","name":"recipient","type":"address"},{"internalType":"address","name":"arbiter","type":"address"},{"internalType":"uint256","name":"amount","type":"uint256"},{"internalType":"address","name":"token","type":"address"},{"internalType":"uint256","name":"deadline","type":"uint256"},{"internalType":"bool","name":"completed","type":"bool"},{"internalType":"bool","name":"disputed","type":"bool"},{"internalType":"bool","name":"released","type":"bool"},{"internalType":"string","name":"description","type":"string"},{"internalType":"uint256","name":"createdAt","type":"uint256"}],"stateMutability":"view","type":"function"},{"inputs":[{"internalType":"uint256","name":"paymentId","type":"uint256"},{"internalType":"enum MonadPay.PaymentType","name":"paymentType","type":"uint8"}],"name":"executeAutoRefund","outputs":[],"stateMutability":"nonpayable","type":"function"},{"inputs":[{"internalType":"uint256","name":"conditionalId","type":"uint256"}],"name":"executeConditionalPayment","outputs":[],"stateMutability":"nonpayable","type":"function"},{"inputs":[{"internalType":"uint256","name":"customContractId","type":"uint256"}],"name":"executeCustomContractPayment","outputs":[],"stateMutability":"nonpayable","type":"function"},{"inputs":[{"internalType":"uint256","name":"nftPaymentId","type":"uint256"}],"name":"executeNFTPayment","outputs":[],"stateMutability":"nonpayable","type":"function"},{"inputs":[{"internalType":"uint256","name":"splitId","type":"uint256"}],"name":"executeSplitPayment","outputs":[],"stateMutability":"nonpayable","type":"function"},{"inputs":[{"internalType":"uint256","name":"subscriptionId","type":"uint256"}],"name":"executeSubscriptionPayment","outputs":[],"stateMutability":"nonpayable","type":"function"},{"inputs":[],"name":"feeRecipient","outputs":[{"internalType":"address","name":"","type":"address"}],"stateMutability":"view","type":"function"},{"inputs":[{"internalType":"address","name":"to","type":"address"},{"internalType":"uint256","name":"amount","type":"uint256"},{"internalType":"address","name":"token","type":"address"},{"internalType":"string","name":"label","type":"string"},{"internalType":"uint256","name":"nonce","type":"uint256"}],"name":"generateLinkHash","outputs":[{"internalType":"bytes32","name":"","type":"bytes32"}],"stateMutability":"pure","type":"function"},{"inputs":[],"name":"getAveragePaymentAmount","outputs":[{"internalType":"uint256","name":"","type":"uint256"}],"stateMutability":"view","type":"function"},{"inputs":[{"internalType":"uint256","name":"conditionalId","type":"uint256"}],"name":"getConditionalPayment","outputs":[{"internalType":"address","name":"payer","type":"address"},{"internalType":"address","name":"recipient","type":"address"},{"internalType":"uint256","name":"amount","type":"uint256"},{"internalType":"address","name":"token","type":"address"},{"internalType":"enum MonadPay.ConditionType","name":"conditionType","type":"uint8"},{"internalType":"uint256","name":"conditionValue","type":"uint256"},{"internalType":"address","name":"priceOracle","type":"address"},{"internalType":"bool","name":"executed","type":"bool"},{"internalType":"bool","name":"cancelled","type":"bool"},{"internalType":"string","name":"description","type":"string"},{"internalType":"uint256","name":"createdAt","type":"uint256"}],"stateMutability":"view","type":"function"},{"inputs":[{"internalType":"uint256","name":"customContractId","type":"uint256"}],"name":"getCustomContractPayment","outputs":[{"internalType":"address","name":"payer","type":"address"},{"internalType":"address","name":"recipient","type":"address"},{"internalType":"uint256","name":"amount","type":"uint256"},{"internalType":"address","name":"token","type":"address"},{"internalType":"address","name":"targetContract","type":"address"},{"internalType":"bytes","name":"callData","type":"bytes"},{"internalType":"bytes","name":"expectedReturn","type":"bytes"},{"internalType":"bool","name":"requiresReturn","type":"bool"},{"internalType":"uint256","name":"gasLimit","type":"uint256"},{"internalType":"bool","name":"executed","type":"bool"},{"internalType":"bool","name":"cancelled","type":"bool"},{"internalType":"string","name":"description","type":"string"},{"internalType":"uint256","name":"createdAt","type":"uint256"},{"internalType":"uint256","name":"deadline","type":"uint256"}],"stateMutability":"view","type":"function"},{"inputs":[{"internalType":"uint256","name":"date","type":"uint256"}],"name":"getDailyAnalytics","outputs":[{"internalType":"uint256","name":"totalPayments","type":"uint256"},{"internalType":"uint256","name":"totalVolume","type":"uint256"},{"internalType":"uint256","name":"totalFees","type":"uint256"},{"internalType":"uint256","name":"successfulPayments","type":"uint256"},{"internalType":"uint256","name":"failedPayments","type":"uint256"},{"internalType":"uint256","name":"refundedPayments","type":"uint256"}],"stateMutability":"view","type":"function"},{"inputs":[{"internalType":"uint256","name":"date","type":"uint256"}],"name":"getDailyAveragePaymentAmount","outputs":[{"internalType":"uint256","name":"","type":"uint256"}],"stateMutability":"view","type":"function"},{"inputs":[{"internalType":"uint256","name":"date","type":"uint256"},{"internalType":"enum MonadPay.PaymentType","name":"paymentType","type":"uint8"}],"name":"getDailyPaymentTypeVolume","outputs":[{"internalType":"uint256","name":"","type":"uint256"}],"stateMutability":"view","type":"function"},{"inputs":[{"internalType":"uint256","name":"date","type":"uint256"}],"name":"getDailySuccessRate","outputs":[{"internalType":"uint256","name":"","type":"uint256"}],"stateMutability":"view","type":"function"},{"inputs":[{"internalType":"uint256","name":"date","type":"uint256"},{"internalType":"address","name":"token","type":"address"}],"name":"getDailyTokenVolume","outputs":[{"internalType":"uint256","name":"","type":"uint256"}],"stateMutability":"view","type":"function"},{"inputs":[{"internalType":"uint256","name":"escrowId","type":"uint256"}],"name":"getDisputeStatus","outputs":[{"internalType":"enum MonadPay.DisputeStatus","name":"","type":"uint8"}],"stateMutability":"view","type":"function"},{"inputs":[{"internalType":"uint256","name":"escrowId","type":"uint256"}],"name":"getEscrow","outputs":[{"components":[{"internalType":"address","name":"payer","type":"address"},{"internalType":"address","name":"recipient","type":"address"},{"internalType":"address","name":"arbiter","type":"address"},{"internalType":"uint256","name":"amount","type":"uint256"},{"internalType":"address","name":"token","type":"address"},{"internalType":"uint256","name":"deadline","type":"uint256"},{"internalType":"bool","name":"completed","type":"bool"},{"internalType":"bool","name":"disputed","type":"bool"},{"internalType":"bool","name":"released","type":"bool"},{"internalType":"string","name":"description","type":"string"},{"internalType":"uint256","name":"createdAt","type":"uint256"}],"internalType":"struct MonadPay.EscrowPayment","name":"","type":"tuple"}],"stateMutability":"view","type":"function"},{"inputs":[],"name":"getGlobalAnalytics","outputs":[{"internalType":"uint256","name":"totalPayments","type":"uint256"},{"internalType":"uint256","name":"totalVolume","type":"uint256"},{"internalType":"uint256","name":"totalFees","type":"uint256"},{"internalType":"uint256","name":"successfulPayments","type":"uint256"},{"internalType":"uint256","name":"failedPayments","type":"uint256"},{"internalType":"uint256","name":"refundedPayments","type":"uint256"}],"stateMutability":"view","type":"function"},{"inputs":[{"internalType":"uint256","name":"multiSigId","type":"uint256"}],"name":"getMultiSigPayment","outputs":[{"internalType":"address[]","name":"signers","type":"address[]"},{"internalType":"address","name":"recipient","type":"address"},{"internalType":"uint256","name":"amount","type":"uint256"},{"internalType":"address","name":"token","type":"address"},{"internalType":"uint256","name":"requiredSignatures","type":"uint256"},{"internalType":"uint256","name":"currentSignatures","type":"uint256"},{"internalType":"bool","name":"executed","type":"bool"},{"internalType":"string","name":"description","type":"string"},{"internalType":"uint256","name":"createdAt","type":"uint256"},{"internalType":"uint256","name":"deadline","type":"uint256"}],"stateMutability":"view","type":"function"},{"inputs":[{"internalType":"uint256","name":"nftPaymentId","type":"uint256"}],"name":"getNFTPayment","outputs":[{"internalType":"address","name":"payer","type":"address"},{"internalType":"address","name":"recipient","type":"address"},{"internalType":"address","name":"nftContract","type":"address"},{"internalType":"uint256","name":"tokenId","type":"uint256"},{"internalType":"uint256","name":"price","type":"uint256"},{"internalType":"address","name":"paymentToken","type":"address"},{"internalType":"bool","name":"executed","type":"bool"},{"internalType":"bool","name":"cancelled","type":"bool"},{"internalType":"string","name":"description","type":"string"},{"internalType":"uint256","name":"createdAt","type":"uint256"},{"internalType":"uint256","name":"deadline","type":"uint256"}],"stateMutability":"view","type":"function"},{"inputs":[{"internalType":"bytes32","name":"linkHash","type":"bytes32"}],"name":"getPayment","outputs":[{"components":[{"internalType":"address","name":"from","type":"address"},{"internalType":"address","name":"to","type":"address"},{"internalType":"uint256","name":"amount","type":"uint256"},{"internalType":"address","name":"token","type":"address"},{"internalType":"string","name":"label","type":"string"},{"internalType":"string","name":"message","type":"string"},{"internalType":"uint256","name":"timestamp","type":"uint256"},{"internalType":"bytes32","name":"linkHash","type":"bytes32"}],"internalType":"struct MonadPay.Payment","name":"","type":"tuple"}],"stateMutability":"view","type":"function"},{"inputs":[{"internalType":"enum MonadPay.PaymentType","name":"paymentType","type":"uint8"}],"name":"getPaymentTypeVolume","outputs":[{"internalType":"uint256","name":"","type":"uint256"}],"stateMutability":"view","type":"function"},{"inputs":[{"internalType":"uint256","name":"refundId","type":"uint256"}],"name":"getRefundRequest","outputs":[{"internalType":"uint256","name":"paymentId","type":"uint256"},{"internalType":"enum MonadPay.PaymentType","name":"paymentType","type":"uint8"},{"internalType":"address","name":"requester","type":"address"},{"internalType":"string","name":"reason","type":"string"},{"internalType":"bool","name":"approved","type":"bool"},{"internalType":"bool","name":"processed","type":"bool"},{"internalType":"uint256","name":"createdAt","type":"uint256"},{"internalType":"uint256","name":"processedAt","type":"uint256"},{"internalType":"address","name":"approver","type":"address"}],"stateMutability":"view","type":"function"},{"inputs":[{"internalType":"uint256","name":"splitId","type":"uint256"}],"name":"getSplitPayment","outputs":[{"internalType":"address","name":"payer","type":"address"},{"internalType":"uint256","name":"totalAmount","type":"uint256"},{"internalType":"address","name":"token","type":"address"},{"internalType":"bool","name":"executed","type":"bool"},{"internalType":"string","name":"description","type":"string"},{"internalType":"uint256","name":"createdAt","type":"uint256"},{"internalType":"uint256","name":"recipientCount","type":"uint256"}],"stateMutability":"view","type":"function"},{"inputs":[{"internalType":"uint256","name":"splitId","type":"uint256"}],"name":"getSplitRecipients","outputs":[{"components":[{"internalType":"address","name":"recipient","type":"address"},{"internalType":"uint256","name":"percentage","type":"uint256"}],"internalType":"struct MonadPay.SplitRecipient[]","name":"","type":"tuple[]"}],"stateMutability":"view","type":"function"},{"inputs":[],"name":"getSuccessRate","outputs":[{"internalType":"uint256","name":"","type":"uint256"}],"stateMutability":"view","type":"function"},{"inputs":[{"internalType":"address","name":"token","type":"address"}],"name":"getTokenVolume","outputs":[{"internalType":"uint256","name":"","type":"uint256"}],"stateMutability":"view","type":"function"},{"inputs":[{"internalType":"address","name":"user","type":"address"}],"name":"getUserAnalytics","outputs":[{"internalType":"uint256","name":"totalPayments","type":"uint256"},{"internalType":"uint256","name":"totalVolume","type":"uint256"},{"internalType":"uint256","name":"totalFees","type":"uint256"},{"internalType":"uint256","name":"successfulPayments","type":"uint256"},{"internalType":"uint256","name":"failedPayments","type":"uint256"},{"internalType":"uint256","name":"refundedPayments","type":"uint256"}],"stateMutability":"view","type":"function"},{"inputs":[{"internalType":"address","name":"user","type":"address"}],"name":"getUserAveragePaymentAmount","outputs":[{"internalType":"uint256","name":"","type":"uint256"}],"stateMutability":"view","type":"function"},{"inputs":[{"internalType":"address","name":"user","type":"address"},{"internalType":"enum MonadPay.PaymentType","name":"paymentType","type":"uint8"}],"name":"getUserPaymentTypeVolume","outputs":[{"internalType":"uint256","name":"","type":"uint256"}],"stateMutability":"view","type":"function"},{"inputs":[{"internalType":"address","name":"user","type":"address"}],"name":"getUserSuccessRate","outputs":[{"internalType":"uint256","name":"","type":"uint256"}],"stateMutability":"view","type":"function"},{"inputs":[{"internalType":"address","name":"user","type":"address"},{"internalType":"address","name":"token","type":"address"}],"name":"getUserTokenVolume","outputs":[{"internalType":"uint256","name":"","type":"uint256"}],"stateMutability":"view","type":"function"},{"inputs":[{"internalType":"uint256","name":"multiSigId","type":"uint256"},{"internalType":"address","name":"signer","type":"address"}],"name":"hasSignedMultiSig","outputs":[{"internalType":"bool","name":"","type":"bool"}],"stateMutability":"view","type":"function"},{"inputs":[{"internalType":"address","name":"contractAddress","type":"address"}],"name":"isContractWhitelisted","outputs":[{"internalType":"bool","name":"","type":"bool"}],"stateMutability":"view","type":"function"},{"inputs":[{"internalType":"bytes32","name":"linkHash","type":"bytes32"}],"name":"isLinkProcessed","outputs":[{"internalType":"bool","name":"","type":"bool"}],"stateMutability":"view","type":"function"},{"inputs":[],"name":"maxGasLimit","outputs":[{"internalType":"uint256","name":"","type":"uint256"}],"stateMutability":"view","type":"function"},{"inputs":[{"internalType":"uint256","name":"","type":"uint256"}],"name":"multiSigPayments","outputs":[{"internalType":"address","name":"recipient","type":"address"},{"internalType":"uint256","name":"amount","type":"uint256"},{"internalType":"address","name":"token","type":"address"},{"internalType":"uint256","name":"requiredSignatures","type":"uint256"},{"internalType":"uint256","name":"currentSignatures","type":"uint256"},{"internalType":"bool","name":"executed","type":"bool"},{"internalType":"string","name":"description","type":"string"},{"internalType":"uint256","name":"createdAt","type":"uint256"},{"internalType":"uint256","name":"deadline","type":"uint256"}],"stateMutability":"view","type":"function"},{"inputs":[],"name":"nextConditionalId","outputs":[{"internalType":"uint256","name":"","type":"uint256"}],"stateMutability":"view","type":"function"},{"inputs":[],"name":"nextCustomContractId","outputs":[{"internalType":"uint256","name":"","type":"uint256"}],"stateMutability":"view","type":"function"},{"inputs":[],"name":"nextEscrowId","outputs":[{"internalType":"uint256","name":"","type":"uint256"}],"stateMutability":"view","type":"function"},{"inputs":[],"name":"nextMultiSigId","outputs":[{"internalType":"uint256","name":"","type":"uint256"}],"stateMutability":"view","type":"function"},{"inputs":[],"name":"nextNFTId","outputs":[{"internalType":"uint256","name":"","type":"uint256"}],"stateMutability":"view","type":"function"},{"inputs":[],"name":"nextRefundId","outputs":[{"internalType":"uint256","name":"","type":"uint256"}],"stateMutability":"view","type":"function"},{"inputs":[],"name":"nextSplitId","outputs":[{"internalType":"uint256","name":"","type":"uint256"}],"stateMutability":"view","type":"function"},{"inputs":[],"name":"nextSubscriptionId","outputs":[{"internalType":"uint256","name":"","type":"uint256"}],"stateMutability":"view","type":"function"},{"inputs":[{"internalType":"uint256","name":"","type":"uint256"}],"name":"nftPayments","outputs":[{"internalType":"address","name":"payer","type":"address"},{"internalType":"address","name":"recipient","type":"address"},{"internalType":"address","name":"nftContract","type":"address"},{"internalType":"uint256","name":"tokenId","type":"uint256"},{"internalType":"uint256","name":"price","type":"uint256"},{"internalType":"address","name":"paymentToken","type":"address"},{"internalType":"bool","name":"executed","type":"bool"},{"internalType":"bool","name":"cancelled","type":"bool"},{"internalType":"string","name":"description","type":"string"},{"internalType":"uint256","name":"createdAt","type":"uint256"},{"internalType":"uint256","name":"deadline","type":"uint256"}],"stateMutability":"view","type":"function"},{"inputs":[],"name":"owner","outputs":[{"internalType":"address","name":"","type":"address"}],"stateMutability":"view","type":"function"},{"inputs":[{"internalType":"bytes32","name":"","type":"bytes32"}],"name":"payments","outputs":[{"internalType":"address","name":"from","type":"address"},{"internalType":"address","name":"to","type":"address"},{"internalType":"uint256","name":"amount","type":"uint256"},{"internalType":"address","name":"token","type":"address"},{"internalType":"string","name":"label","type":"string"},{"internalType":"string","name":"message","type":"string"},{"internalType":"uint256","name":"timestamp","type":"uint256"},{"internalType":"bytes32","name":"linkHash","type":"bytes32"}],"stateMutability":"view","type":"function"},{"inputs":[],"name":"platformFee","outputs":[{"internalType":"uint256","name":"","type":"uint256"}],"stateMutability":"view","type":"function"},{"inputs":[{"internalType":"address","name":"to","type":"address"},{"internalType":"uint256","name":"amount","type":"uint256"},{"internalType":"address","name":"token","type":"address"},{"internalType":"string","name":"label","type":"string"},{"internalType":"string","name":"message","type":"string"},{"internalType":"bytes32","name":"linkHash","type":"bytes32"}],"name":"processPaymentLink","outputs":[],"stateMutability":"payable","type":"function"},{"inputs":[{"internalType":"uint256","name":"refundId","type":"uint256"}],"name":"processRefund","outputs":[],"stateMutability":"nonpayable","type":"function"},{"inputs":[{"internalType":"bytes32","name":"","type":"bytes32"}],"name":"processedLinks","outputs":[{"internalType":"bool","name":"","type":"bool"}],"stateMutability":"view","type":"function"},{"inputs":[{"internalType":"uint256","name":"escrowId","type":"uint256"},{"internalType":"string","name":"reason","type":"string"}],"name":"raiseDispute","outputs":[],"stateMutability":"nonpayable","type":"function"},{"inputs":[{"internalType":"uint256","name":"","type":"uint256"}],"name":"refundDeadlines","outputs":[{"internalType":"uint256","name":"","type":"uint256"}],"stateMutability":"view","type":"function"},{"inputs":[{"internalType":"uint256","name":"escrowId","type":"uint256"}],"name":"refundEscrow","outputs":[],"stateMutability":"nonpayable","type":"function"},{"inputs":[{"internalType":"uint256","name":"","type":"uint256"}],"name":"refundRequests","outputs":[{"internalType":"uint256","name":"paymentId","type":"uint256"},{"internalType":"enum MonadPay.PaymentType","name":"paymentType","type":"uint8"},{"internalType":"address","name":"requester","type":"address"},{"internalType":"string","name":"reason","type":"string"},{"internalType":"bool","name":"approved","type":"bool"},{"internalType":"bool","name":"processed","type":"bool"},{"internalType":"uint256","name":"createdAt","type":"uint256"},{"internalType":"uint256","name":"processedAt","type":"uint256"},{"internalType":"address","name":"approver","type":"address"}],"stateMutability":"view","type":"function"},{"inputs":[{"internalType":"uint256","name":"escrowId","type":"uint256"}],"name":"releaseEscrow","outputs":[],"stateMutability":"nonpayable","type":"function"},{"inputs":[],"name":"renounceOwnership","outputs":[],"stateMutability":"nonpayable","type":"function"},{"inputs":[{"internalType":"uint256","name":"paymentId","type":"uint256"},{"internalType":"enum MonadPay.PaymentType","name":"paymentType","type":"uint8"},{"internalType":"string","name":"reason","type":"string"}],"name":"requestRefund","outputs":[{"internalType":"uint256","name":"","type":"uint256"}],"stateMutability":"nonpayable","type":"function"},{"inputs":[{"internalType":"uint256","name":"escrowId","type":"uint256"},{"internalType":"bool","name":"favorPayer","type":"bool"},{"internalType":"string","name":"resolution","type":"string"}],"name":"resolveDispute","outputs":[],"stateMutability":"nonpayable","type":"function"},{"inputs":[{"internalType":"uint256","name":"_maxGasLimit","type":"uint256"}],"name":"setMaxGasLimit","outputs":[],"stateMutability":"nonpayable","type":"function"},{"inputs":[{"internalType":"uint256","name":"multiSigId","type":"uint256"}],"name":"signMultiSigPayment","outputs":[],"stateMutability":"nonpayable","type":"function"},{"inputs":[{"internalType":"uint256","name":"","type":"uint256"}],"name":"splitPayments","outputs":[{"internalType":"address","name":"payer","type":"address"},{"internalType":"uint256","name":"totalAmount","type":"uint256"},{"internalType":"address","name":"token","type":"address"},{"internalType":"bool","name":"executed","type":"bool"},{"internalType":"string","name":"description","type":"string"},{"internalType":"uint256","name":"createdAt","type":"uint256"}],"stateMutability":"view","type":"function"},{"inputs":[{"internalType":"uint256","name":"","type":"uint256"}],"name":"subscriptions","outputs":[{"internalType":"address","name":"subscriber","type":"address"},{"internalType":"address","name":"recipient","type":"address"},{"internalType":"uint256","name":"amount","type":"uint256"},{"internalType":"address","name":"token","type":"address"},{"internalType":"uint256","name":"interval","type":"uint256"},{"internalType":"uint256","name":"lastPayment","type":"uint256"},{"internalType":"bool","name":"active","type":"bool"}],"stateMutability":"view","type":"function"},{"inputs":[{"internalType":"address","name":"newOwner","type":"address"}],"name":"transferOwnership","outputs":[],"stateMutability":"nonpayable","type":"function"},{"inputs":[{"internalType":"uint256","name":"_escrowFee","type":"uint256"}],"name":"updateEscrowFee","outputs":[],"stateMutability":"nonpayable","type":"function"},{"inputs":[{"internalType":"address","name":"_feeRecipient","type":"address"}],"name":"updateFeeRecipient","outputs":[],"stateMutability":"nonpayable","type":"function"},{"inputs":[{"internalType":"uint256","name":"_platformFee","type":"uint256"}],"name":"updatePlatformFee","outputs":[],"stateMutability":"nonpayable","type":"function"},{"inputs":[{"internalType":"address","name":"","type":"address"}],"name":"userAnalytics","outputs":[{"internalType":"uint256","name":"totalPayments","type":"uint256"},{"internalType":"uint256","name":"totalVolume","type":"uint256"},{"internalType":"uint256","name":"totalFees","type":"uint256"},{"internalType":"uint256","name":"successfulPayments","type":"uint256"},{"internalType":"uint256","name":"failedPayments","type":"uint256"},{"internalType":"uint256","name":"refundedPayments","type":"uint256"}],"stateMutability":"view","type":"function"},{"inputs":[{"internalType":"address","name":"contractAddress","type":"address"},{"internalType":"bool","name":"whitelisted","type":"bool"}],"name":"whitelistContract","outputs":[],"stateMutability":"nonpayable","type":"function"},{"inputs":[{"internalType":"address","name":"","type":"address"}],"name":"whitelistedContracts","outputs":[{"internalType":"bool","name":"","type":"bool"}],"stateMutability":"view","type":"function"},{"stateMutability":"payable","type":"receive"}],"evm":{"bytecode":{"linkReferences":{},"object":"6080346200010357601f620089c438819003918201601f19168301916001600160401b0383118484101762000108578084926020946040528339810103126200010357516001600160a01b03908181169081900362000103576001806000553315620000ea578054336001600160a01b03198083168217845560405195909392167f8be0079c531659141344cd1fd0a4f28419497f9722a3daafe3b4186f6b6457e0600080a380600a5580600b5580600c5580600d5580600e5580601055806012556207a1206014556016556019602455603260255560265416176026556188a590816200011f8239f35b604051631e4fbdf760e01b815260006004820152602490fd5b600080fd5b634e487b7160e01b600052604160045260246000fdfe6080604052600436101561001b575b361561001957600080fd5b005b6000803560e01c8062952898146170fb57806305785ad4146170e0578063060158bf14616adb5780630716326d14616a2b57806309242309146169e45780630aadf797146169c55780630abfbb75146169505780630db6cd7a14616932578063139136a81461691457806314f46451146167a057806316f4d4d91461626b5780631776834a14616209578063180baa661461602257806320f7aa3f146143195780632123508314615fa65780632225a2e714615f1257806324597c5c14615dca578063256fcf7f14615dab57806326232a2e14615d8d5780632840662d14615a005780632d5a4b211461591b5780632d5bbf601461589d57806331c531c614615316578063326bcfd414615045578063348a71a614614f6857806334e9045514614dcb578063356f9dfd14614c24578063391feebb146117b35780633bba87d3146146dd5780633d2098d9146146ac5780634102b1fb146143c8578063432741b114614394578063469048401461436b5780634f38a8541461434c578063564a565d1461431957806356a0457a146142f157806358a830e014613f4657806359a3159a146138d45780635aef573c146137925780635e45da23146137745780636041cae9146137565780636355c83c14613330578063648d3f4f14612f0057806364bbe51a1461330c5780636a5b428b146132ee578063715018a6146132a3578063778163de14613255578063781cebfa14611d125780637ba982a0146131815780637d19e59614612fc65780637d974ade14612f4d57806380d5ac8a146107ea578063814781be14612f00578063839c8a3f14612ee25780638598bcc4146116a957806385e16dc81461292057806385ec97d6146128b1578063879909d01461286557806389cb29dd146128475780638da5cb5b1461281e578063921db0761461275257806394e00a33146126a45780639d2c10be146123315780639f2789cc1461230d5780639fbdef02146122635780639fde501614611e31578063a672990c14611d72578063aa0b598814611d41578063ac44eef114611d12578063b7cc8b6d14611c8a578063b882bacb14611c02578063badfdca014611be3578063bdd29ee814611a4c578063beff5702146117f2578063c057058a146117b3578063c3721d1d14611704578063c800adaf146116a9578063c909adc01461168b578063cbfb5a6a14611633578063cd39d2d6146115ab578063cf979ed014611588578063d0ebfee614611559578063d59fd900146114bc578063d7b4be0d14611412578063da58935f146113f4578063dac87ca414611267578063dccce94e146111dc578063df04abab146111be578063e614a1a414610cdf578063e66eefc814610b99578063e9ce65fe14610b70578063ed65316414610916578063f160d36914610897578063f2fde38b1461081f578063f3c1c3be146107ea578063f57892d5146107b1578063f67dc95f14610787578063f7a37324146104f75763fa56d0aa14610467575061000e565b346104f45760203660031901126104f457604090600435815260086020522060018060a01b036104f0818354169282600182015416926002820154936003830154916004840154906005850154916104c66006600788015497016174bf565b94604051998a9960ff8660a81c16968560ff8860a01c1697169560ff8560a01c169416928c6177fe565b0390f35b80fd5b50346104f45760208060031936011261078357600435610515617a59565b808352600882526040832060058101805461053660ff8260a01c1615617c19565b61054660ff8260a81c1615617cf7565b61054f84617d7f565b1561074a5760ff60a01b1916600160a01b17905560028101805460245491949186906127109061057f908461792a565b04600385019260018060a01b0393858582541680156000146106375750505050818080808660018a0154168b549082821561062e575bf11561062157801580156105ed575b5050506001600080516020618710833981519152935b0154169354604051908152a36001815580f35b82809281928660265416908390610618575bf11561060d578538806105c4565b6040513d87823e3d90fd5b506108fc6105ff565b50604051903d90823e3d90fd5b506108fc6105b5565b600189015460405163a9059cbb60e01b8082529697949590948593928492839161066791908d1660048401617bfe565b03925af1801561073f57610722575b5082610697575b5050506001600080516020618710833981519152936105da565b918491846106bf97945416908a866026541691604051998a9586948593845260048401617bfe565b03925af190811561071757600080516020618710833981519152946001926106ea575b81955061067d565b61070990853d8711610710575b6107018183617400565b810190617980565b50386106e2565b503d6106f7565b6040513d89823e3d90fd5b61073890863d8811610710576107018183617400565b5038610676565b6040513d8c823e3d90fd5b60405162461bcd60e51b815260048101869052601160248201527010dbdb991a5d1a5bdb881b9bdd081b595d607a1b6044820152606490fd5b5080fd5b50346104f45760203660031901126104f45760406020916004358152601883522054604051908152f35b50346104f45760203660031901126104f4576020906040906001600160a01b036107d96172ef565b168152601f83522054604051908152f35b50346104f457806003193601126104f457601954601a54906104f0601b54601c54601d5490601e5492604051968796876176c1565b50346104f45760203660031901126104f4576108396172ef565b610841617870565b6001600160a01b0390811690811561087e57600180546001600160a01b031981168417909155166000805160206187d0833981519152600080a380f35b604051631e4fbdf760e01b815260048101849052602490fd5b50346104f45760203660031901126104f4576108b16172ef565b6108b9617870565b6001600160a01b031680156108df57602680546001600160a01b03191691909117905580f35b60405162461bcd60e51b815260206004820152600f60248201526e496e76616c6964206164647265737360881b6044820152606490fd5b50346104f45760208060031936011261078357600435610934617a59565b8083526005825260408320600681019283549361095460ff861615617b7a565b60ff8560081c16610b365782546001600160a01b03956201000191871633148015610b27575b61098390617bc1565b62ff00ff191617905560038201938585546127106109a36025548361792a565b04906004860185858254168015600014610a3a5750505050818080808660018a0154168b5490828215610a31575bf1156106215780158015610a08575b5050506001600080516020618770833981519152930154169354604051908152a36001815580f35b82809281928660265416908390610a28575bf11561060d578538806109e0565b506108fc610a1a565b506108fc6109d1565b600189015460405163a9059cbb60e01b80825296979495909485939284928391610a6a91908d1660048401617bfe565b03925af1801561073f57610b0a575b5082610a9a575b5050506001600080516020618770833981519152936105da565b91849184610ac297945416908a866026541691604051998a9586948593845260048401617bfe565b03925af19081156107175760008051602061877083398151915294600192610aed575b819550610a80565b610b0390853d8711610710576107018183617400565b5038610ae5565b610b2090863d8811610710576107018183617400565b5038610a79565b5060028501548716331461097a565b60405162461bcd60e51b8152600481018390526012602482015271115cd8dc9bddc81a5cc8191a5cdc1d5d195960721b6044820152606490fd5b50346104f45760203660031901126104f4576020610b8f600435617d7f565b6040519015158152f35b50346104f457602090816003193601126104f4578060409160e08351610bbe816173c8565b8281528286820152828582015282606082015260606080820152606060a08201528260c08201520152600435815260028352209060405191610bff836173c8565b80546001600160a01b0390811684526001820154811683850190815260028301546040860190815260038401548316606087019081529092610ccf9190610c48600487016174bf565b9160808901928352610c5c600588016174bf565b9560a08a0196875282600760068a01549960c08d019a8b5201549660e08c019788528a826040519d8e9d8e525116908c0152511660408a0152516060890152511660808701525192610cbc610100948560a0890152610120880190617588565b9051868203601f190160c0880152617588565b925160e085015251908301520390f35b50346104f45760203660031901126104f457610cf9617a59565b6004358152600f60205260408120600581018054610d1d60ff8260a01c1615617c19565b610d2d60ff8260a81c1615617cf7565b610d3d6008840154421115617c60565b600283019260018060a01b03845416926003820192835490604051916331a9108f60e11b83528060048401526020836024818a5afa92831561103257899361119d575b5060018501805490976001600160a01b03918216949091168490036111595760405163e985e9c560e01b815260208180610dbe308960048401617e35565b0381855afa90811561112f578b9161113a575b5080156110c3575b156110705760ff60a01b19909216600160a01b17845584548992906001600160a01b0316813b1561106c5783610e2695604051968795869485936323b872dd60e01b855260048501617998565b03925af180156107175761103d575b5085906004830154612710610e4c6024548361792a565b835491900492906001600160a01b031680610f20575050855483918291829182916001600160a01b0316828215610f17575bf1156106215780158015610edb575b505050610ed16000805160206187b0833981519152915b549354945492546040516001600160a01b0396871696958616956004359591938493909290911683617bfe565b0390a46001815580f35b6026548392839283926001600160a01b0316908390610f0e575bf115610f0357843880610e8d565b6040513d86823e3d90fd5b506108fc610ef5565b506108fc610e7e565b875460405163a9059cbb60e01b808252959693949093602093859390928492918391610f58916001600160a01b031660048401617bfe565b03925af1801561103257611013575b5082610f89575b505050610ed16000805160206187b083398151915291610ea4565b5460265460405192835291939260209285926001600160a01b039081169284928c928492610fbd9290911660048401617bfe565b03925af1908115611008576000805160206187b083398151915292610ed192610fe9575b819350610f6e565b6110019060203d602011610710576107018183617400565b5038610fe1565b6040513d88823e3d90fd5b61102b9060203d602011610710576107018183617400565b5038610f67565b6040513d8b823e3d90fd5b9095906001600160401b038111611058576040529438610e35565b634e487b7160e01b82526041600452602482fd5b8380fd5b60405162461bcd60e51b815260206004820152602560248201527f436f6e7472616374206e6f7420617070726f76656420746f207472616e7366656044820152641c8813919560da1b6064820152608490fd5b5060405163020604bf60e21b815260048101839052602081602481855afa90811561112f578b91611100575b506001600160a01b03163014610dd9565b611122915060203d602011611128575b61111a8183617400565b810190617e16565b386110ef565b503d611110565b6040513d8d823e3d90fd5b611153915060203d602011610710576107018183617400565b38610dd1565b606460405162461bcd60e51b815260206004820152602060248201527f4e4654206e6f206c6f6e676572206f776e656420627920726563697069656e746044820152fd5b6111b791935060203d6020116111285761111a8183617400565b9138610d80565b50346104f457806003193601126104f4576020600e54604051908152f35b50346104f45760203660031901126104f457604090600435815260086020522060018060a01b03906104f082825416928060018401541692600281015493600382015492600483015490600584015491600761123a600687016174bf565b95015495604051998a9960ff8660a81c16968560ff8860a01c1697169560ff8560a01c169416928c6177fe565b50346104f457602090816003193601126104f45760043591611287617a59565b828252601581526040822092600384019384549460ff8616156113b957610100866112b960ff889960081c161561802c565b61ff0019161790554260058201556112da815460ff600184015416906182b0565b6001600160a01b0380841697929693879289929091906112fb841515618073565b84159261130884156180ba565b16908161134e5750508390611345575b839283928392f11561060d57600080516020618810833981519152915b5493604051908152a46001815580f35b506108fc611318565b90915085939250611376969460405180988195829463a9059cbb60e01b845260048401617bfe565b03925af1928315610717576000805160206188108339815191529361139c575b50611335565b6113b290833d8511610710576107018183617400565b5038611396565b60405162461bcd60e51b81526004810185905260136024820152721499599d5b99081b9bdd08185c1c1c9bdd9959606a1b6044820152606490fd5b50346104f457806003193601126104f4576020600a54604051908152f35b50346104f45760203660031901126104f457604090600435815260116020522060018060a01b03906104f08282541692806001840154169260028101549482600383015416926004830154169061146b600584016174bf565b90611478600685016174bf565b60ff600786015416600886015491600987015494611498600a89016174bf565b96600c600b8a0154990154996040519d8e9d8e9860ff808c60081c169b16996176e9565b50346104f45760403660031901126104f4576040602435916004358152600960205220906001820191825482101561151a57602092600161150861271094600261151195015493617dfa565b5001549061792a565b04604051908152f35b60405162461bcd60e51b8152602060048201526017602482015276092dcecc2d8d2c840e4cac6d2e0d2cadce840d2dcc8caf604b1b6044820152606490fd5b50346104f45760203660031901126104f45760ff60406020926004358152601784522054166040519015158152f35b50346104f457806003193601126104f45760206115a36185a0565b604051908152f35b50346104f45760203660031901126104f4576040906004358152600f6020522060018060a01b03906104f0828254169280600184015416928160028201541694600382015492600483015491600584015490611609600686016174bf565b9360086007870154960154966040519a8b9a60ff8660a81c169660ff8760a01c169616948c617783565b50346104f45760403660031901126104f45761164d6172ef565b602435906007821015611687576001600160a01b0316825260236020908152604090922061167e91906008016184d7565b54604051908152f35b8280fd5b50346104f457806003193601126104f4576020601054604051908152f35b50346104f45760203660031901126104f4576040906001600160a01b036116ce6172ef565b16815260236020522080546104f060018301549260028101549060038101546005600483015492015492604051968796876176c1565b50346104f45760a03660031901126104f45761171e6172ef565b611726617305565b606435929091906001600160401b0384116104f457506117a86088611751602095369060040161743e565b926040519384918783019660018060601b0319809260601b168852602435603485015260601b1660548301526117908151809289606886019101617565565b81016084356068820152036068810184520182617400565b519020604051908152f35b50346104f45760203660031901126104f45760209060ff906040906001600160a01b036117de6172ef565b168152601384522054166040519015158152f35b50346104f45760603660031901126104f4576024356004356007821015611687576001600160401b0390604435828111611a485761183490369060040161743e565b91825115611a11576118473385846180fe565b156119cd576016549361185985617a7c565b6016558486526015602090815260408720848155600180820180546001600160a81b03191660ff8616173360081b610100600160a81b03161790558651929890949192600284019290919082116119b9579082916118c4826118be8c98979654617485565b85617a14565b8a90601f8311600114611949576000805160206188308339815191529697839283929361193e575b501b916000199060031b1c19161790555b6003810161ffff19815416905560044291015561191d60405180926175ad565b6040878201528061193333966040830190617588565b0390a4604051908152f35b8b01519250386118ec565b8381528b8120601f19841698939290915b8d8c8b83106119a3575050508260008051602061883083398151915298991061198a575b5050811b0190556118fd565b8a015160001960f88460031b161c19169055388061197e565b83015184558d995092850192918201910161195a565b634e487b7160e01b81526041600452602490fd5b606460405162461bcd60e51b815260206004820152602060248201527f4e6f7420617574686f72697a656420746f207265717565737420726566756e646044820152fd5b60405162461bcd60e51b815260206004820152600f60248201526e1499585cdbdb881c995c5d5a5c9959608a1b6044820152606490fd5b8480fd5b50346104f457602090816003193601126104f457600435611a6b617a59565b808252600883526040822080546001600160a01b039081169133839003611ba6578495600582969596018054611aa760ff8260a01c1615617c19565b611ab760ff8260a81c1615617d37565b60ff60a81b1916600160a81b1790556002820154602454611ae8919061271090611ae1908361792a565b0490617ab5565b9383600384015416908115600014611b4a575050508392839283925416828215611b41575bf115610621575b33907f2097c18cc603395dcc2830c81099f82d472042301ab0f2941cbe36cd2a8079c08380a36001815580f35b506108fc611b0d565b909195869450611b7295935060405180968195829463a9059cbb60e01b845260048401617bfe565b03925af18015610f0357611b88575b5050611b14565b81611b9e92903d10610710576107018183617400565b503880611b81565b60405162461bcd60e51b815260048101879052601560248201527413db9b1e481c185e595c8818d85b8818d85b98d95b605a1b6044820152606490fd5b50346104f45760203660031901126104f4576020610b8f6004356186ca565b50346104f45760203660031901126104f457604090600435815260096020522060018060a01b038082541690611c8060028401549360ff60038201546005611c4c600485016174bf565b93015494604051978897885260208801528116604087015260a01c161515606085015260c0608085015260c0840190617588565b9060a08301520390f35b50346104f45760203660031901126104f4576040906004358152600f6020522060018060a01b03906104f0828254169183600182015416928460028301541694600383015490600484015492600585015490600786015494611cf36006600889015498016174bf565b946040519a8b9a60ff8660a81c169660ff8760a01c169616948c617783565b50346104f45760203660031901126104f45760ff60406020926004358152600384522054166040519015158152f35b50346104f45760203660031901126104f457600435611d5e617870565b611d6c6103e8821115617ac2565b60245580f35b50346104f45760403660031901126104f457611d8c6172ef565b611d94617388565b90611d9d617870565b6001600160a01b0316908115611df15760207f46fe0810a41e3dbf985c77c9f30207ce6eda91dcba24d8de583b6ea30ac16f009183855260138252611de58160408720617919565b6040519015158152a280f35b60405162461bcd60e51b8152602060048201526018602482015277496e76616c696420636f6e7472616374206164647265737360401b6044820152606490fd5b5060c03660031901126104f457611e466172ef565b611e4e617331565b90611e5761731b565b9260a4356001600160401b03811161078357611e7790369060040161743e565b92611e80617a59565b611e946001600160a01b038416151561789c565b611ea86001600160a01b0382161515617afd565b611eb560443515156178dc565b611ec24260843511617b3b565b6001600160a01b0381163314158061224d575b611ede90617afd565b600b5492611eeb84617a7c565b600b5582611f0c612710611f0360255460443561792a565b04604435617ab5565b6001600160a01b0388166121ea57611f26813410156179ba565b8034116121b2575b50505b60405194611f3e866173e4565b3386526001600160a01b0382811660208089019182528583166040808b0191825260443560608c019081528c861660808d0190815260843560a08e0190815260c08e018c815260e08f018d90526101008f018d90526101208f0199909952426101408f01528c8c52600595869052928b208d5181549089166001600160a01b03199182161782559651600182018054918a1691891691909117905593516002850180549189169188169190911790559051600384015551600483018054919096169416939093179093559051908201559051909690600688019061202490151582617919565b60e08701511515815461ff0062ff00006101008b0151151560101b169260081b169062ffff0019161717905561012086015196875160018060401b03811161219e576020986120838261207a6007860154617485565b60078601617a14565b8990601f831160011461212b5798826008936101409360019b9c8b92612120575b5050600019600383901b1c1916908a1b1760078501555b015191015560405192858060a01b0316835260443587840152848060a01b031660408301526084356060830152838060a01b031690847fa89651b7914f6ff550f9788ccdc8f1afb167e1013270d5c591aa8b8f95afbb8460803393a455604051908152f35b0151905038806120a4565b906007840188528a882091885b601f19851681106121875750836101409360019b9c938c93600897601f1981161061216e575b505050811b0160078501556120bb565b015160001960f88460031b161c1916905538808061215e565b91928c600181928685015181550194019201612138565b634e487b7160e01b86526041600452602486fd5b81806121bf819334617973565b8181156121e1575b3390f1156121d6578238611f2e565b6040513d84823e3d90fd5b506108fc6121c7565b6040516323b872dd60e01b815291506020908290819061220f90303360048501617998565b0381876001600160a01b038c165af18015610f035761222f575b50611f31565b6122469060203d8111610710576107018183617400565b5038612229565b506001600160a01b038181169084161415611ed5565b50346104f45760203660031901126104f457604090600435815260116020522060018060a01b03906104f082825416836001840154169260028101549480600383015416906004830154169260ff600784015416906008840154600985015492600b86015495600c810154976122db600583016174bf565b906122f4600a6122ed600686016174bf565b94016174bf565b976040519d8e9d8e9860ff808c60081c169b16996176e9565b50346104f45760203660031901126104f45760206115a361232c6172ef565b6185da565b50346104f457602080600319360112610783576004359081835260078152604083209161236560ff60078501541615617c19565b612375600a840154421115617c60565b600683019233855283835260ff60408620541661266e5780549385805b86811061262d575b506123a9919293949550617cb6565b3385528352604084209060ff1991600183825416179055600460058201916123d18354617a7c565b8093550154906040518181528286820152847fec50fd9ae03362c2e5c58b8a16b6cdd5bf4185c209637034c767159c7717fd6860403393a31015612413578380f35b8184526007835260408420906007820190815461243360ff821615617c19565b60058401546004850154116125ee57906001911617905560028101928354856127106124616024548461792a565b04600385019260018060a01b0393858582541680156000146125015750505050818080808660018a0154168b54908282156124f8575bf11561062157801580156124cf575b5050506001600080516020618730833981519152935b0154169354604051908152a33880808380f35b828092819286602654169083906124ef575bf11561060d578538806124a6565b506108fc6124e1565b506108fc612497565b600189015460405163a9059cbb60e01b8082529697949590948593928492839161253191908d1660048401617bfe565b03925af1801561073f576125d1575b5082612561575b5050506001600080516020618730833981519152936124bc565b9184918461258997945416908a866026541691604051998a9586948593845260048401617bfe565b03925af190811561071757600080516020618730833981519152946001926125b4575b819550612547565b6125ca90853d8711610710576107018183617400565b50386125ac565b6125e790863d8811610710576107018183617400565b5038612540565b60405162461bcd60e51b8152600481018790526017602482015276496e73756666696369656e74207369676e61747572657360481b6044820152606490fd5b6126378185617c9e565b905460039190911b1c6001600160a01b0316331461265d5761265890617a7c565b612392565b5093945084935060016123a961239a565b60405162461bcd60e51b815260048101849052600e60248201526d105b1c9958591e481cda59db995960921b6044820152606490fd5b50346104f45760203660031901126104f457604090600435815260076020522060018060a01b039081600182015416906002810154926003820154166127426004830154600584015460ff60078601541690612702600887016174bf565b92600a600988015497015495604051998a998a5260208a0152604089015260608801526080870152151560a08601526101208060c0870152850190617588565b9160e08401526101008301520390f35b50346104f45760203660031901126104f457604090600435815260056020522060018060a01b038082541690612813816001850154169360ff836002830154169360038301549060048401541660058401549060068501549260086127b9600788016174bf565b960154976040519a8b9a8b5260208b015260408a01526060890152608088015260a0870152818116151560c0870152818160081c16151560e087015260101c16151561010085015261016080610120860152840190617588565b906101408301520390f35b50346104f457806003193601126104f4576001546040516001600160a01b039091168152602090f35b50346104f457806003193601126104f4576020600b54604051908152f35b50346104f45760403660031901126104f45760ff6040602092612886617331565b6004358252600785528282206001600160a01b03909116825260060184522054604051911615158152f35b50346104f45760603660031901126104f4576004356024356007811015611687576128fd90604435926128ed6128e83384846183ae565b617bc1565b6128f8428511617b3b565b618435565b8252601760205260408220600160ff198254161790556018602052604082205580f35b5060e03660031901126104f4576129356172ef565b9061293e617305565b906064906005823510156104f45760a435916001600160a01b03831683036107835760c4356001600160401b0381116116875761297f90369060040161743e565b612987617a59565b61299b6001600160a01b038716151561789c565b6129a860243515156178dc565b60843515612ea5578293823515600014612d90574260843510612d52575b600d54946129d386617a7c565b600d55846129f46127106129eb60245460243561792a565b04602435617ab5565b6001600160a01b038916612cef57612a0e813410156179ba565b803411612cc2575b50505b60405196612a26886173e4565b3388526001600160a01b0389811660208a015260243560408a0152166060880152612cae5782356080870190815260843560a08801526001600160a01b0391821660c088015260e08701859052610100870185905261012087019290925242610140870152848452600860209081526040808620885181549085166001600160a01b03199182161782559289015160018201805491861691909416179092558701516002820155606087015160038201805494519299949293909291166005841015612c9a576001600160a81b03199091161760a092831b60ff60a01b9081169190911790915586820151600489015560c087015160058901805460e08a01516101008b01516001600160b01b03199092166001600160a01b03949094169390931792151590941b9092161791151560a81b60ff60a81b16919091179055610120850151805190969060068201906001600160401b03811161219e57602098612b93826118be8554617485565b8990601f8311600114612c2f5792826101409360019a9b936007968b92612c24575b5050600019600383901b1c1916908a1b1790555b0151910155612be460405192602435845287840190356177f1565b6084356040830152838060a01b031690847f55a813c3285f7e2147f6a7bc9ea9f8046f44775356663ae289ea3c19cf7e6c5a60603393a455604051908152f35b015190503880612bb5565b8388528a88209190601f198416895b818110612c8357509360019a9b93600796938c93836101409810612c6a575b505050811b019055612bc9565b015160001960f88460031b161c19169055388080612c5d565b92938d600181928786015181550195019301612c3e565b634e487b7160e01b87526021600452602487fd5b634e487b7160e01b84526021600452602484fd5b8180612ccf819334617973565b818115612ce6575b3390f115610f03578438612a16565b506108fc612cd7565b6040516323b872dd60e01b8152915060209082908190612d1490303360048501617998565b0381896001600160a01b038d165af1801561100857612d34575b50612a19565b612d4b9060203d8111610710576107018183617400565b5038612d2e565b60405162461bcd60e51b815260206004820152601760248201527644656c6179206d75737420626520696e2066757475726560481b60448201528390fd5b935082936001833514600014612df157426084351115612db0575b6129c6565b60405162461bcd60e51b815260206004820152601a6024820152795363686564756c65206d75737420626520696e2066757475726560301b60448201528390fd5b935082936002833514600014612e4b576001600160a01b0381166129c65760405162461bcd60e51b8152602060048201526015602482015274141c9a58d9481bdc9858db19481c995c5d5a5c9959605a1b60448201528390fd5b935082936003833503612dab574360843511612dab5760405162461bcd60e51b815260206004820152601e60248201527f426c6f636b206e756d626572206d75737420626520696e20667574757265000060448201528390fd5b5060405162461bcd60e51b8152602060048201526017602482015276496e76616c696420636f6e646974696f6e2076616c756560481b6044820152fd5b50346104f457806003193601126104f4576020600c54604051908152f35b50346104f45760203660031901126104f457604090600435815260226020522080546104f060018301549260028101549060038101546005600483015492015492604051968796876176c1565b50346104f45760203660031901126104f457604090600435815260156020522080546104f0600183015492612f84600282016174bf565b906003810154600482015490600660058401549360018060a01b039182910154169460405198899860ff80808760081c169616948360081c169216908a6175d0565b50346104f45760203660031901126104f457806040916101408351612fea816173e4565b82815282602082015282858201528260608201528260808201528260a08201528260c08201528260e082015282610100820152606061012082015201526004358152600560205220600860405191613041836173e4565b80546001600160a01b039081168452600182015481166020850152600282015481166040850152600382015460608501526004820154166080840152600581015460a0840152600681015460ff818116151560c086015281841c8116151560e086015260109190911c1615156101008401526130bf600782016174bf565b610120840152015461014082015260405180916020825260018060a01b03815116602083015260018060a01b03602082015116604083015260018060a01b0360408201511660608301526060810151608083015260018060a01b0360808201511660a083015260a081015160c083015260c0810151151560e083015260e081015115156101008301526101008101511515610120830152610120810151610140613176610160928383870152610180860190617588565b920151908301520390f35b50346104f45760203660031901126104f45760043561319e617a59565b80825260116020526040822061010060098201916131fb8354916131c560ff841615617c19565b6131d560ff8460081c1615617d37565b8054336001600160a01b039182161491908215613247575b508115613239575b50617e4f565b61ff00191617905561320c81618609565b33907fbef45b5c4fdb463d6596771970adc0a4aece4e3bcdc4b8204403f09998f1d1458380a36001815580f35b600c915001544211386131f5565b6001541633149150386131ed565b50346104f45760403660031901126104f45760406020916132746172ef565b61327c617331565b6001600160a01b039182168352602385528383209116825260060183522054604051908152f35b50346104f457806003193601126104f4576132bc617870565b600180546001600160a01b0319811690915581906001600160a01b03166000805160206187d08339815191528280a380f35b50346104f457806003193601126104f4576020602554604051908152f35b50346104f45760203660031901126104f45760206115a361332b6172ef565b61855e565b5060e03660031901126104f4576133456172ef565b9061334e617331565b6001600160a01b039260443592608435858116939192906064359085900361106c576001600160401b039560a4358781116137525761339190369060040161743e565b92888060c435926133a0617a59565b16956133ad87151561789c565b169384156137165783156136e1576133c6428311617b3b565b6040516331a9108f60e11b81526004810184905260209a908b816024818a5afa8991816136c2575b506134265760405162461bcd60e51b8152600481018d9052600b60248201526a125b9d985b1a590813919560aa1b6044820152606490fd5b16869003613680576010549861343b8a617a7c565b601055876134586127106134516024548961792a565b0487617ab5565b8c8b8061362b57505061346d813410156179ba565b8034116135fe575b50505b898852600f8b526040882080546001600160a01b0319908116331782556001808301805483168b179055600283018054909216891790915560038201869055600482018790556005820180546001600160b01b031916909b17909a558251909160068301919081116135ea576134f8816134f28454617485565b84617a14565b8c8d601f8311600114613578575081906008958c9261356d575b5050600019600383901b1c1916908b1b1790555b4260078201550155604051928352878301526040820152847ffb699d62cfee2c3015efc1d5ac18caafad1715342d8beddf22647b816ec8f47960603393a455604051908152f35b015190503880613512565b838c52808c208d93929091601f198416908e905b8282106135c65750509683600898106135ad575b505050811b019055613526565b015160001960f88460031b161c191690553880806135a0565b83968a958294958394989a9b9c0151815501960194018f959398979694929161358c565b634e487b7160e01b8a52604160045260248afd5b818061360b819334617973565b818115613622575b3390f115610717578738613475565b506108fc613613565b61364e91926040519485809481936323b872dd60e01b8352303360048501617998565b03925af1801561103257613663575b50613478565b613679908c8d3d10610710576107018183617400565b503861365d565b60405162461bcd60e51b8152600481018b9052601a602482015279139195081b9bdd081bdddb995908189e481c9958da5c1a595b9d60321b6044820152606490fd5b6136da9192508d803d106111285761111a8183617400565b90386133ee565b60405162461bcd60e51b815260206004820152600d60248201526c496e76616c696420707269636560981b6044820152606490fd5b60405162461bcd60e51b8152602060048201526014602482015273125b9d985b1a59081391950818dbdb9d1c9858dd60621b6044820152606490fd5b8580fd5b50346104f457806003193601126104f4576020600d54604051908152f35b50346104f457806003193601126104f4576020601454604051908152f35b50346104f45760403660031901126104f4576004356024356001600160401b038111611687576137c690369060040161743e565b5080825260056020526040822060068101906138098254916137eb60ff841615617b7a565b8054336001600160a01b03918216149182156138c3575b5050617bc1565b828452600660205260ff60408520541660048110156138af576138715761ff001916610100179055808252600660205260408220805460ff1916600117905533907f84a477df8a28a4276ca6dee4458a06c3015f30c477d9c949ede4e13ff8a552b48380a380f35b60405162461bcd60e51b8152602060048201526016602482015275111a5cdc1d5d1948185b1c9958591e481c985a5cd95960521b6044820152606490fd5b634e487b7160e01b85526021600452602485fd5b600191925001541633143880613802565b50346104f45760203660031901126104f4576138ee617a59565b600435815260116020526040812061391c60ff600983015461391282821615617c19565b60081c1615617cf7565b61392c600c820154421115617c60565b60018060a01b03600482015416826008830154916040519082600586015461395381617485565b9060018116908115613f315750600114613efa575b50829184959385920393f13d15613ef257803d61398481617423565b906139926040519283617400565b81523d85602083013e5b60ff60078501541680613eeb575b613e86575b50613a37575b60018060a01b0382541660018060a01b0360018401541691600260018060a01b0360048601541694015460405194855260208501521592831560408201527f1a693c2a5913be77e48f46e055f0995c89b023ed0b868e3e5501a7d1e4769394606060043592a4613a27575b6001815580f35b613a32600435618609565b613a20565b826002830154612710613a4c6024548361792a565b600386015491900491906001600160a01b031680613da95750508180808060018060a01b03600189015416600289015490828215613da0575bf115610621578015908115613d70575b5050505b60098201805460ff191660011790558154600283015460038401546024546001600160a01b039384169391909116919061271090613ad7908361792a565b0462015180420493613aea601954617a7c565b601955613af8601c54617a7c565b601c55613b0783601a54617ab5565b601a55613b1682601b54617ab5565b601b55838852601f60205260408820613b30848254617ab5565b905560068852602160205260408820613b4a848254617ab5565b90558088526020805260408820613b618154617a7c565b90558488526022938460205260408920613b7b8154617a7c565b905585895284602052600360408a2001613b958154617a7c565b905585895284602052600160408a2001613bb0858254617ab5565b905585895284602052600260408a2001613bcb848254617ab5565b905585895284602052600660408a2001818a5260205260408920613bf0858254617ab5565b905585895284602052600860408a200160068a5260205260408920613c16858254617ab5565b905585895284602052600760408a2001828a5260205260408920613c3a8154617a7c565b90558189526023928360205260408a20613c548154617a7c565b9055828a5283602052600360408b2001613c6e8154617a7c565b9055828a5283602052600160408b2001613c89868254617ab5565b9055828a5283602052613ca4600260408c2001918254617ab5565b905581895282602052600660408a200190895260205260408820613cc9848254617ab5565b905587526020526008604087200160068752602052613ced60408720918254617ab5565b90557f03ab5ecc3cf81889615cb75ca1bcadcbf3a3b4ba23f8d6cfff47f725cdf2d0566060601954601a54601b549060405192835260208301526040820152a18185526020527f35139513cb27a61903989651bc70cbd70bf8837723259bed449c299aee68d11860408086206001815491015482519182526020820152a26139b5565b82809291819260018060a01b0360265416908390613d97575bf1156121d657823880613a95565b506108fc613d89565b506108fc613a85565b600186015460405163a9059cbb60e01b815293945060209284929183918a918391613de0916001600160a01b031660048401617bfe565b03925af1801561060d57613e67575b5080613dfc575b50613a99565b600383015460265460405163a9059cbb60e01b81529260209284926001600160a01b039182169284928a928492613e399290911660048401617bfe565b03925af18015610f035715613df657613e609060203d602011610710576107018183617400565b5038613df6565b613e7f9060203d602011610710576107018183617400565b5038613def565b905060208151910120613e9b600684016174bf565b6020815191012003613eae5780386139af565b60405162461bcd60e51b81526020600482015260156024820152740a4cae8eae4dc40ecc2d8eaca40dad2e6dac2e8c6d605b1b6044820152606490fd5b50816139aa565b80606061399c565b90506005860184526020842084905b828210613f1a575050820183613968565b805482860152889550602090910190600101613f09565b60ff1916855250801515028301905083613968565b5060603660031901126104f4576001600160401b0360043581811161168757613f73903690600401617648565b602491823590811161106c573660238201121561106c578060040135613f9881617631565b91613fa66040519384617400565b818352602091858385019160051b830101913683116142ed5786849101915b8383106142dd5750505050613fd8617305565b613fe0617a59565b83518351036142a057835115614263578593845b878551871015614023575061401761401d916140108888617a8b565b5190617ab5565b95617a7c565b94613ff4565b94918593916127106140368a548361792a565b04956140428783617ab5565b6001600160a01b0394851680614169575061405f813410156179ba565b865b84518110156140ac578780808089614079868b617a8b565b5116614085868d617a8b565b51908282156140a3575bf1156107175761409e90617a7c565b614061565b506108fc61408f565b50929450949295839196811590811561413f575b50505050803411614107575b50505b51906040519283528201527fb970e74562b0c8f675cebbac6859159a9ec67b0eb2972ac7971d3bb05857e83e60403392a26001815580f35b8180614114819334617973565b818115614136575b3390f11561412b5783856140cc565b6040513d85823e3d90fd5b506108fc61411c565b83928392839260265416908390614160575bf11561062157818780806140c0565b506108fc614151565b949392919690505b82518110156141f25780878561418a6141b49487617a8b565b5116614196838a617a8b565b516040516323b872dd60e01b81529485928392903360048501617998565b03818d8a5af191821561073f576141d0926141d5575b50617a7c565b614171565b6141eb90893d8b11610710576107018183617400565b508a6141ca565b509590935084919281614209575b505050506140cf565b61422f9360265416886040518096819582946323b872dd60e01b84523360048501617998565b03925af1801561060d57614246575b828180614200565b61425c90833d8511610710576107018183617400565b508461423e565b60405162461bcd60e51b81526004810183905260168187015275456d70747920726563697069656e747320617272617960501b6044820152606490fd5b60405162461bcd60e51b81526004810183905260168187015275082e4e4c2f2e640d8cadccee8d040dad2e6dac2e8c6d60531b6044820152606490fd5b8235815291810191849101613fc5565b8780fd5b50346104f45761167e6020916008604061430a366172cb565b939081526022865220016184d7565b50346104f45760203660031901126104f45760ff60406104f09260043581526006602052205416604051918291826176ae565b50346104f45760203660031901126104f4576020610b8f600435617e96565b50346104f457806003193601126104f4576026546040516001600160a01b039091168152602090f35b50346104f45760203660031901126104f4576004356007811015610783578160409160209352602183522054604051908152f35b50346104f45760208060031936011261078357600435906143e7617a59565b81835260048152604083209060ff6006830154161561466e57600582016144148154600485015490617ab5565b421061463357600283019283549061443c6127106144346024548561792a565b048093617973565b6003820180546001600160a01b03939190841680614531575050478754116144ec578880808594819796600183960154168282156144e3575bf1156121d65781159081156144b5575b50505050906000805160206187f0833981519152926040925b429055549082519182524290820152a26001815580f35b839283928392602698979854169083906144da575bf115610f03579084388080614485565b506108fc6144ca565b506108fc614475565b60405162461bcd60e51b815260048101879052601d60248201527f496e73756666696369656e7420636f6e74726163742062616c616e63650000006044820152606490fd5b92876145699186859b999897949b5416958d85600188015416906040518096819582946323b872dd60e01b9c8d855260048501617998565b03925af1801561112f57614616575b5089846145a0575b50505050506000805160206187f08339815191529350906040929161449e565b818089989799969a54169354169160265416936145cb6040519a8b9687958694855260048501617998565b03925af1928315611008576000805160206187f0833981519152946040946145f9575b819293948189614580565b61460f90843d8611610710576107018183617400565b50386145ee565b61462c90883d8a11610710576107018183617400565b5038614578565b60405162461bcd60e51b815260048101839052601360248201527214185e5b595b9d081b9bdd08191d59481e595d606a1b6044820152606490fd5b6064906040519062461bcd60e51b825260048201526017602482015276537562736372697074696f6e206e6f742061637469766560481b6044820152fd5b50346104f45760203660031901126104f4576004356146c9617870565b6146d76103e8821115617ac2565b60255580f35b5060803660031901126104f4576001600160401b039060043582811161078357366023820112156107835780600401359161471783617631565b916147256040519384617400565b83835260208301906024809560061b8201019036821161106c578501915b818310614bec57505050614755617305565b92606492833586811161106c5761477090369060040161743e565b94614779617a59565b6001958683511115614bac576014835111614b735761479a843515156178dc565b84958786905b614ad0575b50612710809703614a905750846147d9600e54976147c289617a7c565b600e556147d18754883561792a565b048635617ab5565b6001600160a01b039093169283614a35576147f6813410156179ba565b803411614a08575b50505b85855260096020526040852080546001600160a01b03191633178155843560028201556003810180546001600160a81b03191690931790925580519788116149f55761485d886148546004850154617485565b60048501617a14565b602090601f8911600114614987579780918899879998999261497c575b5050600019600383901b1c191690861b1760048201555b42600582015584849101965b6148e3575b5060209550516040519135825285820152837f849cfbf56c9c5abf75d7abf882bbd8cf18d03c96dd688a45e057e31ece8c17b860403393a355604051908152f35b8151811015614977576148f68183617a8b565b518754600160401b81101561496457808761491492018a5589617dfa565b91909161495157805182546001600160a01b0319166001600160a01b03919091161782556020015190860155849061494b90617a7c565b9061489d565b634e487b7160e01b865260048690528486fd5b634e487b7160e01b865260416004528486fd5b6148a2565b01519050388061487a565b906004830186526020862091865b601f198b1681106149df5750918991899a938a999a94601f198116106149c6575b505050811b016004820155614891565b015160001960f88460031b161c191690553880806149b6565b8183015184559289019260209283019201614995565b634e487b7160e01b855260416004528385fd5b8180614a15819334617973565b818115614a2c575b3390f115610f035784386147fe565b506108fc614a1d565b6040516323b872dd60e01b8152915060209082908190614a5a90303360048501617998565b038189875af1801561100857614a71575b50614801565b614a899060203d602011610710576107018183617400565b5038614a6b565b60405162461bcd60e51b815260206004820152601c818701527b50657263656e7461676573206d7573742073756d20746f203130302560201b6044820152fd5b968451881015614b6d57614af96001600160a01b03614aef8a88617a8b565b515116151561789c565b6020614b058987617a8b565b51015115614b3657614b30614b2a8a926020614b218c8a617a8b565b51015190617ab5565b98617a7c565b906147a0565b5060405162461bcd60e51b81526020600482015260128187015271496e76616c69642070657263656e7461676560701b6044820152fd5b966147a5565b60405162461bcd60e51b81526020600482015260138186015272546f6f206d616e7920726563697069656e747360681b60448201528690fd5b60405162461bcd60e51b815260206004820152601a81860152794e656564206174206c65617374203220726563697069656e747360301b60448201528690fd5b60408336031261106c5760206040918251614c0681617397565b614c0f86617347565b81528286013583820152815201920191614743565b50346104f45760208060031936011261078357600435614c42617a59565b80835260058252604083206006810192835493614c6260ff861615617b7a565b600583015442118015614dbe575b15614d855760018060a01b0390600182855416968733148015614d76575b614c9790617bc1565b60ff1916179055856003840195614cb88754612710611ae16025548361792a565b9083600487015416908115600014614d0e5750508180809285885416828215614d05575bf11561060d57600080516020618750833981519152925b54169354604051908152a36001815580f35b506108fc614cdc565b90859291614d33979460405180998195829463a9059cbb60e01b845260048401617bfe565b03925af19384156107175760008051602061875083398151915294614d59575b50614cf3565b614d6f90843d8611610710576107018183617400565b5038614d53565b50600286015484163314614c8e565b60405162461bcd60e51b815260048101839052601160248201527010d85b9b9bdd081c99599d5b99081e595d607a1b6044820152606490fd5b5060ff8560081c16614c70565b50346104f45760803660031901126104f457614de56172ef565b602435614df0617305565b6001600160a01b03928316919060643590614e0c84151561789c565b614e178315156178dc565b8115614f3057600a5494614e2a86617a7c565b600a556040519160e083016001600160401b03811184821017614f1c57602098614ee394936006938a936040523386528b86018a815260408701928a845280606089019316835260808801938a855281604060a08b019780895260c08c019960018b528152602060049052209951169260018060a01b031993848b5416178a558260018b019151168482541617905551600289015560038801925116908254161790555160048501555160058401555115159101617919565b60405191825284820152827f11a7acdb40f12388db0682ce7cdb5ffb4d01939a9b0cf653f7c1af7c2f238ad860403393a4604051908152f35b634e487b7160e01b89526041600452602489fd5b60405162461bcd60e51b815260206004820152601060248201526f125b9d985b1a59081a5b9d195c9d985b60821b6044820152606490fd5b50346104f45760203660031901126104f4576004358082526015602052604082206003810190815491614fa160ff8460081c161561802c565b614fb5825460ff6001850154163391618267565b156150045760ff1990921660011790915560060180546001600160a01b03191633908117909155907fc7ff055f95cfa75c0a183d1e0afddc7e1eb3f5e7596c23faf6952969eca71c4d8380a380f35b60405162461bcd60e51b81526020600482015260196024820152784e6f7420617574686f72697a656420746f20617070726f766560381b6044820152606490fd5b50346104f4576020806003193601126107835760043590615064617a59565b8183526009815260408320916003830191825461508760ff8260a01c1615617c19565b600160a01b9060ff60a01b191617835560028401928354948661271096602493886150b386548461792a565b0491839060019a8b97888801985b6151de575b50505050811590811561510c575b5050915495549254604080519485529484015250506001600160a01b03909316926000805160206188508339815191529190a3815580f35b549394936001600160a01b0390811680615161575083928392839260265416908390615158575bf11561100857600080516020618850833981519152926040925b9192889194386150d4565b506108fc615133565b9087945061518d97939250602654168b60405180998195829463a9059cbb60e01b845260048401617bfe565b03925af19283156151d357600080516020618850833981519152946040946151b6575b5061514d565b6151cc90833d8511610710576107018183617400565b50386151b0565b6040513d8a823e3d90fd5b9091929394955087548d8186101561530d575060001981019081116152fa57908d8c848f978c849b9a998299989783146000146152da575050505050835b86546001600160a01b03908c908e9083168061526d575050839283926152438a8594617dfa565b505416828215615264575bf1156110085761525e8d94617a7c565b936150c1565b506108fc61524e565b91896152a29a96506152829195949295617dfa565b5054168b604051809a8195829463a9059cbb60e01b845260048401617bfe565b03925af19081156151d3578e9561525e926152bd5750617a7c565b6152d3908d803d10610710576107018183617400565b50386141ca565b6115086152ec936152f4965493617dfa565b048095617973565b9361521c565b50634e487b7160e01b8d5260116004528cfd5b969594506150c6565b5060c03660031901126104f45761532b6172ef565b615333617305565b6064356001600160401b03811161106c5761535290369060040161743e565b916084356001600160401b038111611a485761537290369060040161743e565b61537a617a59565b60a4358552600360205260ff60408620541661585f576153a46001600160a01b038316151561789c565b6153b160243515156178dc565b60a4358552600360205260408520600160ff19825416179055846127106153dc60245460243561792a565b046153e981602435617973565b6001600160a01b03861661578a57828080809361540a6024353410156179ba565b818115615781575b6001600160a01b038a1690f115610621578015908115615751575b505050602435341161571e575b60405190615447826173c8565b3382526001600160a01b038381166020808501918252602435604080870191825288851660608801908152608088018b815260a08901979097524260c089015260a43560e089018190528c52600293849052908b20875181546001600160a01b0319908116918816919091178255945160018201805487169188169190911790559151928201929092559051600382018054909316931692909217905590518051919291906001600160401b0382116156905781906155168261550d6004880154617485565b60048801617a14565b602090601f83116001146156af5789926156a4575b50508160011b916000199060031b1c19161760048301555b60a08101518051906001600160401b038211615690576155738261556a6005870154617485565b60058701617a14565b602090601f831160011461561e5791806007949260e0948b92615613575b50508160011b916000199060031b1c19161760058501555b60c08101516006850155015191015560405191602435835260018060a01b031660208301526060604083015260018060a01b0316917f03274906bfdfd1e2a40010a7d795b1c688359b01fb51baef3387a7ea5c09b2c6339280610ed160a435946060830190617588565b015190503880615591565b906005850189526020892091895b601f19851681106156785750926007949260019260e09583601f1981161061565f575b505050811b0160058501556155a9565b015160001960f88460031b161c1916905538808061564f565b9192602060018192868501518155019401920161562c565b634e487b7160e01b88526041600452602488fd5b01519050388061552b565b9250600485018952602089209089935b601f1984168510615703576001945083601f198116106156ea575b505050811b016004830155615543565b015160001960f88460031b161c191690553880806156da565b818101518355602094850194600190930192909101906156bf565b8480808061572e60243534617973565b818115615748575b3390f161543a576040513d86823e3d90fd5b506108fc615736565b82809291819260018060a01b0360265416908390615778575bf115610f035784388061542d565b506108fc61576a565b506108fc615412565b6040516323b872dd60e01b8152919250602090829081906157b090883360048501617998565b03818a6001600160a01b038a165af1801561071757615840575b50806157d7575b5061543a565b6026546040516323b872dd60e01b8152916020918391829161580791906001600160a01b03163360048501617998565b0381896001600160a01b0389165af1801561100857156157d1576158399060203d602011610710576107018183617400565b50386157d1565b6158589060203d602011610710576107018183617400565b50386157ca565b60405162461bcd60e51b8152602060048201526016602482015275131a5b9ac8185b1c9958591e481c1c9bd8d95cdcd95960521b6044820152606490fd5b50346104f45760203660031901126104f457604060e091600435815260046020522060018060a01b038082541691816001820154169160028201549060038301541660048301549160ff600660058601549501541694604051968752602087015260408601526060850152608084015260a0830152151560c0820152f35b50346104f457602090816003193601126104f45790600435825260098152600180604084200192835461594d81617631565b9061595b6040519283617400565b8082528482018096845285842084915b8383106159c057505050506040519380850191818652518092526040850195925b8281106159995785870386f35b835180516001600160a01b031688528201518288015260409096019592810192840161598c565b95600288829a9860409a97989a516159d781617397565b60018060a01b03865416815284860154838201528152019201920191909795979694939661596b565b50346104f45760603660031901126104f457600435615a1d617388565b6044356001600160401b03811161106c57615a3c90369060040161743e565b50615a45617a59565b818352600560209081526040842060028101546001600160a01b03919082163303615d5a5760068101805460ff8160081c1615615d1d579081615a8f60ff8a979695941615617b7a565b600160ff198092161782556003830190612710615ab083546025549061792a565b04928815615bb4575090615ad99291898852600687526002604089209182541617905554617ab5565b92826004830154168015600014615b575750508392839283925416828215615b4e575bf1156121d6575b15615b46576002905b7fd479d35c2c3aee3d59f9972a1214f8effa0c54c4f8ff4dcf020913c0a5e27c6260405180615b3c3395826176ae565b0390a36001815580f35b600390615b0c565b506108fc615afc565b9094508492615b80949254168860405180968195829463a9059cbb60e01b845260048401617bfe565b03925af1801561060d57615b96575b5050615b03565b81615bac92903d10610710576107018183617400565b503880615b8f565b89885260068752604088208054909216600317909155805462ff00001916620100001790556004830180549295919392851680615c5157505050848080938560018395015416905490828215615c48575bf1156121d6578115908115615c1e575b50505050615b03565b83928392839260265416908390615c3f575bf1156121d65782388080615c15565b506108fc615c30565b506108fc615c05565b91615c8488979593876001849b959997015416945460405194858094819363a9059cbb60e01b998a845260048401617bfe565b03925af1801561100857615d00575b5082615ca5575b505050505050615b03565b615cc994828795541692602654169160405196879586948593845260048401617bfe565b03925af1801561060d57615ce2575b8080808793615c9a565b81615cf892903d10610710576107018183617400565b503880615cd8565b615d1690873d8911610710576107018183617400565b5038615c93565b60405162461bcd60e51b81526004810186905260156024820152744e6f206469737075746520746f207265736f6c766560581b6044820152606490fd5b60405162461bcd60e51b815260048101849052600b60248201526a2737ba1030b93134ba32b960a91b6044820152606490fd5b50346104f457806003193601126104f4576020602454604051908152f35b50346104f45760203660031901126104f45760206115a36004356185b5565b50346104f45760203660031901126104f457600435815260076020526040812060018060a01b0360018201541691600282015460018060a01b03600384015416916004840154600585015460ff60078701541691600987015495600a88015495604051998a99602081549c8d815201809c828a5260208a20908a5b818110615ef357505050615e6891615e628d806008940390617400565b016174bf565b966040519a61014090818d01918d52518091526101608c019c915b818110615ed45750505060208a015260408901526060880152608087015260a0860152151560c085015283850360e085015292938493615ec39190617588565b916101008401526101208301520390f35b82516001600160a01b03168e5260209d8e019d90920191600101615e83565b82546001600160a01b0316845260209093019260019283019201615e45565b50346104f45760203660031901126104f457604090600435815260096020522060018060a01b038082541690600283015492615f9760038201549260ff600584015494615f666004600187015496016174bf565b92604051988998895260208901528116604088015260a01c161515606086015260e0608086015260e0850190617588565b9160a084015260c08301520390f35b50346104f45760203660031901126104f4576004803582526020526040812080546001600160a01b03163303615fe457600601805460ff1916905580f35b60405162461bcd60e51b81526020600482015260166024820152752737ba1039bab139b1b934b83a34b7b71037bbb732b960511b6044820152606490fd5b50346104f45760208060031936011261078357600435616040617a59565b808352600782526040832091600783019283549161606160ff841615617c19565b600a8201544211156161cb57859486938354945b85811061618e575b5061608e6001929394959697617cb6565b60ff19161790556160ac6002830154612710611ae16024548361792a565b921561617a57818552808520546003909201548593926001600160a01b03908116929116806161215750508280928192828215616118575bf115610621575b33907f5fd84c46b0ccdf886bb0a6d26bf9ea9f1a487c166cc462f218cf2e09493ca3ba8380a36001815580f35b506108fc6160e4565b81949261614694929360405180968195829463a9059cbb60e01b845260048401617bfe565b03925af18015610f035761615c575b50506160eb565b8161617292903d10610710576107018183617400565b503880616155565b634e487b7160e01b85526032600452602485fd5b6161988186617c9e565b905460039190911b1c6001600160a01b031633146161be576161b990617a7c565b616075565b506001965061608e61607d565b6064906040519062461bcd60e51b82526004820152601760248201527614185e5b595b9d081b9bdd08195e1c1a5c9959081e595d604a1b6044820152fd5b50346104f45760203660031901126104f457600435616226617870565b80156162325760145580f35b60405162461bcd60e51b8152602060048201526011602482015270125b9d985b1a590819d85cc81b1a5b5a5d607a1b6044820152606490fd5b5060e03660031901126104f4576004356001600160401b03811161078357616297903690600401617648565b61629f617331565b6162a761731b565b60a435929060c4356001600160401b038111613752576162cb90369060040161743e565b906162d4617a59565b600283511061676157608435151580616754575b15616711576163016001600160a01b038516151561789c565b604493616310853515156178dc565b61631b428711617b3b565b865b845181101561642d576001600160a01b036163388287617a8b565b5116156163f85760018082018083116163e457815b616362575b505061635d90617a7c565b61631d565b86518110156163df576001600160a01b0361637d8489617a8b565b51166001600160a01b03616391838a617a8b565b5116146163a8576163a28291617a7c565b9061634d565b60405162461bcd60e51b815260206004820152601060248201526f223ab83634b1b0ba329039b4b3b732b960811b818a0152606490fd5b616352565b634e487b7160e01b8a52601160045260248afd5b60405162461bcd60e51b815260206004820152600e60248201526d24b73b30b634b21039b4b3b732b960911b81880152606490fd5b50909391959294600c549561644187617a7c565b600c55846164586127106147d1602454883561792a565b6001600160a01b0388166166ae57616472813410156179ba565b803411616681575b50505b868552600760205260408520815190916001600160401b03821161663657600160401b8211616636576020908354838555808410616667575b500182875260208720875b83811061664a5750505050600181810180546001600160a01b038681166001600160a01b031992831617909255863560028501556003840180549990921698169790971790965560843560048201556005810185905560078101805460ff19169055875160088201906001600160401b03811161663657602099616549826118be8554617485565b8a90601f83116001146165d257600a949392918991836165c7575b5050600019600383901b1c191690891b1790555b4260098201550155604051913582526084358683015260018060a01b031690847f423c1c5a44471cbe0ee64ad1f1e4b8907abb5695e29943721742ab300d60955960403393a455604051908152f35b015190503880616564565b9392918991601f19821690848b528d8b20918b5b81811061661f57509683600a9810616606575b505050811b019055616578565b015160001960f88460031b161c191690553880806165f9565b8289015184558d9590930192918f01918f016165e6565b634e487b7160e01b87526041600452602487fd5b82516001600160a01b0316818301556020909201916001016164c1565b84895282892061667b9181019085016179fd565b386164b6565b818061668e819334617973565b8181156166a5575b3390f115610f0357843861647a565b506108fc616696565b6040516323b872dd60e01b81529150602090829081906166d390303360048501617998565b0381896001600160a01b038c165af18015611008576166f3575b5061647d565b61670a9060203d8111610710576107018183617400565b50386166ed565b60405162461bcd60e51b815260206004820152601b60248201527a496e76616c6964207265717569726564207369676e61747572657360281b6044820152606490fd5b50825160843511156162e8565b60405162461bcd60e51b81526020600482015260176024820152764e656564206174206c656173742032207369676e65727360481b6044820152606490fd5b50346104f45760203660031901126104f4576004356167bd617a59565b808252600f6020528160408120600581018054916167e160ff8460a01c1615617c19565b6167f160ff8460a81c1615617d37565b80546001600160a01b0392908316903382148015616905575b80156168f8575b61681a90617e4f565b60ff60a81b198516600160a81b179055600482015460245484916168469161271090611ae1908361792a565b9416908161689d5750508392839283925416828215616894575bf115610621575b33907fa4fff0ba60d1df5bcdbd79b981e0dffae057173e562567c1c8c2c4208db6b01e8380a36001815580f35b506108fc616860565b90915060209392506168c59460405180968195829463a9059cbb60e01b845260048401617bfe565b03925af1801561412b576168da575b50616867565b6168f19060203d8111610710576107018183617400565b50386168d4565b5060088301544211616811565b5083600184015416331461680a565b50346104f457806003193601126104f4576020601654604051908152f35b50346104f457806003193601126104f4576020601254604051908152f35b50346104f45760203660031901126104f457604090600435815260156020522080546104f06001830154926003810154600482015460058301549160018060a01b036169a560028260068801541696016174bf565b60405198899860ff80808760081c169616948360081c169216908a6175d0565b50346104f45760203660031901126104f45760206115a360043561851f565b50346104f45760403660031901126104f4576040602091616a03617331565b6004358252602284528282206001600160a01b03909116825260060183522054604051908152f35b50346104f45760203660031901126104f457604090600435815260026020522060018060a01b039081815416908260018201541692616acc600283015491600384015416616abe616a7e600486016174bf565b616a8a600587016174bf565b926007600688015497015495604051998a998a5260208a015260408901526060880152610100806080890152870190617588565b9085820360a0870152617588565b9160c084015260e08301520390f35b506101403660031901126104f457616af16172ef565b90616afa617305565b90616b0361731b565b906084356001600160401b03811161078357616b2390369060040161735b565b909390929060a4356001600160401b03811161106c57616b4790369060040161735b565b96909160c435151560c43503611a4857610124356001600160401b03811161375257616b7790369060040161743e565b97616b80617a59565b6001600160a01b0393616b96848616151561789c565b848616156170a1578486168752601360205260ff604088205416156170615760145460e4351161702757616bce426101043511617b3b565b60243515616fe257616bea6127106129eb60245460243561792a565b838616616f88573410616f4b575b60125497616c0589617a7c565b60125588885260116020526040882080546001600160a01b0319908116331782556001820180548216888a1617905560243560028301556003820180548216878a16179055600482018054909116898916179055996001600160401b038211614f1c578190616c84828d6005616c7d81830154617485565b9101617a14565b8990601f8311600114616edf578a92616ed4575b50508160011b916000199060031b1c19161760058a01555b6001600160401b038211616636578190616cda82616cd160068d0154617485565b60068d01617a14565b8790601f8311600114616e68578892616e5d575b50508160011b916000199060031b1c19161760068801555b616d1560c43560078901617919565b60e435600888015560098701805461ffff1916905587516001600160401b03811161219e57602098616d5782616d4e600a8c0154617485565b600a8c01617a14565b8990601f8311600114616ded5791806001999a928795948a92616de2575b5050600019600383901b1c191690891b17600a8201555b42600b820155600c610104359101558160405195168552602435898601521660408401521690847fe62b186361c4713b5a5e86b986e61e14ad1284777fe00d5d231cac2e1e35f79360603393a455604051908152f35b015190503880616d75565b90600a8a0188528a882091885b601f1985168110616e465750926001999a928a9288969583601f19811610616e2d575b505050811b01600a820155616d8c565b015160001960f88460031b161c19169055388080616e1d565b91928c600181928685015181550194019201616dfa565b013590503880616cee565b60068b01895260208920899450915b601f1984168510616ebc576001945083601f19811610616ea2575b505050811b016006880155616d06565b0135600019600384901b60f8161c19169055388080616e92565b81810135835560209485019460019093019201616e77565b013590503880616c98565b60058d018b5260208b208b9450915b601f1984168510616f33576001945083601f19811610616f19575b505050811b0160058a0155616cb0565b0135600019600384901b60f8161c19169055388080616f09565b81810135835560209485019460019093019201616eee565b60405162461bcd60e51b8152602060048201526015602482015274125b9cdd59999a58da595b9d08115512081cd95b9d605a1b6044820152606490fd5b6020616faa91604051809381926323b872dd60e01b8352303360048501617998565b03818b8a89165af180156151d357616fc3575b50616bf8565b616fdb9060203d602011610710576107018183617400565b5038616fbd565b60405162461bcd60e51b815260206004820152601d60248201527f416d6f756e74206d7573742062652067726561746572207468616e20300000006044820152606490fd5b60405162461bcd60e51b815260206004820152601260248201527108ec2e640d8d2dad2e840e8dede40d0d2ced60731b6044820152606490fd5b60405162461bcd60e51b815260206004820152601860248201527710dbdb9d1c9858dd081b9bdd081dda1a5d195b1a5cdd195960421b6044820152606490fd5b60405162461bcd60e51b8152602060048201526017602482015276125b9d985b1a59081d185c99d95d0818dbdb9d1c9858dd604a1b6044820152606490fd5b50346104f457806003193601126104f45760206115a36184ef565b50346104f45761710a366172cb565b90617113617a59565b61711d8282618435565b8084526020906017825260ff6040862054161561728c5780855260188252604085205442106172505784526017815260408420805460ff19169055839061716484846182b0565b6001600160a01b038084169792959293889291617182841515618073565b87159261718f84156180ba565b1690816171e257505090859183906171d9575b839283928392f11561060d57600080516020618790833981519152926040925b6171ce845180946175ad565b820152a36001815580f35b506108fc6171a2565b60405163a9059cbb60e01b815297948794508893508391829061720a90889060048401617bfe565b03925af19283156107175760008051602061879083398151915294604094617233575b506171c2565b61724990823d8411610710576107018183617400565b503861722d565b60405162461bcd60e51b8152600481018390526014602482015273111958591b1a5b99481b9bdd081c995858da195960621b6044820152606490fd5b60405162461bcd60e51b8152600481018390526017602482015276105d5d1bc81c99599d5b99081b9bdd08195b98589b1959604a1b6044820152606490fd5b60409060031901126172ea576004359060243560078110156172ea5790565b600080fd5b600435906001600160a01b03821682036172ea57565b604435906001600160a01b03821682036172ea57565b606435906001600160a01b03821682036172ea57565b602435906001600160a01b03821682036172ea57565b35906001600160a01b03821682036172ea57565b9181601f840112156172ea578235916001600160401b0383116172ea57602083818601950101116172ea57565b6024359081151582036172ea57565b604081019081106001600160401b038211176173b257604052565b634e487b7160e01b600052604160045260246000fd5b61010081019081106001600160401b038211176173b257604052565b61016081019081106001600160401b038211176173b257604052565b601f909101601f19168101906001600160401b038211908210176173b257604052565b6001600160401b0381116173b257601f01601f191660200190565b81601f820112156172ea5780359061745582617423565b926174636040519485617400565b828452602083830101116172ea57816000926020809301838601378301015290565b90600182811c921680156174b5575b602083101461749f57565b634e487b7160e01b600052602260045260246000fd5b91607f1691617494565b90604051918260008254926174d384617485565b90818452600194858116908160001461754257506001146174ff575b50506174fd92500383617400565b565b9093915060005260209081600020936000915b81831061752a5750506174fd935082010138806174ef565b85548884018501529485019487945091830191617512565b9150506174fd94506020925060ff191682840152151560051b82010138806174ef565b60005b8381106175785750506000910152565b8181015183820152602001617568565b906020916175a181518092818552858086019101617565565b601f01601f1916010190565b9060078210156175ba5752565b634e487b7160e01b600052602160045260246000fd5b97936175f061010098949793617612939c9b979c8b5260208b01906175ad565b6001600160a01b0396871660408a015261012060608a01819052890190617588565b9815156080880152151560a087015260c086015260e085015216910152565b6001600160401b0381116173b25760051b60200190565b81601f820112156172ea5780359161765f83617631565b9261766d6040519485617400565b808452602092838086019260051b8201019283116172ea578301905b828210617697575050505090565b8380916176a384617347565b815201910190617689565b9190602083019260048210156175ba5752565b9260a094919796959260c0850198855260208501526040840152606083015260808201520152565b9a9692919c9e9d9c6101a09c9899958c60606177789d999461774c9861773e9760018060a01b0380978180951687521660208601526040850152169101521660808c01526101c08060a08d01528b0190617588565b9089820360c08b0152617588565b94151560e088015261010087015215156101208601521515610140850152838203610160850152617588565b946101808201520152565b6001600160a01b0391821681529181166020830152918216604082015260608101929092526080820192909252911660a082015290151560c082015290151560e0820152610160610100820181905292949392610140926177e691830190617588565b946101208201520152565b9060058210156175ba5752565b9b9a999692948c606061783f936101409c99959761786b9c9960018060a01b03809a81809516875216602086015260408501521691015260808d01906177f1565b60a08b01521660c0890152151560e0880152151561010087015261016080610120880152860190617588565b930152565b6001546001600160a01b0316330361788457565b60405163118cdaa760e01b8152336004820152602490fd5b156178a357565b60405162461bcd60e51b8152602060048201526011602482015270125b9d985b1a59081c9958da5c1a595b9d607a1b6044820152606490fd5b156178e357565b60405162461bcd60e51b815260206004820152600e60248201526d125b9d985b1a5908185b5bdd5b9d60921b6044820152606490fd5b9060ff801983541691151516179055565b8181029291811591840414171561793d57565b634e487b7160e01b600052601160045260246000fd5b811561795d570490565b634e487b7160e01b600052601260045260246000fd5b9190820391821161793d57565b908160209103126172ea575180151581036172ea5790565b6001600160a01b03918216815291166020820152604081019190915260600190565b156179c157565b60405162461bcd60e51b8152602060048201526014602482015273125b9cdd59999a58da595b9d081c185e5b595b9d60621b6044820152606490fd5b818110617a08575050565b600081556001016179fd565b9190601f8111617a2357505050565b6174fd926000526020600020906020601f840160051c83019310617a4f575b601f0160051c01906179fd565b9091508190617a42565b600260005414617a6a576002600055565b604051633ee5aeb560e01b8152600490fd5b600019811461793d5760010190565b8051821015617a9f5760209160051b010190565b634e487b7160e01b600052603260045260246000fd5b9190820180921161793d57565b15617ac957565b60405162461bcd60e51b815260206004820152600c60248201526b08ccaca40e8dede40d0d2ced60a31b6044820152606490fd5b15617b0457565b60405162461bcd60e51b815260206004820152600f60248201526e24b73b30b634b21030b93134ba32b960891b6044820152606490fd5b15617b4257565b60405162461bcd60e51b815260206004820152601060248201526f496e76616c696420646561646c696e6560801b6044820152606490fd5b15617b8157565b60405162461bcd60e51b8152602060048201526018602482015277115cd8dc9bddc8185b1c9958591e4818dbdb5c1b195d195960421b6044820152606490fd5b15617bc857565b60405162461bcd60e51b815260206004820152600e60248201526d139bdd08185d5d1a1bdc9a5e995960921b6044820152606490fd5b6001600160a01b039091168152602081019190915260400190565b15617c2057565b60405162461bcd60e51b815260206004820152601860248201527714185e5b595b9d08185b1c9958591e48195e1958dd5d195960421b6044820152606490fd5b15617c6757565b60405162461bcd60e51b815260206004820152600f60248201526e14185e5b595b9d08195e1c1a5c9959608a1b6044820152606490fd5b8054821015617a9f5760005260206000200190600090565b15617cbd57565b60405162461bcd60e51b81526020600482015260126024820152712737ba1030903b30b634b21039b4b3b732b960711b6044820152606490fd5b15617cfe57565b60405162461bcd60e51b815260206004820152601160248201527014185e5b595b9d0818d85b98d95b1b1959607a1b6044820152606490fd5b15617d3e57565b60405162461bcd60e51b815260206004820152601960248201527814185e5b595b9d08185b1c9958591e4818d85b98d95b1b1959603a1b6044820152606490fd5b6000526008602052604060002060ff600382015460a01c169060058210156175ba5781617db25760049150015442101590565b60018203617dc65760049150015442101590565b60038203617dda5760049150015443101590565b5060028103617de95750600190565b600414617df557600090565b600190565b8054821015617a9f5760005260206000209060011b0190600090565b908160209103126172ea57516001600160a01b03811681036172ea5790565b6001600160a01b0391821681529116602082015260400190565b15617e5657565b60405162461bcd60e51b8152602060048201526018602482015277139bdd08185d5d1a1bdc9a5e9959081d1bc818d85b98d95b60421b6044820152606490fd5b60009081526020600f81526040822090600582015460ff8160a01c1690811561801e575b508015618011575b61800c5760018060a01b0390816002840154169260038101546040516331a9108f60e11b81528160048201528381602481895afa879181617fed575b50617f0c5750505050505090565b8480600185015416911603617fe557617f438385600182950154166040518093819263e985e9c560e01b8352309060048401617e35565b0381895afa879181617fc6575b50617fad575b5060246040518096819363020604bf60e21b835260048301525afa9283918594617f8e575b5050617f8657505090565b163014919050565b617fa5929450803d106111285761111a8183617400565b913880617f7b565b909150617fbc57819038617f56565b5050505050600190565b617fde919250843d8611610710576107018183617400565b9038617f50565b505050505090565b618005919250853d87116111285761111a8183617400565b9038617efe565b505090565b5060088201544211617ec2565b60ff915060a81c1638617eba565b1561803357565b60405162461bcd60e51b81526020600482015260186024820152771499599d5b9908185b1c9958591e481c1c9bd8d95cdcd95960421b6044820152606490fd5b1561807a57565b60405162461bcd60e51b8152602060048201526018602482015277125b9d985b1a59081c99599d5b99081c9958da5c1a595b9d60421b6044820152606490fd5b156180c157565b60405162461bcd60e51b8152602060048201526015602482015274125b9d985b1a59081c99599d5b9908185b5bdd5b9d605a1b6044820152606490fd5b9060078110156175ba578061814e5750600090815260026020526040902080546001600160a01b039283169083168114929091831561813e575b50505090565b6001015416149050388080618138565b600181036181865750600090815260056020526040902080546001600160a01b039283169083168114929091831561813e5750505090565b600281036181c957506000818152600760205260409020600101546001600160a01b03808416911614919082156181bc57505090565b6181c69250618475565b90565b600381036182015750600090815260086020526040902080546001600160a01b039283169083168114929091831561813e5750505090565b6004810361822a57506000908152600960205260409020546001600160a01b0391821691161490565b600514618238575050600090565b6000908152600f6020526040902080546001600160a01b039283169083168114929091831561813e5750505090565b9060078110156175ba5760011461828d57506001546001600160a01b0391821691161490565b6000908152600560205260409020600201546001600160a01b0391821691161490565b9060078110156175ba57806182ec5750600052600260205260406000209060018060a01b03908183541691600360028501549401541691929190565b6001810361832157506000908152600560205260409020805460038201546004909201546001600160a01b0391821693911690565b6003810361835657506000908152600860205260409020805460028201546003909201546001600160a01b0391821693911690565b6005146183695750600090600090600090565b600052600f60205260406000209060048201549061271061838c6024548461792a565b0460056183a460018060a01b03928387541695617ab5565b9401541691929190565b9060078110156175ba57806183de57506000908152600260205260409020546001600160a01b0391821691161490565b6003810361840757506000908152600860205260409020546001600160a01b0391821691161490565b600514618415575050600090565b6000908152600f60205260409020546001600160a01b0391821691161490565b90604051906020820192835260078110156175ba5760f81b604082015260218152606081016001600160401b038111828210176173b25760405251902090565b60005260076020526040600020906000918054925b83811061849a5750505050600090565b6184a48183617c9e565b905460039190911b1c6001600160a01b03908116908416146184ce576184c990617a7c565b61848a565b50505050600190565b9060078110156175ba57600052602052604060002090565b601954801561851957601c54906127109182810292818404149015171561793d576181c691617953565b50600090565b6000526022602052604060002080549081156185575760030154906127109182810292818404149015171561793d576181c691617953565b5050600090565b6001600160a01b0316600090815260236020526040902080549081156185575760030154906127109182810292818404149015171561793d576181c691617953565b601c548015618519576181c690601a54617953565b60005260226020526040600020600381015480156185575760016181c6920154617953565b6001600160a01b03166000908152602360205260409020600381015480156185575760016181c6920154617953565b60009081526011602052604081209061862f6002830154612710611ae16024548361792a565b600383015490926001600160a01b0391821680618676575082809481938293541682821561866d575bf1156186615750565b604051903d90823e3d90fd5b506108fc618658565b60209261869d959254168460405180978195829463a9059cbb60e01b845260048401617bfe565b03925af190811561866157506186b05750565b6186c79060203d8111610710576107018183617400565b50565b60005260116020526040600020600981015460ff8116908115618701575b5061851957600c015442116186fc57600190565b600090565b60ff915060081c16386186e856fe9d11d94c685e1ee38aeed69b4a2e84778ed5e75c68d4547c4bfa22011dbd7a90d5311504a50223c76591841f7084b43f79ef30d9e097ea2800d3684eafc2eb7deac97bc1917fcedc984e3d0671d4e83b359890323d5d1c2de32b28d17c356ced6244ed823ca6be0f11bc890c3fafcf3c29cb23420c14243642e930b5e07e6d0a4bfe1b5b220ad616d44b9d56e9c8140dd76ab5cb0771a53cee706e46ae2e94f493fd418cbde522a92b961e2d8c24b756a029e0e3e4a8e315552795a27e9866678be0079c531659141344cd1fd0a4f28419497f9722a3daafe3b4186f6b6457e0554e943290fa0afd2b8471de94af606d97bef9c8db987dd5283385e57a5e5859f751b3c2d8949504d71a63fd259a5a8a1b0c05099b351e3834fa63ea01dc504a5c532d9b038e7f169ba617b799e1a14bcfbcc4db0ffaac7e7bc62c2be4bc16e1f97bec92de0242a470b3a392f190ee929eb1f02152a7a4587c04fb7a6f366328a264697066735822122029ed603b63055dad5709fa31f8d36230fadf804d5e50444a6b8e41c39fbc9d1c64736f6c63430008140033","opcodes":"PUSH1 0x80 CALLVALUE PUSH3 0x103 JUMPI PUSH1 0x1F PUSH3 0x89C4 CODESIZE DUP2 SWAP1 SUB SWAP2 DUP3 ADD PUSH1 0x1F NOT AND DUP4 ADD SWAP2 PUSH1 0x1 PUSH1 0x1 PUSH1 0x40 SHL SUB DUP4 GT DUP5 DUP5 LT OR PUSH3 0x108 JUMPI DUP1 DUP5 SWAP3 PUSH1 0x20 SWAP5 PUSH1 0x40 MSTORE DUP4 CODECOPY DUP2 ADD SUB SLT PUSH3 0x103 JUMPI MLOAD PUSH1 0x1 PUSH1 0x1 PUSH1 0xA0 SHL SUB SWAP1 DUP2 DUP2 AND SWAP1 DUP2 SWAP1 SUB PUSH3 0x103 JUMPI PUSH1 0x1 DUP1 PUSH1 0x0 SSTORE CALLER ISZERO PUSH3 0xEA JUMPI DUP1 SLOAD CALLER PUSH1 0x1 PUSH1 0x1 PUSH1 0xA0 SHL SUB NOT DUP1 DUP4 AND DUP3 OR DUP5 SSTORE PUSH1 0x40 MLOAD SWAP6 SWAP1 SWAP4 SWAP3 AND PUSH32 0x8BE0079C531659141344CD1FD0A4F28419497F9722A3DAAFE3B4186F6B6457E0 PUSH1 0x0 DUP1 LOG3 DUP1 PUSH1 0xA SSTORE DUP1 PUSH1 0xB SSTORE DUP1 PUSH1 0xC SSTORE DUP1 PUSH1 0xD SSTORE DUP1 PUSH1 0xE SSTORE DUP1 PUSH1 0x10 SSTORE DUP1 PUSH1 0x12 SSTORE PUSH3 0x7A120 PUSH1 0x14 SSTORE PUSH1 0x16 SSTORE PUSH1 0x19 PUSH1 0x24 SSTORE PUSH1 0x32 PUSH1 0x25 SSTORE PUSH1 0x26 SLOAD AND OR PUSH1 0x26 SSTORE PUSH2 0x88A5 SWAP1 DUP2 PUSH3 0x11F DUP3 CODECOPY RETURN JUMPDEST PUSH1 0x40 MLOAD PUSH4 0x1E4FBDF7 PUSH1 0xE0 SHL DUP2 MSTORE PUSH1 0x0 PUSH1 0x4 DUP3 ADD MSTORE PUSH1 0x24 SWAP1 REVERT JUMPDEST PUSH1 0x0 DUP1 REVERT JUMPDEST PUSH4 0x4E487B71 PUSH1 0xE0 SHL PUSH1 0x0 MSTORE PUSH1 0x41 PUSH1 0x4 MSTORE PUSH1 0x24 PUSH1 0x0 REVERT INVALID PUSH1 0x80 PUSH1 0x40 MSTORE PUSH1 0x4 CALLDATASIZE LT ISZERO PUSH2 0x1B JUMPI JUMPDEST CALLDATASIZE ISZERO PUSH2 0x19 JUMPI PUSH1 0x0 DUP1 REVERT JUMPDEST STOP JUMPDEST PUSH1 0x0 DUP1 CALLDATALOAD PUSH1 0xE0 SHR DUP1 PUSH3 0x952898 EQ PUSH2 0x70FB JUMPI DUP1 PUSH4 0x5785AD4 EQ PUSH2 0x70E0 JUMPI DUP1 PUSH4 0x60158BF EQ PUSH2 0x6ADB JUMPI DUP1 PUSH4 0x716326D EQ PUSH2 0x6A2B JUMPI DUP1 PUSH4 0x9242309 EQ PUSH2 0x69E4 JUMPI DUP1 PUSH4 0xAADF797 EQ PUSH2 0x69C5 JUMPI DUP1 PUSH4 0xABFBB75 EQ PUSH2 0x6950 JUMPI DUP1 PUSH4 0xDB6CD7A EQ PUSH2 0x6932 JUMPI DUP1 PUSH4 0x139136A8 EQ PUSH2 0x6914 JUMPI DUP1 PUSH4 0x14F46451 EQ PUSH2 0x67A0 JUMPI DUP1 PUSH4 0x16F4D4D9 EQ PUSH2 0x626B JUMPI DUP1 PUSH4 0x1776834A EQ PUSH2 0x6209 JUMPI DUP1 PUSH4 0x180BAA66 EQ PUSH2 0x6022 JUMPI DUP1 PUSH4 0x20F7AA3F EQ PUSH2 0x4319 JUMPI DUP1 PUSH4 0x21235083 EQ PUSH2 0x5FA6 JUMPI DUP1 PUSH4 0x2225A2E7 EQ PUSH2 0x5F12 JUMPI DUP1 PUSH4 0x24597C5C EQ PUSH2 0x5DCA JUMPI DUP1 PUSH4 0x256FCF7F EQ PUSH2 0x5DAB JUMPI DUP1 PUSH4 0x26232A2E EQ PUSH2 0x5D8D JUMPI DUP1 PUSH4 0x2840662D EQ PUSH2 0x5A00 JUMPI DUP1 PUSH4 0x2D5A4B21 EQ PUSH2 0x591B JUMPI DUP1 PUSH4 0x2D5BBF60 EQ PUSH2 0x589D JUMPI DUP1 PUSH4 0x31C531C6 EQ PUSH2 0x5316 JUMPI DUP1 PUSH4 0x326BCFD4 EQ PUSH2 0x5045 JUMPI DUP1 PUSH4 0x348A71A6 EQ PUSH2 0x4F68 JUMPI DUP1 PUSH4 0x34E90455 EQ PUSH2 0x4DCB JUMPI DUP1 PUSH4 0x356F9DFD EQ PUSH2 0x4C24 JUMPI DUP1 PUSH4 0x391FEEBB EQ PUSH2 0x17B3 JUMPI DUP1 PUSH4 0x3BBA87D3 EQ PUSH2 0x46DD JUMPI DUP1 PUSH4 0x3D2098D9 EQ PUSH2 0x46AC JUMPI DUP1 PUSH4 0x4102B1FB EQ PUSH2 0x43C8 JUMPI DUP1 PUSH4 0x432741B1 EQ PUSH2 0x4394 JUMPI DUP1 PUSH4 0x46904840 EQ PUSH2 0x436B JUMPI DUP1 PUSH4 0x4F38A854 EQ PUSH2 0x434C JUMPI DUP1 PUSH4 0x564A565D EQ PUSH2 0x4319 JUMPI DUP1 PUSH4 0x56A0457A EQ PUSH2 0x42F1 JUMPI DUP1 PUSH4 0x58A830E0 EQ PUSH2 0x3F46 JUMPI DUP1 PUSH4 0x59A3159A EQ PUSH2 0x38D4 JUMPI DUP1 PUSH4 0x5AEF573C EQ PUSH2 0x3792 JUMPI DUP1 PUSH4 0x5E45DA23 EQ PUSH2 0x3774 JUMPI DUP1 PUSH4 0x6041CAE9 EQ PUSH2 0x3756 JUMPI DUP1 PUSH4 0x6355C83C EQ PUSH2 0x3330 JUMPI DUP1 PUSH4 0x648D3F4F EQ PUSH2 0x2F00 JUMPI DUP1 PUSH4 0x64BBE51A EQ PUSH2 0x330C JUMPI DUP1 PUSH4 0x6A5B428B EQ PUSH2 0x32EE JUMPI DUP1 PUSH4 0x715018A6 EQ PUSH2 0x32A3 JUMPI DUP1 PUSH4 0x778163DE EQ PUSH2 0x3255 JUMPI DUP1 PUSH4 0x781CEBFA EQ PUSH2 0x1D12 JUMPI DUP1 PUSH4 0x7BA982A0 EQ PUSH2 0x3181 JUMPI DUP1 PUSH4 0x7D19E596 EQ PUSH2 0x2FC6 JUMPI DUP1 PUSH4 0x7D974ADE EQ PUSH2 0x2F4D JUMPI DUP1 PUSH4 0x80D5AC8A EQ PUSH2 0x7EA JUMPI DUP1 PUSH4 0x814781BE EQ PUSH2 0x2F00 JUMPI DUP1 PUSH4 0x839C8A3F EQ PUSH2 0x2EE2 JUMPI DUP1 PUSH4 0x8598BCC4 EQ PUSH2 0x16A9 JUMPI DUP1 PUSH4 0x85E16DC8 EQ PUSH2 0x2920 JUMPI DUP1 PUSH4 0x85EC97D6 EQ PUSH2 0x28B1 JUMPI DUP1 PUSH4 0x879909D0 EQ PUSH2 0x2865 JUMPI DUP1 PUSH4 0x89CB29DD EQ PUSH2 0x2847 JUMPI DUP1 PUSH4 0x8DA5CB5B EQ PUSH2 0x281E JUMPI DUP1 PUSH4 0x921DB076 EQ PUSH2 0x2752 JUMPI DUP1 PUSH4 0x94E00A33 EQ PUSH2 0x26A4 JUMPI DUP1 PUSH4 0x9D2C10BE EQ PUSH2 0x2331 JUMPI DUP1 PUSH4 0x9F2789CC EQ PUSH2 0x230D JUMPI DUP1 PUSH4 0x9FBDEF02 EQ PUSH2 0x2263 JUMPI DUP1 PUSH4 0x9FDE5016 EQ PUSH2 0x1E31 JUMPI DUP1 PUSH4 0xA672990C EQ PUSH2 0x1D72 JUMPI DUP1 PUSH4 0xAA0B5988 EQ PUSH2 0x1D41 JUMPI DUP1 PUSH4 0xAC44EEF1 EQ PUSH2 0x1D12 JUMPI DUP1 PUSH4 0xB7CC8B6D EQ PUSH2 0x1C8A JUMPI DUP1 PUSH4 0xB882BACB EQ PUSH2 0x1C02 JUMPI DUP1 PUSH4 0xBADFDCA0 EQ PUSH2 0x1BE3 JUMPI DUP1 PUSH4 0xBDD29EE8 EQ PUSH2 0x1A4C JUMPI DUP1 PUSH4 0xBEFF5702 EQ PUSH2 0x17F2 JUMPI DUP1 PUSH4 0xC057058A EQ PUSH2 0x17B3 JUMPI DUP1 PUSH4 0xC3721D1D EQ PUSH2 0x1704 JUMPI DUP1 PUSH4 0xC800ADAF EQ PUSH2 0x16A9 JUMPI DUP1 PUSH4 0xC909ADC0 EQ PUSH2 0x168B JUMPI DUP1 PUSH4 0xCBFB5A6A EQ PUSH2 0x1633 JUMPI DUP1 PUSH4 0xCD39D2D6 EQ PUSH2 0x15AB JUMPI DUP1 PUSH4 0xCF979ED0 EQ PUSH2 0x1588 JUMPI DUP1 PUSH4 0xD0EBFEE6 EQ PUSH2 0x1559 JUMPI DUP1 PUSH4 0xD59FD900 EQ PUSH2 0x14BC JUMPI DUP1 PUSH4 0xD7B4BE0D EQ PUSH2 0x1412 JUMPI DUP1 PUSH4 0xDA58935F EQ PUSH2 0x13F4 JUMPI DUP1 PUSH4 0xDAC87CA4 EQ PUSH2 0x1267 JUMPI DUP1 PUSH4 0xDCCCE94E EQ PUSH2 0x11DC JUMPI DUP1 PUSH4 0xDF04ABAB EQ PUSH2 0x11BE JUMPI DUP1 PUSH4 0xE614A1A4 EQ PUSH2 0xCDF JUMPI DUP1 PUSH4 0xE66EEFC8 EQ PUSH2 0xB99 JUMPI DUP1 PUSH4 0xE9CE65FE EQ PUSH2 0xB70 JUMPI DUP1 PUSH4 0xED653164 EQ PUSH2 0x916 JUMPI DUP1 PUSH4 0xF160D369 EQ PUSH2 0x897 JUMPI DUP1 PUSH4 0xF2FDE38B EQ PUSH2 0x81F JUMPI DUP1 PUSH4 0xF3C1C3BE EQ PUSH2 0x7EA JUMPI DUP1 PUSH4 0xF57892D5 EQ PUSH2 0x7B1 JUMPI DUP1 PUSH4 0xF67DC95F EQ PUSH2 0x787 JUMPI DUP1 PUSH4 0xF7A37324 EQ PUSH2 0x4F7 JUMPI PUSH4 0xFA56D0AA EQ PUSH2 0x467 JUMPI POP PUSH2 0xE JUMP JUMPDEST CALLVALUE PUSH2 0x4F4 JUMPI PUSH1 0x20 CALLDATASIZE PUSH1 0x3 NOT ADD SLT PUSH2 0x4F4 JUMPI PUSH1 0x40 SWAP1 PUSH1 0x4 CALLDATALOAD DUP2 MSTORE PUSH1 0x8 PUSH1 0x20 MSTORE KECCAK256 PUSH1 0x1 DUP1 PUSH1 0xA0 SHL SUB PUSH2 0x4F0 DUP2 DUP4 SLOAD AND SWAP3 DUP3 PUSH1 0x1 DUP3 ADD SLOAD AND SWAP3 PUSH1 0x2 DUP3 ADD SLOAD SWAP4 PUSH1 0x3 DUP4 ADD SLOAD SWAP2 PUSH1 0x4 DUP5 ADD SLOAD SWAP1 PUSH1 0x5 DUP6 ADD SLOAD SWAP2 PUSH2 0x4C6 PUSH1 0x6 PUSH1 0x7 DUP9 ADD SLOAD SWAP8 ADD PUSH2 0x74BF JUMP JUMPDEST SWAP5 PUSH1 0x40 MLOAD SWAP10 DUP11 SWAP10 PUSH1 0xFF DUP7 PUSH1 0xA8 SHR AND SWAP7 DUP6 PUSH1 0xFF DUP9 PUSH1 0xA0 SHR AND SWAP8 AND SWAP6 PUSH1 0xFF DUP6 PUSH1 0xA0 SHR AND SWAP5 AND SWAP3 DUP13 PUSH2 0x77FE JUMP JUMPDEST SUB SWAP1 RETURN JUMPDEST DUP1 REVERT JUMPDEST POP CALLVALUE PUSH2 0x4F4 JUMPI PUSH1 0x20 DUP1 PUSH1 0x3 NOT CALLDATASIZE ADD SLT PUSH2 0x783 JUMPI PUSH1 0x4 CALLDATALOAD PUSH2 0x515 PUSH2 0x7A59 JUMP JUMPDEST DUP1 DUP4 MSTORE PUSH1 0x8 DUP3 MSTORE PUSH1 0x40 DUP4 KECCAK256 PUSH1 0x5 DUP2 ADD DUP1 SLOAD PUSH2 0x536 PUSH1 0xFF DUP3 PUSH1 0xA0 SHR AND ISZERO PUSH2 0x7C19 JUMP JUMPDEST PUSH2 0x546 PUSH1 0xFF DUP3 PUSH1 0xA8 SHR AND ISZERO PUSH2 0x7CF7 JUMP JUMPDEST PUSH2 0x54F DUP5 PUSH2 0x7D7F JUMP JUMPDEST ISZERO PUSH2 0x74A JUMPI PUSH1 0xFF PUSH1 0xA0 SHL NOT AND PUSH1 0x1 PUSH1 0xA0 SHL OR SWAP1 SSTORE PUSH1 0x2 DUP2 ADD DUP1 SLOAD PUSH1 0x24 SLOAD SWAP2 SWAP5 SWAP2 DUP7 SWAP1 PUSH2 0x2710 SWAP1 PUSH2 0x57F SWAP1 DUP5 PUSH2 0x792A JUMP JUMPDEST DIV PUSH1 0x3 DUP6 ADD SWAP3 PUSH1 0x1 DUP1 PUSH1 0xA0 SHL SUB SWAP4 DUP6 DUP6 DUP3 SLOAD AND DUP1 ISZERO PUSH1 0x0 EQ PUSH2 0x637 JUMPI POP POP POP POP DUP2 DUP1 DUP1 DUP1 DUP7 PUSH1 0x1 DUP11 ADD SLOAD AND DUP12 SLOAD SWAP1 DUP3 DUP3 ISZERO PUSH2 0x62E JUMPI JUMPDEST CALL ISZERO PUSH2 0x621 JUMPI DUP1 ISZERO DUP1 ISZERO PUSH2 0x5ED JUMPI JUMPDEST POP POP POP PUSH1 0x1 PUSH1 0x0 DUP1 MLOAD PUSH1 0x20 PUSH2 0x8710 DUP4 CODECOPY DUP2 MLOAD SWAP2 MSTORE SWAP4 JUMPDEST ADD SLOAD AND SWAP4 SLOAD PUSH1 0x40 MLOAD SWAP1 DUP2 MSTORE LOG3 PUSH1 0x1 DUP2 SSTORE DUP1 RETURN JUMPDEST DUP3 DUP1 SWAP3 DUP2 SWAP3 DUP7 PUSH1 0x26 SLOAD AND SWAP1 DUP4 SWAP1 PUSH2 0x618 JUMPI JUMPDEST CALL ISZERO PUSH2 0x60D JUMPI DUP6 CODESIZE DUP1 PUSH2 0x5C4 JUMP JUMPDEST PUSH1 0x40 MLOAD RETURNDATASIZE DUP8 DUP3 RETURNDATACOPY RETURNDATASIZE SWAP1 REVERT JUMPDEST POP PUSH2 0x8FC PUSH2 0x5FF JUMP JUMPDEST POP PUSH1 0x40 MLOAD SWAP1 RETURNDATASIZE SWAP1 DUP3 RETURNDATACOPY RETURNDATASIZE SWAP1 REVERT JUMPDEST POP PUSH2 0x8FC PUSH2 0x5B5 JUMP JUMPDEST PUSH1 0x1 DUP10 ADD SLOAD PUSH1 0x40 MLOAD PUSH4 0xA9059CBB PUSH1 0xE0 SHL DUP1 DUP3 MSTORE SWAP7 SWAP8 SWAP5 SWAP6 SWAP1 SWAP5 DUP6 SWAP4 SWAP3 DUP5 SWAP3 DUP4 SWAP2 PUSH2 0x667 SWAP2 SWAP1 DUP14 AND PUSH1 0x4 DUP5 ADD PUSH2 0x7BFE JUMP JUMPDEST SUB SWAP3 GAS CALL DUP1 ISZERO PUSH2 0x73F JUMPI PUSH2 0x722 JUMPI JUMPDEST POP DUP3 PUSH2 0x697 JUMPI JUMPDEST POP POP POP PUSH1 0x1 PUSH1 0x0 DUP1 MLOAD PUSH1 0x20 PUSH2 0x8710 DUP4 CODECOPY DUP2 MLOAD SWAP2 MSTORE SWAP4 PUSH2 0x5DA JUMP JUMPDEST SWAP2 DUP5 SWAP2 DUP5 PUSH2 0x6BF SWAP8 SWAP5 SLOAD AND SWAP1 DUP11 DUP7 PUSH1 0x26 SLOAD AND SWAP2 PUSH1 0x40 MLOAD SWAP10 DUP11 SWAP6 DUP7 SWAP5 DUP6 SWAP4 DUP5 MSTORE PUSH1 0x4 DUP5 ADD PUSH2 0x7BFE JUMP JUMPDEST SUB SWAP3 GAS CALL SWAP1 DUP2 ISZERO PUSH2 0x717 JUMPI PUSH1 0x0 DUP1 MLOAD PUSH1 0x20 PUSH2 0x8710 DUP4 CODECOPY DUP2 MLOAD SWAP2 MSTORE SWAP5 PUSH1 0x1 SWAP3 PUSH2 0x6EA JUMPI JUMPDEST DUP2 SWAP6 POP PUSH2 0x67D JUMP JUMPDEST PUSH2 0x709 SWAP1 DUP6 RETURNDATASIZE DUP8 GT PUSH2 0x710 JUMPI JUMPDEST PUSH2 0x701 DUP2 DUP4 PUSH2 0x7400 JUMP JUMPDEST DUP2 ADD SWAP1 PUSH2 0x7980 JUMP JUMPDEST POP CODESIZE PUSH2 0x6E2 JUMP JUMPDEST POP RETURNDATASIZE PUSH2 0x6F7 JUMP JUMPDEST PUSH1 0x40 MLOAD RETURNDATASIZE DUP10 DUP3 RETURNDATACOPY RETURNDATASIZE SWAP1 REVERT JUMPDEST PUSH2 0x738 SWAP1 DUP7 RETURNDATASIZE DUP9 GT PUSH2 0x710 JUMPI PUSH2 0x701 DUP2 DUP4 PUSH2 0x7400 JUMP JUMPDEST POP CODESIZE PUSH2 0x676 JUMP JUMPDEST PUSH1 0x40 MLOAD RETURNDATASIZE DUP13 DUP3 RETURNDATACOPY RETURNDATASIZE SWAP1 REVERT JUMPDEST PUSH1 0x40 MLOAD PUSH3 0x461BCD PUSH1 0xE5 SHL DUP2 MSTORE PUSH1 0x4 DUP2 ADD DUP7 SWAP1 MSTORE PUSH1 0x11 PUSH1 0x24 DUP3 ADD MSTORE PUSH17 0x10DBDB991A5D1A5BDB881B9BDD081B595D PUSH1 0x7A SHL PUSH1 0x44 DUP3 ADD MSTORE PUSH1 0x64 SWAP1 REVERT JUMPDEST POP DUP1 REVERT JUMPDEST POP CALLVALUE PUSH2 0x4F4 JUMPI PUSH1 0x20 CALLDATASIZE PUSH1 0x3 NOT ADD SLT PUSH2 0x4F4 JUMPI PUSH1 0x40 PUSH1 0x20 SWAP2 PUSH1 0x4 CALLDATALOAD DUP2 MSTORE PUSH1 0x18 DUP4 MSTORE KECCAK256 SLOAD PUSH1 0x40 MLOAD SWAP1 DUP2 MSTORE RETURN JUMPDEST POP CALLVALUE PUSH2 0x4F4 JUMPI PUSH1 0x20 CALLDATASIZE PUSH1 0x3 NOT ADD SLT PUSH2 0x4F4 JUMPI PUSH1 0x20 SWAP1 PUSH1 0x40 SWAP1 PUSH1 0x1 PUSH1 0x1 PUSH1 0xA0 SHL SUB PUSH2 0x7D9 PUSH2 0x72EF JUMP JUMPDEST AND DUP2 MSTORE PUSH1 0x1F DUP4 MSTORE KECCAK256 SLOAD PUSH1 0x40 MLOAD SWAP1 DUP2 MSTORE RETURN JUMPDEST POP CALLVALUE PUSH2 0x4F4 JUMPI DUP1 PUSH1 0x3 NOT CALLDATASIZE ADD SLT PUSH2 0x4F4 JUMPI PUSH1 0x19 SLOAD PUSH1 0x1A SLOAD SWAP1 PUSH2 0x4F0 PUSH1 0x1B SLOAD PUSH1 0x1C SLOAD PUSH1 0x1D SLOAD SWAP1 PUSH1 0x1E SLOAD SWAP3 PUSH1 0x40 MLOAD SWAP7 DUP8 SWAP7 DUP8 PUSH2 0x76C1 JUMP JUMPDEST POP CALLVALUE PUSH2 0x4F4 JUMPI PUSH1 0x20 CALLDATASIZE PUSH1 0x3 NOT ADD SLT PUSH2 0x4F4 JUMPI PUSH2 0x839 PUSH2 0x72EF JUMP JUMPDEST PUSH2 0x841 PUSH2 0x7870 JUMP JUMPDEST PUSH1 0x1 PUSH1 0x1 PUSH1 0xA0 SHL SUB SWAP1 DUP2 AND SWAP1 DUP2 ISZERO PUSH2 0x87E JUMPI PUSH1 0x1 DUP1 SLOAD PUSH1 0x1 PUSH1 0x1 PUSH1 0xA0 SHL SUB NOT DUP2 AND DUP5 OR SWAP1 SWAP2 SSTORE AND PUSH1 0x0 DUP1 MLOAD PUSH1 0x20 PUSH2 0x87D0 DUP4 CODECOPY DUP2 MLOAD SWAP2 MSTORE PUSH1 0x0 DUP1 LOG3 DUP1 RETURN JUMPDEST PUSH1 0x40 MLOAD PUSH4 0x1E4FBDF7 PUSH1 0xE0 SHL DUP2 MSTORE PUSH1 0x4 DUP2 ADD DUP5 SWAP1 MSTORE PUSH1 0x24 SWAP1 REVERT JUMPDEST POP CALLVALUE PUSH2 0x4F4 JUMPI PUSH1 0x20 CALLDATASIZE PUSH1 0x3 NOT ADD SLT PUSH2 0x4F4 JUMPI PUSH2 0x8B1 PUSH2 0x72EF JUMP JUMPDEST PUSH2 0x8B9 PUSH2 0x7870 JUMP JUMPDEST PUSH1 0x1 PUSH1 0x1 PUSH1 0xA0 SHL SUB AND DUP1 ISZERO PUSH2 0x8DF JUMPI PUSH1 0x26 DUP1 SLOAD PUSH1 0x1 PUSH1 0x1 PUSH1 0xA0 SHL SUB NOT AND SWAP2 SWAP1 SWAP2 OR SWAP1 SSTORE DUP1 RETURN JUMPDEST PUSH1 0x40 MLOAD PUSH3 0x461BCD PUSH1 0xE5 SHL DUP2 MSTORE PUSH1 0x20 PUSH1 0x4 DUP3 ADD MSTORE PUSH1 0xF PUSH1 0x24 DUP3 ADD MSTORE PUSH15 0x496E76616C69642061646472657373 PUSH1 0x88 SHL PUSH1 0x44 DUP3 ADD MSTORE PUSH1 0x64 SWAP1 REVERT JUMPDEST POP CALLVALUE PUSH2 0x4F4 JUMPI PUSH1 0x20 DUP1 PUSH1 0x3 NOT CALLDATASIZE ADD SLT PUSH2 0x783 JUMPI PUSH1 0x4 CALLDATALOAD PUSH2 0x934 PUSH2 0x7A59 JUMP JUMPDEST DUP1 DUP4 MSTORE PUSH1 0x5 DUP3 MSTORE PUSH1 0x40 DUP4 KECCAK256 PUSH1 0x6 DUP2 ADD SWAP3 DUP4 SLOAD SWAP4 PUSH2 0x954 PUSH1 0xFF DUP7 AND ISZERO PUSH2 0x7B7A JUMP JUMPDEST PUSH1 0xFF DUP6 PUSH1 0x8 SHR AND PUSH2 0xB36 JUMPI DUP3 SLOAD PUSH1 0x1 PUSH1 0x1 PUSH1 0xA0 SHL SUB SWAP6 PUSH3 0x10001 SWAP2 DUP8 AND CALLER EQ DUP1 ISZERO PUSH2 0xB27 JUMPI JUMPDEST PUSH2 0x983 SWAP1 PUSH2 0x7BC1 JUMP JUMPDEST PUSH3 0xFF00FF NOT AND OR SWAP1 SSTORE PUSH1 0x3 DUP3 ADD SWAP4 DUP6 DUP6 SLOAD PUSH2 0x2710 PUSH2 0x9A3 PUSH1 0x25 SLOAD DUP4 PUSH2 0x792A JUMP JUMPDEST DIV SWAP1 PUSH1 0x4 DUP7 ADD DUP6 DUP6 DUP3 SLOAD AND DUP1 ISZERO PUSH1 0x0 EQ PUSH2 0xA3A JUMPI POP POP POP POP DUP2 DUP1 DUP1 DUP1 DUP7 PUSH1 0x1 DUP11 ADD SLOAD AND DUP12 SLOAD SWAP1 DUP3 DUP3 ISZERO PUSH2 0xA31 JUMPI JUMPDEST CALL ISZERO PUSH2 0x621 JUMPI DUP1 ISZERO DUP1 ISZERO PUSH2 0xA08 JUMPI JUMPDEST POP POP POP PUSH1 0x1 PUSH1 0x0 DUP1 MLOAD PUSH1 0x20 PUSH2 0x8770 DUP4 CODECOPY DUP2 MLOAD SWAP2 MSTORE SWAP4 ADD SLOAD AND SWAP4 SLOAD PUSH1 0x40 MLOAD SWAP1 DUP2 MSTORE LOG3 PUSH1 0x1 DUP2 SSTORE DUP1 RETURN JUMPDEST DUP3 DUP1 SWAP3 DUP2 SWAP3 DUP7 PUSH1 0x26 SLOAD AND SWAP1 DUP4 SWAP1 PUSH2 0xA28 JUMPI JUMPDEST CALL ISZERO PUSH2 0x60D JUMPI DUP6 CODESIZE DUP1 PUSH2 0x9E0 JUMP JUMPDEST POP PUSH2 0x8FC PUSH2 0xA1A JUMP JUMPDEST POP PUSH2 0x8FC PUSH2 0x9D1 JUMP JUMPDEST PUSH1 0x1 DUP10 ADD SLOAD PUSH1 0x40 MLOAD PUSH4 0xA9059CBB PUSH1 0xE0 SHL DUP1 DUP3 MSTORE SWAP7 SWAP8 SWAP5 SWAP6 SWAP1 SWAP5 DUP6 SWAP4 SWAP3 DUP5 SWAP3 DUP4 SWAP2 PUSH2 0xA6A SWAP2 SWAP1 DUP14 AND PUSH1 0x4 DUP5 ADD PUSH2 0x7BFE JUMP JUMPDEST SUB SWAP3 GAS CALL DUP1 ISZERO PUSH2 0x73F JUMPI PUSH2 0xB0A JUMPI JUMPDEST POP DUP3 PUSH2 0xA9A JUMPI JUMPDEST POP POP POP PUSH1 0x1 PUSH1 0x0 DUP1 MLOAD PUSH1 0x20 PUSH2 0x8770 DUP4 CODECOPY DUP2 MLOAD SWAP2 MSTORE SWAP4 PUSH2 0x5DA JUMP JUMPDEST SWAP2 DUP5 SWAP2 DUP5 PUSH2 0xAC2 SWAP8 SWAP5 SLOAD AND SWAP1 DUP11 DUP7 PUSH1 0x26 SLOAD AND SWAP2 PUSH1 0x40 MLOAD SWAP10 DUP11 SWAP6 DUP7 SWAP5 DUP6 SWAP4 DUP5 MSTORE PUSH1 0x4 DUP5 ADD PUSH2 0x7BFE JUMP JUMPDEST SUB SWAP3 GAS CALL SWAP1 DUP2 ISZERO PUSH2 0x717 JUMPI PUSH1 0x0 DUP1 MLOAD PUSH1 0x20 PUSH2 0x8770 DUP4 CODECOPY DUP2 MLOAD SWAP2 MSTORE SWAP5 PUSH1 0x1 SWAP3 PUSH2 0xAED JUMPI JUMPDEST DUP2 SWAP6 POP PUSH2 0xA80 JUMP JUMPDEST PUSH2 0xB03 SWAP1 DUP6 RETURNDATASIZE DUP8 GT PUSH2 0x710 JUMPI PUSH2 0x701 DUP2 DUP4 PUSH2 0x7400 JUMP JUMPDEST POP CODESIZE PUSH2 0xAE5 JUMP JUMPDEST PUSH2 0xB20 SWAP1 DUP7 RETURNDATASIZE DUP9 GT PUSH2 0x710 JUMPI PUSH2 0x701 DUP2 DUP4 PUSH2 0x7400 JUMP JUMPDEST POP CODESIZE PUSH2 0xA79 JUMP JUMPDEST POP PUSH1 0x2 DUP6 ADD SLOAD DUP8 AND CALLER EQ PUSH2 0x97A JUMP JUMPDEST PUSH1 0x40 MLOAD PUSH3 0x461BCD PUSH1 0xE5 SHL DUP2 MSTORE PUSH1 0x4 DUP2 ADD DUP4 SWAP1 MSTORE PUSH1 0x12 PUSH1 0x24 DUP3 ADD MSTORE PUSH18 0x115CD8DC9BDDC81A5CC8191A5CDC1D5D1959 PUSH1 0x72 SHL PUSH1 0x44 DUP3 ADD MSTORE PUSH1 0x64 SWAP1 REVERT JUMPDEST POP CALLVALUE PUSH2 0x4F4 JUMPI PUSH1 0x20 CALLDATASIZE PUSH1 0x3 NOT ADD SLT PUSH2 0x4F4 JUMPI PUSH1 0x20 PUSH2 0xB8F PUSH1 0x4 CALLDATALOAD PUSH2 0x7D7F JUMP JUMPDEST PUSH1 0x40 MLOAD SWAP1 ISZERO ISZERO DUP2 MSTORE RETURN JUMPDEST POP CALLVALUE PUSH2 0x4F4 JUMPI PUSH1 0x20 SWAP1 DUP2 PUSH1 0x3 NOT CALLDATASIZE ADD SLT PUSH2 0x4F4 JUMPI DUP1 PUSH1 0x40 SWAP2 PUSH1 0xE0 DUP4 MLOAD PUSH2 0xBBE DUP2 PUSH2 0x73C8 JUMP JUMPDEST DUP3 DUP2 MSTORE DUP3 DUP7 DUP3 ADD MSTORE DUP3 DUP6 DUP3 ADD MSTORE DUP3 PUSH1 0x60 DUP3 ADD MSTORE PUSH1 0x60 PUSH1 0x80 DUP3 ADD MSTORE PUSH1 0x60 PUSH1 0xA0 DUP3 ADD MSTORE DUP3 PUSH1 0xC0 DUP3 ADD MSTORE ADD MSTORE PUSH1 0x4 CALLDATALOAD DUP2 MSTORE PUSH1 0x2 DUP4 MSTORE KECCAK256 SWAP1 PUSH1 0x40 MLOAD SWAP2 PUSH2 0xBFF DUP4 PUSH2 0x73C8 JUMP JUMPDEST DUP1 SLOAD PUSH1 0x1 PUSH1 0x1 PUSH1 0xA0 SHL SUB SWAP1 DUP2 AND DUP5 MSTORE PUSH1 0x1 DUP3 ADD SLOAD DUP2 AND DUP4 DUP6 ADD SWAP1 DUP2 MSTORE PUSH1 0x2 DUP4 ADD SLOAD PUSH1 0x40 DUP7 ADD SWAP1 DUP2 MSTORE PUSH1 0x3 DUP5 ADD SLOAD DUP4 AND PUSH1 0x60 DUP8 ADD SWAP1 DUP2 MSTORE SWAP1 SWAP3 PUSH2 0xCCF SWAP2 SWAP1 PUSH2 0xC48 PUSH1 0x4 DUP8 ADD PUSH2 0x74BF JUMP JUMPDEST SWAP2 PUSH1 0x80 DUP10 ADD SWAP3 DUP4 MSTORE PUSH2 0xC5C PUSH1 0x5 DUP9 ADD PUSH2 0x74BF JUMP JUMPDEST SWAP6 PUSH1 0xA0 DUP11 ADD SWAP7 DUP8 MSTORE DUP3 PUSH1 0x7 PUSH1 0x6 DUP11 ADD SLOAD SWAP10 PUSH1 0xC0 DUP14 ADD SWAP11 DUP12 MSTORE ADD SLOAD SWAP7 PUSH1 0xE0 DUP13 ADD SWAP8 DUP9 MSTORE DUP11 DUP3 PUSH1 0x40 MLOAD SWAP14 DUP15 SWAP14 DUP15 MSTORE MLOAD AND SWAP1 DUP13 ADD MSTORE MLOAD AND PUSH1 0x40 DUP11 ADD MSTORE MLOAD PUSH1 0x60 DUP10 ADD MSTORE MLOAD AND PUSH1 0x80 DUP8 ADD MSTORE MLOAD SWAP3 PUSH2 0xCBC PUSH2 0x100 SWAP5 DUP6 PUSH1 0xA0 DUP10 ADD MSTORE PUSH2 0x120 DUP9 ADD SWAP1 PUSH2 0x7588 JUMP JUMPDEST SWAP1 MLOAD DUP7 DUP3 SUB PUSH1 0x1F NOT ADD PUSH1 0xC0 DUP9 ADD MSTORE PUSH2 0x7588 JUMP JUMPDEST SWAP3 MLOAD PUSH1 0xE0 DUP6 ADD MSTORE MLOAD SWAP1 DUP4 ADD MSTORE SUB SWAP1 RETURN JUMPDEST POP CALLVALUE PUSH2 0x4F4 JUMPI PUSH1 0x20 CALLDATASIZE PUSH1 0x3 NOT ADD SLT PUSH2 0x4F4 JUMPI PUSH2 0xCF9 PUSH2 0x7A59 JUMP JUMPDEST PUSH1 0x4 CALLDATALOAD DUP2 MSTORE PUSH1 0xF PUSH1 0x20 MSTORE PUSH1 0x40 DUP2 KECCAK256 PUSH1 0x5 DUP2 ADD DUP1 SLOAD PUSH2 0xD1D PUSH1 0xFF DUP3 PUSH1 0xA0 SHR AND ISZERO PUSH2 0x7C19 JUMP JUMPDEST PUSH2 0xD2D PUSH1 0xFF DUP3 PUSH1 0xA8 SHR AND ISZERO PUSH2 0x7CF7 JUMP JUMPDEST PUSH2 0xD3D PUSH1 0x8 DUP5 ADD SLOAD TIMESTAMP GT ISZERO PUSH2 0x7C60 JUMP JUMPDEST PUSH1 0x2 DUP4 ADD SWAP3 PUSH1 0x1 DUP1 PUSH1 0xA0 SHL SUB DUP5 SLOAD AND SWAP3 PUSH1 0x3 DUP3 ADD SWAP3 DUP4 SLOAD SWAP1 PUSH1 0x40 MLOAD SWAP2 PUSH4 0x31A9108F PUSH1 0xE1 SHL DUP4 MSTORE DUP1 PUSH1 0x4 DUP5 ADD MSTORE PUSH1 0x20 DUP4 PUSH1 0x24 DUP2 DUP11 GAS STATICCALL SWAP3 DUP4 ISZERO PUSH2 0x1032 JUMPI DUP10 SWAP4 PUSH2 0x119D JUMPI JUMPDEST POP PUSH1 0x1 DUP6 ADD DUP1 SLOAD SWAP1 SWAP8 PUSH1 0x1 PUSH1 0x1 PUSH1 0xA0 SHL SUB SWAP2 DUP3 AND SWAP5 SWAP1 SWAP2 AND DUP5 SWAP1 SUB PUSH2 0x1159 JUMPI PUSH1 0x40 MLOAD PUSH4 0xE985E9C5 PUSH1 0xE0 SHL DUP2 MSTORE PUSH1 0x20 DUP2 DUP1 PUSH2 0xDBE ADDRESS DUP10 PUSH1 0x4 DUP5 ADD PUSH2 0x7E35 JUMP JUMPDEST SUB DUP2 DUP6 GAS STATICCALL SWAP1 DUP2 ISZERO PUSH2 0x112F JUMPI DUP12 SWAP2 PUSH2 0x113A JUMPI JUMPDEST POP DUP1 ISZERO PUSH2 0x10C3 JUMPI JUMPDEST ISZERO PUSH2 0x1070 JUMPI PUSH1 0xFF PUSH1 0xA0 SHL NOT SWAP1 SWAP3 AND PUSH1 0x1 PUSH1 0xA0 SHL OR DUP5 SSTORE DUP5 SLOAD DUP10 SWAP3 SWAP1 PUSH1 0x1 PUSH1 0x1 PUSH1 0xA0 SHL SUB AND DUP2 EXTCODESIZE ISZERO PUSH2 0x106C JUMPI DUP4 PUSH2 0xE26 SWAP6 PUSH1 0x40 MLOAD SWAP7 DUP8 SWAP6 DUP7 SWAP5 DUP6 SWAP4 PUSH4 0x23B872DD PUSH1 0xE0 SHL DUP6 MSTORE PUSH1 0x4 DUP6 ADD PUSH2 0x7998 JUMP JUMPDEST SUB SWAP3 GAS CALL DUP1 ISZERO PUSH2 0x717 JUMPI PUSH2 0x103D JUMPI JUMPDEST POP DUP6 SWAP1 PUSH1 0x4 DUP4 ADD SLOAD PUSH2 0x2710 PUSH2 0xE4C PUSH1 0x24 SLOAD DUP4 PUSH2 0x792A JUMP JUMPDEST DUP4 SLOAD SWAP2 SWAP1 DIV SWAP3 SWAP1 PUSH1 0x1 PUSH1 0x1 PUSH1 0xA0 SHL SUB AND DUP1 PUSH2 0xF20 JUMPI POP POP DUP6 SLOAD DUP4 SWAP2 DUP3 SWAP2 DUP3 SWAP2 DUP3 SWAP2 PUSH1 0x1 PUSH1 0x1 PUSH1 0xA0 SHL SUB AND DUP3 DUP3 ISZERO PUSH2 0xF17 JUMPI JUMPDEST CALL ISZERO PUSH2 0x621 JUMPI DUP1 ISZERO DUP1 ISZERO PUSH2 0xEDB JUMPI JUMPDEST POP POP POP PUSH2 0xED1 PUSH1 0x0 DUP1 MLOAD PUSH1 0x20 PUSH2 0x87B0 DUP4 CODECOPY DUP2 MLOAD SWAP2 MSTORE SWAP2 JUMPDEST SLOAD SWAP4 SLOAD SWAP5 SLOAD SWAP3 SLOAD PUSH1 0x40 MLOAD PUSH1 0x1 PUSH1 0x1 PUSH1 0xA0 SHL SUB SWAP7 DUP8 AND SWAP7 SWAP6 DUP7 AND SWAP6 PUSH1 0x4 CALLDATALOAD SWAP6 SWAP2 SWAP4 DUP5 SWAP4 SWAP1 SWAP3 SWAP1 SWAP2 AND DUP4 PUSH2 0x7BFE JUMP JUMPDEST SUB SWAP1 LOG4 PUSH1 0x1 DUP2 SSTORE DUP1 RETURN JUMPDEST PUSH1 0x26 SLOAD DUP4 SWAP3 DUP4 SWAP3 DUP4 SWAP3 PUSH1 0x1 PUSH1 0x1 PUSH1 0xA0 SHL SUB AND SWAP1 DUP4 SWAP1 PUSH2 0xF0E JUMPI JUMPDEST CALL ISZERO PUSH2 0xF03 JUMPI DUP5 CODESIZE DUP1 PUSH2 0xE8D JUMP JUMPDEST PUSH1 0x40 MLOAD RETURNDATASIZE DUP7 DUP3 RETURNDATACOPY RETURNDATASIZE SWAP1 REVERT JUMPDEST POP PUSH2 0x8FC PUSH2 0xEF5 JUMP JUMPDEST POP PUSH2 0x8FC PUSH2 0xE7E JUMP JUMPDEST DUP8 SLOAD PUSH1 0x40 MLOAD PUSH4 0xA9059CBB PUSH1 0xE0 SHL DUP1 DUP3 MSTORE SWAP6 SWAP7 SWAP4 SWAP5 SWAP1 SWAP4 PUSH1 0x20 SWAP4 DUP6 SWAP4 SWAP1 SWAP3 DUP5 SWAP3 SWAP2 DUP4 SWAP2 PUSH2 0xF58 SWAP2 PUSH1 0x1 PUSH1 0x1 PUSH1 0xA0 SHL SUB AND PUSH1 0x4 DUP5 ADD PUSH2 0x7BFE JUMP JUMPDEST SUB SWAP3 GAS CALL DUP1 ISZERO PUSH2 0x1032 JUMPI PUSH2 0x1013 JUMPI JUMPDEST POP DUP3 PUSH2 0xF89 JUMPI JUMPDEST POP POP POP PUSH2 0xED1 PUSH1 0x0 DUP1 MLOAD PUSH1 0x20 PUSH2 0x87B0 DUP4 CODECOPY DUP2 MLOAD SWAP2 MSTORE SWAP2 PUSH2 0xEA4 JUMP JUMPDEST SLOAD PUSH1 0x26 SLOAD PUSH1 0x40 MLOAD SWAP3 DUP4 MSTORE SWAP2 SWAP4 SWAP3 PUSH1 0x20 SWAP3 DUP6 SWAP3 PUSH1 0x1 PUSH1 0x1 PUSH1 0xA0 SHL SUB SWAP1 DUP2 AND SWAP3 DUP5 SWAP3 DUP13 SWAP3 DUP5 SWAP3 PUSH2 0xFBD SWAP3 SWAP1 SWAP2 AND PUSH1 0x4 DUP5 ADD PUSH2 0x7BFE JUMP JUMPDEST SUB SWAP3 GAS CALL SWAP1 DUP2 ISZERO PUSH2 0x1008 JUMPI PUSH1 0x0 DUP1 MLOAD PUSH1 0x20 PUSH2 0x87B0 DUP4 CODECOPY DUP2 MLOAD SWAP2 MSTORE SWAP3 PUSH2 0xED1 SWAP3 PUSH2 0xFE9 JUMPI JUMPDEST DUP2 SWAP4 POP PUSH2 0xF6E JUMP JUMPDEST PUSH2 0x1001 SWAP1 PUSH1 0x20 RETURNDATASIZE PUSH1 0x20 GT PUSH2 0x710 JUMPI PUSH2 0x701 DUP2 DUP4 PUSH2 0x7400 JUMP JUMPDEST POP CODESIZE PUSH2 0xFE1 JUMP JUMPDEST PUSH1 0x40 MLOAD RETURNDATASIZE DUP9 DUP3 RETURNDATACOPY RETURNDATASIZE SWAP1 REVERT JUMPDEST PUSH2 0x102B SWAP1 PUSH1 0x20 RETURNDATASIZE PUSH1 0x20 GT PUSH2 0x710 JUMPI PUSH2 0x701 DUP2 DUP4 PUSH2 0x7400 JUMP JUMPDEST POP CODESIZE PUSH2 0xF67 JUMP JUMPDEST PUSH1 0x40 MLOAD RETURNDATASIZE DUP12 DUP3 RETURNDATACOPY RETURNDATASIZE SWAP1 REVERT JUMPDEST SWAP1 SWAP6 SWAP1 PUSH1 0x1 PUSH1 0x1 PUSH1 0x40 SHL SUB DUP2 GT PUSH2 0x1058 JUMPI PUSH1 0x40 MSTORE SWAP5 CODESIZE PUSH2 0xE35 JUMP JUMPDEST PUSH4 0x4E487B71 PUSH1 0xE0 SHL DUP3 MSTORE PUSH1 0x41 PUSH1 0x4 MSTORE PUSH1 0x24 DUP3 REVERT JUMPDEST DUP4 DUP1 REVERT JUMPDEST PUSH1 0x40 MLOAD PUSH3 0x461BCD PUSH1 0xE5 SHL DUP2 MSTORE PUSH1 0x20 PUSH1 0x4 DUP3 ADD MSTORE PUSH1 0x25 PUSH1 0x24 DUP3 ADD MSTORE PUSH32 0x436F6E7472616374206E6F7420617070726F76656420746F207472616E736665 PUSH1 0x44 DUP3 ADD MSTORE PUSH5 0x1C88139195 PUSH1 0xDA SHL PUSH1 0x64 DUP3 ADD MSTORE PUSH1 0x84 SWAP1 REVERT JUMPDEST POP PUSH1 0x40 MLOAD PUSH4 0x20604BF PUSH1 0xE2 SHL DUP2 MSTORE PUSH1 0x4 DUP2 ADD DUP4 SWAP1 MSTORE PUSH1 0x20 DUP2 PUSH1 0x24 DUP2 DUP6 GAS STATICCALL SWAP1 DUP2 ISZERO PUSH2 0x112F JUMPI DUP12 SWAP2 PUSH2 0x1100 JUMPI JUMPDEST POP PUSH1 0x1 PUSH1 0x1 PUSH1 0xA0 SHL SUB AND ADDRESS EQ PUSH2 0xDD9 JUMP JUMPDEST PUSH2 0x1122 SWAP2 POP PUSH1 0x20 RETURNDATASIZE PUSH1 0x20 GT PUSH2 0x1128 JUMPI JUMPDEST PUSH2 0x111A DUP2 DUP4 PUSH2 0x7400 JUMP JUMPDEST DUP2 ADD SWAP1 PUSH2 0x7E16 JUMP JUMPDEST CODESIZE PUSH2 0x10EF JUMP JUMPDEST POP RETURNDATASIZE PUSH2 0x1110 JUMP JUMPDEST PUSH1 0x40 MLOAD RETURNDATASIZE DUP14 DUP3 RETURNDATACOPY RETURNDATASIZE SWAP1 REVERT JUMPDEST PUSH2 0x1153 SWAP2 POP PUSH1 0x20 RETURNDATASIZE PUSH1 0x20 GT PUSH2 0x710 JUMPI PUSH2 0x701 DUP2 DUP4 PUSH2 0x7400 JUMP JUMPDEST CODESIZE PUSH2 0xDD1 JUMP JUMPDEST PUSH1 0x64 PUSH1 0x40 MLOAD PUSH3 0x461BCD PUSH1 0xE5 SHL DUP2 MSTORE PUSH1 0x20 PUSH1 0x4 DUP3 ADD MSTORE PUSH1 0x20 PUSH1 0x24 DUP3 ADD MSTORE PUSH32 0x4E4654206E6F206C6F6E676572206F776E656420627920726563697069656E74 PUSH1 0x44 DUP3 ADD MSTORE REVERT JUMPDEST PUSH2 0x11B7 SWAP2 SWAP4 POP PUSH1 0x20 RETURNDATASIZE PUSH1 0x20 GT PUSH2 0x1128 JUMPI PUSH2 0x111A DUP2 DUP4 PUSH2 0x7400 JUMP JUMPDEST SWAP2 CODESIZE PUSH2 0xD80 JUMP JUMPDEST POP CALLVALUE PUSH2 0x4F4 JUMPI DUP1 PUSH1 0x3 NOT CALLDATASIZE ADD SLT PUSH2 0x4F4 JUMPI PUSH1 0x20 PUSH1 0xE SLOAD PUSH1 0x40 MLOAD SWAP1 DUP2 MSTORE RETURN JUMPDEST POP CALLVALUE PUSH2 0x4F4 JUMPI PUSH1 0x20 CALLDATASIZE PUSH1 0x3 NOT ADD SLT PUSH2 0x4F4 JUMPI PUSH1 0x40 SWAP1 PUSH1 0x4 CALLDATALOAD DUP2 MSTORE PUSH1 0x8 PUSH1 0x20 MSTORE KECCAK256 PUSH1 0x1 DUP1 PUSH1 0xA0 SHL SUB SWAP1 PUSH2 0x4F0 DUP3 DUP3 SLOAD AND SWAP3 DUP1 PUSH1 0x1 DUP5 ADD SLOAD AND SWAP3 PUSH1 0x2 DUP2 ADD SLOAD SWAP4 PUSH1 0x3 DUP3 ADD SLOAD SWAP3 PUSH1 0x4 DUP4 ADD SLOAD SWAP1 PUSH1 0x5 DUP5 ADD SLOAD SWAP2 PUSH1 0x7 PUSH2 0x123A PUSH1 0x6 DUP8 ADD PUSH2 0x74BF JUMP JUMPDEST SWAP6 ADD SLOAD SWAP6 PUSH1 0x40 MLOAD SWAP10 DUP11 SWAP10 PUSH1 0xFF DUP7 PUSH1 0xA8 SHR AND SWAP7 DUP6 PUSH1 0xFF DUP9 PUSH1 0xA0 SHR AND SWAP8 AND SWAP6 PUSH1 0xFF DUP6 PUSH1 0xA0 SHR AND SWAP5 AND SWAP3 DUP13 PUSH2 0x77FE JUMP JUMPDEST POP CALLVALUE PUSH2 0x4F4 JUMPI PUSH1 0x20 SWAP1 DUP2 PUSH1 0x3 NOT CALLDATASIZE ADD SLT PUSH2 0x4F4 JUMPI PUSH1 0x4 CALLDATALOAD SWAP2 PUSH2 0x1287 PUSH2 0x7A59 JUMP JUMPDEST DUP3 DUP3 MSTORE PUSH1 0x15 DUP2 MSTORE PUSH1 0x40 DUP3 KECCAK256 SWAP3 PUSH1 0x3 DUP5 ADD SWAP4 DUP5 SLOAD SWAP5 PUSH1 0xFF DUP7 AND ISZERO PUSH2 0x13B9 JUMPI PUSH2 0x100 DUP7 PUSH2 0x12B9 PUSH1 0xFF DUP9 SWAP10 PUSH1 0x8 SHR AND ISZERO PUSH2 0x802C JUMP JUMPDEST PUSH2 0xFF00 NOT AND OR SWAP1 SSTORE TIMESTAMP PUSH1 0x5 DUP3 ADD SSTORE PUSH2 0x12DA DUP2 SLOAD PUSH1 0xFF PUSH1 0x1 DUP5 ADD SLOAD AND SWAP1 PUSH2 0x82B0 JUMP JUMPDEST PUSH1 0x1 PUSH1 0x1 PUSH1 0xA0 SHL SUB DUP1 DUP5 AND SWAP8 SWAP3 SWAP7 SWAP4 DUP8 SWAP3 DUP10 SWAP3 SWAP1 SWAP2 SWAP1 PUSH2 0x12FB DUP5 ISZERO ISZERO PUSH2 0x8073 JUMP JUMPDEST DUP5 ISZERO SWAP3 PUSH2 0x1308 DUP5 ISZERO PUSH2 0x80BA JUMP JUMPDEST AND SWAP1 DUP2 PUSH2 0x134E JUMPI POP POP DUP4 SWAP1 PUSH2 0x1345 JUMPI JUMPDEST DUP4 SWAP3 DUP4 SWAP3 DUP4 SWAP3 CALL ISZERO PUSH2 0x60D JUMPI PUSH1 0x0 DUP1 MLOAD PUSH1 0x20 PUSH2 0x8810 DUP4 CODECOPY DUP2 MLOAD SWAP2 MSTORE SWAP2 JUMPDEST SLOAD SWAP4 PUSH1 0x40 MLOAD SWAP1 DUP2 MSTORE LOG4 PUSH1 0x1 DUP2 SSTORE DUP1 RETURN JUMPDEST POP PUSH2 0x8FC PUSH2 0x1318 JUMP JUMPDEST SWAP1 SWAP2 POP DUP6 SWAP4 SWAP3 POP PUSH2 0x1376 SWAP7 SWAP5 PUSH1 0x40 MLOAD DUP1 SWAP9 DUP2 SWAP6 DUP3 SWAP5 PUSH4 0xA9059CBB PUSH1 0xE0 SHL DUP5 MSTORE PUSH1 0x4 DUP5 ADD PUSH2 0x7BFE JUMP JUMPDEST SUB SWAP3 GAS CALL SWAP3 DUP4 ISZERO PUSH2 0x717 JUMPI PUSH1 0x0 DUP1 MLOAD PUSH1 0x20 PUSH2 0x8810 DUP4 CODECOPY DUP2 MLOAD SWAP2 MSTORE SWAP4 PUSH2 0x139C JUMPI JUMPDEST POP PUSH2 0x1335 JUMP JUMPDEST PUSH2 0x13B2 SWAP1 DUP4 RETURNDATASIZE DUP6 GT PUSH2 0x710 JUMPI PUSH2 0x701 DUP2 DUP4 PUSH2 0x7400 JUMP JUMPDEST POP CODESIZE PUSH2 0x1396 JUMP JUMPDEST PUSH1 0x40 MLOAD PUSH3 0x461BCD PUSH1 0xE5 SHL DUP2 MSTORE PUSH1 0x4 DUP2 ADD DUP6 SWAP1 MSTORE PUSH1 0x13 PUSH1 0x24 DUP3 ADD MSTORE PUSH19 0x1499599D5B99081B9BDD08185C1C1C9BDD9959 PUSH1 0x6A SHL PUSH1 0x44 DUP3 ADD MSTORE PUSH1 0x64 SWAP1 REVERT JUMPDEST POP CALLVALUE PUSH2 0x4F4 JUMPI DUP1 PUSH1 0x3 NOT CALLDATASIZE ADD SLT PUSH2 0x4F4 JUMPI PUSH1 0x20 PUSH1 0xA SLOAD PUSH1 0x40 MLOAD SWAP1 DUP2 MSTORE RETURN JUMPDEST POP CALLVALUE PUSH2 0x4F4 JUMPI PUSH1 0x20 CALLDATASIZE PUSH1 0x3 NOT ADD SLT PUSH2 0x4F4 JUMPI PUSH1 0x40 SWAP1 PUSH1 0x4 CALLDATALOAD DUP2 MSTORE PUSH1 0x11 PUSH1 0x20 MSTORE KECCAK256 PUSH1 0x1 DUP1 PUSH1 0xA0 SHL SUB SWAP1 PUSH2 0x4F0 DUP3 DUP3 SLOAD AND SWAP3 DUP1 PUSH1 0x1 DUP5 ADD SLOAD AND SWAP3 PUSH1 0x2 DUP2 ADD SLOAD SWAP5 DUP3 PUSH1 0x3 DUP4 ADD SLOAD AND SWAP3 PUSH1 0x4 DUP4 ADD SLOAD AND SWAP1 PUSH2 0x146B PUSH1 0x5 DUP5 ADD PUSH2 0x74BF JUMP JUMPDEST SWAP1 PUSH2 0x1478 PUSH1 0x6 DUP6 ADD PUSH2 0x74BF JUMP JUMPDEST PUSH1 0xFF PUSH1 0x7 DUP7 ADD SLOAD AND PUSH1 0x8 DUP7 ADD SLOAD SWAP2 PUSH1 0x9 DUP8 ADD SLOAD SWAP5 PUSH2 0x1498 PUSH1 0xA DUP10 ADD PUSH2 0x74BF JUMP JUMPDEST SWAP7 PUSH1 0xC PUSH1 0xB DUP11 ADD SLOAD SWAP10 ADD SLOAD SWAP10 PUSH1 0x40 MLOAD SWAP14 DUP15 SWAP14 DUP15 SWAP9 PUSH1 0xFF DUP1 DUP13 PUSH1 0x8 SHR AND SWAP12 AND SWAP10 PUSH2 0x76E9 JUMP JUMPDEST POP CALLVALUE PUSH2 0x4F4 JUMPI PUSH1 0x40 CALLDATASIZE PUSH1 0x3 NOT ADD SLT PUSH2 0x4F4 JUMPI PUSH1 0x40 PUSH1 0x24 CALLDATALOAD SWAP2 PUSH1 0x4 CALLDATALOAD DUP2 MSTORE PUSH1 0x9 PUSH1 0x20 MSTORE KECCAK256 SWAP1 PUSH1 0x1 DUP3 ADD SWAP2 DUP3 SLOAD DUP3 LT ISZERO PUSH2 0x151A JUMPI PUSH1 0x20 SWAP3 PUSH1 0x1 PUSH2 0x1508 PUSH2 0x2710 SWAP5 PUSH1 0x2 PUSH2 0x1511 SWAP6 ADD SLOAD SWAP4 PUSH2 0x7DFA JUMP JUMPDEST POP ADD SLOAD SWAP1 PUSH2 0x792A JUMP JUMPDEST DIV PUSH1 0x40 MLOAD SWAP1 DUP2 MSTORE RETURN JUMPDEST PUSH1 0x40 MLOAD PUSH3 0x461BCD PUSH1 0xE5 SHL DUP2 MSTORE PUSH1 0x20 PUSH1 0x4 DUP3 ADD MSTORE PUSH1 0x17 PUSH1 0x24 DUP3 ADD MSTORE PUSH23 0x92DCECC2D8D2C840E4CAC6D2E0D2CADCE840D2DCC8CAF PUSH1 0x4B SHL PUSH1 0x44 DUP3 ADD MSTORE PUSH1 0x64 SWAP1 REVERT JUMPDEST POP CALLVALUE PUSH2 0x4F4 JUMPI PUSH1 0x20 CALLDATASIZE PUSH1 0x3 NOT ADD SLT PUSH2 0x4F4 JUMPI PUSH1 0xFF PUSH1 0x40 PUSH1 0x20 SWAP3 PUSH1 0x4 CALLDATALOAD DUP2 MSTORE PUSH1 0x17 DUP5 MSTORE KECCAK256 SLOAD AND PUSH1 0x40 MLOAD SWAP1 ISZERO ISZERO DUP2 MSTORE RETURN JUMPDEST POP CALLVALUE PUSH2 0x4F4 JUMPI DUP1 PUSH1 0x3 NOT CALLDATASIZE ADD SLT PUSH2 0x4F4 JUMPI PUSH1 0x20 PUSH2 0x15A3 PUSH2 0x85A0 JUMP JUMPDEST PUSH1 0x40 MLOAD SWAP1 DUP2 MSTORE RETURN JUMPDEST POP CALLVALUE PUSH2 0x4F4 JUMPI PUSH1 0x20 CALLDATASIZE PUSH1 0x3 NOT ADD SLT PUSH2 0x4F4 JUMPI PUSH1 0x40 SWAP1 PUSH1 0x4 CALLDATALOAD DUP2 MSTORE PUSH1 0xF PUSH1 0x20 MSTORE KECCAK256 PUSH1 0x1 DUP1 PUSH1 0xA0 SHL SUB SWAP1 PUSH2 0x4F0 DUP3 DUP3 SLOAD AND SWAP3 DUP1 PUSH1 0x1 DUP5 ADD SLOAD AND SWAP3 DUP2 PUSH1 0x2 DUP3 ADD SLOAD AND SWAP5 PUSH1 0x3 DUP3 ADD SLOAD SWAP3 PUSH1 0x4 DUP4 ADD SLOAD SWAP2 PUSH1 0x5 DUP5 ADD SLOAD SWAP1 PUSH2 0x1609 PUSH1 0x6 DUP7 ADD PUSH2 0x74BF JUMP JUMPDEST SWAP4 PUSH1 0x8 PUSH1 0x7 DUP8 ADD SLOAD SWAP7 ADD SLOAD SWAP7 PUSH1 0x40 MLOAD SWAP11 DUP12 SWAP11 PUSH1 0xFF DUP7 PUSH1 0xA8 SHR AND SWAP7 PUSH1 0xFF DUP8 PUSH1 0xA0 SHR AND SWAP7 AND SWAP5 DUP13 PUSH2 0x7783 JUMP JUMPDEST POP CALLVALUE PUSH2 0x4F4 JUMPI PUSH1 0x40 CALLDATASIZE PUSH1 0x3 NOT ADD SLT PUSH2 0x4F4 JUMPI PUSH2 0x164D PUSH2 0x72EF JUMP JUMPDEST PUSH1 0x24 CALLDATALOAD SWAP1 PUSH1 0x7 DUP3 LT ISZERO PUSH2 0x1687 JUMPI PUSH1 0x1 PUSH1 0x1 PUSH1 0xA0 SHL SUB AND DUP3 MSTORE PUSH1 0x23 PUSH1 0x20 SWAP1 DUP2 MSTORE PUSH1 0x40 SWAP1 SWAP3 KECCAK256 PUSH2 0x167E SWAP2 SWAP1 PUSH1 0x8 ADD PUSH2 0x84D7 JUMP JUMPDEST SLOAD PUSH1 0x40 MLOAD SWAP1 DUP2 MSTORE RETURN JUMPDEST DUP3 DUP1 REVERT JUMPDEST POP CALLVALUE PUSH2 0x4F4 JUMPI DUP1 PUSH1 0x3 NOT CALLDATASIZE ADD SLT PUSH2 0x4F4 JUMPI PUSH1 0x20 PUSH1 0x10 SLOAD PUSH1 0x40 MLOAD SWAP1 DUP2 MSTORE RETURN JUMPDEST POP CALLVALUE PUSH2 0x4F4 JUMPI PUSH1 0x20 CALLDATASIZE PUSH1 0x3 NOT ADD SLT PUSH2 0x4F4 JUMPI PUSH1 0x40 SWAP1 PUSH1 0x1 PUSH1 0x1 PUSH1 0xA0 SHL SUB PUSH2 0x16CE PUSH2 0x72EF JUMP JUMPDEST AND DUP2 MSTORE PUSH1 0x23 PUSH1 0x20 MSTORE KECCAK256 DUP1 SLOAD PUSH2 0x4F0 PUSH1 0x1 DUP4 ADD SLOAD SWAP3 PUSH1 0x2 DUP2 ADD SLOAD SWAP1 PUSH1 0x3 DUP2 ADD SLOAD PUSH1 0x5 PUSH1 0x4 DUP4 ADD SLOAD SWAP3 ADD SLOAD SWAP3 PUSH1 0x40 MLOAD SWAP7 DUP8 SWAP7 DUP8 PUSH2 0x76C1 JUMP JUMPDEST POP CALLVALUE PUSH2 0x4F4 JUMPI PUSH1 0xA0 CALLDATASIZE PUSH1 0x3 NOT ADD SLT PUSH2 0x4F4 JUMPI PUSH2 0x171E PUSH2 0x72EF JUMP JUMPDEST PUSH2 0x1726 PUSH2 0x7305 JUMP JUMPDEST PUSH1 0x64 CALLDATALOAD SWAP3 SWAP1 SWAP2 SWAP1 PUSH1 0x1 PUSH1 0x1 PUSH1 0x40 SHL SUB DUP5 GT PUSH2 0x4F4 JUMPI POP PUSH2 0x17A8 PUSH1 0x88 PUSH2 0x1751 PUSH1 0x20 SWAP6 CALLDATASIZE SWAP1 PUSH1 0x4 ADD PUSH2 0x743E JUMP JUMPDEST SWAP3 PUSH1 0x40 MLOAD SWAP4 DUP5 SWAP2 DUP8 DUP4 ADD SWAP7 PUSH1 0x1 DUP1 PUSH1 0x60 SHL SUB NOT DUP1 SWAP3 PUSH1 0x60 SHL AND DUP9 MSTORE PUSH1 0x24 CALLDATALOAD PUSH1 0x34 DUP6 ADD MSTORE PUSH1 0x60 SHL AND PUSH1 0x54 DUP4 ADD MSTORE PUSH2 0x1790 DUP2 MLOAD DUP1 SWAP3 DUP10 PUSH1 0x68 DUP7 ADD SWAP2 ADD PUSH2 0x7565 JUMP JUMPDEST DUP2 ADD PUSH1 0x84 CALLDATALOAD PUSH1 0x68 DUP3 ADD MSTORE SUB PUSH1 0x68 DUP2 ADD DUP5 MSTORE ADD DUP3 PUSH2 0x7400 JUMP JUMPDEST MLOAD SWAP1 KECCAK256 PUSH1 0x40 MLOAD SWAP1 DUP2 MSTORE RETURN JUMPDEST POP CALLVALUE PUSH2 0x4F4 JUMPI PUSH1 0x20 CALLDATASIZE PUSH1 0x3 NOT ADD SLT PUSH2 0x4F4 JUMPI PUSH1 0x20 SWAP1 PUSH1 0xFF SWAP1 PUSH1 0x40 SWAP1 PUSH1 0x1 PUSH1 0x1 PUSH1 0xA0 SHL SUB PUSH2 0x17DE PUSH2 0x72EF JUMP JUMPDEST AND DUP2 MSTORE PUSH1 0x13 DUP5 MSTORE KECCAK256 SLOAD AND PUSH1 0x40 MLOAD SWAP1 ISZERO ISZERO DUP2 MSTORE RETURN JUMPDEST POP CALLVALUE PUSH2 0x4F4 JUMPI PUSH1 0x60 CALLDATASIZE PUSH1 0x3 NOT ADD SLT PUSH2 0x4F4 JUMPI PUSH1 0x24 CALLDATALOAD PUSH1 0x4 CALLDATALOAD PUSH1 0x7 DUP3 LT ISZERO PUSH2 0x1687 JUMPI PUSH1 0x1 PUSH1 0x1 PUSH1 0x40 SHL SUB SWAP1 PUSH1 0x44 CALLDATALOAD DUP3 DUP2 GT PUSH2 0x1A48 JUMPI PUSH2 0x1834 SWAP1 CALLDATASIZE SWAP1 PUSH1 0x4 ADD PUSH2 0x743E JUMP JUMPDEST SWAP2 DUP3 MLOAD ISZERO PUSH2 0x1A11 JUMPI PUSH2 0x1847 CALLER DUP6 DUP5 PUSH2 0x80FE JUMP JUMPDEST ISZERO PUSH2 0x19CD JUMPI PUSH1 0x16 SLOAD SWAP4 PUSH2 0x1859 DUP6 PUSH2 0x7A7C JUMP JUMPDEST PUSH1 0x16 SSTORE DUP5 DUP7 MSTORE PUSH1 0x15 PUSH1 0x20 SWAP1 DUP2 MSTORE PUSH1 0x40 DUP8 KECCAK256 DUP5 DUP2 SSTORE PUSH1 0x1 DUP1 DUP3 ADD DUP1 SLOAD PUSH1 0x1 PUSH1 0x1 PUSH1 0xA8 SHL SUB NOT AND PUSH1 0xFF DUP7 AND OR CALLER PUSH1 0x8 SHL PUSH2 0x100 PUSH1 0x1 PUSH1 0xA8 SHL SUB AND OR SWAP1 SSTORE DUP7 MLOAD SWAP3 SWAP9 SWAP1 SWAP5 SWAP2 SWAP3 PUSH1 0x2 DUP5 ADD SWAP3 SWAP1 SWAP2 SWAP1 DUP3 GT PUSH2 0x19B9 JUMPI SWAP1 DUP3 SWAP2 PUSH2 0x18C4 DUP3 PUSH2 0x18BE DUP13 SWAP9 SWAP8 SWAP7 SLOAD PUSH2 0x7485 JUMP JUMPDEST DUP6 PUSH2 0x7A14 JUMP JUMPDEST DUP11 SWAP1 PUSH1 0x1F DUP4 GT PUSH1 0x1 EQ PUSH2 0x1949 JUMPI PUSH1 0x0 DUP1 MLOAD PUSH1 0x20 PUSH2 0x8830 DUP4 CODECOPY DUP2 MLOAD SWAP2 MSTORE SWAP7 SWAP8 DUP4 SWAP3 DUP4 SWAP3 SWAP4 PUSH2 0x193E JUMPI JUMPDEST POP SHL SWAP2 PUSH1 0x0 NOT SWAP1 PUSH1 0x3 SHL SHR NOT AND OR SWAP1 SSTORE JUMPDEST PUSH1 0x3 DUP2 ADD PUSH2 0xFFFF NOT DUP2 SLOAD AND SWAP1 SSTORE PUSH1 0x4 TIMESTAMP SWAP2 ADD SSTORE PUSH2 0x191D PUSH1 0x40 MLOAD DUP1 SWAP3 PUSH2 0x75AD JUMP JUMPDEST PUSH1 0x40 DUP8 DUP3 ADD MSTORE DUP1 PUSH2 0x1933 CALLER SWAP7 PUSH1 0x40 DUP4 ADD SWAP1 PUSH2 0x7588 JUMP JUMPDEST SUB SWAP1 LOG4 PUSH1 0x40 MLOAD SWAP1 DUP2 MSTORE RETURN JUMPDEST DUP12 ADD MLOAD SWAP3 POP CODESIZE PUSH2 0x18EC JUMP JUMPDEST DUP4 DUP2 MSTORE DUP12 DUP2 KECCAK256 PUSH1 0x1F NOT DUP5 AND SWAP9 SWAP4 SWAP3 SWAP1 SWAP2 JUMPDEST DUP14 DUP13 DUP12 DUP4 LT PUSH2 0x19A3 JUMPI POP POP POP DUP3 PUSH1 0x0 DUP1 MLOAD PUSH1 0x20 PUSH2 0x8830 DUP4 CODECOPY DUP2 MLOAD SWAP2 MSTORE SWAP9 SWAP10 LT PUSH2 0x198A JUMPI JUMPDEST POP POP DUP2 SHL ADD SWAP1 SSTORE PUSH2 0x18FD JUMP JUMPDEST DUP11 ADD MLOAD PUSH1 0x0 NOT PUSH1 0xF8 DUP5 PUSH1 0x3 SHL AND SHR NOT AND SWAP1 SSTORE CODESIZE DUP1 PUSH2 0x197E JUMP JUMPDEST DUP4 ADD MLOAD DUP5 SSTORE DUP14 SWAP10 POP SWAP3 DUP6 ADD SWAP3 SWAP2 DUP3 ADD SWAP2 ADD PUSH2 0x195A JUMP JUMPDEST PUSH4 0x4E487B71 PUSH1 0xE0 SHL DUP2 MSTORE PUSH1 0x41 PUSH1 0x4 MSTORE PUSH1 0x24 SWAP1 REVERT JUMPDEST PUSH1 0x64 PUSH1 0x40 MLOAD PUSH3 0x461BCD PUSH1 0xE5 SHL DUP2 MSTORE PUSH1 0x20 PUSH1 0x4 DUP3 ADD MSTORE PUSH1 0x20 PUSH1 0x24 DUP3 ADD MSTORE PUSH32 0x4E6F7420617574686F72697A656420746F207265717565737420726566756E64 PUSH1 0x44 DUP3 ADD MSTORE REVERT JUMPDEST PUSH1 0x40 MLOAD PUSH3 0x461BCD PUSH1 0xE5 SHL DUP2 MSTORE PUSH1 0x20 PUSH1 0x4 DUP3 ADD MSTORE PUSH1 0xF PUSH1 0x24 DUP3 ADD MSTORE PUSH15 0x1499585CDBDB881C995C5D5A5C9959 PUSH1 0x8A SHL PUSH1 0x44 DUP3 ADD MSTORE PUSH1 0x64 SWAP1 REVERT JUMPDEST DUP5 DUP1 REVERT JUMPDEST POP CALLVALUE PUSH2 0x4F4 JUMPI PUSH1 0x20 SWAP1 DUP2 PUSH1 0x3 NOT CALLDATASIZE ADD SLT PUSH2 0x4F4 JUMPI PUSH1 0x4 CALLDATALOAD PUSH2 0x1A6B PUSH2 0x7A59 JUMP JUMPDEST DUP1 DUP3 MSTORE PUSH1 0x8 DUP4 MSTORE PUSH1 0x40 DUP3 KECCAK256 DUP1 SLOAD PUSH1 0x1 PUSH1 0x1 PUSH1 0xA0 SHL SUB SWAP1 DUP2 AND SWAP2 CALLER DUP4 SWAP1 SUB PUSH2 0x1BA6 JUMPI DUP5 SWAP6 PUSH1 0x5 DUP3 SWAP7 SWAP6 SWAP7 ADD DUP1 SLOAD PUSH2 0x1AA7 PUSH1 0xFF DUP3 PUSH1 0xA0 SHR AND ISZERO PUSH2 0x7C19 JUMP JUMPDEST PUSH2 0x1AB7 PUSH1 0xFF DUP3 PUSH1 0xA8 SHR AND ISZERO PUSH2 0x7D37 JUMP JUMPDEST PUSH1 0xFF PUSH1 0xA8 SHL NOT AND PUSH1 0x1 PUSH1 0xA8 SHL OR SWAP1 SSTORE PUSH1 0x2 DUP3 ADD SLOAD PUSH1 0x24 SLOAD PUSH2 0x1AE8 SWAP2 SWAP1 PUSH2 0x2710 SWAP1 PUSH2 0x1AE1 SWAP1 DUP4 PUSH2 0x792A JUMP JUMPDEST DIV SWAP1 PUSH2 0x7AB5 JUMP JUMPDEST SWAP4 DUP4 PUSH1 0x3 DUP5 ADD SLOAD AND SWAP1 DUP2 ISZERO PUSH1 0x0 EQ PUSH2 0x1B4A JUMPI POP POP POP DUP4 SWAP3 DUP4 SWAP3 DUP4 SWAP3 SLOAD AND DUP3 DUP3 ISZERO PUSH2 0x1B41 JUMPI JUMPDEST CALL ISZERO PUSH2 0x621 JUMPI JUMPDEST CALLER SWAP1 PUSH32 0x2097C18CC603395DCC2830C81099F82D472042301AB0F2941CBE36CD2A8079C0 DUP4 DUP1 LOG3 PUSH1 0x1 DUP2 SSTORE DUP1 RETURN JUMPDEST POP PUSH2 0x8FC PUSH2 0x1B0D JUMP JUMPDEST SWAP1 SWAP2 SWAP6 DUP7 SWAP5 POP PUSH2 0x1B72 SWAP6 SWAP4 POP PUSH1 0x40 MLOAD DUP1 SWAP7 DUP2 SWAP6 DUP3 SWAP5 PUSH4 0xA9059CBB PUSH1 0xE0 SHL DUP5 MSTORE PUSH1 0x4 DUP5 ADD PUSH2 0x7BFE JUMP JUMPDEST SUB SWAP3 GAS CALL DUP1 ISZERO PUSH2 0xF03 JUMPI PUSH2 0x1B88 JUMPI JUMPDEST POP POP PUSH2 0x1B14 JUMP JUMPDEST DUP2 PUSH2 0x1B9E SWAP3 SWAP1 RETURNDATASIZE LT PUSH2 0x710 JUMPI PUSH2 0x701 DUP2 DUP4 PUSH2 0x7400 JUMP JUMPDEST POP CODESIZE DUP1 PUSH2 0x1B81 JUMP JUMPDEST PUSH1 0x40 MLOAD PUSH3 0x461BCD PUSH1 0xE5 SHL DUP2 MSTORE PUSH1 0x4 DUP2 ADD DUP8 SWAP1 MSTORE PUSH1 0x15 PUSH1 0x24 DUP3 ADD MSTORE PUSH21 0x13DB9B1E481C185E595C8818D85B8818D85B98D95B PUSH1 0x5A SHL PUSH1 0x44 DUP3 ADD MSTORE PUSH1 0x64 SWAP1 REVERT JUMPDEST POP CALLVALUE PUSH2 0x4F4 JUMPI PUSH1 0x20 CALLDATASIZE PUSH1 0x3 NOT ADD SLT PUSH2 0x4F4 JUMPI PUSH1 0x20 PUSH2 0xB8F PUSH1 0x4 CALLDATALOAD PUSH2 0x86CA JUMP JUMPDEST POP CALLVALUE PUSH2 0x4F4 JUMPI PUSH1 0x20 CALLDATASIZE PUSH1 0x3 NOT ADD SLT PUSH2 0x4F4 JUMPI PUSH1 0x40 SWAP1 PUSH1 0x4 CALLDATALOAD DUP2 MSTORE PUSH1 0x9 PUSH1 0x20 MSTORE KECCAK256 PUSH1 0x1 DUP1 PUSH1 0xA0 SHL SUB DUP1 DUP3 SLOAD AND SWAP1 PUSH2 0x1C80 PUSH1 0x2 DUP5 ADD SLOAD SWAP4 PUSH1 0xFF PUSH1 0x3 DUP3 ADD SLOAD PUSH1 0x5 PUSH2 0x1C4C PUSH1 0x4 DUP6 ADD PUSH2 0x74BF JUMP JUMPDEST SWAP4 ADD SLOAD SWAP5 PUSH1 0x40 MLOAD SWAP8 DUP9 SWAP8 DUP9 MSTORE PUSH1 0x20 DUP9 ADD MSTORE DUP2 AND PUSH1 0x40 DUP8 ADD MSTORE PUSH1 0xA0 SHR AND ISZERO ISZERO PUSH1 0x60 DUP6 ADD MSTORE PUSH1 0xC0 PUSH1 0x80 DUP6 ADD MSTORE PUSH1 0xC0 DUP5 ADD SWAP1 PUSH2 0x7588 JUMP JUMPDEST SWAP1 PUSH1 0xA0 DUP4 ADD MSTORE SUB SWAP1 RETURN JUMPDEST POP CALLVALUE PUSH2 0x4F4 JUMPI PUSH1 0x20 CALLDATASIZE PUSH1 0x3 NOT ADD SLT PUSH2 0x4F4 JUMPI PUSH1 0x40 SWAP1 PUSH1 0x4 CALLDATALOAD DUP2 MSTORE PUSH1 0xF PUSH1 0x20 MSTORE KECCAK256 PUSH1 0x1 DUP1 PUSH1 0xA0 SHL SUB SWAP1 PUSH2 0x4F0 DUP3 DUP3 SLOAD AND SWAP2 DUP4 PUSH1 0x1 DUP3 ADD SLOAD AND SWAP3 DUP5 PUSH1 0x2 DUP4 ADD SLOAD AND SWAP5 PUSH1 0x3 DUP4 ADD SLOAD SWAP1 PUSH1 0x4 DUP5 ADD SLOAD SWAP3 PUSH1 0x5 DUP6 ADD SLOAD SWAP1 PUSH1 0x7 DUP7 ADD SLOAD SWAP5 PUSH2 0x1CF3 PUSH1 0x6 PUSH1 0x8 DUP10 ADD SLOAD SWAP9 ADD PUSH2 0x74BF JUMP JUMPDEST SWAP5 PUSH1 0x40 MLOAD SWAP11 DUP12 SWAP11 PUSH1 0xFF DUP7 PUSH1 0xA8 SHR AND SWAP7 PUSH1 0xFF DUP8 PUSH1 0xA0 SHR AND SWAP7 AND SWAP5 DUP13 PUSH2 0x7783 JUMP JUMPDEST POP CALLVALUE PUSH2 0x4F4 JUMPI PUSH1 0x20 CALLDATASIZE PUSH1 0x3 NOT ADD SLT PUSH2 0x4F4 JUMPI PUSH1 0xFF PUSH1 0x40 PUSH1 0x20 SWAP3 PUSH1 0x4 CALLDATALOAD DUP2 MSTORE PUSH1 0x3 DUP5 MSTORE KECCAK256 SLOAD AND PUSH1 0x40 MLOAD SWAP1 ISZERO ISZERO DUP2 MSTORE RETURN JUMPDEST POP CALLVALUE PUSH2 0x4F4 JUMPI PUSH1 0x20 CALLDATASIZE PUSH1 0x3 NOT ADD SLT PUSH2 0x4F4 JUMPI PUSH1 0x4 CALLDATALOAD PUSH2 0x1D5E PUSH2 0x7870 JUMP JUMPDEST PUSH2 0x1D6C PUSH2 0x3E8 DUP3 GT ISZERO PUSH2 0x7AC2 JUMP JUMPDEST PUSH1 0x24 SSTORE DUP1 RETURN JUMPDEST POP CALLVALUE PUSH2 0x4F4 JUMPI PUSH1 0x40 CALLDATASIZE PUSH1 0x3 NOT ADD SLT PUSH2 0x4F4 JUMPI PUSH2 0x1D8C PUSH2 0x72EF JUMP JUMPDEST PUSH2 0x1D94 PUSH2 0x7388 JUMP JUMPDEST SWAP1 PUSH2 0x1D9D PUSH2 0x7870 JUMP JUMPDEST PUSH1 0x1 PUSH1 0x1 PUSH1 0xA0 SHL SUB AND SWAP1 DUP2 ISZERO PUSH2 0x1DF1 JUMPI PUSH1 0x20 PUSH32 0x46FE0810A41E3DBF985C77C9F30207CE6EDA91DCBA24D8DE583B6EA30AC16F00 SWAP2 DUP4 DUP6 MSTORE PUSH1 0x13 DUP3 MSTORE PUSH2 0x1DE5 DUP2 PUSH1 0x40 DUP8 KECCAK256 PUSH2 0x7919 JUMP JUMPDEST PUSH1 0x40 MLOAD SWAP1 ISZERO ISZERO DUP2 MSTORE LOG2 DUP1 RETURN JUMPDEST PUSH1 0x40 MLOAD PUSH3 0x461BCD PUSH1 0xE5 SHL DUP2 MSTORE PUSH1 0x20 PUSH1 0x4 DUP3 ADD MSTORE PUSH1 0x18 PUSH1 0x24 DUP3 ADD MSTORE PUSH24 0x496E76616C696420636F6E74726163742061646472657373 PUSH1 0x40 SHL PUSH1 0x44 DUP3 ADD MSTORE PUSH1 0x64 SWAP1 REVERT JUMPDEST POP PUSH1 0xC0 CALLDATASIZE PUSH1 0x3 NOT ADD SLT PUSH2 0x4F4 JUMPI PUSH2 0x1E46 PUSH2 0x72EF JUMP JUMPDEST PUSH2 0x1E4E PUSH2 0x7331 JUMP JUMPDEST SWAP1 PUSH2 0x1E57 PUSH2 0x731B JUMP JUMPDEST SWAP3 PUSH1 0xA4 CALLDATALOAD PUSH1 0x1 PUSH1 0x1 PUSH1 0x40 SHL SUB DUP2 GT PUSH2 0x783 JUMPI PUSH2 0x1E77 SWAP1 CALLDATASIZE SWAP1 PUSH1 0x4 ADD PUSH2 0x743E JUMP JUMPDEST SWAP3 PUSH2 0x1E80 PUSH2 0x7A59 JUMP JUMPDEST PUSH2 0x1E94 PUSH1 0x1 PUSH1 0x1 PUSH1 0xA0 SHL SUB DUP5 AND ISZERO ISZERO PUSH2 0x789C JUMP JUMPDEST PUSH2 0x1EA8 PUSH1 0x1 PUSH1 0x1 PUSH1 0xA0 SHL SUB DUP3 AND ISZERO ISZERO PUSH2 0x7AFD JUMP JUMPDEST PUSH2 0x1EB5 PUSH1 0x44 CALLDATALOAD ISZERO ISZERO PUSH2 0x78DC JUMP JUMPDEST PUSH2 0x1EC2 TIMESTAMP PUSH1 0x84 CALLDATALOAD GT PUSH2 0x7B3B JUMP JUMPDEST PUSH1 0x1 PUSH1 0x1 PUSH1 0xA0 SHL SUB DUP2 AND CALLER EQ ISZERO DUP1 PUSH2 0x224D JUMPI JUMPDEST PUSH2 0x1EDE SWAP1 PUSH2 0x7AFD JUMP JUMPDEST PUSH1 0xB SLOAD SWAP3 PUSH2 0x1EEB DUP5 PUSH2 0x7A7C JUMP JUMPDEST PUSH1 0xB SSTORE DUP3 PUSH2 0x1F0C PUSH2 0x2710 PUSH2 0x1F03 PUSH1 0x25 SLOAD PUSH1 0x44 CALLDATALOAD PUSH2 0x792A JUMP JUMPDEST DIV PUSH1 0x44 CALLDATALOAD PUSH2 0x7AB5 JUMP JUMPDEST PUSH1 0x1 PUSH1 0x1 PUSH1 0xA0 SHL SUB DUP9 AND PUSH2 0x21EA JUMPI PUSH2 0x1F26 DUP2 CALLVALUE LT ISZERO PUSH2 0x79BA JUMP JUMPDEST DUP1 CALLVALUE GT PUSH2 0x21B2 JUMPI JUMPDEST POP POP JUMPDEST PUSH1 0x40 MLOAD SWAP5 PUSH2 0x1F3E DUP7 PUSH2 0x73E4 JUMP JUMPDEST CALLER DUP7 MSTORE PUSH1 0x1 PUSH1 0x1 PUSH1 0xA0 SHL SUB DUP3 DUP2 AND PUSH1 0x20 DUP1 DUP10 ADD SWAP2 DUP3 MSTORE DUP6 DUP4 AND PUSH1 0x40 DUP1 DUP12 ADD SWAP2 DUP3 MSTORE PUSH1 0x44 CALLDATALOAD PUSH1 0x60 DUP13 ADD SWAP1 DUP2 MSTORE DUP13 DUP7 AND PUSH1 0x80 DUP14 ADD SWAP1 DUP2 MSTORE PUSH1 0x84 CALLDATALOAD PUSH1 0xA0 DUP15 ADD SWAP1 DUP2 MSTORE PUSH1 0xC0 DUP15 ADD DUP13 DUP2 MSTORE PUSH1 0xE0 DUP16 ADD DUP14 SWAP1 MSTORE PUSH2 0x100 DUP16 ADD DUP14 SWAP1 MSTORE PUSH2 0x120 DUP16 ADD SWAP10 SWAP1 SWAP10 MSTORE TIMESTAMP PUSH2 0x140 DUP16 ADD MSTORE DUP13 DUP13 MSTORE PUSH1 0x5 SWAP6 DUP7 SWAP1 MSTORE SWAP3 DUP12 KECCAK256 DUP14 MLOAD DUP2 SLOAD SWAP1 DUP10 AND PUSH1 0x1 PUSH1 0x1 PUSH1 0xA0 SHL SUB NOT SWAP2 DUP3 AND OR DUP3 SSTORE SWAP7 MLOAD PUSH1 0x1 DUP3 ADD DUP1 SLOAD SWAP2 DUP11 AND SWAP2 DUP10 AND SWAP2 SWAP1 SWAP2 OR SWAP1 SSTORE SWAP4 MLOAD PUSH1 0x2 DUP6 ADD DUP1 SLOAD SWAP2 DUP10 AND SWAP2 DUP9 AND SWAP2 SWAP1 SWAP2 OR SWAP1 SSTORE SWAP1 MLOAD PUSH1 0x3 DUP5 ADD SSTORE MLOAD PUSH1 0x4 DUP4 ADD DUP1 SLOAD SWAP2 SWAP1 SWAP7 AND SWAP5 AND SWAP4 SWAP1 SWAP4 OR SWAP1 SWAP4 SSTORE SWAP1 MLOAD SWAP1 DUP3 ADD SSTORE SWAP1 MLOAD SWAP1 SWAP7 SWAP1 PUSH1 0x6 DUP9 ADD SWAP1 PUSH2 0x2024 SWAP1 ISZERO ISZERO DUP3 PUSH2 0x7919 JUMP JUMPDEST PUSH1 0xE0 DUP8 ADD MLOAD ISZERO ISZERO DUP2 SLOAD PUSH2 0xFF00 PUSH3 0xFF0000 PUSH2 0x100 DUP12 ADD MLOAD ISZERO ISZERO PUSH1 0x10 SHL AND SWAP3 PUSH1 0x8 SHL AND SWAP1 PUSH3 0xFFFF00 NOT AND OR OR SWAP1 SSTORE PUSH2 0x120 DUP7 ADD MLOAD SWAP7 DUP8 MLOAD PUSH1 0x1 DUP1 PUSH1 0x40 SHL SUB DUP2 GT PUSH2 0x219E JUMPI PUSH1 0x20 SWAP9 PUSH2 0x2083 DUP3 PUSH2 0x207A PUSH1 0x7 DUP7 ADD SLOAD PUSH2 0x7485 JUMP JUMPDEST PUSH1 0x7 DUP7 ADD PUSH2 0x7A14 JUMP JUMPDEST DUP10 SWAP1 PUSH1 0x1F DUP4 GT PUSH1 0x1 EQ PUSH2 0x212B JUMPI SWAP9 DUP3 PUSH1 0x8 SWAP4 PUSH2 0x140 SWAP4 PUSH1 0x1 SWAP12 SWAP13 DUP12 SWAP3 PUSH2 0x2120 JUMPI JUMPDEST POP POP PUSH1 0x0 NOT PUSH1 0x3 DUP4 SWAP1 SHL SHR NOT AND SWAP1 DUP11 SHL OR PUSH1 0x7 DUP6 ADD SSTORE JUMPDEST ADD MLOAD SWAP2 ADD SSTORE PUSH1 0x40 MLOAD SWAP3 DUP6 DUP1 PUSH1 0xA0 SHL SUB AND DUP4 MSTORE PUSH1 0x44 CALLDATALOAD DUP8 DUP5 ADD MSTORE DUP5 DUP1 PUSH1 0xA0 SHL SUB AND PUSH1 0x40 DUP4 ADD MSTORE PUSH1 0x84 CALLDATALOAD PUSH1 0x60 DUP4 ADD MSTORE DUP4 DUP1 PUSH1 0xA0 SHL SUB AND SWAP1 DUP5 PUSH32 0xA89651B7914F6FF550F9788CCDC8F1AFB167E1013270D5C591AA8B8F95AFBB84 PUSH1 0x80 CALLER SWAP4 LOG4 SSTORE PUSH1 0x40 MLOAD SWAP1 DUP2 MSTORE RETURN JUMPDEST ADD MLOAD SWAP1 POP CODESIZE DUP1 PUSH2 0x20A4 JUMP JUMPDEST SWAP1 PUSH1 0x7 DUP5 ADD DUP9 MSTORE DUP11 DUP9 KECCAK256 SWAP2 DUP9 JUMPDEST PUSH1 0x1F NOT DUP6 AND DUP2 LT PUSH2 0x2187 JUMPI POP DUP4 PUSH2 0x140 SWAP4 PUSH1 0x1 SWAP12 SWAP13 SWAP4 DUP13 SWAP4 PUSH1 0x8 SWAP8 PUSH1 0x1F NOT DUP2 AND LT PUSH2 0x216E JUMPI JUMPDEST POP POP POP DUP2 SHL ADD PUSH1 0x7 DUP6 ADD SSTORE PUSH2 0x20BB JUMP JUMPDEST ADD MLOAD PUSH1 0x0 NOT PUSH1 0xF8 DUP5 PUSH1 0x3 SHL AND SHR NOT AND SWAP1 SSTORE CODESIZE DUP1 DUP1 PUSH2 0x215E JUMP JUMPDEST SWAP2 SWAP3 DUP13 PUSH1 0x1 DUP2 SWAP3 DUP7 DUP6 ADD MLOAD DUP2 SSTORE ADD SWAP5 ADD SWAP3 ADD PUSH2 0x2138 JUMP JUMPDEST PUSH4 0x4E487B71 PUSH1 0xE0 SHL DUP7 MSTORE PUSH1 0x41 PUSH1 0x4 MSTORE PUSH1 0x24 DUP7 REVERT JUMPDEST DUP2 DUP1 PUSH2 0x21BF DUP2 SWAP4 CALLVALUE PUSH2 0x7973 JUMP JUMPDEST DUP2 DUP2 ISZERO PUSH2 0x21E1 JUMPI JUMPDEST CALLER SWAP1 CALL ISZERO PUSH2 0x21D6 JUMPI DUP3 CODESIZE PUSH2 0x1F2E JUMP JUMPDEST PUSH1 0x40 MLOAD RETURNDATASIZE DUP5 DUP3 RETURNDATACOPY RETURNDATASIZE SWAP1 REVERT JUMPDEST POP PUSH2 0x8FC PUSH2 0x21C7 JUMP JUMPDEST PUSH1 0x40 MLOAD PUSH4 0x23B872DD PUSH1 0xE0 SHL DUP2 MSTORE SWAP2 POP PUSH1 0x20 SWAP1 DUP3 SWAP1 DUP2 SWAP1 PUSH2 0x220F SWAP1 ADDRESS CALLER PUSH1 0x4 DUP6 ADD PUSH2 0x7998 JUMP JUMPDEST SUB DUP2 DUP8 PUSH1 0x1 PUSH1 0x1 PUSH1 0xA0 SHL SUB DUP13 AND GAS CALL DUP1 ISZERO PUSH2 0xF03 JUMPI PUSH2 0x222F JUMPI JUMPDEST POP PUSH2 0x1F31 JUMP JUMPDEST PUSH2 0x2246 SWAP1 PUSH1 0x20 RETURNDATASIZE DUP2 GT PUSH2 0x710 JUMPI PUSH2 0x701 DUP2 DUP4 PUSH2 0x7400 JUMP JUMPDEST POP CODESIZE PUSH2 0x2229 JUMP JUMPDEST POP PUSH1 0x1 PUSH1 0x1 PUSH1 0xA0 SHL SUB DUP2 DUP2 AND SWAP1 DUP5 AND EQ ISZERO PUSH2 0x1ED5 JUMP JUMPDEST POP CALLVALUE PUSH2 0x4F4 JUMPI PUSH1 0x20 CALLDATASIZE PUSH1 0x3 NOT ADD SLT PUSH2 0x4F4 JUMPI PUSH1 0x40 SWAP1 PUSH1 0x4 CALLDATALOAD DUP2 MSTORE PUSH1 0x11 PUSH1 0x20 MSTORE KECCAK256 PUSH1 0x1 DUP1 PUSH1 0xA0 SHL SUB SWAP1 PUSH2 0x4F0 DUP3 DUP3 SLOAD AND DUP4 PUSH1 0x1 DUP5 ADD SLOAD AND SWAP3 PUSH1 0x2 DUP2 ADD SLOAD SWAP5 DUP1 PUSH1 0x3 DUP4 ADD SLOAD AND SWAP1 PUSH1 0x4 DUP4 ADD SLOAD AND SWAP3 PUSH1 0xFF PUSH1 0x7 DUP5 ADD SLOAD AND SWAP1 PUSH1 0x8 DUP5 ADD SLOAD PUSH1 0x9 DUP6 ADD SLOAD SWAP3 PUSH1 0xB DUP7 ADD SLOAD SWAP6 PUSH1 0xC DUP2 ADD SLOAD SWAP8 PUSH2 0x22DB PUSH1 0x5 DUP4 ADD PUSH2 0x74BF JUMP JUMPDEST SWAP1 PUSH2 0x22F4 PUSH1 0xA PUSH2 0x22ED PUSH1 0x6 DUP7 ADD PUSH2 0x74BF JUMP JUMPDEST SWAP5 ADD PUSH2 0x74BF JUMP JUMPDEST SWAP8 PUSH1 0x40 MLOAD SWAP14 DUP15 SWAP14 DUP15 SWAP9 PUSH1 0xFF DUP1 DUP13 PUSH1 0x8 SHR AND SWAP12 AND SWAP10 PUSH2 0x76E9 JUMP JUMPDEST POP CALLVALUE PUSH2 0x4F4 JUMPI PUSH1 0x20 CALLDATASIZE PUSH1 0x3 NOT ADD SLT PUSH2 0x4F4 JUMPI PUSH1 0x20 PUSH2 0x15A3 PUSH2 0x232C PUSH2 0x72EF JUMP JUMPDEST PUSH2 0x85DA JUMP JUMPDEST POP CALLVALUE PUSH2 0x4F4 JUMPI PUSH1 0x20 DUP1 PUSH1 0x3 NOT CALLDATASIZE ADD SLT PUSH2 0x783 JUMPI PUSH1 0x4 CALLDATALOAD SWAP1 DUP2 DUP4 MSTORE PUSH1 0x7 DUP2 MSTORE PUSH1 0x40 DUP4 KECCAK256 SWAP2 PUSH2 0x2365 PUSH1 0xFF PUSH1 0x7 DUP6 ADD SLOAD AND ISZERO PUSH2 0x7C19 JUMP JUMPDEST PUSH2 0x2375 PUSH1 0xA DUP5 ADD SLOAD TIMESTAMP GT ISZERO PUSH2 0x7C60 JUMP JUMPDEST PUSH1 0x6 DUP4 ADD SWAP3 CALLER DUP6 MSTORE DUP4 DUP4 MSTORE PUSH1 0xFF PUSH1 0x40 DUP7 KECCAK256 SLOAD AND PUSH2 0x266E JUMPI DUP1 SLOAD SWAP4 DUP6 DUP1 JUMPDEST DUP7 DUP2 LT PUSH2 0x262D JUMPI JUMPDEST POP PUSH2 0x23A9 SWAP2 SWAP3 SWAP4 SWAP5 SWAP6 POP PUSH2 0x7CB6 JUMP JUMPDEST CALLER DUP6 MSTORE DUP4 MSTORE PUSH1 0x40 DUP5 KECCAK256 SWAP1 PUSH1 0xFF NOT SWAP2 PUSH1 0x1 DUP4 DUP3 SLOAD AND OR SWAP1 SSTORE PUSH1 0x4 PUSH1 0x5 DUP3 ADD SWAP2 PUSH2 0x23D1 DUP4 SLOAD PUSH2 0x7A7C JUMP JUMPDEST DUP1 SWAP4 SSTORE ADD SLOAD SWAP1 PUSH1 0x40 MLOAD DUP2 DUP2 MSTORE DUP3 DUP7 DUP3 ADD MSTORE DUP5 PUSH32 0xEC50FD9AE03362C2E5C58B8A16B6CDD5BF4185C209637034C767159C7717FD68 PUSH1 0x40 CALLER SWAP4 LOG3 LT ISZERO PUSH2 0x2413 JUMPI DUP4 DUP1 RETURN JUMPDEST DUP2 DUP5 MSTORE PUSH1 0x7 DUP4 MSTORE PUSH1 0x40 DUP5 KECCAK256 SWAP1 PUSH1 0x7 DUP3 ADD SWAP1 DUP2 SLOAD PUSH2 0x2433 PUSH1 0xFF DUP3 AND ISZERO PUSH2 0x7C19 JUMP JUMPDEST PUSH1 0x5 DUP5 ADD SLOAD PUSH1 0x4 DUP6 ADD SLOAD GT PUSH2 0x25EE JUMPI SWAP1 PUSH1 0x1 SWAP2 AND OR SWAP1 SSTORE PUSH1 0x2 DUP2 ADD SWAP3 DUP4 SLOAD DUP6 PUSH2 0x2710 PUSH2 0x2461 PUSH1 0x24 SLOAD DUP5 PUSH2 0x792A JUMP JUMPDEST DIV PUSH1 0x3 DUP6 ADD SWAP3 PUSH1 0x1 DUP1 PUSH1 0xA0 SHL SUB SWAP4 DUP6 DUP6 DUP3 SLOAD AND DUP1 ISZERO PUSH1 0x0 EQ PUSH2 0x2501 JUMPI POP POP POP POP DUP2 DUP1 DUP1 DUP1 DUP7 PUSH1 0x1 DUP11 ADD SLOAD AND DUP12 SLOAD SWAP1 DUP3 DUP3 ISZERO PUSH2 0x24F8 JUMPI JUMPDEST CALL ISZERO PUSH2 0x621 JUMPI DUP1 ISZERO DUP1 ISZERO PUSH2 0x24CF JUMPI JUMPDEST POP POP POP PUSH1 0x1 PUSH1 0x0 DUP1 MLOAD PUSH1 0x20 PUSH2 0x8730 DUP4 CODECOPY DUP2 MLOAD SWAP2 MSTORE SWAP4 JUMPDEST ADD SLOAD AND SWAP4 SLOAD PUSH1 0x40 MLOAD SWAP1 DUP2 MSTORE LOG3 CODESIZE DUP1 DUP1 DUP4 DUP1 RETURN JUMPDEST DUP3 DUP1 SWAP3 DUP2 SWAP3 DUP7 PUSH1 0x26 SLOAD AND SWAP1 DUP4 SWAP1 PUSH2 0x24EF JUMPI JUMPDEST CALL ISZERO PUSH2 0x60D JUMPI DUP6 CODESIZE DUP1 PUSH2 0x24A6 JUMP JUMPDEST POP PUSH2 0x8FC PUSH2 0x24E1 JUMP JUMPDEST POP PUSH2 0x8FC PUSH2 0x2497 JUMP JUMPDEST PUSH1 0x1 DUP10 ADD SLOAD PUSH1 0x40 MLOAD PUSH4 0xA9059CBB PUSH1 0xE0 SHL DUP1 DUP3 MSTORE SWAP7 SWAP8 SWAP5 SWAP6 SWAP1 SWAP5 DUP6 SWAP4 SWAP3 DUP5 SWAP3 DUP4 SWAP2 PUSH2 0x2531 SWAP2 SWAP1 DUP14 AND PUSH1 0x4 DUP5 ADD PUSH2 0x7BFE JUMP JUMPDEST SUB SWAP3 GAS CALL DUP1 ISZERO PUSH2 0x73F JUMPI PUSH2 0x25D1 JUMPI JUMPDEST POP DUP3 PUSH2 0x2561 JUMPI JUMPDEST POP POP POP PUSH1 0x1 PUSH1 0x0 DUP1 MLOAD PUSH1 0x20 PUSH2 0x8730 DUP4 CODECOPY DUP2 MLOAD SWAP2 MSTORE SWAP4 PUSH2 0x24BC JUMP JUMPDEST SWAP2 DUP5 SWAP2 DUP5 PUSH2 0x2589 SWAP8 SWAP5 SLOAD AND SWAP1 DUP11 DUP7 PUSH1 0x26 SLOAD AND SWAP2 PUSH1 0x40 MLOAD SWAP10 DUP11 SWAP6 DUP7 SWAP5 DUP6 SWAP4 DUP5 MSTORE PUSH1 0x4 DUP5 ADD PUSH2 0x7BFE JUMP JUMPDEST SUB SWAP3 GAS CALL SWAP1 DUP2 ISZERO PUSH2 0x717 JUMPI PUSH1 0x0 DUP1 MLOAD PUSH1 0x20 PUSH2 0x8730 DUP4 CODECOPY DUP2 MLOAD SWAP2 MSTORE SWAP5 PUSH1 0x1 SWAP3 PUSH2 0x25B4 JUMPI JUMPDEST DUP2 SWAP6 POP PUSH2 0x2547 JUMP JUMPDEST PUSH2 0x25CA SWAP1 DUP6 RETURNDATASIZE DUP8 GT PUSH2 0x710 JUMPI PUSH2 0x701 DUP2 DUP4 PUSH2 0x7400 JUMP JUMPDEST POP CODESIZE PUSH2 0x25AC JUMP JUMPDEST PUSH2 0x25E7 SWAP1 DUP7 RETURNDATASIZE DUP9 GT PUSH2 0x710 JUMPI PUSH2 0x701 DUP2 DUP4 PUSH2 0x7400 JUMP JUMPDEST POP CODESIZE PUSH2 0x2540 JUMP JUMPDEST PUSH1 0x40 MLOAD PUSH3 0x461BCD PUSH1 0xE5 SHL DUP2 MSTORE PUSH1 0x4 DUP2 ADD DUP8 SWAP1 MSTORE PUSH1 0x17 PUSH1 0x24 DUP3 ADD MSTORE PUSH23 0x496E73756666696369656E74207369676E617475726573 PUSH1 0x48 SHL PUSH1 0x44 DUP3 ADD MSTORE PUSH1 0x64 SWAP1 REVERT JUMPDEST PUSH2 0x2637 DUP2 DUP6 PUSH2 0x7C9E JUMP JUMPDEST SWAP1 SLOAD PUSH1 0x3 SWAP2 SWAP1 SWAP2 SHL SHR PUSH1 0x1 PUSH1 0x1 PUSH1 0xA0 SHL SUB AND CALLER EQ PUSH2 0x265D JUMPI PUSH2 0x2658 SWAP1 PUSH2 0x7A7C JUMP JUMPDEST PUSH2 0x2392 JUMP JUMPDEST POP SWAP4 SWAP5 POP DUP5 SWAP4 POP PUSH1 0x1 PUSH2 0x23A9 PUSH2 0x239A JUMP JUMPDEST PUSH1 0x40 MLOAD PUSH3 0x461BCD PUSH1 0xE5 SHL DUP2 MSTORE PUSH1 0x4 DUP2 ADD DUP5 SWAP1 MSTORE PUSH1 0xE PUSH1 0x24 DUP3 ADD MSTORE PUSH14 0x105B1C9958591E481CDA59DB9959 PUSH1 0x92 SHL PUSH1 0x44 DUP3 ADD MSTORE PUSH1 0x64 SWAP1 REVERT JUMPDEST POP CALLVALUE PUSH2 0x4F4 JUMPI PUSH1 0x20 CALLDATASIZE PUSH1 0x3 NOT ADD SLT PUSH2 0x4F4 JUMPI PUSH1 0x40 SWAP1 PUSH1 0x4 CALLDATALOAD DUP2 MSTORE PUSH1 0x7 PUSH1 0x20 MSTORE KECCAK256 PUSH1 0x1 DUP1 PUSH1 0xA0 SHL SUB SWAP1 DUP2 PUSH1 0x1 DUP3 ADD SLOAD AND SWAP1 PUSH1 0x2 DUP2 ADD SLOAD SWAP3 PUSH1 0x3 DUP3 ADD SLOAD AND PUSH2 0x2742 PUSH1 0x4 DUP4 ADD SLOAD PUSH1 0x5 DUP5 ADD SLOAD PUSH1 0xFF PUSH1 0x7 DUP7 ADD SLOAD AND SWAP1 PUSH2 0x2702 PUSH1 0x8 DUP8 ADD PUSH2 0x74BF JUMP JUMPDEST SWAP3 PUSH1 0xA PUSH1 0x9 DUP9 ADD SLOAD SWAP8 ADD SLOAD SWAP6 PUSH1 0x40 MLOAD SWAP10 DUP11 SWAP10 DUP11 MSTORE PUSH1 0x20 DUP11 ADD MSTORE PUSH1 0x40 DUP10 ADD MSTORE PUSH1 0x60 DUP9 ADD MSTORE PUSH1 0x80 DUP8 ADD MSTORE ISZERO ISZERO PUSH1 0xA0 DUP7 ADD MSTORE PUSH2 0x120 DUP1 PUSH1 0xC0 DUP8 ADD MSTORE DUP6 ADD SWAP1 PUSH2 0x7588 JUMP JUMPDEST SWAP2 PUSH1 0xE0 DUP5 ADD MSTORE PUSH2 0x100 DUP4 ADD MSTORE SUB SWAP1 RETURN JUMPDEST POP CALLVALUE PUSH2 0x4F4 JUMPI PUSH1 0x20 CALLDATASIZE PUSH1 0x3 NOT ADD SLT PUSH2 0x4F4 JUMPI PUSH1 0x40 SWAP1 PUSH1 0x4 CALLDATALOAD DUP2 MSTORE PUSH1 0x5 PUSH1 0x20 MSTORE KECCAK256 PUSH1 0x1 DUP1 PUSH1 0xA0 SHL SUB DUP1 DUP3 SLOAD AND SWAP1 PUSH2 0x2813 DUP2 PUSH1 0x1 DUP6 ADD SLOAD AND SWAP4 PUSH1 0xFF DUP4 PUSH1 0x2 DUP4 ADD SLOAD AND SWAP4 PUSH1 0x3 DUP4 ADD SLOAD SWAP1 PUSH1 0x4 DUP5 ADD SLOAD AND PUSH1 0x5 DUP5 ADD SLOAD SWAP1 PUSH1 0x6 DUP6 ADD SLOAD SWAP3 PUSH1 0x8 PUSH2 0x27B9 PUSH1 0x7 DUP9 ADD PUSH2 0x74BF JUMP JUMPDEST SWAP7 ADD SLOAD SWAP8 PUSH1 0x40 MLOAD SWAP11 DUP12 SWAP11 DUP12 MSTORE PUSH1 0x20 DUP12 ADD MSTORE PUSH1 0x40 DUP11 ADD MSTORE PUSH1 0x60 DUP10 ADD MSTORE PUSH1 0x80 DUP9 ADD MSTORE PUSH1 0xA0 DUP8 ADD MSTORE DUP2 DUP2 AND ISZERO ISZERO PUSH1 0xC0 DUP8 ADD MSTORE DUP2 DUP2 PUSH1 0x8 SHR AND ISZERO ISZERO PUSH1 0xE0 DUP8 ADD MSTORE PUSH1 0x10 SHR AND ISZERO ISZERO PUSH2 0x100 DUP6 ADD MSTORE PUSH2 0x160 DUP1 PUSH2 0x120 DUP7 ADD MSTORE DUP5 ADD SWAP1 PUSH2 0x7588 JUMP JUMPDEST SWAP1 PUSH2 0x140 DUP4 ADD MSTORE SUB SWAP1 RETURN JUMPDEST POP CALLVALUE PUSH2 0x4F4 JUMPI DUP1 PUSH1 0x3 NOT CALLDATASIZE ADD SLT PUSH2 0x4F4 JUMPI PUSH1 0x1 SLOAD PUSH1 0x40 MLOAD PUSH1 0x1 PUSH1 0x1 PUSH1 0xA0 SHL SUB SWAP1 SWAP2 AND DUP2 MSTORE PUSH1 0x20 SWAP1 RETURN JUMPDEST POP CALLVALUE PUSH2 0x4F4 JUMPI DUP1 PUSH1 0x3 NOT CALLDATASIZE ADD SLT PUSH2 0x4F4 JUMPI PUSH1 0x20 PUSH1 0xB SLOAD PUSH1 0x40 MLOAD SWAP1 DUP2 MSTORE RETURN JUMPDEST POP CALLVALUE PUSH2 0x4F4 JUMPI PUSH1 0x40 CALLDATASIZE PUSH1 0x3 NOT ADD SLT PUSH2 0x4F4 JUMPI PUSH1 0xFF PUSH1 0x40 PUSH1 0x20 SWAP3 PUSH2 0x2886 PUSH2 0x7331 JUMP JUMPDEST PUSH1 0x4 CALLDATALOAD DUP3 MSTORE PUSH1 0x7 DUP6 MSTORE DUP3 DUP3 KECCAK256 PUSH1 0x1 PUSH1 0x1 PUSH1 0xA0 SHL SUB SWAP1 SWAP2 AND DUP3 MSTORE PUSH1 0x6 ADD DUP5 MSTORE KECCAK256 SLOAD PUSH1 0x40 MLOAD SWAP2 AND ISZERO ISZERO DUP2 MSTORE RETURN JUMPDEST POP CALLVALUE PUSH2 0x4F4 JUMPI PUSH1 0x60 CALLDATASIZE PUSH1 0x3 NOT ADD SLT PUSH2 0x4F4 JUMPI PUSH1 0x4 CALLDATALOAD PUSH1 0x24 CALLDATALOAD PUSH1 0x7 DUP2 LT ISZERO PUSH2 0x1687 JUMPI PUSH2 0x28FD SWAP1 PUSH1 0x44 CALLDATALOAD SWAP3 PUSH2 0x28ED PUSH2 0x28E8 CALLER DUP5 DUP5 PUSH2 0x83AE JUMP JUMPDEST PUSH2 0x7BC1 JUMP JUMPDEST PUSH2 0x28F8 TIMESTAMP DUP6 GT PUSH2 0x7B3B JUMP JUMPDEST PUSH2 0x8435 JUMP JUMPDEST DUP3 MSTORE PUSH1 0x17 PUSH1 0x20 MSTORE PUSH1 0x40 DUP3 KECCAK256 PUSH1 0x1 PUSH1 0xFF NOT DUP3 SLOAD AND OR SWAP1 SSTORE PUSH1 0x18 PUSH1 0x20 MSTORE PUSH1 0x40 DUP3 KECCAK256 SSTORE DUP1 RETURN JUMPDEST POP PUSH1 0xE0 CALLDATASIZE PUSH1 0x3 NOT ADD SLT PUSH2 0x4F4 JUMPI PUSH2 0x2935 PUSH2 0x72EF JUMP JUMPDEST SWAP1 PUSH2 0x293E PUSH2 0x7305 JUMP JUMPDEST SWAP1 PUSH1 0x64 SWAP1 PUSH1 0x5 DUP3 CALLDATALOAD LT ISZERO PUSH2 0x4F4 JUMPI PUSH1 0xA4 CALLDATALOAD SWAP2 PUSH1 0x1 PUSH1 0x1 PUSH1 0xA0 SHL SUB DUP4 AND DUP4 SUB PUSH2 0x783 JUMPI PUSH1 0xC4 CALLDATALOAD PUSH1 0x1 PUSH1 0x1 PUSH1 0x40 SHL SUB DUP2 GT PUSH2 0x1687 JUMPI PUSH2 0x297F SWAP1 CALLDATASIZE SWAP1 PUSH1 0x4 ADD PUSH2 0x743E JUMP JUMPDEST PUSH2 0x2987 PUSH2 0x7A59 JUMP JUMPDEST PUSH2 0x299B PUSH1 0x1 PUSH1 0x1 PUSH1 0xA0 SHL SUB DUP8 AND ISZERO ISZERO PUSH2 0x789C JUMP JUMPDEST PUSH2 0x29A8 PUSH1 0x24 CALLDATALOAD ISZERO ISZERO PUSH2 0x78DC JUMP JUMPDEST PUSH1 0x84 CALLDATALOAD ISZERO PUSH2 0x2EA5 JUMPI DUP3 SWAP4 DUP3 CALLDATALOAD ISZERO PUSH1 0x0 EQ PUSH2 0x2D90 JUMPI TIMESTAMP PUSH1 0x84 CALLDATALOAD LT PUSH2 0x2D52 JUMPI JUMPDEST PUSH1 0xD SLOAD SWAP5 PUSH2 0x29D3 DUP7 PUSH2 0x7A7C JUMP JUMPDEST PUSH1 0xD SSTORE DUP5 PUSH2 0x29F4 PUSH2 0x2710 PUSH2 0x29EB PUSH1 0x24 SLOAD PUSH1 0x24 CALLDATALOAD PUSH2 0x792A JUMP JUMPDEST DIV PUSH1 0x24 CALLDATALOAD PUSH2 0x7AB5 JUMP JUMPDEST PUSH1 0x1 PUSH1 0x1 PUSH1 0xA0 SHL SUB DUP10 AND PUSH2 0x2CEF JUMPI PUSH2 0x2A0E DUP2 CALLVALUE LT ISZERO PUSH2 0x79BA JUMP JUMPDEST DUP1 CALLVALUE GT PUSH2 0x2CC2 JUMPI JUMPDEST POP POP JUMPDEST PUSH1 0x40 MLOAD SWAP7 PUSH2 0x2A26 DUP9 PUSH2 0x73E4 JUMP JUMPDEST CALLER DUP9 MSTORE PUSH1 0x1 PUSH1 0x1 PUSH1 0xA0 SHL SUB DUP10 DUP2 AND PUSH1 0x20 DUP11 ADD MSTORE PUSH1 0x24 CALLDATALOAD PUSH1 0x40 DUP11 ADD MSTORE AND PUSH1 0x60 DUP9 ADD MSTORE PUSH2 0x2CAE JUMPI DUP3 CALLDATALOAD PUSH1 0x80 DUP8 ADD SWAP1 DUP2 MSTORE PUSH1 0x84 CALLDATALOAD PUSH1 0xA0 DUP9 ADD MSTORE PUSH1 0x1 PUSH1 0x1 PUSH1 0xA0 SHL SUB SWAP2 DUP3 AND PUSH1 0xC0 DUP9 ADD MSTORE PUSH1 0xE0 DUP8 ADD DUP6 SWAP1 MSTORE PUSH2 0x100 DUP8 ADD DUP6 SWAP1 MSTORE PUSH2 0x120 DUP8 ADD SWAP3 SWAP1 SWAP3 MSTORE TIMESTAMP PUSH2 0x140 DUP8 ADD MSTORE DUP5 DUP5 MSTORE PUSH1 0x8 PUSH1 0x20 SWAP1 DUP2 MSTORE PUSH1 0x40 DUP1 DUP7 KECCAK256 DUP9 MLOAD DUP2 SLOAD SWAP1 DUP6 AND PUSH1 0x1 PUSH1 0x1 PUSH1 0xA0 SHL SUB NOT SWAP2 DUP3 AND OR DUP3 SSTORE SWAP3 DUP10 ADD MLOAD PUSH1 0x1 DUP3 ADD DUP1 SLOAD SWAP2 DUP7 AND SWAP2 SWAP1 SWAP5 AND OR SWAP1 SWAP3 SSTORE DUP8 ADD MLOAD PUSH1 0x2 DUP3 ADD SSTORE PUSH1 0x60 DUP8 ADD MLOAD PUSH1 0x3 DUP3 ADD DUP1 SLOAD SWAP5 MLOAD SWAP3 SWAP10 SWAP5 SWAP3 SWAP4 SWAP1 SWAP3 SWAP2 AND PUSH1 0x5 DUP5 LT ISZERO PUSH2 0x2C9A JUMPI PUSH1 0x1 PUSH1 0x1 PUSH1 0xA8 SHL SUB NOT SWAP1 SWAP2 AND OR PUSH1 0xA0 SWAP3 DUP4 SHL PUSH1 0xFF PUSH1 0xA0 SHL SWAP1 DUP2 AND SWAP2 SWAP1 SWAP2 OR SWAP1 SWAP2 SSTORE DUP7 DUP3 ADD MLOAD PUSH1 0x4 DUP10 ADD SSTORE PUSH1 0xC0 DUP8 ADD MLOAD PUSH1 0x5 DUP10 ADD DUP1 SLOAD PUSH1 0xE0 DUP11 ADD MLOAD PUSH2 0x100 DUP12 ADD MLOAD PUSH1 0x1 PUSH1 0x1 PUSH1 0xB0 SHL SUB NOT SWAP1 SWAP3 AND PUSH1 0x1 PUSH1 0x1 PUSH1 0xA0 SHL SUB SWAP5 SWAP1 SWAP5 AND SWAP4 SWAP1 SWAP4 OR SWAP3 ISZERO ISZERO SWAP1 SWAP5 SHL SWAP1 SWAP3 AND OR SWAP2 ISZERO ISZERO PUSH1 0xA8 SHL PUSH1 0xFF PUSH1 0xA8 SHL AND SWAP2 SWAP1 SWAP2 OR SWAP1 SSTORE PUSH2 0x120 DUP6 ADD MLOAD DUP1 MLOAD SWAP1 SWAP7 SWAP1 PUSH1 0x6 DUP3 ADD SWAP1 PUSH1 0x1 PUSH1 0x1 PUSH1 0x40 SHL SUB DUP2 GT PUSH2 0x219E JUMPI PUSH1 0x20 SWAP9 PUSH2 0x2B93 DUP3 PUSH2 0x18BE DUP6 SLOAD PUSH2 0x7485 JUMP JUMPDEST DUP10 SWAP1 PUSH1 0x1F DUP4 GT PUSH1 0x1 EQ PUSH2 0x2C2F JUMPI SWAP3 DUP3 PUSH2 0x140 SWAP4 PUSH1 0x1 SWAP11 SWAP12 SWAP4 PUSH1 0x7 SWAP7 DUP12 SWAP3 PUSH2 0x2C24 JUMPI JUMPDEST POP POP PUSH1 0x0 NOT PUSH1 0x3 DUP4 SWAP1 SHL SHR NOT AND SWAP1 DUP11 SHL OR SWAP1 SSTORE JUMPDEST ADD MLOAD SWAP2 ADD SSTORE PUSH2 0x2BE4 PUSH1 0x40 MLOAD SWAP3 PUSH1 0x24 CALLDATALOAD DUP5 MSTORE DUP8 DUP5 ADD SWAP1 CALLDATALOAD PUSH2 0x77F1 JUMP JUMPDEST PUSH1 0x84 CALLDATALOAD PUSH1 0x40 DUP4 ADD MSTORE DUP4 DUP1 PUSH1 0xA0 SHL SUB AND SWAP1 DUP5 PUSH32 0x55A813C3285F7E2147F6A7BC9EA9F8046F44775356663AE289EA3C19CF7E6C5A PUSH1 0x60 CALLER SWAP4 LOG4 SSTORE PUSH1 0x40 MLOAD SWAP1 DUP2 MSTORE RETURN JUMPDEST ADD MLOAD SWAP1 POP CODESIZE DUP1 PUSH2 0x2BB5 JUMP JUMPDEST DUP4 DUP9 MSTORE DUP11 DUP9 KECCAK256 SWAP2 SWAP1 PUSH1 0x1F NOT DUP5 AND DUP10 JUMPDEST DUP2 DUP2 LT PUSH2 0x2C83 JUMPI POP SWAP4 PUSH1 0x1 SWAP11 SWAP12 SWAP4 PUSH1 0x7 SWAP7 SWAP4 DUP13 SWAP4 DUP4 PUSH2 0x140 SWAP9 LT PUSH2 0x2C6A JUMPI JUMPDEST POP POP POP DUP2 SHL ADD SWAP1 SSTORE PUSH2 0x2BC9 JUMP JUMPDEST ADD MLOAD PUSH1 0x0 NOT PUSH1 0xF8 DUP5 PUSH1 0x3 SHL AND SHR NOT AND SWAP1 SSTORE CODESIZE DUP1 DUP1 PUSH2 0x2C5D JUMP JUMPDEST SWAP3 SWAP4 DUP14 PUSH1 0x1 DUP2 SWAP3 DUP8 DUP7 ADD MLOAD DUP2 SSTORE ADD SWAP6 ADD SWAP4 ADD PUSH2 0x2C3E JUMP JUMPDEST PUSH4 0x4E487B71 PUSH1 0xE0 SHL DUP8 MSTORE PUSH1 0x21 PUSH1 0x4 MSTORE PUSH1 0x24 DUP8 REVERT JUMPDEST PUSH4 0x4E487B71 PUSH1 0xE0 SHL DUP5 MSTORE PUSH1 0x21 PUSH1 0x4 MSTORE PUSH1 0x24 DUP5 REVERT JUMPDEST DUP2 DUP1 PUSH2 0x2CCF DUP2 SWAP4 CALLVALUE PUSH2 0x7973 JUMP JUMPDEST DUP2 DUP2 ISZERO PUSH2 0x2CE6 JUMPI JUMPDEST CALLER SWAP1 CALL ISZERO PUSH2 0xF03 JUMPI DUP5 CODESIZE PUSH2 0x2A16 JUMP JUMPDEST POP PUSH2 0x8FC PUSH2 0x2CD7 JUMP JUMPDEST PUSH1 0x40 MLOAD PUSH4 0x23B872DD PUSH1 0xE0 SHL DUP2 MSTORE SWAP2 POP PUSH1 0x20 SWAP1 DUP3 SWAP1 DUP2 SWAP1 PUSH2 0x2D14 SWAP1 ADDRESS CALLER PUSH1 0x4 DUP6 ADD PUSH2 0x7998 JUMP JUMPDEST SUB DUP2 DUP10 PUSH1 0x1 PUSH1 0x1 PUSH1 0xA0 SHL SUB DUP14 AND GAS CALL DUP1 ISZERO PUSH2 0x1008 JUMPI PUSH2 0x2D34 JUMPI JUMPDEST POP PUSH2 0x2A19 JUMP JUMPDEST PUSH2 0x2D4B SWAP1 PUSH1 0x20 RETURNDATASIZE DUP2 GT PUSH2 0x710 JUMPI PUSH2 0x701 DUP2 DUP4 PUSH2 0x7400 JUMP JUMPDEST POP CODESIZE PUSH2 0x2D2E JUMP JUMPDEST PUSH1 0x40 MLOAD PUSH3 0x461BCD PUSH1 0xE5 SHL DUP2 MSTORE PUSH1 0x20 PUSH1 0x4 DUP3 ADD MSTORE PUSH1 0x17 PUSH1 0x24 DUP3 ADD MSTORE PUSH23 0x44656C6179206D75737420626520696E20667574757265 PUSH1 0x48 SHL PUSH1 0x44 DUP3 ADD MSTORE DUP4 SWAP1 REVERT JUMPDEST SWAP4 POP DUP3 SWAP4 PUSH1 0x1 DUP4 CALLDATALOAD EQ PUSH1 0x0 EQ PUSH2 0x2DF1 JUMPI TIMESTAMP PUSH1 0x84 CALLDATALOAD GT ISZERO PUSH2 0x2DB0 JUMPI JUMPDEST PUSH2 0x29C6 JUMP JUMPDEST PUSH1 0x40 MLOAD PUSH3 0x461BCD PUSH1 0xE5 SHL DUP2 MSTORE PUSH1 0x20 PUSH1 0x4 DUP3 ADD MSTORE PUSH1 0x1A PUSH1 0x24 DUP3 ADD MSTORE PUSH26 0x5363686564756C65206D75737420626520696E20667574757265 PUSH1 0x30 SHL PUSH1 0x44 DUP3 ADD MSTORE DUP4 SWAP1 REVERT JUMPDEST SWAP4 POP DUP3 SWAP4 PUSH1 0x2 DUP4 CALLDATALOAD EQ PUSH1 0x0 EQ PUSH2 0x2E4B JUMPI PUSH1 0x1 PUSH1 0x1 PUSH1 0xA0 SHL SUB DUP2 AND PUSH2 0x29C6 JUMPI PUSH1 0x40 MLOAD PUSH3 0x461BCD PUSH1 0xE5 SHL DUP2 MSTORE PUSH1 0x20 PUSH1 0x4 DUP3 ADD MSTORE PUSH1 0x15 PUSH1 0x24 DUP3 ADD MSTORE PUSH21 0x141C9A58D9481BDC9858DB19481C995C5D5A5C9959 PUSH1 0x5A SHL PUSH1 0x44 DUP3 ADD MSTORE DUP4 SWAP1 REVERT JUMPDEST SWAP4 POP DUP3 SWAP4 PUSH1 0x3 DUP4 CALLDATALOAD SUB PUSH2 0x2DAB JUMPI NUMBER PUSH1 0x84 CALLDATALOAD GT PUSH2 0x2DAB JUMPI PUSH1 0x40 MLOAD PUSH3 0x461BCD PUSH1 0xE5 SHL DUP2 MSTORE PUSH1 0x20 PUSH1 0x4 DUP3 ADD MSTORE PUSH1 0x1E PUSH1 0x24 DUP3 ADD MSTORE PUSH32 0x426C6F636B206E756D626572206D75737420626520696E206675747572650000 PUSH1 0x44 DUP3 ADD MSTORE DUP4 SWAP1 REVERT JUMPDEST POP PUSH1 0x40 MLOAD PUSH3 0x461BCD PUSH1 0xE5 SHL DUP2 MSTORE PUSH1 0x20 PUSH1 0x4 DUP3 ADD MSTORE PUSH1 0x17 PUSH1 0x24 DUP3 ADD MSTORE PUSH23 0x496E76616C696420636F6E646974696F6E2076616C7565 PUSH1 0x48 SHL PUSH1 0x44 DUP3 ADD MSTORE REVERT JUMPDEST POP CALLVALUE PUSH2 0x4F4 JUMPI DUP1 PUSH1 0x3 NOT CALLDATASIZE ADD SLT PUSH2 0x4F4 JUMPI PUSH1 0x20 PUSH1 0xC SLOAD PUSH1 0x40 MLOAD SWAP1 DUP2 MSTORE RETURN JUMPDEST POP CALLVALUE PUSH2 0x4F4 JUMPI PUSH1 0x20 CALLDATASIZE PUSH1 0x3 NOT ADD SLT PUSH2 0x4F4 JUMPI PUSH1 0x40 SWAP1 PUSH1 0x4 CALLDATALOAD DUP2 MSTORE PUSH1 0x22 PUSH1 0x20 MSTORE KECCAK256 DUP1 SLOAD PUSH2 0x4F0 PUSH1 0x1 DUP4 ADD SLOAD SWAP3 PUSH1 0x2 DUP2 ADD SLOAD SWAP1 PUSH1 0x3 DUP2 ADD SLOAD PUSH1 0x5 PUSH1 0x4 DUP4 ADD SLOAD SWAP3 ADD SLOAD SWAP3 PUSH1 0x40 MLOAD SWAP7 DUP8 SWAP7 DUP8 PUSH2 0x76C1 JUMP JUMPDEST POP CALLVALUE PUSH2 0x4F4 JUMPI PUSH1 0x20 CALLDATASIZE PUSH1 0x3 NOT ADD SLT PUSH2 0x4F4 JUMPI PUSH1 0x40 SWAP1 PUSH1 0x4 CALLDATALOAD DUP2 MSTORE PUSH1 0x15 PUSH1 0x20 MSTORE KECCAK256 DUP1 SLOAD PUSH2 0x4F0 PUSH1 0x1 DUP4 ADD SLOAD SWAP3 PUSH2 0x2F84 PUSH1 0x2 DUP3 ADD PUSH2 0x74BF JUMP JUMPDEST SWAP1 PUSH1 0x3 DUP2 ADD SLOAD PUSH1 0x4 DUP3 ADD SLOAD SWAP1 PUSH1 0x6 PUSH1 0x5 DUP5 ADD SLOAD SWAP4 PUSH1 0x1 DUP1 PUSH1 0xA0 SHL SUB SWAP2 DUP3 SWAP2 ADD SLOAD AND SWAP5 PUSH1 0x40 MLOAD SWAP9 DUP10 SWAP9 PUSH1 0xFF DUP1 DUP1 DUP8 PUSH1 0x8 SHR AND SWAP7 AND SWAP5 DUP4 PUSH1 0x8 SHR AND SWAP3 AND SWAP1 DUP11 PUSH2 0x75D0 JUMP JUMPDEST POP CALLVALUE PUSH2 0x4F4 JUMPI PUSH1 0x20 CALLDATASIZE PUSH1 0x3 NOT ADD SLT PUSH2 0x4F4 JUMPI DUP1 PUSH1 0x40 SWAP2 PUSH2 0x140 DUP4 MLOAD PUSH2 0x2FEA DUP2 PUSH2 0x73E4 JUMP JUMPDEST DUP3 DUP2 MSTORE DUP3 PUSH1 0x20 DUP3 ADD MSTORE DUP3 DUP6 DUP3 ADD MSTORE DUP3 PUSH1 0x60 DUP3 ADD MSTORE DUP3 PUSH1 0x80 DUP3 ADD MSTORE DUP3 PUSH1 0xA0 DUP3 ADD MSTORE DUP3 PUSH1 0xC0 DUP3 ADD MSTORE DUP3 PUSH1 0xE0 DUP3 ADD MSTORE DUP3 PUSH2 0x100 DUP3 ADD MSTORE PUSH1 0x60 PUSH2 0x120 DUP3 ADD MSTORE ADD MSTORE PUSH1 0x4 CALLDATALOAD DUP2 MSTORE PUSH1 0x5 PUSH1 0x20 MSTORE KECCAK256 PUSH1 0x8 PUSH1 0x40 MLOAD SWAP2 PUSH2 0x3041 DUP4 PUSH2 0x73E4 JUMP JUMPDEST DUP1 SLOAD PUSH1 0x1 PUSH1 0x1 PUSH1 0xA0 SHL SUB SWAP1 DUP2 AND DUP5 MSTORE PUSH1 0x1 DUP3 ADD SLOAD DUP2 AND PUSH1 0x20 DUP6 ADD MSTORE PUSH1 0x2 DUP3 ADD SLOAD DUP2 AND PUSH1 0x40 DUP6 ADD MSTORE PUSH1 0x3 DUP3 ADD SLOAD PUSH1 0x60 DUP6 ADD MSTORE PUSH1 0x4 DUP3 ADD SLOAD AND PUSH1 0x80 DUP5 ADD MSTORE PUSH1 0x5 DUP2 ADD SLOAD PUSH1 0xA0 DUP5 ADD MSTORE PUSH1 0x6 DUP2 ADD SLOAD PUSH1 0xFF DUP2 DUP2 AND ISZERO ISZERO PUSH1 0xC0 DUP7 ADD MSTORE DUP2 DUP5 SHR DUP2 AND ISZERO ISZERO PUSH1 0xE0 DUP7 ADD MSTORE PUSH1 0x10 SWAP2 SWAP1 SWAP2 SHR AND ISZERO ISZERO PUSH2 0x100 DUP5 ADD MSTORE PUSH2 0x30BF PUSH1 0x7 DUP3 ADD PUSH2 0x74BF JUMP JUMPDEST PUSH2 0x120 DUP5 ADD MSTORE ADD SLOAD PUSH2 0x140 DUP3 ADD MSTORE PUSH1 0x40 MLOAD DUP1 SWAP2 PUSH1 0x20 DUP3 MSTORE PUSH1 0x1 DUP1 PUSH1 0xA0 SHL SUB DUP2 MLOAD AND PUSH1 0x20 DUP4 ADD MSTORE PUSH1 0x1 DUP1 PUSH1 0xA0 SHL SUB PUSH1 0x20 DUP3 ADD MLOAD AND PUSH1 0x40 DUP4 ADD MSTORE PUSH1 0x1 DUP1 PUSH1 0xA0 SHL SUB PUSH1 0x40 DUP3 ADD MLOAD AND PUSH1 0x60 DUP4 ADD MSTORE PUSH1 0x60 DUP2 ADD MLOAD PUSH1 0x80 DUP4 ADD MSTORE PUSH1 0x1 DUP1 PUSH1 0xA0 SHL SUB PUSH1 0x80 DUP3 ADD MLOAD AND PUSH1 0xA0 DUP4 ADD MSTORE PUSH1 0xA0 DUP2 ADD MLOAD PUSH1 0xC0 DUP4 ADD MSTORE PUSH1 0xC0 DUP2 ADD MLOAD ISZERO ISZERO PUSH1 0xE0 DUP4 ADD MSTORE PUSH1 0xE0 DUP2 ADD MLOAD ISZERO ISZERO PUSH2 0x100 DUP4 ADD MSTORE PUSH2 0x100 DUP2 ADD MLOAD ISZERO ISZERO PUSH2 0x120 DUP4 ADD MSTORE PUSH2 0x120 DUP2 ADD MLOAD PUSH2 0x140 PUSH2 0x3176 PUSH2 0x160 SWAP3 DUP4 DUP4 DUP8 ADD MSTORE PUSH2 0x180 DUP7 ADD SWAP1 PUSH2 0x7588 JUMP JUMPDEST SWAP3 ADD MLOAD SWAP1 DUP4 ADD MSTORE SUB SWAP1 RETURN JUMPDEST POP CALLVALUE PUSH2 0x4F4 JUMPI PUSH1 0x20 CALLDATASIZE PUSH1 0x3 NOT ADD SLT PUSH2 0x4F4 JUMPI PUSH1 0x4 CALLDATALOAD PUSH2 0x319E PUSH2 0x7A59 JUMP JUMPDEST DUP1 DUP3 MSTORE PUSH1 0x11 PUSH1 0x20 MSTORE PUSH1 0x40 DUP3 KECCAK256 PUSH2 0x100 PUSH1 0x9 DUP3 ADD SWAP2 PUSH2 0x31FB DUP4 SLOAD SWAP2 PUSH2 0x31C5 PUSH1 0xFF DUP5 AND ISZERO PUSH2 0x7C19 JUMP JUMPDEST PUSH2 0x31D5 PUSH1 0xFF DUP5 PUSH1 0x8 SHR AND ISZERO PUSH2 0x7D37 JUMP JUMPDEST DUP1 SLOAD CALLER PUSH1 0x1 PUSH1 0x1 PUSH1 0xA0 SHL SUB SWAP2 DUP3 AND EQ SWAP2 SWAP1 DUP3 ISZERO PUSH2 0x3247 JUMPI JUMPDEST POP DUP2 ISZERO PUSH2 0x3239 JUMPI JUMPDEST POP PUSH2 0x7E4F JUMP JUMPDEST PUSH2 0xFF00 NOT AND OR SWAP1 SSTORE PUSH2 0x320C DUP2 PUSH2 0x8609 JUMP JUMPDEST CALLER SWAP1 PUSH32 0xBEF45B5C4FDB463D6596771970ADC0A4AECE4E3BCDC4B8204403F09998F1D145 DUP4 DUP1 LOG3 PUSH1 0x1 DUP2 SSTORE DUP1 RETURN JUMPDEST PUSH1 0xC SWAP2 POP ADD SLOAD TIMESTAMP GT CODESIZE PUSH2 0x31F5 JUMP JUMPDEST PUSH1 0x1 SLOAD AND CALLER EQ SWAP2 POP CODESIZE PUSH2 0x31ED JUMP JUMPDEST POP CALLVALUE PUSH2 0x4F4 JUMPI PUSH1 0x40 CALLDATASIZE PUSH1 0x3 NOT ADD SLT PUSH2 0x4F4 JUMPI PUSH1 0x40 PUSH1 0x20 SWAP2 PUSH2 0x3274 PUSH2 0x72EF JUMP JUMPDEST PUSH2 0x327C PUSH2 0x7331 JUMP JUMPDEST PUSH1 0x1 PUSH1 0x1 PUSH1 0xA0 SHL SUB SWAP2 DUP3 AND DUP4 MSTORE PUSH1 0x23 DUP6 MSTORE DUP4 DUP4 KECCAK256 SWAP2 AND DUP3 MSTORE PUSH1 0x6 ADD DUP4 MSTORE KECCAK256 SLOAD PUSH1 0x40 MLOAD SWAP1 DUP2 MSTORE RETURN JUMPDEST POP CALLVALUE PUSH2 0x4F4 JUMPI DUP1 PUSH1 0x3 NOT CALLDATASIZE ADD SLT PUSH2 0x4F4 JUMPI PUSH2 0x32BC PUSH2 0x7870 JUMP JUMPDEST PUSH1 0x1 DUP1 SLOAD PUSH1 0x1 PUSH1 0x1 PUSH1 0xA0 SHL SUB NOT DUP2 AND SWAP1 SWAP2 SSTORE DUP2 SWAP1 PUSH1 0x1 PUSH1 0x1 PUSH1 0xA0 SHL SUB AND PUSH1 0x0 DUP1 MLOAD PUSH1 0x20 PUSH2 0x87D0 DUP4 CODECOPY DUP2 MLOAD SWAP2 MSTORE DUP3 DUP1 LOG3 DUP1 RETURN JUMPDEST POP CALLVALUE PUSH2 0x4F4 JUMPI DUP1 PUSH1 0x3 NOT CALLDATASIZE ADD SLT PUSH2 0x4F4 JUMPI PUSH1 0x20 PUSH1 0x25 SLOAD PUSH1 0x40 MLOAD SWAP1 DUP2 MSTORE RETURN JUMPDEST POP CALLVALUE PUSH2 0x4F4 JUMPI PUSH1 0x20 CALLDATASIZE PUSH1 0x3 NOT ADD SLT PUSH2 0x4F4 JUMPI PUSH1 0x20 PUSH2 0x15A3 PUSH2 0x332B PUSH2 0x72EF JUMP JUMPDEST PUSH2 0x855E JUMP JUMPDEST POP PUSH1 0xE0 CALLDATASIZE PUSH1 0x3 NOT ADD SLT PUSH2 0x4F4 JUMPI PUSH2 0x3345 PUSH2 0x72EF JUMP JUMPDEST SWAP1 PUSH2 0x334E PUSH2 0x7331 JUMP JUMPDEST PUSH1 0x1 PUSH1 0x1 PUSH1 0xA0 SHL SUB SWAP3 PUSH1 0x44 CALLDATALOAD SWAP3 PUSH1 0x84 CALLDATALOAD DUP6 DUP2 AND SWAP4 SWAP2 SWAP3 SWAP1 PUSH1 0x64 CALLDATALOAD SWAP1 DUP6 SWAP1 SUB PUSH2 0x106C JUMPI PUSH1 0x1 PUSH1 0x1 PUSH1 0x40 SHL SUB SWAP6 PUSH1 0xA4 CALLDATALOAD DUP8 DUP2 GT PUSH2 0x3752 JUMPI PUSH2 0x3391 SWAP1 CALLDATASIZE SWAP1 PUSH1 0x4 ADD PUSH2 0x743E JUMP JUMPDEST SWAP3 DUP9 DUP1 PUSH1 0xC4 CALLDATALOAD SWAP3 PUSH2 0x33A0 PUSH2 0x7A59 JUMP JUMPDEST AND SWAP6 PUSH2 0x33AD DUP8 ISZERO ISZERO PUSH2 0x789C JUMP JUMPDEST AND SWAP4 DUP5 ISZERO PUSH2 0x3716 JUMPI DUP4 ISZERO PUSH2 0x36E1 JUMPI PUSH2 0x33C6 TIMESTAMP DUP4 GT PUSH2 0x7B3B JUMP JUMPDEST PUSH1 0x40 MLOAD PUSH4 0x31A9108F PUSH1 0xE1 SHL DUP2 MSTORE PUSH1 0x4 DUP2 ADD DUP5 SWAP1 MSTORE PUSH1 0x20 SWAP11 SWAP1 DUP12 DUP2 PUSH1 0x24 DUP2 DUP11 GAS STATICCALL DUP10 SWAP2 DUP2 PUSH2 0x36C2 JUMPI JUMPDEST POP PUSH2 0x3426 JUMPI PUSH1 0x40 MLOAD PUSH3 0x461BCD PUSH1 0xE5 SHL DUP2 MSTORE PUSH1 0x4 DUP2 ADD DUP14 SWAP1 MSTORE PUSH1 0xB PUSH1 0x24 DUP3 ADD MSTORE PUSH11 0x125B9D985B1A5908139195 PUSH1 0xAA SHL PUSH1 0x44 DUP3 ADD MSTORE PUSH1 0x64 SWAP1 REVERT JUMPDEST AND DUP7 SWAP1 SUB PUSH2 0x3680 JUMPI PUSH1 0x10 SLOAD SWAP9 PUSH2 0x343B DUP11 PUSH2 0x7A7C JUMP JUMPDEST PUSH1 0x10 SSTORE DUP8 PUSH2 0x3458 PUSH2 0x2710 PUSH2 0x3451 PUSH1 0x24 SLOAD DUP10 PUSH2 0x792A JUMP JUMPDEST DIV DUP8 PUSH2 0x7AB5 JUMP JUMPDEST DUP13 DUP12 DUP1 PUSH2 0x362B JUMPI POP POP PUSH2 0x346D DUP2 CALLVALUE LT ISZERO PUSH2 0x79BA JUMP JUMPDEST DUP1 CALLVALUE GT PUSH2 0x35FE JUMPI JUMPDEST POP POP JUMPDEST DUP10 DUP9 MSTORE PUSH1 0xF DUP12 MSTORE PUSH1 0x40 DUP9 KECCAK256 DUP1 SLOAD PUSH1 0x1 PUSH1 0x1 PUSH1 0xA0 SHL SUB NOT SWAP1 DUP2 AND CALLER OR DUP3 SSTORE PUSH1 0x1 DUP1 DUP4 ADD DUP1 SLOAD DUP4 AND DUP12 OR SWAP1 SSTORE PUSH1 0x2 DUP4 ADD DUP1 SLOAD SWAP1 SWAP3 AND DUP10 OR SWAP1 SWAP2 SSTORE PUSH1 0x3 DUP3 ADD DUP7 SWAP1 SSTORE PUSH1 0x4 DUP3 ADD DUP8 SWAP1 SSTORE PUSH1 0x5 DUP3 ADD DUP1 SLOAD PUSH1 0x1 PUSH1 0x1 PUSH1 0xB0 SHL SUB NOT AND SWAP1 SWAP12 OR SWAP1 SWAP11 SSTORE DUP3 MLOAD SWAP1 SWAP2 PUSH1 0x6 DUP4 ADD SWAP2 SWAP1 DUP2 GT PUSH2 0x35EA JUMPI PUSH2 0x34F8 DUP2 PUSH2 0x34F2 DUP5 SLOAD PUSH2 0x7485 JUMP JUMPDEST DUP5 PUSH2 0x7A14 JUMP JUMPDEST DUP13 DUP14 PUSH1 0x1F DUP4 GT PUSH1 0x1 EQ PUSH2 0x3578 JUMPI POP DUP2 SWAP1 PUSH1 0x8 SWAP6 DUP13 SWAP3 PUSH2 0x356D JUMPI JUMPDEST POP POP PUSH1 0x0 NOT PUSH1 0x3 DUP4 SWAP1 SHL SHR NOT AND SWAP1 DUP12 SHL OR SWAP1 SSTORE JUMPDEST TIMESTAMP PUSH1 0x7 DUP3 ADD SSTORE ADD SSTORE PUSH1 0x40 MLOAD SWAP3 DUP4 MSTORE DUP8 DUP4 ADD MSTORE PUSH1 0x40 DUP3 ADD MSTORE DUP5 PUSH32 0xFB699D62CFEE2C3015EFC1D5AC18CAAFAD1715342D8BEDDF22647B816EC8F479 PUSH1 0x60 CALLER SWAP4 LOG4 SSTORE PUSH1 0x40 MLOAD SWAP1 DUP2 MSTORE RETURN JUMPDEST ADD MLOAD SWAP1 POP CODESIZE DUP1 PUSH2 0x3512 JUMP JUMPDEST DUP4 DUP13 MSTORE DUP1 DUP13 KECCAK256 DUP14 SWAP4 SWAP3 SWAP1 SWAP2 PUSH1 0x1F NOT DUP5 AND SWAP1 DUP15 SWAP1 JUMPDEST DUP3 DUP3 LT PUSH2 0x35C6 JUMPI POP POP SWAP7 DUP4 PUSH1 0x8 SWAP9 LT PUSH2 0x35AD JUMPI JUMPDEST POP POP POP DUP2 SHL ADD SWAP1 SSTORE PUSH2 0x3526 JUMP JUMPDEST ADD MLOAD PUSH1 0x0 NOT PUSH1 0xF8 DUP5 PUSH1 0x3 SHL AND SHR NOT AND SWAP1 SSTORE CODESIZE DUP1 DUP1 PUSH2 0x35A0 JUMP JUMPDEST DUP4 SWAP7 DUP11 SWAP6 DUP3 SWAP5 SWAP6 DUP4 SWAP5 SWAP9 SWAP11 SWAP12 SWAP13 ADD MLOAD DUP2 SSTORE ADD SWAP7 ADD SWAP5 ADD DUP16 SWAP6 SWAP4 SWAP9 SWAP8 SWAP7 SWAP5 SWAP3 SWAP2 PUSH2 0x358C JUMP JUMPDEST PUSH4 0x4E487B71 PUSH1 0xE0 SHL DUP11 MSTORE PUSH1 0x41 PUSH1 0x4 MSTORE PUSH1 0x24 DUP11 REVERT JUMPDEST DUP2 DUP1 PUSH2 0x360B DUP2 SWAP4 CALLVALUE PUSH2 0x7973 JUMP JUMPDEST DUP2 DUP2 ISZERO PUSH2 0x3622 JUMPI JUMPDEST CALLER SWAP1 CALL ISZERO PUSH2 0x717 JUMPI DUP8 CODESIZE PUSH2 0x3475 JUMP JUMPDEST POP PUSH2 0x8FC PUSH2 0x3613 JUMP JUMPDEST PUSH2 0x364E SWAP2 SWAP3 PUSH1 0x40 MLOAD SWAP5 DUP6 DUP1 SWAP5 DUP2 SWAP4 PUSH4 0x23B872DD PUSH1 0xE0 SHL DUP4 MSTORE ADDRESS CALLER PUSH1 0x4 DUP6 ADD PUSH2 0x7998 JUMP JUMPDEST SUB SWAP3 GAS CALL DUP1 ISZERO PUSH2 0x1032 JUMPI PUSH2 0x3663 JUMPI JUMPDEST POP PUSH2 0x3478 JUMP JUMPDEST PUSH2 0x3679 SWAP1 DUP13 DUP14 RETURNDATASIZE LT PUSH2 0x710 JUMPI PUSH2 0x701 DUP2 DUP4 PUSH2 0x7400 JUMP JUMPDEST POP CODESIZE PUSH2 0x365D JUMP JUMPDEST PUSH1 0x40 MLOAD PUSH3 0x461BCD PUSH1 0xE5 SHL DUP2 MSTORE PUSH1 0x4 DUP2 ADD DUP12 SWAP1 MSTORE PUSH1 0x1A PUSH1 0x24 DUP3 ADD MSTORE PUSH26 0x139195081B9BDD081BDDDB995908189E481C9958DA5C1A595B9D PUSH1 0x32 SHL PUSH1 0x44 DUP3 ADD MSTORE PUSH1 0x64 SWAP1 REVERT JUMPDEST PUSH2 0x36DA SWAP2 SWAP3 POP DUP14 DUP1 RETURNDATASIZE LT PUSH2 0x1128 JUMPI PUSH2 0x111A DUP2 DUP4 PUSH2 0x7400 JUMP JUMPDEST SWAP1 CODESIZE PUSH2 0x33EE JUMP JUMPDEST PUSH1 0x40 MLOAD PUSH3 0x461BCD PUSH1 0xE5 SHL DUP2 MSTORE PUSH1 0x20 PUSH1 0x4 DUP3 ADD MSTORE PUSH1 0xD PUSH1 0x24 DUP3 ADD MSTORE PUSH13 0x496E76616C6964207072696365 PUSH1 0x98 SHL PUSH1 0x44 DUP3 ADD MSTORE PUSH1 0x64 SWAP1 REVERT JUMPDEST PUSH1 0x40 MLOAD PUSH3 0x461BCD PUSH1 0xE5 SHL DUP2 MSTORE PUSH1 0x20 PUSH1 0x4 DUP3 ADD MSTORE PUSH1 0x14 PUSH1 0x24 DUP3 ADD MSTORE PUSH20 0x125B9D985B1A59081391950818DBDB9D1C9858DD PUSH1 0x62 SHL PUSH1 0x44 DUP3 ADD MSTORE PUSH1 0x64 SWAP1 REVERT JUMPDEST DUP6 DUP1 REVERT JUMPDEST POP CALLVALUE PUSH2 0x4F4 JUMPI DUP1 PUSH1 0x3 NOT CALLDATASIZE ADD SLT PUSH2 0x4F4 JUMPI PUSH1 0x20 PUSH1 0xD SLOAD PUSH1 0x40 MLOAD SWAP1 DUP2 MSTORE RETURN JUMPDEST POP CALLVALUE PUSH2 0x4F4 JUMPI DUP1 PUSH1 0x3 NOT CALLDATASIZE ADD SLT PUSH2 0x4F4 JUMPI PUSH1 0x20 PUSH1 0x14 SLOAD PUSH1 0x40 MLOAD SWAP1 DUP2 MSTORE RETURN JUMPDEST POP CALLVALUE PUSH2 0x4F4 JUMPI PUSH1 0x40 CALLDATASIZE PUSH1 0x3 NOT ADD SLT PUSH2 0x4F4 JUMPI PUSH1 0x4 CALLDATALOAD PUSH1 0x24 CALLDATALOAD PUSH1 0x1 PUSH1 0x1 PUSH1 0x40 SHL SUB DUP2 GT PUSH2 0x1687 JUMPI PUSH2 0x37C6 SWAP1 CALLDATASIZE SWAP1 PUSH1 0x4 ADD PUSH2 0x743E JUMP JUMPDEST POP DUP1 DUP3 MSTORE PUSH1 0x5 PUSH1 0x20 MSTORE PUSH1 0x40 DUP3 KECCAK256 PUSH1 0x6 DUP2 ADD SWAP1 PUSH2 0x3809 DUP3 SLOAD SWAP2 PUSH2 0x37EB PUSH1 0xFF DUP5 AND ISZERO PUSH2 0x7B7A JUMP JUMPDEST DUP1 SLOAD CALLER PUSH1 0x1 PUSH1 0x1 PUSH1 0xA0 SHL SUB SWAP2 DUP3 AND EQ SWAP2 DUP3 ISZERO PUSH2 0x38C3 JUMPI JUMPDEST POP POP PUSH2 0x7BC1 JUMP JUMPDEST DUP3 DUP5 MSTORE PUSH1 0x6 PUSH1 0x20 MSTORE PUSH1 0xFF PUSH1 0x40 DUP6 KECCAK256 SLOAD AND PUSH1 0x4 DUP2 LT ISZERO PUSH2 0x38AF JUMPI PUSH2 0x3871 JUMPI PUSH2 0xFF00 NOT AND PUSH2 0x100 OR SWAP1 SSTORE DUP1 DUP3 MSTORE PUSH1 0x6 PUSH1 0x20 MSTORE PUSH1 0x40 DUP3 KECCAK256 DUP1 SLOAD PUSH1 0xFF NOT AND PUSH1 0x1 OR SWAP1 SSTORE CALLER SWAP1 PUSH32 0x84A477DF8A28A4276CA6DEE4458A06C3015F30C477D9C949EDE4E13FF8A552B4 DUP4 DUP1 LOG3 DUP1 RETURN JUMPDEST PUSH1 0x40 MLOAD PUSH3 0x461BCD PUSH1 0xE5 SHL DUP2 MSTORE PUSH1 0x20 PUSH1 0x4 DUP3 ADD MSTORE PUSH1 0x16 PUSH1 0x24 DUP3 ADD MSTORE PUSH22 0x111A5CDC1D5D1948185B1C9958591E481C985A5CD959 PUSH1 0x52 SHL PUSH1 0x44 DUP3 ADD MSTORE PUSH1 0x64 SWAP1 REVERT JUMPDEST PUSH4 0x4E487B71 PUSH1 0xE0 SHL DUP6 MSTORE PUSH1 0x21 PUSH1 0x4 MSTORE PUSH1 0x24 DUP6 REVERT JUMPDEST PUSH1 0x1 SWAP2 SWAP3 POP ADD SLOAD AND CALLER EQ CODESIZE DUP1 PUSH2 0x3802 JUMP JUMPDEST POP CALLVALUE PUSH2 0x4F4 JUMPI PUSH1 0x20 CALLDATASIZE PUSH1 0x3 NOT ADD SLT PUSH2 0x4F4 JUMPI PUSH2 0x38EE PUSH2 0x7A59 JUMP JUMPDEST PUSH1 0x4 CALLDATALOAD DUP2 MSTORE PUSH1 0x11 PUSH1 0x20 MSTORE PUSH1 0x40 DUP2 KECCAK256 PUSH2 0x391C PUSH1 0xFF PUSH1 0x9 DUP4 ADD SLOAD PUSH2 0x3912 DUP3 DUP3 AND ISZERO PUSH2 0x7C19 JUMP JUMPDEST PUSH1 0x8 SHR AND ISZERO PUSH2 0x7CF7 JUMP JUMPDEST PUSH2 0x392C PUSH1 0xC DUP3 ADD SLOAD TIMESTAMP GT ISZERO PUSH2 0x7C60 JUMP JUMPDEST PUSH1 0x1 DUP1 PUSH1 0xA0 SHL SUB PUSH1 0x4 DUP3 ADD SLOAD AND DUP3 PUSH1 0x8 DUP4 ADD SLOAD SWAP2 PUSH1 0x40 MLOAD SWAP1 DUP3 PUSH1 0x5 DUP7 ADD SLOAD PUSH2 0x3953 DUP2 PUSH2 0x7485 JUMP JUMPDEST SWAP1 PUSH1 0x1 DUP2 AND SWAP1 DUP2 ISZERO PUSH2 0x3F31 JUMPI POP PUSH1 0x1 EQ PUSH2 0x3EFA JUMPI JUMPDEST POP DUP3 SWAP2 DUP5 SWAP6 SWAP4 DUP6 SWAP3 SUB SWAP4 CALL RETURNDATASIZE ISZERO PUSH2 0x3EF2 JUMPI DUP1 RETURNDATASIZE PUSH2 0x3984 DUP2 PUSH2 0x7423 JUMP JUMPDEST SWAP1 PUSH2 0x3992 PUSH1 0x40 MLOAD SWAP3 DUP4 PUSH2 0x7400 JUMP JUMPDEST DUP2 MSTORE RETURNDATASIZE DUP6 PUSH1 0x20 DUP4 ADD RETURNDATACOPY JUMPDEST PUSH1 0xFF PUSH1 0x7 DUP6 ADD SLOAD AND DUP1 PUSH2 0x3EEB JUMPI JUMPDEST PUSH2 0x3E86 JUMPI JUMPDEST POP PUSH2 0x3A37 JUMPI JUMPDEST PUSH1 0x1 DUP1 PUSH1 0xA0 SHL SUB DUP3 SLOAD AND PUSH1 0x1 DUP1 PUSH1 0xA0 SHL SUB PUSH1 0x1 DUP5 ADD SLOAD AND SWAP2 PUSH1 0x2 PUSH1 0x1 DUP1 PUSH1 0xA0 SHL SUB PUSH1 0x4 DUP7 ADD SLOAD AND SWAP5 ADD SLOAD PUSH1 0x40 MLOAD SWAP5 DUP6 MSTORE PUSH1 0x20 DUP6 ADD MSTORE ISZERO SWAP3 DUP4 ISZERO PUSH1 0x40 DUP3 ADD MSTORE PUSH32 0x1A693C2A5913BE77E48F46E055F0995C89B023ED0B868E3E5501A7D1E4769394 PUSH1 0x60 PUSH1 0x4 CALLDATALOAD SWAP3 LOG4 PUSH2 0x3A27 JUMPI JUMPDEST PUSH1 0x1 DUP2 SSTORE DUP1 RETURN JUMPDEST PUSH2 0x3A32 PUSH1 0x4 CALLDATALOAD PUSH2 0x8609 JUMP JUMPDEST PUSH2 0x3A20 JUMP JUMPDEST DUP3 PUSH1 0x2 DUP4 ADD SLOAD PUSH2 0x2710 PUSH2 0x3A4C PUSH1 0x24 SLOAD DUP4 PUSH2 0x792A JUMP JUMPDEST PUSH1 0x3 DUP7 ADD SLOAD SWAP2 SWAP1 DIV SWAP2 SWAP1 PUSH1 0x1 PUSH1 0x1 PUSH1 0xA0 SHL SUB AND DUP1 PUSH2 0x3DA9 JUMPI POP POP DUP2 DUP1 DUP1 DUP1 PUSH1 0x1 DUP1 PUSH1 0xA0 SHL SUB PUSH1 0x1 DUP10 ADD SLOAD AND PUSH1 0x2 DUP10 ADD SLOAD SWAP1 DUP3 DUP3 ISZERO PUSH2 0x3DA0 JUMPI JUMPDEST CALL ISZERO PUSH2 0x621 JUMPI DUP1 ISZERO SWAP1 DUP2 ISZERO PUSH2 0x3D70 JUMPI JUMPDEST POP POP POP JUMPDEST PUSH1 0x9 DUP3 ADD DUP1 SLOAD PUSH1 0xFF NOT AND PUSH1 0x1 OR SWAP1 SSTORE DUP2 SLOAD PUSH1 0x2 DUP4 ADD SLOAD PUSH1 0x3 DUP5 ADD SLOAD PUSH1 0x24 SLOAD PUSH1 0x1 PUSH1 0x1 PUSH1 0xA0 SHL SUB SWAP4 DUP5 AND SWAP4 SWAP2 SWAP1 SWAP2 AND SWAP2 SWAP1 PUSH2 0x2710 SWAP1 PUSH2 0x3AD7 SWAP1 DUP4 PUSH2 0x792A JUMP JUMPDEST DIV PUSH3 0x15180 TIMESTAMP DIV SWAP4 PUSH2 0x3AEA PUSH1 0x19 SLOAD PUSH2 0x7A7C JUMP JUMPDEST PUSH1 0x19 SSTORE PUSH2 0x3AF8 PUSH1 0x1C SLOAD PUSH2 0x7A7C JUMP JUMPDEST PUSH1 0x1C SSTORE PUSH2 0x3B07 DUP4 PUSH1 0x1A SLOAD PUSH2 0x7AB5 JUMP JUMPDEST PUSH1 0x1A SSTORE PUSH2 0x3B16 DUP3 PUSH1 0x1B SLOAD PUSH2 0x7AB5 JUMP JUMPDEST PUSH1 0x1B SSTORE DUP4 DUP9 MSTORE PUSH1 0x1F PUSH1 0x20 MSTORE PUSH1 0x40 DUP9 KECCAK256 PUSH2 0x3B30 DUP5 DUP3 SLOAD PUSH2 0x7AB5 JUMP JUMPDEST SWAP1 SSTORE PUSH1 0x6 DUP9 MSTORE PUSH1 0x21 PUSH1 0x20 MSTORE PUSH1 0x40 DUP9 KECCAK256 PUSH2 0x3B4A DUP5 DUP3 SLOAD PUSH2 0x7AB5 JUMP JUMPDEST SWAP1 SSTORE DUP1 DUP9 MSTORE PUSH1 0x20 DUP1 MSTORE PUSH1 0x40 DUP9 KECCAK256 PUSH2 0x3B61 DUP2 SLOAD PUSH2 0x7A7C JUMP JUMPDEST SWAP1 SSTORE DUP5 DUP9 MSTORE PUSH1 0x22 SWAP4 DUP5 PUSH1 0x20 MSTORE PUSH1 0x40 DUP10 KECCAK256 PUSH2 0x3B7B DUP2 SLOAD PUSH2 0x7A7C JUMP JUMPDEST SWAP1 SSTORE DUP6 DUP10 MSTORE DUP5 PUSH1 0x20 MSTORE PUSH1 0x3 PUSH1 0x40 DUP11 KECCAK256 ADD PUSH2 0x3B95 DUP2 SLOAD PUSH2 0x7A7C JUMP JUMPDEST SWAP1 SSTORE DUP6 DUP10 MSTORE DUP5 PUSH1 0x20 MSTORE PUSH1 0x1 PUSH1 0x40 DUP11 KECCAK256 ADD PUSH2 0x3BB0 DUP6 DUP3 SLOAD PUSH2 0x7AB5 JUMP JUMPDEST SWAP1 SSTORE DUP6 DUP10 MSTORE DUP5 PUSH1 0x20 MSTORE PUSH1 0x2 PUSH1 0x40 DUP11 KECCAK256 ADD PUSH2 0x3BCB DUP5 DUP3 SLOAD PUSH2 0x7AB5 JUMP JUMPDEST SWAP1 SSTORE DUP6 DUP10 MSTORE DUP5 PUSH1 0x20 MSTORE PUSH1 0x6 PUSH1 0x40 DUP11 KECCAK256 ADD DUP2 DUP11 MSTORE PUSH1 0x20 MSTORE PUSH1 0x40 DUP10 KECCAK256 PUSH2 0x3BF0 DUP6 DUP3 SLOAD PUSH2 0x7AB5 JUMP JUMPDEST SWAP1 SSTORE DUP6 DUP10 MSTORE DUP5 PUSH1 0x20 MSTORE PUSH1 0x8 PUSH1 0x40 DUP11 KECCAK256 ADD PUSH1 0x6 DUP11 MSTORE PUSH1 0x20 MSTORE PUSH1 0x40 DUP10 KECCAK256 PUSH2 0x3C16 DUP6 DUP3 SLOAD PUSH2 0x7AB5 JUMP JUMPDEST SWAP1 SSTORE DUP6 DUP10 MSTORE DUP5 PUSH1 0x20 MSTORE PUSH1 0x7 PUSH1 0x40 DUP11 KECCAK256 ADD DUP3 DUP11 MSTORE PUSH1 0x20 MSTORE PUSH1 0x40 DUP10 KECCAK256 PUSH2 0x3C3A DUP2 SLOAD PUSH2 0x7A7C JUMP JUMPDEST SWAP1 SSTORE DUP2 DUP10 MSTORE PUSH1 0x23 SWAP3 DUP4 PUSH1 0x20 MSTORE PUSH1 0x40 DUP11 KECCAK256 PUSH2 0x3C54 DUP2 SLOAD PUSH2 0x7A7C JUMP JUMPDEST SWAP1 SSTORE DUP3 DUP11 MSTORE DUP4 PUSH1 0x20 MSTORE PUSH1 0x3 PUSH1 0x40 DUP12 KECCAK256 ADD PUSH2 0x3C6E DUP2 SLOAD PUSH2 0x7A7C JUMP JUMPDEST SWAP1 SSTORE DUP3 DUP11 MSTORE DUP4 PUSH1 0x20 MSTORE PUSH1 0x1 PUSH1 0x40 DUP12 KECCAK256 ADD PUSH2 0x3C89 DUP7 DUP3 SLOAD PUSH2 0x7AB5 JUMP JUMPDEST SWAP1 SSTORE DUP3 DUP11 MSTORE DUP4 PUSH1 0x20 MSTORE PUSH2 0x3CA4 PUSH1 0x2 PUSH1 0x40 DUP13 KECCAK256 ADD SWAP2 DUP3 SLOAD PUSH2 0x7AB5 JUMP JUMPDEST SWAP1 SSTORE DUP2 DUP10 MSTORE DUP3 PUSH1 0x20 MSTORE PUSH1 0x6 PUSH1 0x40 DUP11 KECCAK256 ADD SWAP1 DUP10 MSTORE PUSH1 0x20 MSTORE PUSH1 0x40 DUP9 KECCAK256 PUSH2 0x3CC9 DUP5 DUP3 SLOAD PUSH2 0x7AB5 JUMP JUMPDEST SWAP1 SSTORE DUP8 MSTORE PUSH1 0x20 MSTORE PUSH1 0x8 PUSH1 0x40 DUP8 KECCAK256 ADD PUSH1 0x6 DUP8 MSTORE PUSH1 0x20 MSTORE PUSH2 0x3CED PUSH1 0x40 DUP8 KECCAK256 SWAP2 DUP3 SLOAD PUSH2 0x7AB5 JUMP JUMPDEST SWAP1 SSTORE PUSH32 0x3AB5ECC3CF81889615CB75CA1BCADCBF3A3B4BA23F8D6CFFF47F725CDF2D056 PUSH1 0x60 PUSH1 0x19 SLOAD PUSH1 0x1A SLOAD PUSH1 0x1B SLOAD SWAP1 PUSH1 0x40 MLOAD SWAP3 DUP4 MSTORE PUSH1 0x20 DUP4 ADD MSTORE PUSH1 0x40 DUP3 ADD MSTORE LOG1 DUP2 DUP6 MSTORE PUSH1 0x20 MSTORE PUSH32 0x35139513CB27A61903989651BC70CBD70BF8837723259BED449C299AEE68D118 PUSH1 0x40 DUP1 DUP7 KECCAK256 PUSH1 0x1 DUP2 SLOAD SWAP2 ADD SLOAD DUP3 MLOAD SWAP2 DUP3 MSTORE PUSH1 0x20 DUP3 ADD MSTORE LOG2 PUSH2 0x39B5 JUMP JUMPDEST DUP3 DUP1 SWAP3 SWAP2 DUP2 SWAP3 PUSH1 0x1 DUP1 PUSH1 0xA0 SHL SUB PUSH1 0x26 SLOAD AND SWAP1 DUP4 SWAP1 PUSH2 0x3D97 JUMPI JUMPDEST CALL ISZERO PUSH2 0x21D6 JUMPI DUP3 CODESIZE DUP1 PUSH2 0x3A95 JUMP JUMPDEST POP PUSH2 0x8FC PUSH2 0x3D89 JUMP JUMPDEST POP PUSH2 0x8FC PUSH2 0x3A85 JUMP JUMPDEST PUSH1 0x1 DUP7 ADD SLOAD PUSH1 0x40 MLOAD PUSH4 0xA9059CBB PUSH1 0xE0 SHL DUP2 MSTORE SWAP4 SWAP5 POP PUSH1 0x20 SWAP3 DUP5 SWAP3 SWAP2 DUP4 SWAP2 DUP11 SWAP2 DUP4 SWAP2 PUSH2 0x3DE0 SWAP2 PUSH1 0x1 PUSH1 0x1 PUSH1 0xA0 SHL SUB AND PUSH1 0x4 DUP5 ADD PUSH2 0x7BFE JUMP JUMPDEST SUB SWAP3 GAS CALL DUP1 ISZERO PUSH2 0x60D JUMPI PUSH2 0x3E67 JUMPI JUMPDEST POP DUP1 PUSH2 0x3DFC JUMPI JUMPDEST POP PUSH2 0x3A99 JUMP JUMPDEST PUSH1 0x3 DUP4 ADD SLOAD PUSH1 0x26 SLOAD PUSH1 0x40 MLOAD PUSH4 0xA9059CBB PUSH1 0xE0 SHL DUP2 MSTORE SWAP3 PUSH1 0x20 SWAP3 DUP5 SWAP3 PUSH1 0x1 PUSH1 0x1 PUSH1 0xA0 SHL SUB SWAP2 DUP3 AND SWAP3 DUP5 SWAP3 DUP11 SWAP3 DUP5 SWAP3 PUSH2 0x3E39 SWAP3 SWAP1 SWAP2 AND PUSH1 0x4 DUP5 ADD PUSH2 0x7BFE JUMP JUMPDEST SUB SWAP3 GAS CALL DUP1 ISZERO PUSH2 0xF03 JUMPI ISZERO PUSH2 0x3DF6 JUMPI PUSH2 0x3E60 SWAP1 PUSH1 0x20 RETURNDATASIZE PUSH1 0x20 GT PUSH2 0x710 JUMPI PUSH2 0x701 DUP2 DUP4 PUSH2 0x7400 JUMP JUMPDEST POP CODESIZE PUSH2 0x3DF6 JUMP JUMPDEST PUSH2 0x3E7F SWAP1 PUSH1 0x20 RETURNDATASIZE PUSH1 0x20 GT PUSH2 0x710 JUMPI PUSH2 0x701 DUP2 DUP4 PUSH2 0x7400 JUMP JUMPDEST POP CODESIZE PUSH2 0x3DEF JUMP JUMPDEST SWAP1 POP PUSH1 0x20 DUP2 MLOAD SWAP2 ADD KECCAK256 PUSH2 0x3E9B PUSH1 0x6 DUP5 ADD PUSH2 0x74BF JUMP JUMPDEST PUSH1 0x20 DUP2 MLOAD SWAP2 ADD KECCAK256 SUB PUSH2 0x3EAE JUMPI DUP1 CODESIZE PUSH2 0x39AF JUMP JUMPDEST PUSH1 0x40 MLOAD PUSH3 0x461BCD PUSH1 0xE5 SHL DUP2 MSTORE PUSH1 0x20 PUSH1 0x4 DUP3 ADD MSTORE PUSH1 0x15 PUSH1 0x24 DUP3 ADD MSTORE PUSH21 0xA4CAE8EAE4DC40ECC2D8EACA40DAD2E6DAC2E8C6D PUSH1 0x5B SHL PUSH1 0x44 DUP3 ADD MSTORE PUSH1 0x64 SWAP1 REVERT JUMPDEST POP DUP2 PUSH2 0x39AA JUMP JUMPDEST DUP1 PUSH1 0x60 PUSH2 0x399C JUMP JUMPDEST SWAP1 POP PUSH1 0x5 DUP7 ADD DUP5 MSTORE PUSH1 0x20 DUP5 KECCAK256 DUP5 SWAP1 JUMPDEST DUP3 DUP3 LT PUSH2 0x3F1A JUMPI POP POP DUP3 ADD DUP4 PUSH2 0x3968 JUMP JUMPDEST DUP1 SLOAD DUP3 DUP7 ADD MSTORE DUP9 SWAP6 POP PUSH1 0x20 SWAP1 SWAP2 ADD SWAP1 PUSH1 0x1 ADD PUSH2 0x3F09 JUMP JUMPDEST PUSH1 0xFF NOT AND DUP6 MSTORE POP DUP1 ISZERO ISZERO MUL DUP4 ADD SWAP1 POP DUP4 PUSH2 0x3968 JUMP JUMPDEST POP PUSH1 0x60 CALLDATASIZE PUSH1 0x3 NOT ADD SLT PUSH2 0x4F4 JUMPI PUSH1 0x1 PUSH1 0x1 PUSH1 0x40 SHL SUB PUSH1 0x4 CALLDATALOAD DUP2 DUP2 GT PUSH2 0x1687 JUMPI PUSH2 0x3F73 SWAP1 CALLDATASIZE SWAP1 PUSH1 0x4 ADD PUSH2 0x7648 JUMP JUMPDEST PUSH1 0x24 SWAP2 DUP3 CALLDATALOAD SWAP1 DUP2 GT PUSH2 0x106C JUMPI CALLDATASIZE PUSH1 0x23 DUP3 ADD SLT ISZERO PUSH2 0x106C JUMPI DUP1 PUSH1 0x4 ADD CALLDATALOAD PUSH2 0x3F98 DUP2 PUSH2 0x7631 JUMP JUMPDEST SWAP2 PUSH2 0x3FA6 PUSH1 0x40 MLOAD SWAP4 DUP5 PUSH2 0x7400 JUMP JUMPDEST DUP2 DUP4 MSTORE PUSH1 0x20 SWAP2 DUP6 DUP4 DUP6 ADD SWAP2 PUSH1 0x5 SHL DUP4 ADD ADD SWAP2 CALLDATASIZE DUP4 GT PUSH2 0x42ED JUMPI DUP7 DUP5 SWAP2 ADD SWAP2 JUMPDEST DUP4 DUP4 LT PUSH2 0x42DD JUMPI POP POP POP POP PUSH2 0x3FD8 PUSH2 0x7305 JUMP JUMPDEST PUSH2 0x3FE0 PUSH2 0x7A59 JUMP JUMPDEST DUP4 MLOAD DUP4 MLOAD SUB PUSH2 0x42A0 JUMPI DUP4 MLOAD ISZERO PUSH2 0x4263 JUMPI DUP6 SWAP4 DUP5 JUMPDEST DUP8 DUP6 MLOAD DUP8 LT ISZERO PUSH2 0x4023 JUMPI POP PUSH2 0x4017 PUSH2 0x401D SWAP2 PUSH2 0x4010 DUP9 DUP9 PUSH2 0x7A8B JUMP JUMPDEST MLOAD SWAP1 PUSH2 0x7AB5 JUMP JUMPDEST SWAP6 PUSH2 0x7A7C JUMP JUMPDEST SWAP5 PUSH2 0x3FF4 JUMP JUMPDEST SWAP5 SWAP2 DUP6 SWAP4 SWAP2 PUSH2 0x2710 PUSH2 0x4036 DUP11 SLOAD DUP4 PUSH2 0x792A JUMP JUMPDEST DIV SWAP6 PUSH2 0x4042 DUP8 DUP4 PUSH2 0x7AB5 JUMP JUMPDEST PUSH1 0x1 PUSH1 0x1 PUSH1 0xA0 SHL SUB SWAP5 DUP6 AND DUP1 PUSH2 0x4169 JUMPI POP PUSH2 0x405F DUP2 CALLVALUE LT ISZERO PUSH2 0x79BA JUMP JUMPDEST DUP7 JUMPDEST DUP5 MLOAD DUP2 LT ISZERO PUSH2 0x40AC JUMPI DUP8 DUP1 DUP1 DUP1 DUP10 PUSH2 0x4079 DUP7 DUP12 PUSH2 0x7A8B JUMP JUMPDEST MLOAD AND PUSH2 0x4085 DUP7 DUP14 PUSH2 0x7A8B JUMP JUMPDEST MLOAD SWAP1 DUP3 DUP3 ISZERO PUSH2 0x40A3 JUMPI JUMPDEST CALL ISZERO PUSH2 0x717 JUMPI PUSH2 0x409E SWAP1 PUSH2 0x7A7C JUMP JUMPDEST PUSH2 0x4061 JUMP JUMPDEST POP PUSH2 0x8FC PUSH2 0x408F JUMP JUMPDEST POP SWAP3 SWAP5 POP SWAP5 SWAP3 SWAP6 DUP4 SWAP2 SWAP7 DUP2 ISZERO SWAP1 DUP2 ISZERO PUSH2 0x413F JUMPI JUMPDEST POP POP POP POP DUP1 CALLVALUE GT PUSH2 0x4107 JUMPI JUMPDEST POP POP JUMPDEST MLOAD SWAP1 PUSH1 0x40 MLOAD SWAP3 DUP4 MSTORE DUP3 ADD MSTORE PUSH32 0xB970E74562B0C8F675CEBBAC6859159A9EC67B0EB2972AC7971D3BB05857E83E PUSH1 0x40 CALLER SWAP3 LOG2 PUSH1 0x1 DUP2 SSTORE DUP1 RETURN JUMPDEST DUP2 DUP1 PUSH2 0x4114 DUP2 SWAP4 CALLVALUE PUSH2 0x7973 JUMP JUMPDEST DUP2 DUP2 ISZERO PUSH2 0x4136 JUMPI JUMPDEST CALLER SWAP1 CALL ISZERO PUSH2 0x412B JUMPI DUP4 DUP6 PUSH2 0x40CC JUMP JUMPDEST PUSH1 0x40 MLOAD RETURNDATASIZE DUP6 DUP3 RETURNDATACOPY RETURNDATASIZE SWAP1 REVERT JUMPDEST POP PUSH2 0x8FC PUSH2 0x411C JUMP JUMPDEST DUP4 SWAP3 DUP4 SWAP3 DUP4 SWAP3 PUSH1 0x26 SLOAD AND SWAP1 DUP4 SWAP1 PUSH2 0x4160 JUMPI JUMPDEST CALL ISZERO PUSH2 0x621 JUMPI DUP2 DUP8 DUP1 DUP1 PUSH2 0x40C0 JUMP JUMPDEST POP PUSH2 0x8FC PUSH2 0x4151 JUMP JUMPDEST SWAP5 SWAP4 SWAP3 SWAP2 SWAP7 SWAP1 POP JUMPDEST DUP3 MLOAD DUP2 LT ISZERO PUSH2 0x41F2 JUMPI DUP1 DUP8 DUP6 PUSH2 0x418A PUSH2 0x41B4 SWAP5 DUP8 PUSH2 0x7A8B JUMP JUMPDEST MLOAD AND PUSH2 0x4196 DUP4 DUP11 PUSH2 0x7A8B JUMP JUMPDEST MLOAD PUSH1 0x40 MLOAD PUSH4 0x23B872DD PUSH1 0xE0 SHL DUP2 MSTORE SWAP5 DUP6 SWAP3 DUP4 SWAP3 SWAP1 CALLER PUSH1 0x4 DUP6 ADD PUSH2 0x7998 JUMP JUMPDEST SUB DUP2 DUP14 DUP11 GAS CALL SWAP2 DUP3 ISZERO PUSH2 0x73F JUMPI PUSH2 0x41D0 SWAP3 PUSH2 0x41D5 JUMPI JUMPDEST POP PUSH2 0x7A7C JUMP JUMPDEST PUSH2 0x4171 JUMP JUMPDEST PUSH2 0x41EB SWAP1 DUP10 RETURNDATASIZE DUP12 GT PUSH2 0x710 JUMPI PUSH2 0x701 DUP2 DUP4 PUSH2 0x7400 JUMP JUMPDEST POP DUP11 PUSH2 0x41CA JUMP JUMPDEST POP SWAP6 SWAP1 SWAP4 POP DUP5 SWAP2 SWAP3 DUP2 PUSH2 0x4209 JUMPI JUMPDEST POP POP POP POP PUSH2 0x40CF JUMP JUMPDEST PUSH2 0x422F SWAP4 PUSH1 0x26 SLOAD AND DUP9 PUSH1 0x40 MLOAD DUP1 SWAP7 DUP2 SWAP6 DUP3 SWAP5 PUSH4 0x23B872DD PUSH1 0xE0 SHL DUP5 MSTORE CALLER PUSH1 0x4 DUP6 ADD PUSH2 0x7998 JUMP JUMPDEST SUB SWAP3 GAS CALL DUP1 ISZERO PUSH2 0x60D JUMPI PUSH2 0x4246 JUMPI JUMPDEST DUP3 DUP2 DUP1 PUSH2 0x4200 JUMP JUMPDEST PUSH2 0x425C SWAP1 DUP4 RETURNDATASIZE DUP6 GT PUSH2 0x710 JUMPI PUSH2 0x701 DUP2 DUP4 PUSH2 0x7400 JUMP JUMPDEST POP DUP5 PUSH2 0x423E JUMP JUMPDEST PUSH1 0x40 MLOAD PUSH3 0x461BCD PUSH1 0xE5 SHL DUP2 MSTORE PUSH1 0x4 DUP2 ADD DUP4 SWAP1 MSTORE PUSH1 0x16 DUP2 DUP8 ADD MSTORE PUSH22 0x456D70747920726563697069656E7473206172726179 PUSH1 0x50 SHL PUSH1 0x44 DUP3 ADD MSTORE PUSH1 0x64 SWAP1 REVERT JUMPDEST PUSH1 0x40 MLOAD PUSH3 0x461BCD PUSH1 0xE5 SHL DUP2 MSTORE PUSH1 0x4 DUP2 ADD DUP4 SWAP1 MSTORE PUSH1 0x16 DUP2 DUP8 ADD MSTORE PUSH22 0x82E4E4C2F2E640D8CADCCEE8D040DAD2E6DAC2E8C6D PUSH1 0x53 SHL PUSH1 0x44 DUP3 ADD MSTORE PUSH1 0x64 SWAP1 REVERT JUMPDEST DUP3 CALLDATALOAD DUP2 MSTORE SWAP2 DUP2 ADD SWAP2 DUP5 SWAP2 ADD PUSH2 0x3FC5 JUMP JUMPDEST DUP8 DUP1 REVERT JUMPDEST POP CALLVALUE PUSH2 0x4F4 JUMPI PUSH2 0x167E PUSH1 0x20 SWAP2 PUSH1 0x8 PUSH1 0x40 PUSH2 0x430A CALLDATASIZE PUSH2 0x72CB JUMP JUMPDEST SWAP4 SWAP1 DUP2 MSTORE PUSH1 0x22 DUP7 MSTORE KECCAK256 ADD PUSH2 0x84D7 JUMP JUMPDEST POP CALLVALUE PUSH2 0x4F4 JUMPI PUSH1 0x20 CALLDATASIZE PUSH1 0x3 NOT ADD SLT PUSH2 0x4F4 JUMPI PUSH1 0xFF PUSH1 0x40 PUSH2 0x4F0 SWAP3 PUSH1 0x4 CALLDATALOAD DUP2 MSTORE PUSH1 0x6 PUSH1 0x20 MSTORE KECCAK256 SLOAD AND PUSH1 0x40 MLOAD SWAP2 DUP3 SWAP2 DUP3 PUSH2 0x76AE JUMP JUMPDEST POP CALLVALUE PUSH2 0x4F4 JUMPI PUSH1 0x20 CALLDATASIZE PUSH1 0x3 NOT ADD SLT PUSH2 0x4F4 JUMPI PUSH1 0x20 PUSH2 0xB8F PUSH1 0x4 CALLDATALOAD PUSH2 0x7E96 JUMP JUMPDEST POP CALLVALUE PUSH2 0x4F4 JUMPI DUP1 PUSH1 0x3 NOT CALLDATASIZE ADD SLT PUSH2 0x4F4 JUMPI PUSH1 0x26 SLOAD PUSH1 0x40 MLOAD PUSH1 0x1 PUSH1 0x1 PUSH1 0xA0 SHL SUB SWAP1 SWAP2 AND DUP2 MSTORE PUSH1 0x20 SWAP1 RETURN JUMPDEST POP CALLVALUE PUSH2 0x4F4 JUMPI PUSH1 0x20 CALLDATASIZE PUSH1 0x3 NOT ADD SLT PUSH2 0x4F4 JUMPI PUSH1 0x4 CALLDATALOAD PUSH1 0x7 DUP2 LT ISZERO PUSH2 0x783 JUMPI DUP2 PUSH1 0x40 SWAP2 PUSH1 0x20 SWAP4 MSTORE PUSH1 0x21 DUP4 MSTORE KECCAK256 SLOAD PUSH1 0x40 MLOAD SWAP1 DUP2 MSTORE RETURN JUMPDEST POP CALLVALUE PUSH2 0x4F4 JUMPI PUSH1 0x20 DUP1 PUSH1 0x3 NOT CALLDATASIZE ADD SLT PUSH2 0x783 JUMPI PUSH1 0x4 CALLDATALOAD SWAP1 PUSH2 0x43E7 PUSH2 0x7A59 JUMP JUMPDEST DUP2 DUP4 MSTORE PUSH1 0x4 DUP2 MSTORE PUSH1 0x40 DUP4 KECCAK256 SWAP1 PUSH1 0xFF PUSH1 0x6 DUP4 ADD SLOAD AND ISZERO PUSH2 0x466E JUMPI PUSH1 0x5 DUP3 ADD PUSH2 0x4414 DUP2 SLOAD PUSH1 0x4 DUP6 ADD SLOAD SWAP1 PUSH2 0x7AB5 JUMP JUMPDEST TIMESTAMP LT PUSH2 0x4633 JUMPI PUSH1 0x2 DUP4 ADD SWAP3 DUP4 SLOAD SWAP1 PUSH2 0x443C PUSH2 0x2710 PUSH2 0x4434 PUSH1 0x24 SLOAD DUP6 PUSH2 0x792A JUMP JUMPDEST DIV DUP1 SWAP4 PUSH2 0x7973 JUMP JUMPDEST PUSH1 0x3 DUP3 ADD DUP1 SLOAD PUSH1 0x1 PUSH1 0x1 PUSH1 0xA0 SHL SUB SWAP4 SWAP2 SWAP1 DUP5 AND DUP1 PUSH2 0x4531 JUMPI POP POP SELFBALANCE DUP8 SLOAD GT PUSH2 0x44EC JUMPI DUP9 DUP1 DUP1 DUP6 SWAP5 DUP2 SWAP8 SWAP7 PUSH1 0x1 DUP4 SWAP7 ADD SLOAD AND DUP3 DUP3 ISZERO PUSH2 0x44E3 JUMPI JUMPDEST CALL ISZERO PUSH2 0x21D6 JUMPI DUP2 ISZERO SWAP1 DUP2 ISZERO PUSH2 0x44B5 JUMPI JUMPDEST POP POP POP POP SWAP1 PUSH1 0x0 DUP1 MLOAD PUSH1 0x20 PUSH2 0x87F0 DUP4 CODECOPY DUP2 MLOAD SWAP2 MSTORE SWAP3 PUSH1 0x40 SWAP3 JUMPDEST TIMESTAMP SWAP1 SSTORE SLOAD SWAP1 DUP3 MLOAD SWAP2 DUP3 MSTORE TIMESTAMP SWAP1 DUP3 ADD MSTORE LOG2 PUSH1 0x1 DUP2 SSTORE DUP1 RETURN JUMPDEST DUP4 SWAP3 DUP4 SWAP3 DUP4 SWAP3 PUSH1 0x26 SWAP9 SWAP8 SWAP9 SLOAD AND SWAP1 DUP4 SWAP1 PUSH2 0x44DA JUMPI JUMPDEST CALL ISZERO PUSH2 0xF03 JUMPI SWAP1 DUP5 CODESIZE DUP1 DUP1 PUSH2 0x4485 JUMP JUMPDEST POP PUSH2 0x8FC PUSH2 0x44CA JUMP JUMPDEST POP PUSH2 0x8FC PUSH2 0x4475 JUMP JUMPDEST PUSH1 0x40 MLOAD PUSH3 0x461BCD PUSH1 0xE5 SHL DUP2 MSTORE PUSH1 0x4 DUP2 ADD DUP8 SWAP1 MSTORE PUSH1 0x1D PUSH1 0x24 DUP3 ADD MSTORE PUSH32 0x496E73756666696369656E7420636F6E74726163742062616C616E6365000000 PUSH1 0x44 DUP3 ADD MSTORE PUSH1 0x64 SWAP1 REVERT JUMPDEST SWAP3 DUP8 PUSH2 0x4569 SWAP2 DUP7 DUP6 SWAP12 SWAP10 SWAP9 SWAP8 SWAP5 SWAP12 SLOAD AND SWAP6 DUP14 DUP6 PUSH1 0x1 DUP9 ADD SLOAD AND SWAP1 PUSH1 0x40 MLOAD DUP1 SWAP7 DUP2 SWAP6 DUP3 SWAP5 PUSH4 0x23B872DD PUSH1 0xE0 SHL SWAP13 DUP14 DUP6 MSTORE PUSH1 0x4 DUP6 ADD PUSH2 0x7998 JUMP JUMPDEST SUB SWAP3 GAS CALL DUP1 ISZERO PUSH2 0x112F JUMPI PUSH2 0x4616 JUMPI JUMPDEST POP DUP10 DUP5 PUSH2 0x45A0 JUMPI JUMPDEST POP POP POP POP POP PUSH1 0x0 DUP1 MLOAD PUSH1 0x20 PUSH2 0x87F0 DUP4 CODECOPY DUP2 MLOAD SWAP2 MSTORE SWAP4 POP SWAP1 PUSH1 0x40 SWAP3 SWAP2 PUSH2 0x449E JUMP JUMPDEST DUP2 DUP1 DUP10 SWAP9 SWAP8 SWAP10 SWAP7 SWAP11 SLOAD AND SWAP4 SLOAD AND SWAP2 PUSH1 0x26 SLOAD AND SWAP4 PUSH2 0x45CB PUSH1 0x40 MLOAD SWAP11 DUP12 SWAP7 DUP8 SWAP6 DUP7 SWAP5 DUP6 MSTORE PUSH1 0x4 DUP6 ADD PUSH2 0x7998 JUMP JUMPDEST SUB SWAP3 GAS CALL SWAP3 DUP4 ISZERO PUSH2 0x1008 JUMPI PUSH1 0x0 DUP1 MLOAD PUSH1 0x20 PUSH2 0x87F0 DUP4 CODECOPY DUP2 MLOAD SWAP2 MSTORE SWAP5 PUSH1 0x40 SWAP5 PUSH2 0x45F9 JUMPI JUMPDEST DUP2 SWAP3 SWAP4 SWAP5 DUP2 DUP10 PUSH2 0x4580 JUMP JUMPDEST PUSH2 0x460F SWAP1 DUP5 RETURNDATASIZE DUP7 GT PUSH2 0x710 JUMPI PUSH2 0x701 DUP2 DUP4 PUSH2 0x7400 JUMP JUMPDEST POP CODESIZE PUSH2 0x45EE JUMP JUMPDEST PUSH2 0x462C SWAP1 DUP9 RETURNDATASIZE DUP11 GT PUSH2 0x710 JUMPI PUSH2 0x701 DUP2 DUP4 PUSH2 0x7400 JUMP JUMPDEST POP CODESIZE PUSH2 0x4578 JUMP JUMPDEST PUSH1 0x40 MLOAD PUSH3 0x461BCD PUSH1 0xE5 SHL DUP2 MSTORE PUSH1 0x4 DUP2 ADD DUP4 SWAP1 MSTORE PUSH1 0x13 PUSH1 0x24 DUP3 ADD MSTORE PUSH19 0x14185E5B595B9D081B9BDD08191D59481E595D PUSH1 0x6A SHL PUSH1 0x44 DUP3 ADD MSTORE PUSH1 0x64 SWAP1 REVERT JUMPDEST PUSH1 0x64 SWAP1 PUSH1 0x40 MLOAD SWAP1 PUSH3 0x461BCD PUSH1 0xE5 SHL DUP3 MSTORE PUSH1 0x4 DUP3 ADD MSTORE PUSH1 0x17 PUSH1 0x24 DUP3 ADD MSTORE PUSH23 0x537562736372697074696F6E206E6F7420616374697665 PUSH1 0x48 SHL PUSH1 0x44 DUP3 ADD MSTORE REVERT JUMPDEST POP CALLVALUE PUSH2 0x4F4 JUMPI PUSH1 0x20 CALLDATASIZE PUSH1 0x3 NOT ADD SLT PUSH2 0x4F4 JUMPI PUSH1 0x4 CALLDATALOAD PUSH2 0x46C9 PUSH2 0x7870 JUMP JUMPDEST PUSH2 0x46D7 PUSH2 0x3E8 DUP3 GT ISZERO PUSH2 0x7AC2 JUMP JUMPDEST PUSH1 0x25 SSTORE DUP1 RETURN JUMPDEST POP PUSH1 0x80 CALLDATASIZE PUSH1 0x3 NOT ADD SLT PUSH2 0x4F4 JUMPI PUSH1 0x1 PUSH1 0x1 PUSH1 0x40 SHL SUB SWAP1 PUSH1 0x4 CALLDATALOAD DUP3 DUP2 GT PUSH2 0x783 JUMPI CALLDATASIZE PUSH1 0x23 DUP3 ADD SLT ISZERO PUSH2 0x783 JUMPI DUP1 PUSH1 0x4 ADD CALLDATALOAD SWAP2 PUSH2 0x4717 DUP4 PUSH2 0x7631 JUMP JUMPDEST SWAP2 PUSH2 0x4725 PUSH1 0x40 MLOAD SWAP4 DUP5 PUSH2 0x7400 JUMP JUMPDEST DUP4 DUP4 MSTORE PUSH1 0x20 DUP4 ADD SWAP1 PUSH1 0x24 DUP1 SWAP6 PUSH1 0x6 SHL DUP3 ADD ADD SWAP1 CALLDATASIZE DUP3 GT PUSH2 0x106C JUMPI DUP6 ADD SWAP2 JUMPDEST DUP2 DUP4 LT PUSH2 0x4BEC JUMPI POP POP POP PUSH2 0x4755 PUSH2 0x7305 JUMP JUMPDEST SWAP3 PUSH1 0x64 SWAP3 DUP4 CALLDATALOAD DUP7 DUP2 GT PUSH2 0x106C JUMPI PUSH2 0x4770 SWAP1 CALLDATASIZE SWAP1 PUSH1 0x4 ADD PUSH2 0x743E JUMP JUMPDEST SWAP5 PUSH2 0x4779 PUSH2 0x7A59 JUMP JUMPDEST PUSH1 0x1 SWAP6 DUP7 DUP4 MLOAD GT ISZERO PUSH2 0x4BAC JUMPI PUSH1 0x14 DUP4 MLOAD GT PUSH2 0x4B73 JUMPI PUSH2 0x479A DUP5 CALLDATALOAD ISZERO ISZERO PUSH2 0x78DC JUMP JUMPDEST DUP5 SWAP6 DUP8 DUP7 SWAP1 JUMPDEST PUSH2 0x4AD0 JUMPI JUMPDEST POP PUSH2 0x2710 DUP1 SWAP8 SUB PUSH2 0x4A90 JUMPI POP DUP5 PUSH2 0x47D9 PUSH1 0xE SLOAD SWAP8 PUSH2 0x47C2 DUP10 PUSH2 0x7A7C JUMP JUMPDEST PUSH1 0xE SSTORE PUSH2 0x47D1 DUP8 SLOAD DUP9 CALLDATALOAD PUSH2 0x792A JUMP JUMPDEST DIV DUP7 CALLDATALOAD PUSH2 0x7AB5 JUMP JUMPDEST PUSH1 0x1 PUSH1 0x1 PUSH1 0xA0 SHL SUB SWAP1 SWAP4 AND SWAP3 DUP4 PUSH2 0x4A35 JUMPI PUSH2 0x47F6 DUP2 CALLVALUE LT ISZERO PUSH2 0x79BA JUMP JUMPDEST DUP1 CALLVALUE GT PUSH2 0x4A08 JUMPI JUMPDEST POP POP JUMPDEST DUP6 DUP6 MSTORE PUSH1 0x9 PUSH1 0x20 MSTORE PUSH1 0x40 DUP6 KECCAK256 DUP1 SLOAD PUSH1 0x1 PUSH1 0x1 PUSH1 0xA0 SHL SUB NOT AND CALLER OR DUP2 SSTORE DUP5 CALLDATALOAD PUSH1 0x2 DUP3 ADD SSTORE PUSH1 0x3 DUP2 ADD DUP1 SLOAD PUSH1 0x1 PUSH1 0x1 PUSH1 0xA8 SHL SUB NOT AND SWAP1 SWAP4 OR SWAP1 SWAP3 SSTORE DUP1 MLOAD SWAP8 DUP9 GT PUSH2 0x49F5 JUMPI PUSH2 0x485D DUP9 PUSH2 0x4854 PUSH1 0x4 DUP6 ADD SLOAD PUSH2 0x7485 JUMP JUMPDEST PUSH1 0x4 DUP6 ADD PUSH2 0x7A14 JUMP JUMPDEST PUSH1 0x20 SWAP1 PUSH1 0x1F DUP10 GT PUSH1 0x1 EQ PUSH2 0x4987 JUMPI SWAP8 DUP1 SWAP2 DUP9 SWAP10 DUP8 SWAP10 SWAP9 SWAP10 SWAP3 PUSH2 0x497C JUMPI JUMPDEST POP POP PUSH1 0x0 NOT PUSH1 0x3 DUP4 SWAP1 SHL SHR NOT AND SWAP1 DUP7 SHL OR PUSH1 0x4 DUP3 ADD SSTORE JUMPDEST TIMESTAMP PUSH1 0x5 DUP3 ADD SSTORE DUP5 DUP5 SWAP2 ADD SWAP7 JUMPDEST PUSH2 0x48E3 JUMPI JUMPDEST POP PUSH1 0x20 SWAP6 POP MLOAD PUSH1 0x40 MLOAD SWAP2 CALLDATALOAD DUP3 MSTORE DUP6 DUP3 ADD MSTORE DUP4 PUSH32 0x849CFBF56C9C5ABF75D7ABF882BBD8CF18D03C96DD688A45E057E31ECE8C17B8 PUSH1 0x40 CALLER SWAP4 LOG3 SSTORE PUSH1 0x40 MLOAD SWAP1 DUP2 MSTORE RETURN JUMPDEST DUP2 MLOAD DUP2 LT ISZERO PUSH2 0x4977 JUMPI PUSH2 0x48F6 DUP2 DUP4 PUSH2 0x7A8B JUMP JUMPDEST MLOAD DUP8 SLOAD PUSH1 0x1 PUSH1 0x40 SHL DUP2 LT ISZERO PUSH2 0x4964 JUMPI DUP1 DUP8 PUSH2 0x4914 SWAP3 ADD DUP11 SSTORE DUP10 PUSH2 0x7DFA JUMP JUMPDEST SWAP2 SWAP1 SWAP2 PUSH2 0x4951 JUMPI DUP1 MLOAD DUP3 SLOAD PUSH1 0x1 PUSH1 0x1 PUSH1 0xA0 SHL SUB NOT AND PUSH1 0x1 PUSH1 0x1 PUSH1 0xA0 SHL SUB SWAP2 SWAP1 SWAP2 AND OR DUP3 SSTORE PUSH1 0x20 ADD MLOAD SWAP1 DUP7 ADD SSTORE DUP5 SWAP1 PUSH2 0x494B SWAP1 PUSH2 0x7A7C JUMP JUMPDEST SWAP1 PUSH2 0x489D JUMP JUMPDEST PUSH4 0x4E487B71 PUSH1 0xE0 SHL DUP7 MSTORE PUSH1 0x4 DUP7 SWAP1 MSTORE DUP5 DUP7 REVERT JUMPDEST PUSH4 0x4E487B71 PUSH1 0xE0 SHL DUP7 MSTORE PUSH1 0x41 PUSH1 0x4 MSTORE DUP5 DUP7 REVERT JUMPDEST PUSH2 0x48A2 JUMP JUMPDEST ADD MLOAD SWAP1 POP CODESIZE DUP1 PUSH2 0x487A JUMP JUMPDEST SWAP1 PUSH1 0x4 DUP4 ADD DUP7 MSTORE PUSH1 0x20 DUP7 KECCAK256 SWAP2 DUP7 JUMPDEST PUSH1 0x1F NOT DUP12 AND DUP2 LT PUSH2 0x49DF JUMPI POP SWAP2 DUP10 SWAP2 DUP10 SWAP11 SWAP4 DUP11 SWAP10 SWAP11 SWAP5 PUSH1 0x1F NOT DUP2 AND LT PUSH2 0x49C6 JUMPI JUMPDEST POP POP POP DUP2 SHL ADD PUSH1 0x4 DUP3 ADD SSTORE PUSH2 0x4891 JUMP JUMPDEST ADD MLOAD PUSH1 0x0 NOT PUSH1 0xF8 DUP5 PUSH1 0x3 SHL AND SHR NOT AND SWAP1 SSTORE CODESIZE DUP1 DUP1 PUSH2 0x49B6 JUMP JUMPDEST DUP2 DUP4 ADD MLOAD DUP5 SSTORE SWAP3 DUP10 ADD SWAP3 PUSH1 0x20 SWAP3 DUP4 ADD SWAP3 ADD PUSH2 0x4995 JUMP JUMPDEST PUSH4 0x4E487B71 PUSH1 0xE0 SHL DUP6 MSTORE PUSH1 0x41 PUSH1 0x4 MSTORE DUP4 DUP6 REVERT JUMPDEST DUP2 DUP1 PUSH2 0x4A15 DUP2 SWAP4 CALLVALUE PUSH2 0x7973 JUMP JUMPDEST DUP2 DUP2 ISZERO PUSH2 0x4A2C JUMPI JUMPDEST CALLER SWAP1 CALL ISZERO PUSH2 0xF03 JUMPI DUP5 CODESIZE PUSH2 0x47FE JUMP JUMPDEST POP PUSH2 0x8FC PUSH2 0x4A1D JUMP JUMPDEST PUSH1 0x40 MLOAD PUSH4 0x23B872DD PUSH1 0xE0 SHL DUP2 MSTORE SWAP2 POP PUSH1 0x20 SWAP1 DUP3 SWAP1 DUP2 SWAP1 PUSH2 0x4A5A SWAP1 ADDRESS CALLER PUSH1 0x4 DUP6 ADD PUSH2 0x7998 JUMP JUMPDEST SUB DUP2 DUP10 DUP8 GAS CALL DUP1 ISZERO PUSH2 0x1008 JUMPI PUSH2 0x4A71 JUMPI JUMPDEST POP PUSH2 0x4801 JUMP JUMPDEST PUSH2 0x4A89 SWAP1 PUSH1 0x20 RETURNDATASIZE PUSH1 0x20 GT PUSH2 0x710 JUMPI PUSH2 0x701 DUP2 DUP4 PUSH2 0x7400 JUMP JUMPDEST POP CODESIZE PUSH2 0x4A6B JUMP JUMPDEST PUSH1 0x40 MLOAD PUSH3 0x461BCD PUSH1 0xE5 SHL DUP2 MSTORE PUSH1 0x20 PUSH1 0x4 DUP3 ADD MSTORE PUSH1 0x1C DUP2 DUP8 ADD MSTORE PUSH28 0x50657263656E7461676573206D7573742073756D20746F2031303025 PUSH1 0x20 SHL PUSH1 0x44 DUP3 ADD MSTORE REVERT JUMPDEST SWAP7 DUP5 MLOAD DUP9 LT ISZERO PUSH2 0x4B6D JUMPI PUSH2 0x4AF9 PUSH1 0x1 PUSH1 0x1 PUSH1 0xA0 SHL SUB PUSH2 0x4AEF DUP11 DUP9 PUSH2 0x7A8B JUMP JUMPDEST MLOAD MLOAD AND ISZERO ISZERO PUSH2 0x789C JUMP JUMPDEST PUSH1 0x20 PUSH2 0x4B05 DUP10 DUP8 PUSH2 0x7A8B JUMP JUMPDEST MLOAD ADD MLOAD ISZERO PUSH2 0x4B36 JUMPI PUSH2 0x4B30 PUSH2 0x4B2A DUP11 SWAP3 PUSH1 0x20 PUSH2 0x4B21 DUP13 DUP11 PUSH2 0x7A8B JUMP JUMPDEST MLOAD ADD MLOAD SWAP1 PUSH2 0x7AB5 JUMP JUMPDEST SWAP9 PUSH2 0x7A7C JUMP JUMPDEST SWAP1 PUSH2 0x47A0 JUMP JUMPDEST POP PUSH1 0x40 MLOAD PUSH3 0x461BCD PUSH1 0xE5 SHL DUP2 MSTORE PUSH1 0x20 PUSH1 0x4 DUP3 ADD MSTORE PUSH1 0x12 DUP2 DUP8 ADD MSTORE PUSH18 0x496E76616C69642070657263656E74616765 PUSH1 0x70 SHL PUSH1 0x44 DUP3 ADD MSTORE REVERT JUMPDEST SWAP7 PUSH2 0x47A5 JUMP JUMPDEST PUSH1 0x40 MLOAD PUSH3 0x461BCD PUSH1 0xE5 SHL DUP2 MSTORE PUSH1 0x20 PUSH1 0x4 DUP3 ADD MSTORE PUSH1 0x13 DUP2 DUP7 ADD MSTORE PUSH19 0x546F6F206D616E7920726563697069656E7473 PUSH1 0x68 SHL PUSH1 0x44 DUP3 ADD MSTORE DUP7 SWAP1 REVERT JUMPDEST PUSH1 0x40 MLOAD PUSH3 0x461BCD PUSH1 0xE5 SHL DUP2 MSTORE PUSH1 0x20 PUSH1 0x4 DUP3 ADD MSTORE PUSH1 0x1A DUP2 DUP7 ADD MSTORE PUSH26 0x4E656564206174206C65617374203220726563697069656E7473 PUSH1 0x30 SHL PUSH1 0x44 DUP3 ADD MSTORE DUP7 SWAP1 REVERT JUMPDEST PUSH1 0x40 DUP4 CALLDATASIZE SUB SLT PUSH2 0x106C JUMPI PUSH1 0x20 PUSH1 0x40 SWAP2 DUP3 MLOAD PUSH2 0x4C06 DUP2 PUSH2 0x7397 JUMP JUMPDEST PUSH2 0x4C0F DUP7 PUSH2 0x7347 JUMP JUMPDEST DUP2 MSTORE DUP3 DUP7 ADD CALLDATALOAD DUP4 DUP3 ADD MSTORE DUP2 MSTORE ADD SWAP3 ADD SWAP2 PUSH2 0x4743 JUMP JUMPDEST POP CALLVALUE PUSH2 0x4F4 JUMPI PUSH1 0x20 DUP1 PUSH1 0x3 NOT CALLDATASIZE ADD SLT PUSH2 0x783 JUMPI PUSH1 0x4 CALLDATALOAD PUSH2 0x4C42 PUSH2 0x7A59 JUMP JUMPDEST DUP1 DUP4 MSTORE PUSH1 0x5 DUP3 MSTORE PUSH1 0x40 DUP4 KECCAK256 PUSH1 0x6 DUP2 ADD SWAP3 DUP4 SLOAD SWAP4 PUSH2 0x4C62 PUSH1 0xFF DUP7 AND ISZERO PUSH2 0x7B7A JUMP JUMPDEST PUSH1 0x5 DUP4 ADD SLOAD TIMESTAMP GT DUP1 ISZERO PUSH2 0x4DBE JUMPI JUMPDEST ISZERO PUSH2 0x4D85 JUMPI PUSH1 0x1 DUP1 PUSH1 0xA0 SHL SUB SWAP1 PUSH1 0x1 DUP3 DUP6 SLOAD AND SWAP7 DUP8 CALLER EQ DUP1 ISZERO PUSH2 0x4D76 JUMPI JUMPDEST PUSH2 0x4C97 SWAP1 PUSH2 0x7BC1 JUMP JUMPDEST PUSH1 0xFF NOT AND OR SWAP1 SSTORE DUP6 PUSH1 0x3 DUP5 ADD SWAP6 PUSH2 0x4CB8 DUP8 SLOAD PUSH2 0x2710 PUSH2 0x1AE1 PUSH1 0x25 SLOAD DUP4 PUSH2 0x792A JUMP JUMPDEST SWAP1 DUP4 PUSH1 0x4 DUP8 ADD SLOAD AND SWAP1 DUP2 ISZERO PUSH1 0x0 EQ PUSH2 0x4D0E JUMPI POP POP DUP2 DUP1 DUP1 SWAP3 DUP6 DUP9 SLOAD AND DUP3 DUP3 ISZERO PUSH2 0x4D05 JUMPI JUMPDEST CALL ISZERO PUSH2 0x60D JUMPI PUSH1 0x0 DUP1 MLOAD PUSH1 0x20 PUSH2 0x8750 DUP4 CODECOPY DUP2 MLOAD SWAP2 MSTORE SWAP3 JUMPDEST SLOAD AND SWAP4 SLOAD PUSH1 0x40 MLOAD SWAP1 DUP2 MSTORE LOG3 PUSH1 0x1 DUP2 SSTORE DUP1 RETURN JUMPDEST POP PUSH2 0x8FC PUSH2 0x4CDC JUMP JUMPDEST SWAP1 DUP6 SWAP3 SWAP2 PUSH2 0x4D33 SWAP8 SWAP5 PUSH1 0x40 MLOAD DUP1 SWAP10 DUP2 SWAP6 DUP3 SWAP5 PUSH4 0xA9059CBB PUSH1 0xE0 SHL DUP5 MSTORE PUSH1 0x4 DUP5 ADD PUSH2 0x7BFE JUMP JUMPDEST SUB SWAP3 GAS CALL SWAP4 DUP5 ISZERO PUSH2 0x717 JUMPI PUSH1 0x0 DUP1 MLOAD PUSH1 0x20 PUSH2 0x8750 DUP4 CODECOPY DUP2 MLOAD SWAP2 MSTORE SWAP5 PUSH2 0x4D59 JUMPI JUMPDEST POP PUSH2 0x4CF3 JUMP JUMPDEST PUSH2 0x4D6F SWAP1 DUP5 RETURNDATASIZE DUP7 GT PUSH2 0x710 JUMPI PUSH2 0x701 DUP2 DUP4 PUSH2 0x7400 JUMP JUMPDEST POP CODESIZE PUSH2 0x4D53 JUMP JUMPDEST POP PUSH1 0x2 DUP7 ADD SLOAD DUP5 AND CALLER EQ PUSH2 0x4C8E JUMP JUMPDEST PUSH1 0x40 MLOAD PUSH3 0x461BCD PUSH1 0xE5 SHL DUP2 MSTORE PUSH1 0x4 DUP2 ADD DUP4 SWAP1 MSTORE PUSH1 0x11 PUSH1 0x24 DUP3 ADD MSTORE PUSH17 0x10D85B9B9BDD081C99599D5B99081E595D PUSH1 0x7A SHL PUSH1 0x44 DUP3 ADD MSTORE PUSH1 0x64 SWAP1 REVERT JUMPDEST POP PUSH1 0xFF DUP6 PUSH1 0x8 SHR AND PUSH2 0x4C70 JUMP JUMPDEST POP CALLVALUE PUSH2 0x4F4 JUMPI PUSH1 0x80 CALLDATASIZE PUSH1 0x3 NOT ADD SLT PUSH2 0x4F4 JUMPI PUSH2 0x4DE5 PUSH2 0x72EF JUMP JUMPDEST PUSH1 0x24 CALLDATALOAD PUSH2 0x4DF0 PUSH2 0x7305 JUMP JUMPDEST PUSH1 0x1 PUSH1 0x1 PUSH1 0xA0 SHL SUB SWAP3 DUP4 AND SWAP2 SWAP1 PUSH1 0x64 CALLDATALOAD SWAP1 PUSH2 0x4E0C DUP5 ISZERO ISZERO PUSH2 0x789C JUMP JUMPDEST PUSH2 0x4E17 DUP4 ISZERO ISZERO PUSH2 0x78DC JUMP JUMPDEST DUP2 ISZERO PUSH2 0x4F30 JUMPI PUSH1 0xA SLOAD SWAP5 PUSH2 0x4E2A DUP7 PUSH2 0x7A7C JUMP JUMPDEST PUSH1 0xA SSTORE PUSH1 0x40 MLOAD SWAP2 PUSH1 0xE0 DUP4 ADD PUSH1 0x1 PUSH1 0x1 PUSH1 0x40 SHL SUB DUP2 GT DUP5 DUP3 LT OR PUSH2 0x4F1C JUMPI PUSH1 0x20 SWAP9 PUSH2 0x4EE3 SWAP5 SWAP4 PUSH1 0x6 SWAP4 DUP11 SWAP4 PUSH1 0x40 MSTORE CALLER DUP7 MSTORE DUP12 DUP7 ADD DUP11 DUP2 MSTORE PUSH1 0x40 DUP8 ADD SWAP3 DUP11 DUP5 MSTORE DUP1 PUSH1 0x60 DUP10 ADD SWAP4 AND DUP4 MSTORE PUSH1 0x80 DUP9 ADD SWAP4 DUP11 DUP6 MSTORE DUP2 PUSH1 0x40 PUSH1 0xA0 DUP12 ADD SWAP8 DUP1 DUP10 MSTORE PUSH1 0xC0 DUP13 ADD SWAP10 PUSH1 0x1 DUP12 MSTORE DUP2 MSTORE PUSH1 0x20 PUSH1 0x4 SWAP1 MSTORE KECCAK256 SWAP10 MLOAD AND SWAP3 PUSH1 0x1 DUP1 PUSH1 0xA0 SHL SUB NOT SWAP4 DUP5 DUP12 SLOAD AND OR DUP11 SSTORE DUP3 PUSH1 0x1 DUP12 ADD SWAP2 MLOAD AND DUP5 DUP3 SLOAD AND OR SWAP1 SSTORE MLOAD PUSH1 0x2 DUP10 ADD SSTORE PUSH1 0x3 DUP9 ADD SWAP3 MLOAD AND SWAP1 DUP3 SLOAD AND OR SWAP1 SSTORE MLOAD PUSH1 0x4 DUP6 ADD SSTORE MLOAD PUSH1 0x5 DUP5 ADD SSTORE MLOAD ISZERO ISZERO SWAP2 ADD PUSH2 0x7919 JUMP JUMPDEST PUSH1 0x40 MLOAD SWAP2 DUP3 MSTORE DUP5 DUP3 ADD MSTORE DUP3 PUSH32 0x11A7ACDB40F12388DB0682CE7CDB5FFB4D01939A9B0CF653F7C1AF7C2F238AD8 PUSH1 0x40 CALLER SWAP4 LOG4 PUSH1 0x40 MLOAD SWAP1 DUP2 MSTORE RETURN JUMPDEST PUSH4 0x4E487B71 PUSH1 0xE0 SHL DUP10 MSTORE PUSH1 0x41 PUSH1 0x4 MSTORE PUSH1 0x24 DUP10 REVERT JUMPDEST PUSH1 0x40 MLOAD PUSH3 0x461BCD PUSH1 0xE5 SHL DUP2 MSTORE PUSH1 0x20 PUSH1 0x4 DUP3 ADD MSTORE PUSH1 0x10 PUSH1 0x24 DUP3 ADD MSTORE PUSH16 0x125B9D985B1A59081A5B9D195C9D985B PUSH1 0x82 SHL PUSH1 0x44 DUP3 ADD MSTORE PUSH1 0x64 SWAP1 REVERT JUMPDEST POP CALLVALUE PUSH2 0x4F4 JUMPI PUSH1 0x20 CALLDATASIZE PUSH1 0x3 NOT ADD SLT PUSH2 0x4F4 JUMPI PUSH1 0x4 CALLDATALOAD DUP1 DUP3 MSTORE PUSH1 0x15 PUSH1 0x20 MSTORE PUSH1 0x40 DUP3 KECCAK256 PUSH1 0x3 DUP2 ADD SWAP1 DUP2 SLOAD SWAP2 PUSH2 0x4FA1 PUSH1 0xFF DUP5 PUSH1 0x8 SHR AND ISZERO PUSH2 0x802C JUMP JUMPDEST PUSH2 0x4FB5 DUP3 SLOAD PUSH1 0xFF PUSH1 0x1 DUP6 ADD SLOAD AND CALLER SWAP2 PUSH2 0x8267 JUMP JUMPDEST ISZERO PUSH2 0x5004 JUMPI PUSH1 0xFF NOT SWAP1 SWAP3 AND PUSH1 0x1 OR SWAP1 SWAP2 SSTORE PUSH1 0x6 ADD DUP1 SLOAD PUSH1 0x1 PUSH1 0x1 PUSH1 0xA0 SHL SUB NOT AND CALLER SWAP1 DUP2 OR SWAP1 SWAP2 SSTORE SWAP1 PUSH32 0xC7FF055F95CFA75C0A183D1E0AFDDC7E1EB3F5E7596C23FAF6952969ECA71C4D DUP4 DUP1 LOG3 DUP1 RETURN JUMPDEST PUSH1 0x40 MLOAD PUSH3 0x461BCD PUSH1 0xE5 SHL DUP2 MSTORE PUSH1 0x20 PUSH1 0x4 DUP3 ADD MSTORE PUSH1 0x19 PUSH1 0x24 DUP3 ADD MSTORE PUSH25 0x4E6F7420617574686F72697A656420746F20617070726F7665 PUSH1 0x38 SHL PUSH1 0x44 DUP3 ADD MSTORE PUSH1 0x64 SWAP1 REVERT JUMPDEST POP CALLVALUE PUSH2 0x4F4 JUMPI PUSH1 0x20 DUP1 PUSH1 0x3 NOT CALLDATASIZE ADD SLT PUSH2 0x783 JUMPI PUSH1 0x4 CALLDATALOAD SWAP1 PUSH2 0x5064 PUSH2 0x7A59 JUMP JUMPDEST DUP2 DUP4 MSTORE PUSH1 0x9 DUP2 MSTORE PUSH1 0x40 DUP4 KECCAK256 SWAP2 PUSH1 0x3 DUP4 ADD SWAP2 DUP3 SLOAD PUSH2 0x5087 PUSH1 0xFF DUP3 PUSH1 0xA0 SHR AND ISZERO PUSH2 0x7C19 JUMP JUMPDEST PUSH1 0x1 PUSH1 0xA0 SHL SWAP1 PUSH1 0xFF PUSH1 0xA0 SHL NOT AND OR DUP4 SSTORE PUSH1 0x2 DUP5 ADD SWAP3 DUP4 SLOAD SWAP5 DUP7 PUSH2 0x2710 SWAP7 PUSH1 0x24 SWAP4 DUP9 PUSH2 0x50B3 DUP7 SLOAD DUP5 PUSH2 0x792A JUMP JUMPDEST DIV SWAP2 DUP4 SWAP1 PUSH1 0x1 SWAP11 DUP12 SWAP8 DUP9 DUP9 ADD SWAP9 JUMPDEST PUSH2 0x51DE JUMPI JUMPDEST POP POP POP POP DUP2 ISZERO SWAP1 DUP2 ISZERO PUSH2 0x510C JUMPI JUMPDEST POP POP SWAP2 SLOAD SWAP6 SLOAD SWAP3 SLOAD PUSH1 0x40 DUP1 MLOAD SWAP5 DUP6 MSTORE SWAP5 DUP5 ADD MSTORE POP POP PUSH1 0x1 PUSH1 0x1 PUSH1 0xA0 SHL SUB SWAP1 SWAP4 AND SWAP3 PUSH1 0x0 DUP1 MLOAD PUSH1 0x20 PUSH2 0x8850 DUP4 CODECOPY DUP2 MLOAD SWAP2 MSTORE SWAP2 SWAP1 LOG3 DUP2 SSTORE DUP1 RETURN JUMPDEST SLOAD SWAP4 SWAP5 SWAP4 PUSH1 0x1 PUSH1 0x1 PUSH1 0xA0 SHL SUB SWAP1 DUP2 AND DUP1 PUSH2 0x5161 JUMPI POP DUP4 SWAP3 DUP4 SWAP3 DUP4 SWAP3 PUSH1 0x26 SLOAD AND SWAP1 DUP4 SWAP1 PUSH2 0x5158 JUMPI JUMPDEST CALL ISZERO PUSH2 0x1008 JUMPI PUSH1 0x0 DUP1 MLOAD PUSH1 0x20 PUSH2 0x8850 DUP4 CODECOPY DUP2 MLOAD SWAP2 MSTORE SWAP3 PUSH1 0x40 SWAP3 JUMPDEST SWAP2 SWAP3 DUP9 SWAP2 SWAP5 CODESIZE PUSH2 0x50D4 JUMP JUMPDEST POP PUSH2 0x8FC PUSH2 0x5133 JUMP JUMPDEST SWAP1 DUP8 SWAP5 POP PUSH2 0x518D SWAP8 SWAP4 SWAP3 POP PUSH1 0x26 SLOAD AND DUP12 PUSH1 0x40 MLOAD DUP1 SWAP10 DUP2 SWAP6 DUP3 SWAP5 PUSH4 0xA9059CBB PUSH1 0xE0 SHL DUP5 MSTORE PUSH1 0x4 DUP5 ADD PUSH2 0x7BFE JUMP JUMPDEST SUB SWAP3 GAS CALL SWAP3 DUP4 ISZERO PUSH2 0x51D3 JUMPI PUSH1 0x0 DUP1 MLOAD PUSH1 0x20 PUSH2 0x8850 DUP4 CODECOPY DUP2 MLOAD SWAP2 MSTORE SWAP5 PUSH1 0x40 SWAP5 PUSH2 0x51B6 JUMPI JUMPDEST POP PUSH2 0x514D JUMP JUMPDEST PUSH2 0x51CC SWAP1 DUP4 RETURNDATASIZE DUP6 GT PUSH2 0x710 JUMPI PUSH2 0x701 DUP2 DUP4 PUSH2 0x7400 JUMP JUMPDEST POP CODESIZE PUSH2 0x51B0 JUMP JUMPDEST PUSH1 0x40 MLOAD RETURNDATASIZE DUP11 DUP3 RETURNDATACOPY RETURNDATASIZE SWAP1 REVERT JUMPDEST SWAP1 SWAP2 SWAP3 SWAP4 SWAP5 SWAP6 POP DUP8 SLOAD DUP14 DUP2 DUP7 LT ISZERO PUSH2 0x530D JUMPI POP PUSH1 0x0 NOT DUP2 ADD SWAP1 DUP2 GT PUSH2 0x52FA JUMPI SWAP1 DUP14 DUP13 DUP5 DUP16 SWAP8 DUP13 DUP5 SWAP12 SWAP11 SWAP10 DUP3 SWAP10 SWAP9 SWAP8 DUP4 EQ PUSH1 0x0 EQ PUSH2 0x52DA JUMPI POP POP POP POP POP DUP4 JUMPDEST DUP7 SLOAD PUSH1 0x1 PUSH1 0x1 PUSH1 0xA0 SHL SUB SWAP1 DUP13 SWAP1 DUP15 SWAP1 DUP4 AND DUP1 PUSH2 0x526D JUMPI POP POP DUP4 SWAP3 DUP4 SWAP3 PUSH2 0x5243 DUP11 DUP6 SWAP5 PUSH2 0x7DFA JUMP JUMPDEST POP SLOAD AND DUP3 DUP3 ISZERO PUSH2 0x5264 JUMPI JUMPDEST CALL ISZERO PUSH2 0x1008 JUMPI PUSH2 0x525E DUP14 SWAP5 PUSH2 0x7A7C JUMP JUMPDEST SWAP4 PUSH2 0x50C1 JUMP JUMPDEST POP PUSH2 0x8FC PUSH2 0x524E JUMP JUMPDEST SWAP2 DUP10 PUSH2 0x52A2 SWAP11 SWAP7 POP PUSH2 0x5282 SWAP2 SWAP6 SWAP5 SWAP3 SWAP6 PUSH2 0x7DFA JUMP JUMPDEST POP SLOAD AND DUP12 PUSH1 0x40 MLOAD DUP1 SWAP11 DUP2 SWAP6 DUP3 SWAP5 PUSH4 0xA9059CBB PUSH1 0xE0 SHL DUP5 MSTORE PUSH1 0x4 DUP5 ADD PUSH2 0x7BFE JUMP JUMPDEST SUB SWAP3 GAS CALL SWAP1 DUP2 ISZERO PUSH2 0x51D3 JUMPI DUP15 SWAP6 PUSH2 0x525E SWAP3 PUSH2 0x52BD JUMPI POP PUSH2 0x7A7C JUMP JUMPDEST PUSH2 0x52D3 SWAP1 DUP14 DUP1 RETURNDATASIZE LT PUSH2 0x710 JUMPI PUSH2 0x701 DUP2 DUP4 PUSH2 0x7400 JUMP JUMPDEST POP CODESIZE PUSH2 0x41CA JUMP JUMPDEST PUSH2 0x1508 PUSH2 0x52EC SWAP4 PUSH2 0x52F4 SWAP7 SLOAD SWAP4 PUSH2 0x7DFA JUMP JUMPDEST DIV DUP1 SWAP6 PUSH2 0x7973 JUMP JUMPDEST SWAP4 PUSH2 0x521C JUMP JUMPDEST POP PUSH4 0x4E487B71 PUSH1 0xE0 SHL DUP14 MSTORE PUSH1 0x11 PUSH1 0x4 MSTORE DUP13 REVERT JUMPDEST SWAP7 SWAP6 SWAP5 POP PUSH2 0x50C6 JUMP JUMPDEST POP PUSH1 0xC0 CALLDATASIZE PUSH1 0x3 NOT ADD SLT PUSH2 0x4F4 JUMPI PUSH2 0x532B PUSH2 0x72EF JUMP JUMPDEST PUSH2 0x5333 PUSH2 0x7305 JUMP JUMPDEST PUSH1 0x64 CALLDATALOAD PUSH1 0x1 PUSH1 0x1 PUSH1 0x40 SHL SUB DUP2 GT PUSH2 0x106C JUMPI PUSH2 0x5352 SWAP1 CALLDATASIZE SWAP1 PUSH1 0x4 ADD PUSH2 0x743E JUMP JUMPDEST SWAP2 PUSH1 0x84 CALLDATALOAD PUSH1 0x1 PUSH1 0x1 PUSH1 0x40 SHL SUB DUP2 GT PUSH2 0x1A48 JUMPI PUSH2 0x5372 SWAP1 CALLDATASIZE SWAP1 PUSH1 0x4 ADD PUSH2 0x743E JUMP JUMPDEST PUSH2 0x537A PUSH2 0x7A59 JUMP JUMPDEST PUSH1 0xA4 CALLDATALOAD DUP6 MSTORE PUSH1 0x3 PUSH1 0x20 MSTORE PUSH1 0xFF PUSH1 0x40 DUP7 KECCAK256 SLOAD AND PUSH2 0x585F JUMPI PUSH2 0x53A4 PUSH1 0x1 PUSH1 0x1 PUSH1 0xA0 SHL SUB DUP4 AND ISZERO ISZERO PUSH2 0x789C JUMP JUMPDEST PUSH2 0x53B1 PUSH1 0x24 CALLDATALOAD ISZERO ISZERO PUSH2 0x78DC JUMP JUMPDEST PUSH1 0xA4 CALLDATALOAD DUP6 MSTORE PUSH1 0x3 PUSH1 0x20 MSTORE PUSH1 0x40 DUP6 KECCAK256 PUSH1 0x1 PUSH1 0xFF NOT DUP3 SLOAD AND OR SWAP1 SSTORE DUP5 PUSH2 0x2710 PUSH2 0x53DC PUSH1 0x24 SLOAD PUSH1 0x24 CALLDATALOAD PUSH2 0x792A JUMP JUMPDEST DIV PUSH2 0x53E9 DUP2 PUSH1 0x24 CALLDATALOAD PUSH2 0x7973 JUMP JUMPDEST PUSH1 0x1 PUSH1 0x1 PUSH1 0xA0 SHL SUB DUP7 AND PUSH2 0x578A JUMPI DUP3 DUP1 DUP1 DUP1 SWAP4 PUSH2 0x540A PUSH1 0x24 CALLDATALOAD CALLVALUE LT ISZERO PUSH2 0x79BA JUMP JUMPDEST DUP2 DUP2 ISZERO PUSH2 0x5781 JUMPI JUMPDEST PUSH1 0x1 PUSH1 0x1 PUSH1 0xA0 SHL SUB DUP11 AND SWAP1 CALL ISZERO PUSH2 0x621 JUMPI DUP1 ISZERO SWAP1 DUP2 ISZERO PUSH2 0x5751 JUMPI JUMPDEST POP POP POP PUSH1 0x24 CALLDATALOAD CALLVALUE GT PUSH2 0x571E JUMPI JUMPDEST PUSH1 0x40 MLOAD SWAP1 PUSH2 0x5447 DUP3 PUSH2 0x73C8 JUMP JUMPDEST CALLER DUP3 MSTORE PUSH1 0x1 PUSH1 0x1 PUSH1 0xA0 SHL SUB DUP4 DUP2 AND PUSH1 0x20 DUP1 DUP6 ADD SWAP2 DUP3 MSTORE PUSH1 0x24 CALLDATALOAD PUSH1 0x40 DUP1 DUP8 ADD SWAP2 DUP3 MSTORE DUP9 DUP6 AND PUSH1 0x60 DUP9 ADD SWAP1 DUP2 MSTORE PUSH1 0x80 DUP9 ADD DUP12 DUP2 MSTORE PUSH1 0xA0 DUP10 ADD SWAP8 SWAP1 SWAP8 MSTORE TIMESTAMP PUSH1 0xC0 DUP10 ADD MSTORE PUSH1 0xA4 CALLDATALOAD PUSH1 0xE0 DUP10 ADD DUP2 SWAP1 MSTORE DUP13 MSTORE PUSH1 0x2 SWAP4 DUP5 SWAP1 MSTORE SWAP1 DUP12 KECCAK256 DUP8 MLOAD DUP2 SLOAD PUSH1 0x1 PUSH1 0x1 PUSH1 0xA0 SHL SUB NOT SWAP1 DUP2 AND SWAP2 DUP9 AND SWAP2 SWAP1 SWAP2 OR DUP3 SSTORE SWAP5 MLOAD PUSH1 0x1 DUP3 ADD DUP1 SLOAD DUP8 AND SWAP2 DUP9 AND SWAP2 SWAP1 SWAP2 OR SWAP1 SSTORE SWAP2 MLOAD SWAP3 DUP3 ADD SWAP3 SWAP1 SWAP3 SSTORE SWAP1 MLOAD PUSH1 0x3 DUP3 ADD DUP1 SLOAD SWAP1 SWAP4 AND SWAP4 AND SWAP3 SWAP1 SWAP3 OR SWAP1 SSTORE SWAP1 MLOAD DUP1 MLOAD SWAP2 SWAP3 SWAP2 SWAP1 PUSH1 0x1 PUSH1 0x1 PUSH1 0x40 SHL SUB DUP3 GT PUSH2 0x5690 JUMPI DUP2 SWAP1 PUSH2 0x5516 DUP3 PUSH2 0x550D PUSH1 0x4 DUP9 ADD SLOAD PUSH2 0x7485 JUMP JUMPDEST PUSH1 0x4 DUP9 ADD PUSH2 0x7A14 JUMP JUMPDEST PUSH1 0x20 SWAP1 PUSH1 0x1F DUP4 GT PUSH1 0x1 EQ PUSH2 0x56AF JUMPI DUP10 SWAP3 PUSH2 0x56A4 JUMPI JUMPDEST POP POP DUP2 PUSH1 0x1 SHL SWAP2 PUSH1 0x0 NOT SWAP1 PUSH1 0x3 SHL SHR NOT AND OR PUSH1 0x4 DUP4 ADD SSTORE JUMPDEST PUSH1 0xA0 DUP2 ADD MLOAD DUP1 MLOAD SWAP1 PUSH1 0x1 PUSH1 0x1 PUSH1 0x40 SHL SUB DUP3 GT PUSH2 0x5690 JUMPI PUSH2 0x5573 DUP3 PUSH2 0x556A PUSH1 0x5 DUP8 ADD SLOAD PUSH2 0x7485 JUMP JUMPDEST PUSH1 0x5 DUP8 ADD PUSH2 0x7A14 JUMP JUMPDEST PUSH1 0x20 SWAP1 PUSH1 0x1F DUP4 GT PUSH1 0x1 EQ PUSH2 0x561E JUMPI SWAP2 DUP1 PUSH1 0x7 SWAP5 SWAP3 PUSH1 0xE0 SWAP5 DUP12 SWAP3 PUSH2 0x5613 JUMPI JUMPDEST POP POP DUP2 PUSH1 0x1 SHL SWAP2 PUSH1 0x0 NOT SWAP1 PUSH1 0x3 SHL SHR NOT AND OR PUSH1 0x5 DUP6 ADD SSTORE JUMPDEST PUSH1 0xC0 DUP2 ADD MLOAD PUSH1 0x6 DUP6 ADD SSTORE ADD MLOAD SWAP2 ADD SSTORE PUSH1 0x40 MLOAD SWAP2 PUSH1 0x24 CALLDATALOAD DUP4 MSTORE PUSH1 0x1 DUP1 PUSH1 0xA0 SHL SUB AND PUSH1 0x20 DUP4 ADD MSTORE PUSH1 0x60 PUSH1 0x40 DUP4 ADD MSTORE PUSH1 0x1 DUP1 PUSH1 0xA0 SHL SUB AND SWAP2 PUSH32 0x3274906BFDFD1E2A40010A7D795B1C688359B01FB51BAEF3387A7EA5C09B2C6 CALLER SWAP3 DUP1 PUSH2 0xED1 PUSH1 0xA4 CALLDATALOAD SWAP5 PUSH1 0x60 DUP4 ADD SWAP1 PUSH2 0x7588 JUMP JUMPDEST ADD MLOAD SWAP1 POP CODESIZE DUP1 PUSH2 0x5591 JUMP JUMPDEST SWAP1 PUSH1 0x5 DUP6 ADD DUP10 MSTORE PUSH1 0x20 DUP10 KECCAK256 SWAP2 DUP10 JUMPDEST PUSH1 0x1F NOT DUP6 AND DUP2 LT PUSH2 0x5678 JUMPI POP SWAP3 PUSH1 0x7 SWAP5 SWAP3 PUSH1 0x1 SWAP3 PUSH1 0xE0 SWAP6 DUP4 PUSH1 0x1F NOT DUP2 AND LT PUSH2 0x565F JUMPI JUMPDEST POP POP POP DUP2 SHL ADD PUSH1 0x5 DUP6 ADD SSTORE PUSH2 0x55A9 JUMP JUMPDEST ADD MLOAD PUSH1 0x0 NOT PUSH1 0xF8 DUP5 PUSH1 0x3 SHL AND SHR NOT AND SWAP1 SSTORE CODESIZE DUP1 DUP1 PUSH2 0x564F JUMP JUMPDEST SWAP2 SWAP3 PUSH1 0x20 PUSH1 0x1 DUP2 SWAP3 DUP7 DUP6 ADD MLOAD DUP2 SSTORE ADD SWAP5 ADD SWAP3 ADD PUSH2 0x562C JUMP JUMPDEST PUSH4 0x4E487B71 PUSH1 0xE0 SHL DUP9 MSTORE PUSH1 0x41 PUSH1 0x4 MSTORE PUSH1 0x24 DUP9 REVERT JUMPDEST ADD MLOAD SWAP1 POP CODESIZE DUP1 PUSH2 0x552B JUMP JUMPDEST SWAP3 POP PUSH1 0x4 DUP6 ADD DUP10 MSTORE PUSH1 0x20 DUP10 KECCAK256 SWAP1 DUP10 SWAP4 JUMPDEST PUSH1 0x1F NOT DUP5 AND DUP6 LT PUSH2 0x5703 JUMPI PUSH1 0x1 SWAP5 POP DUP4 PUSH1 0x1F NOT DUP2 AND LT PUSH2 0x56EA JUMPI JUMPDEST POP POP POP DUP2 SHL ADD PUSH1 0x4 DUP4 ADD SSTORE PUSH2 0x5543 JUMP JUMPDEST ADD MLOAD PUSH1 0x0 NOT PUSH1 0xF8 DUP5 PUSH1 0x3 SHL AND SHR NOT AND SWAP1 SSTORE CODESIZE DUP1 DUP1 PUSH2 0x56DA JUMP JUMPDEST DUP2 DUP2 ADD MLOAD DUP4 SSTORE PUSH1 0x20 SWAP5 DUP6 ADD SWAP5 PUSH1 0x1 SWAP1 SWAP4 ADD SWAP3 SWAP1 SWAP2 ADD SWAP1 PUSH2 0x56BF JUMP JUMPDEST DUP5 DUP1 DUP1 DUP1 PUSH2 0x572E PUSH1 0x24 CALLDATALOAD CALLVALUE PUSH2 0x7973 JUMP JUMPDEST DUP2 DUP2 ISZERO PUSH2 0x5748 JUMPI JUMPDEST CALLER SWAP1 CALL PUSH2 0x543A JUMPI PUSH1 0x40 MLOAD RETURNDATASIZE DUP7 DUP3 RETURNDATACOPY RETURNDATASIZE SWAP1 REVERT JUMPDEST POP PUSH2 0x8FC PUSH2 0x5736 JUMP JUMPDEST DUP3 DUP1 SWAP3 SWAP2 DUP2 SWAP3 PUSH1 0x1 DUP1 PUSH1 0xA0 SHL SUB PUSH1 0x26 SLOAD AND SWAP1 DUP4 SWAP1 PUSH2 0x5778 JUMPI JUMPDEST CALL ISZERO PUSH2 0xF03 JUMPI DUP5 CODESIZE DUP1 PUSH2 0x542D JUMP JUMPDEST POP PUSH2 0x8FC PUSH2 0x576A JUMP JUMPDEST POP PUSH2 0x8FC PUSH2 0x5412 JUMP JUMPDEST PUSH1 0x40 MLOAD PUSH4 0x23B872DD PUSH1 0xE0 SHL DUP2 MSTORE SWAP2 SWAP3 POP PUSH1 0x20 SWAP1 DUP3 SWAP1 DUP2 SWAP1 PUSH2 0x57B0 SWAP1 DUP9 CALLER PUSH1 0x4 DUP6 ADD PUSH2 0x7998 JUMP JUMPDEST SUB DUP2 DUP11 PUSH1 0x1 PUSH1 0x1 PUSH1 0xA0 SHL SUB DUP11 AND GAS CALL DUP1 ISZERO PUSH2 0x717 JUMPI PUSH2 0x5840 JUMPI JUMPDEST POP DUP1 PUSH2 0x57D7 JUMPI JUMPDEST POP PUSH2 0x543A JUMP JUMPDEST PUSH1 0x26 SLOAD PUSH1 0x40 MLOAD PUSH4 0x23B872DD PUSH1 0xE0 SHL DUP2 MSTORE SWAP2 PUSH1 0x20 SWAP2 DUP4 SWAP2 DUP3 SWAP2 PUSH2 0x5807 SWAP2 SWAP1 PUSH1 0x1 PUSH1 0x1 PUSH1 0xA0 SHL SUB AND CALLER PUSH1 0x4 DUP6 ADD PUSH2 0x7998 JUMP JUMPDEST SUB DUP2 DUP10 PUSH1 0x1 PUSH1 0x1 PUSH1 0xA0 SHL SUB DUP10 AND GAS CALL DUP1 ISZERO PUSH2 0x1008 JUMPI ISZERO PUSH2 0x57D1 JUMPI PUSH2 0x5839 SWAP1 PUSH1 0x20 RETURNDATASIZE PUSH1 0x20 GT PUSH2 0x710 JUMPI PUSH2 0x701 DUP2 DUP4 PUSH2 0x7400 JUMP JUMPDEST POP CODESIZE PUSH2 0x57D1 JUMP JUMPDEST PUSH2 0x5858 SWAP1 PUSH1 0x20 RETURNDATASIZE PUSH1 0x20 GT PUSH2 0x710 JUMPI PUSH2 0x701 DUP2 DUP4 PUSH2 0x7400 JUMP JUMPDEST POP CODESIZE PUSH2 0x57CA JUMP JUMPDEST PUSH1 0x40 MLOAD PUSH3 0x461BCD PUSH1 0xE5 SHL DUP2 MSTORE PUSH1 0x20 PUSH1 0x4 DUP3 ADD MSTORE PUSH1 0x16 PUSH1 0x24 DUP3 ADD MSTORE PUSH22 0x131A5B9AC8185B1C9958591E481C1C9BD8D95CDCD959 PUSH1 0x52 SHL PUSH1 0x44 DUP3 ADD MSTORE PUSH1 0x64 SWAP1 REVERT JUMPDEST POP CALLVALUE PUSH2 0x4F4 JUMPI PUSH1 0x20 CALLDATASIZE PUSH1 0x3 NOT ADD SLT PUSH2 0x4F4 JUMPI PUSH1 0x40 PUSH1 0xE0 SWAP2 PUSH1 0x4 CALLDATALOAD DUP2 MSTORE PUSH1 0x4 PUSH1 0x20 MSTORE KECCAK256 PUSH1 0x1 DUP1 PUSH1 0xA0 SHL SUB DUP1 DUP3 SLOAD AND SWAP2 DUP2 PUSH1 0x1 DUP3 ADD SLOAD AND SWAP2 PUSH1 0x2 DUP3 ADD SLOAD SWAP1 PUSH1 0x3 DUP4 ADD SLOAD AND PUSH1 0x4 DUP4 ADD SLOAD SWAP2 PUSH1 0xFF PUSH1 0x6 PUSH1 0x5 DUP7 ADD SLOAD SWAP6 ADD SLOAD AND SWAP5 PUSH1 0x40 MLOAD SWAP7 DUP8 MSTORE PUSH1 0x20 DUP8 ADD MSTORE PUSH1 0x40 DUP7 ADD MSTORE PUSH1 0x60 DUP6 ADD MSTORE PUSH1 0x80 DUP5 ADD MSTORE PUSH1 0xA0 DUP4 ADD MSTORE ISZERO ISZERO PUSH1 0xC0 DUP3 ADD MSTORE RETURN JUMPDEST POP CALLVALUE PUSH2 0x4F4 JUMPI PUSH1 0x20 SWAP1 DUP2 PUSH1 0x3 NOT CALLDATASIZE ADD SLT PUSH2 0x4F4 JUMPI SWAP1 PUSH1 0x4 CALLDATALOAD DUP3 MSTORE PUSH1 0x9 DUP2 MSTORE PUSH1 0x1 DUP1 PUSH1 0x40 DUP5 KECCAK256 ADD SWAP3 DUP4 SLOAD PUSH2 0x594D DUP2 PUSH2 0x7631 JUMP JUMPDEST SWAP1 PUSH2 0x595B PUSH1 0x40 MLOAD SWAP3 DUP4 PUSH2 0x7400 JUMP JUMPDEST DUP1 DUP3 MSTORE DUP5 DUP3 ADD DUP1 SWAP7 DUP5 MSTORE DUP6 DUP5 KECCAK256 DUP5 SWAP2 JUMPDEST DUP4 DUP4 LT PUSH2 0x59C0 JUMPI POP POP POP POP PUSH1 0x40 MLOAD SWAP4 DUP1 DUP6 ADD SWAP2 DUP2 DUP7 MSTORE MLOAD DUP1 SWAP3 MSTORE PUSH1 0x40 DUP6 ADD SWAP6 SWAP3 JUMPDEST DUP3 DUP2 LT PUSH2 0x5999 JUMPI DUP6 DUP8 SUB DUP7 RETURN JUMPDEST DUP4 MLOAD DUP1 MLOAD PUSH1 0x1 PUSH1 0x1 PUSH1 0xA0 SHL SUB AND DUP9 MSTORE DUP3 ADD MLOAD DUP3 DUP9 ADD MSTORE PUSH1 0x40 SWAP1 SWAP7 ADD SWAP6 SWAP3 DUP2 ADD SWAP3 DUP5 ADD PUSH2 0x598C JUMP JUMPDEST SWAP6 PUSH1 0x2 DUP9 DUP3 SWAP11 SWAP9 PUSH1 0x40 SWAP11 SWAP8 SWAP9 SWAP11 MLOAD PUSH2 0x59D7 DUP2 PUSH2 0x7397 JUMP JUMPDEST PUSH1 0x1 DUP1 PUSH1 0xA0 SHL SUB DUP7 SLOAD AND DUP2 MSTORE DUP5 DUP7 ADD SLOAD DUP4 DUP3 ADD MSTORE DUP2 MSTORE ADD SWAP3 ADD SWAP3 ADD SWAP2 SWAP1 SWAP8 SWAP6 SWAP8 SWAP7 SWAP5 SWAP4 SWAP7 PUSH2 0x596B JUMP JUMPDEST POP CALLVALUE PUSH2 0x4F4 JUMPI PUSH1 0x60 CALLDATASIZE PUSH1 0x3 NOT ADD SLT PUSH2 0x4F4 JUMPI PUSH1 0x4 CALLDATALOAD PUSH2 0x5A1D PUSH2 0x7388 JUMP JUMPDEST PUSH1 0x44 CALLDATALOAD PUSH1 0x1 PUSH1 0x1 PUSH1 0x40 SHL SUB DUP2 GT PUSH2 0x106C JUMPI PUSH2 0x5A3C SWAP1 CALLDATASIZE SWAP1 PUSH1 0x4 ADD PUSH2 0x743E JUMP JUMPDEST POP PUSH2 0x5A45 PUSH2 0x7A59 JUMP JUMPDEST DUP2 DUP4 MSTORE PUSH1 0x5 PUSH1 0x20 SWAP1 DUP2 MSTORE PUSH1 0x40 DUP5 KECCAK256 PUSH1 0x2 DUP2 ADD SLOAD PUSH1 0x1 PUSH1 0x1 PUSH1 0xA0 SHL SUB SWAP2 SWAP1 DUP3 AND CALLER SUB PUSH2 0x5D5A JUMPI PUSH1 0x6 DUP2 ADD DUP1 SLOAD PUSH1 0xFF DUP2 PUSH1 0x8 SHR AND ISZERO PUSH2 0x5D1D JUMPI SWAP1 DUP2 PUSH2 0x5A8F PUSH1 0xFF DUP11 SWAP8 SWAP7 SWAP6 SWAP5 AND ISZERO PUSH2 0x7B7A JUMP JUMPDEST PUSH1 0x1 PUSH1 0xFF NOT DUP1 SWAP3 AND OR DUP3 SSTORE PUSH1 0x3 DUP4 ADD SWAP1 PUSH2 0x2710 PUSH2 0x5AB0 DUP4 SLOAD PUSH1 0x25 SLOAD SWAP1 PUSH2 0x792A JUMP JUMPDEST DIV SWAP3 DUP9 ISZERO PUSH2 0x5BB4 JUMPI POP SWAP1 PUSH2 0x5AD9 SWAP3 SWAP2 DUP10 DUP9 MSTORE PUSH1 0x6 DUP8 MSTORE PUSH1 0x2 PUSH1 0x40 DUP10 KECCAK256 SWAP2 DUP3 SLOAD AND OR SWAP1 SSTORE SLOAD PUSH2 0x7AB5 JUMP JUMPDEST SWAP3 DUP3 PUSH1 0x4 DUP4 ADD SLOAD AND DUP1 ISZERO PUSH1 0x0 EQ PUSH2 0x5B57 JUMPI POP POP DUP4 SWAP3 DUP4 SWAP3 DUP4 SWAP3 SLOAD AND DUP3 DUP3 ISZERO PUSH2 0x5B4E JUMPI JUMPDEST CALL ISZERO PUSH2 0x21D6 JUMPI JUMPDEST ISZERO PUSH2 0x5B46 JUMPI PUSH1 0x2 SWAP1 JUMPDEST PUSH32 0xD479D35C2C3AEE3D59F9972A1214F8EFFA0C54C4F8FF4DCF020913C0A5E27C62 PUSH1 0x40 MLOAD DUP1 PUSH2 0x5B3C CALLER SWAP6 DUP3 PUSH2 0x76AE JUMP JUMPDEST SUB SWAP1 LOG3 PUSH1 0x1 DUP2 SSTORE DUP1 RETURN JUMPDEST PUSH1 0x3 SWAP1 PUSH2 0x5B0C JUMP JUMPDEST POP PUSH2 0x8FC PUSH2 0x5AFC JUMP JUMPDEST SWAP1 SWAP5 POP DUP5 SWAP3 PUSH2 0x5B80 SWAP5 SWAP3 SLOAD AND DUP9 PUSH1 0x40 MLOAD DUP1 SWAP7 DUP2 SWAP6 DUP3 SWAP5 PUSH4 0xA9059CBB PUSH1 0xE0 SHL DUP5 MSTORE PUSH1 0x4 DUP5 ADD PUSH2 0x7BFE JUMP JUMPDEST SUB SWAP3 GAS CALL DUP1 ISZERO PUSH2 0x60D JUMPI PUSH2 0x5B96 JUMPI JUMPDEST POP POP PUSH2 0x5B03 JUMP JUMPDEST DUP2 PUSH2 0x5BAC SWAP3 SWAP1 RETURNDATASIZE LT PUSH2 0x710 JUMPI PUSH2 0x701 DUP2 DUP4 PUSH2 0x7400 JUMP JUMPDEST POP CODESIZE DUP1 PUSH2 0x5B8F JUMP JUMPDEST DUP10 DUP9 MSTORE PUSH1 0x6 DUP8 MSTORE PUSH1 0x40 DUP9 KECCAK256 DUP1 SLOAD SWAP1 SWAP3 AND PUSH1 0x3 OR SWAP1 SWAP2 SSTORE DUP1 SLOAD PUSH3 0xFF0000 NOT AND PUSH3 0x10000 OR SWAP1 SSTORE PUSH1 0x4 DUP4 ADD DUP1 SLOAD SWAP3 SWAP6 SWAP2 SWAP4 SWAP3 DUP6 AND DUP1 PUSH2 0x5C51 JUMPI POP POP POP DUP5 DUP1 DUP1 SWAP4 DUP6 PUSH1 0x1 DUP4 SWAP6 ADD SLOAD AND SWAP1 SLOAD SWAP1 DUP3 DUP3 ISZERO PUSH2 0x5C48 JUMPI JUMPDEST CALL ISZERO PUSH2 0x21D6 JUMPI DUP2 ISZERO SWAP1 DUP2 ISZERO PUSH2 0x5C1E JUMPI JUMPDEST POP POP POP POP PUSH2 0x5B03 JUMP JUMPDEST DUP4 SWAP3 DUP4 SWAP3 DUP4 SWAP3 PUSH1 0x26 SLOAD AND SWAP1 DUP4 SWAP1 PUSH2 0x5C3F JUMPI JUMPDEST CALL ISZERO PUSH2 0x21D6 JUMPI DUP3 CODESIZE DUP1 DUP1 PUSH2 0x5C15 JUMP JUMPDEST POP PUSH2 0x8FC PUSH2 0x5C30 JUMP JUMPDEST POP PUSH2 0x8FC PUSH2 0x5C05 JUMP JUMPDEST SWAP2 PUSH2 0x5C84 DUP9 SWAP8 SWAP6 SWAP4 DUP8 PUSH1 0x1 DUP5 SWAP12 SWAP6 SWAP10 SWAP8 ADD SLOAD AND SWAP5 SLOAD PUSH1 0x40 MLOAD SWAP5 DUP6 DUP1 SWAP5 DUP2 SWAP4 PUSH4 0xA9059CBB PUSH1 0xE0 SHL SWAP10 DUP11 DUP5 MSTORE PUSH1 0x4 DUP5 ADD PUSH2 0x7BFE JUMP JUMPDEST SUB SWAP3 GAS CALL DUP1 ISZERO PUSH2 0x1008 JUMPI PUSH2 0x5D00 JUMPI JUMPDEST POP DUP3 PUSH2 0x5CA5 JUMPI JUMPDEST POP POP POP POP POP POP PUSH2 0x5B03 JUMP JUMPDEST PUSH2 0x5CC9 SWAP5 DUP3 DUP8 SWAP6 SLOAD AND SWAP3 PUSH1 0x26 SLOAD AND SWAP2 PUSH1 0x40 MLOAD SWAP7 DUP8 SWAP6 DUP7 SWAP5 DUP6 SWAP4 DUP5 MSTORE PUSH1 0x4 DUP5 ADD PUSH2 0x7BFE JUMP JUMPDEST SUB SWAP3 GAS CALL DUP1 ISZERO PUSH2 0x60D JUMPI PUSH2 0x5CE2 JUMPI JUMPDEST DUP1 DUP1 DUP1 DUP8 SWAP4 PUSH2 0x5C9A JUMP JUMPDEST DUP2 PUSH2 0x5CF8 SWAP3 SWAP1 RETURNDATASIZE LT PUSH2 0x710 JUMPI PUSH2 0x701 DUP2 DUP4 PUSH2 0x7400 JUMP JUMPDEST POP CODESIZE DUP1 PUSH2 0x5CD8 JUMP JUMPDEST PUSH2 0x5D16 SWAP1 DUP8 RETURNDATASIZE DUP10 GT PUSH2 0x710 JUMPI PUSH2 0x701 DUP2 DUP4 PUSH2 0x7400 JUMP JUMPDEST POP CODESIZE PUSH2 0x5C93 JUMP JUMPDEST PUSH1 0x40 MLOAD PUSH3 0x461BCD PUSH1 0xE5 SHL DUP2 MSTORE PUSH1 0x4 DUP2 ADD DUP7 SWAP1 MSTORE PUSH1 0x15 PUSH1 0x24 DUP3 ADD MSTORE PUSH21 0x4E6F206469737075746520746F207265736F6C7665 PUSH1 0x58 SHL PUSH1 0x44 DUP3 ADD MSTORE PUSH1 0x64 SWAP1 REVERT JUMPDEST PUSH1 0x40 MLOAD PUSH3 0x461BCD PUSH1 0xE5 SHL DUP2 MSTORE PUSH1 0x4 DUP2 ADD DUP5 SWAP1 MSTORE PUSH1 0xB PUSH1 0x24 DUP3 ADD MSTORE PUSH11 0x2737BA1030B93134BA32B9 PUSH1 0xA9 SHL PUSH1 0x44 DUP3 ADD MSTORE PUSH1 0x64 SWAP1 REVERT JUMPDEST POP CALLVALUE PUSH2 0x4F4 JUMPI DUP1 PUSH1 0x3 NOT CALLDATASIZE ADD SLT PUSH2 0x4F4 JUMPI PUSH1 0x20 PUSH1 0x24 SLOAD PUSH1 0x40 MLOAD SWAP1 DUP2 MSTORE RETURN JUMPDEST POP CALLVALUE PUSH2 0x4F4 JUMPI PUSH1 0x20 CALLDATASIZE PUSH1 0x3 NOT ADD SLT PUSH2 0x4F4 JUMPI PUSH1 0x20 PUSH2 0x15A3 PUSH1 0x4 CALLDATALOAD PUSH2 0x85B5 JUMP JUMPDEST POP CALLVALUE PUSH2 0x4F4 JUMPI PUSH1 0x20 CALLDATASIZE PUSH1 0x3 NOT ADD SLT PUSH2 0x4F4 JUMPI PUSH1 0x4 CALLDATALOAD DUP2 MSTORE PUSH1 0x7 PUSH1 0x20 MSTORE PUSH1 0x40 DUP2 KECCAK256 PUSH1 0x1 DUP1 PUSH1 0xA0 SHL SUB PUSH1 0x1 DUP3 ADD SLOAD AND SWAP2 PUSH1 0x2 DUP3 ADD SLOAD PUSH1 0x1 DUP1 PUSH1 0xA0 SHL SUB PUSH1 0x3 DUP5 ADD SLOAD AND SWAP2 PUSH1 0x4 DUP5 ADD SLOAD PUSH1 0x5 DUP6 ADD SLOAD PUSH1 0xFF PUSH1 0x7 DUP8 ADD SLOAD AND SWAP2 PUSH1 0x9 DUP8 ADD SLOAD SWAP6 PUSH1 0xA DUP9 ADD SLOAD SWAP6 PUSH1 0x40 MLOAD SWAP10 DUP11 SWAP10 PUSH1 0x20 DUP2 SLOAD SWAP13 DUP14 DUP2 MSTORE ADD DUP1 SWAP13 DUP3 DUP11 MSTORE PUSH1 0x20 DUP11 KECCAK256 SWAP1 DUP11 JUMPDEST DUP2 DUP2 LT PUSH2 0x5EF3 JUMPI POP POP POP PUSH2 0x5E68 SWAP2 PUSH2 0x5E62 DUP14 DUP1 PUSH1 0x8 SWAP5 SUB SWAP1 PUSH2 0x7400 JUMP JUMPDEST ADD PUSH2 0x74BF JUMP JUMPDEST SWAP7 PUSH1 0x40 MLOAD SWAP11 PUSH2 0x140 SWAP1 DUP2 DUP14 ADD SWAP2 DUP14 MSTORE MLOAD DUP1 SWAP2 MSTORE PUSH2 0x160 DUP13 ADD SWAP13 SWAP2 JUMPDEST DUP2 DUP2 LT PUSH2 0x5ED4 JUMPI POP POP POP PUSH1 0x20 DUP11 ADD MSTORE PUSH1 0x40 DUP10 ADD MSTORE PUSH1 0x60 DUP9 ADD MSTORE PUSH1 0x80 DUP8 ADD MSTORE PUSH1 0xA0 DUP7 ADD MSTORE ISZERO ISZERO PUSH1 0xC0 DUP6 ADD MSTORE DUP4 DUP6 SUB PUSH1 0xE0 DUP6 ADD MSTORE SWAP3 SWAP4 DUP5 SWAP4 PUSH2 0x5EC3 SWAP2 SWAP1 PUSH2 0x7588 JUMP JUMPDEST SWAP2 PUSH2 0x100 DUP5 ADD MSTORE PUSH2 0x120 DUP4 ADD MSTORE SUB SWAP1 RETURN JUMPDEST DUP3 MLOAD PUSH1 0x1 PUSH1 0x1 PUSH1 0xA0 SHL SUB AND DUP15 MSTORE PUSH1 0x20 SWAP14 DUP15 ADD SWAP14 SWAP1 SWAP3 ADD SWAP2 PUSH1 0x1 ADD PUSH2 0x5E83 JUMP JUMPDEST DUP3 SLOAD PUSH1 0x1 PUSH1 0x1 PUSH1 0xA0 SHL SUB AND DUP5 MSTORE PUSH1 0x20 SWAP1 SWAP4 ADD SWAP3 PUSH1 0x1 SWAP3 DUP4 ADD SWAP3 ADD PUSH2 0x5E45 JUMP JUMPDEST POP CALLVALUE PUSH2 0x4F4 JUMPI PUSH1 0x20 CALLDATASIZE PUSH1 0x3 NOT ADD SLT PUSH2 0x4F4 JUMPI PUSH1 0x40 SWAP1 PUSH1 0x4 CALLDATALOAD DUP2 MSTORE PUSH1 0x9 PUSH1 0x20 MSTORE KECCAK256 PUSH1 0x1 DUP1 PUSH1 0xA0 SHL SUB DUP1 DUP3 SLOAD AND SWAP1 PUSH1 0x2 DUP4 ADD SLOAD SWAP3 PUSH2 0x5F97 PUSH1 0x3 DUP3 ADD SLOAD SWAP3 PUSH1 0xFF PUSH1 0x5 DUP5 ADD SLOAD SWAP5 PUSH2 0x5F66 PUSH1 0x4 PUSH1 0x1 DUP8 ADD SLOAD SWAP7 ADD PUSH2 0x74BF JUMP JUMPDEST SWAP3 PUSH1 0x40 MLOAD SWAP9 DUP10 SWAP9 DUP10 MSTORE PUSH1 0x20 DUP10 ADD MSTORE DUP2 AND PUSH1 0x40 DUP9 ADD MSTORE PUSH1 0xA0 SHR AND ISZERO ISZERO PUSH1 0x60 DUP7 ADD MSTORE PUSH1 0xE0 PUSH1 0x80 DUP7 ADD MSTORE PUSH1 0xE0 DUP6 ADD SWAP1 PUSH2 0x7588 JUMP JUMPDEST SWAP2 PUSH1 0xA0 DUP5 ADD MSTORE PUSH1 0xC0 DUP4 ADD MSTORE SUB SWAP1 RETURN JUMPDEST POP CALLVALUE PUSH2 0x4F4 JUMPI PUSH1 0x20 CALLDATASIZE PUSH1 0x3 NOT ADD SLT PUSH2 0x4F4 JUMPI PUSH1 0x4 DUP1 CALLDATALOAD DUP3 MSTORE PUSH1 0x20 MSTORE PUSH1 0x40 DUP2 KECCAK256 DUP1 SLOAD PUSH1 0x1 PUSH1 0x1 PUSH1 0xA0 SHL SUB AND CALLER SUB PUSH2 0x5FE4 JUMPI PUSH1 0x6 ADD DUP1 SLOAD PUSH1 0xFF NOT AND SWAP1 SSTORE DUP1 RETURN JUMPDEST PUSH1 0x40 MLOAD PUSH3 0x461BCD PUSH1 0xE5 SHL DUP2 MSTORE PUSH1 0x20 PUSH1 0x4 DUP3 ADD MSTORE PUSH1 0x16 PUSH1 0x24 DUP3 ADD MSTORE PUSH22 0x2737BA1039BAB139B1B934B83A34B7B71037BBB732B9 PUSH1 0x51 SHL PUSH1 0x44 DUP3 ADD MSTORE PUSH1 0x64 SWAP1 REVERT JUMPDEST POP CALLVALUE PUSH2 0x4F4 JUMPI PUSH1 0x20 DUP1 PUSH1 0x3 NOT CALLDATASIZE ADD SLT PUSH2 0x783 JUMPI PUSH1 0x4 CALLDATALOAD PUSH2 0x6040 PUSH2 0x7A59 JUMP JUMPDEST DUP1 DUP4 MSTORE PUSH1 0x7 DUP3 MSTORE PUSH1 0x40 DUP4 KECCAK256 SWAP2 PUSH1 0x7 DUP4 ADD SWAP3 DUP4 SLOAD SWAP2 PUSH2 0x6061 PUSH1 0xFF DUP5 AND ISZERO PUSH2 0x7C19 JUMP JUMPDEST PUSH1 0xA DUP3 ADD SLOAD TIMESTAMP GT ISZERO PUSH2 0x61CB JUMPI DUP6 SWAP5 DUP7 SWAP4 DUP4 SLOAD SWAP5 JUMPDEST DUP6 DUP2 LT PUSH2 0x618E JUMPI JUMPDEST POP PUSH2 0x608E PUSH1 0x1 SWAP3 SWAP4 SWAP5 SWAP6 SWAP7 SWAP8 PUSH2 0x7CB6 JUMP JUMPDEST PUSH1 0xFF NOT AND OR SWAP1 SSTORE PUSH2 0x60AC PUSH1 0x2 DUP4 ADD SLOAD PUSH2 0x2710 PUSH2 0x1AE1 PUSH1 0x24 SLOAD DUP4 PUSH2 0x792A JUMP JUMPDEST SWAP3 ISZERO PUSH2 0x617A JUMPI DUP2 DUP6 MSTORE DUP1 DUP6 KECCAK256 SLOAD PUSH1 0x3 SWAP1 SWAP3 ADD SLOAD DUP6 SWAP4 SWAP3 PUSH1 0x1 PUSH1 0x1 PUSH1 0xA0 SHL SUB SWAP1 DUP2 AND SWAP3 SWAP2 AND DUP1 PUSH2 0x6121 JUMPI POP POP DUP3 DUP1 SWAP3 DUP2 SWAP3 DUP3 DUP3 ISZERO PUSH2 0x6118 JUMPI JUMPDEST CALL ISZERO PUSH2 0x621 JUMPI JUMPDEST CALLER SWAP1 PUSH32 0x5FD84C46B0CCDF886BB0A6D26BF9EA9F1A487C166CC462F218CF2E09493CA3BA DUP4 DUP1 LOG3 PUSH1 0x1 DUP2 SSTORE DUP1 RETURN JUMPDEST POP PUSH2 0x8FC PUSH2 0x60E4 JUMP JUMPDEST DUP2 SWAP5 SWAP3 PUSH2 0x6146 SWAP5 SWAP3 SWAP4 PUSH1 0x40 MLOAD DUP1 SWAP7 DUP2 SWAP6 DUP3 SWAP5 PUSH4 0xA9059CBB PUSH1 0xE0 SHL DUP5 MSTORE PUSH1 0x4 DUP5 ADD PUSH2 0x7BFE JUMP JUMPDEST SUB SWAP3 GAS CALL DUP1 ISZERO PUSH2 0xF03 JUMPI PUSH2 0x615C JUMPI JUMPDEST POP POP PUSH2 0x60EB JUMP JUMPDEST DUP2 PUSH2 0x6172 SWAP3 SWAP1 RETURNDATASIZE LT PUSH2 0x710 JUMPI PUSH2 0x701 DUP2 DUP4 PUSH2 0x7400 JUMP JUMPDEST POP CODESIZE DUP1 PUSH2 0x6155 JUMP JUMPDEST PUSH4 0x4E487B71 PUSH1 0xE0 SHL DUP6 MSTORE PUSH1 0x32 PUSH1 0x4 MSTORE PUSH1 0x24 DUP6 REVERT JUMPDEST PUSH2 0x6198 DUP2 DUP7 PUSH2 0x7C9E JUMP JUMPDEST SWAP1 SLOAD PUSH1 0x3 SWAP2 SWAP1 SWAP2 SHL SHR PUSH1 0x1 PUSH1 0x1 PUSH1 0xA0 SHL SUB AND CALLER EQ PUSH2 0x61BE JUMPI PUSH2 0x61B9 SWAP1 PUSH2 0x7A7C JUMP JUMPDEST PUSH2 0x6075 JUMP JUMPDEST POP PUSH1 0x1 SWAP7 POP PUSH2 0x608E PUSH2 0x607D JUMP JUMPDEST PUSH1 0x64 SWAP1 PUSH1 0x40 MLOAD SWAP1 PUSH3 0x461BCD PUSH1 0xE5 SHL DUP3 MSTORE PUSH1 0x4 DUP3 ADD MSTORE PUSH1 0x17 PUSH1 0x24 DUP3 ADD MSTORE PUSH23 0x14185E5B595B9D081B9BDD08195E1C1A5C9959081E595D PUSH1 0x4A SHL PUSH1 0x44 DUP3 ADD MSTORE REVERT JUMPDEST POP CALLVALUE PUSH2 0x4F4 JUMPI PUSH1 0x20 CALLDATASIZE PUSH1 0x3 NOT ADD SLT PUSH2 0x4F4 JUMPI PUSH1 0x4 CALLDATALOAD PUSH2 0x6226 PUSH2 0x7870 JUMP JUMPDEST DUP1 ISZERO PUSH2 0x6232 JUMPI PUSH1 0x14 SSTORE DUP1 RETURN JUMPDEST PUSH1 0x40 MLOAD PUSH3 0x461BCD PUSH1 0xE5 SHL DUP2 MSTORE PUSH1 0x20 PUSH1 0x4 DUP3 ADD MSTORE PUSH1 0x11 PUSH1 0x24 DUP3 ADD MSTORE PUSH17 0x125B9D985B1A590819D85CC81B1A5B5A5D PUSH1 0x7A SHL PUSH1 0x44 DUP3 ADD MSTORE PUSH1 0x64 SWAP1 REVERT JUMPDEST POP PUSH1 0xE0 CALLDATASIZE PUSH1 0x3 NOT ADD SLT PUSH2 0x4F4 JUMPI PUSH1 0x4 CALLDATALOAD PUSH1 0x1 PUSH1 0x1 PUSH1 0x40 SHL SUB DUP2 GT PUSH2 0x783 JUMPI PUSH2 0x6297 SWAP1 CALLDATASIZE SWAP1 PUSH1 0x4 ADD PUSH2 0x7648 JUMP JUMPDEST PUSH2 0x629F PUSH2 0x7331 JUMP JUMPDEST PUSH2 0x62A7 PUSH2 0x731B JUMP JUMPDEST PUSH1 0xA4 CALLDATALOAD SWAP3 SWAP1 PUSH1 0xC4 CALLDATALOAD PUSH1 0x1 PUSH1 0x1 PUSH1 0x40 SHL SUB DUP2 GT PUSH2 0x3752 JUMPI PUSH2 0x62CB SWAP1 CALLDATASIZE SWAP1 PUSH1 0x4 ADD PUSH2 0x743E JUMP JUMPDEST SWAP1 PUSH2 0x62D4 PUSH2 0x7A59 JUMP JUMPDEST PUSH1 0x2 DUP4 MLOAD LT PUSH2 0x6761 JUMPI PUSH1 0x84 CALLDATALOAD ISZERO ISZERO DUP1 PUSH2 0x6754 JUMPI JUMPDEST ISZERO PUSH2 0x6711 JUMPI PUSH2 0x6301 PUSH1 0x1 PUSH1 0x1 PUSH1 0xA0 SHL SUB DUP6 AND ISZERO ISZERO PUSH2 0x789C JUMP JUMPDEST PUSH1 0x44 SWAP4 PUSH2 0x6310 DUP6 CALLDATALOAD ISZERO ISZERO PUSH2 0x78DC JUMP JUMPDEST PUSH2 0x631B TIMESTAMP DUP8 GT PUSH2 0x7B3B JUMP JUMPDEST DUP7 JUMPDEST DUP5 MLOAD DUP2 LT ISZERO PUSH2 0x642D JUMPI PUSH1 0x1 PUSH1 0x1 PUSH1 0xA0 SHL SUB PUSH2 0x6338 DUP3 DUP8 PUSH2 0x7A8B JUMP JUMPDEST MLOAD AND ISZERO PUSH2 0x63F8 JUMPI PUSH1 0x1 DUP1 DUP3 ADD DUP1 DUP4 GT PUSH2 0x63E4 JUMPI DUP2 JUMPDEST PUSH2 0x6362 JUMPI JUMPDEST POP POP PUSH2 0x635D SWAP1 PUSH2 0x7A7C JUMP JUMPDEST PUSH2 0x631D JUMP JUMPDEST DUP7 MLOAD DUP2 LT ISZERO PUSH2 0x63DF JUMPI PUSH1 0x1 PUSH1 0x1 PUSH1 0xA0 SHL SUB PUSH2 0x637D DUP5 DUP10 PUSH2 0x7A8B JUMP JUMPDEST MLOAD AND PUSH1 0x1 PUSH1 0x1 PUSH1 0xA0 SHL SUB PUSH2 0x6391 DUP4 DUP11 PUSH2 0x7A8B JUMP JUMPDEST MLOAD AND EQ PUSH2 0x63A8 JUMPI PUSH2 0x63A2 DUP3 SWAP2 PUSH2 0x7A7C JUMP JUMPDEST SWAP1 PUSH2 0x634D JUMP JUMPDEST PUSH1 0x40 MLOAD PUSH3 0x461BCD PUSH1 0xE5 SHL DUP2 MSTORE PUSH1 0x20 PUSH1 0x4 DUP3 ADD MSTORE PUSH1 0x10 PUSH1 0x24 DUP3 ADD MSTORE PUSH16 0x223AB83634B1B0BA329039B4B3B732B9 PUSH1 0x81 SHL DUP2 DUP11 ADD MSTORE PUSH1 0x64 SWAP1 REVERT JUMPDEST PUSH2 0x6352 JUMP JUMPDEST PUSH4 0x4E487B71 PUSH1 0xE0 SHL DUP11 MSTORE PUSH1 0x11 PUSH1 0x4 MSTORE PUSH1 0x24 DUP11 REVERT JUMPDEST PUSH1 0x40 MLOAD PUSH3 0x461BCD PUSH1 0xE5 SHL DUP2 MSTORE PUSH1 0x20 PUSH1 0x4 DUP3 ADD MSTORE PUSH1 0xE PUSH1 0x24 DUP3 ADD MSTORE PUSH14 0x24B73B30B634B21039B4B3B732B9 PUSH1 0x91 SHL DUP2 DUP9 ADD MSTORE PUSH1 0x64 SWAP1 REVERT JUMPDEST POP SWAP1 SWAP4 SWAP2 SWAP6 SWAP3 SWAP5 PUSH1 0xC SLOAD SWAP6 PUSH2 0x6441 DUP8 PUSH2 0x7A7C JUMP JUMPDEST PUSH1 0xC SSTORE DUP5 PUSH2 0x6458 PUSH2 0x2710 PUSH2 0x47D1 PUSH1 0x24 SLOAD DUP9 CALLDATALOAD PUSH2 0x792A JUMP JUMPDEST PUSH1 0x1 PUSH1 0x1 PUSH1 0xA0 SHL SUB DUP9 AND PUSH2 0x66AE JUMPI PUSH2 0x6472 DUP2 CALLVALUE LT ISZERO PUSH2 0x79BA JUMP JUMPDEST DUP1 CALLVALUE GT PUSH2 0x6681 JUMPI JUMPDEST POP POP JUMPDEST DUP7 DUP6 MSTORE PUSH1 0x7 PUSH1 0x20 MSTORE PUSH1 0x40 DUP6 KECCAK256 DUP2 MLOAD SWAP1 SWAP2 PUSH1 0x1 PUSH1 0x1 PUSH1 0x40 SHL SUB DUP3 GT PUSH2 0x6636 JUMPI PUSH1 0x1 PUSH1 0x40 SHL DUP3 GT PUSH2 0x6636 JUMPI PUSH1 0x20 SWAP1 DUP4 SLOAD DUP4 DUP6 SSTORE DUP1 DUP5 LT PUSH2 0x6667 JUMPI JUMPDEST POP ADD DUP3 DUP8 MSTORE PUSH1 0x20 DUP8 KECCAK256 DUP8 JUMPDEST DUP4 DUP2 LT PUSH2 0x664A JUMPI POP POP POP POP PUSH1 0x1 DUP2 DUP2 ADD DUP1 SLOAD PUSH1 0x1 PUSH1 0x1 PUSH1 0xA0 SHL SUB DUP7 DUP2 AND PUSH1 0x1 PUSH1 0x1 PUSH1 0xA0 SHL SUB NOT SWAP3 DUP4 AND OR SWAP1 SWAP3 SSTORE DUP7 CALLDATALOAD PUSH1 0x2 DUP6 ADD SSTORE PUSH1 0x3 DUP5 ADD DUP1 SLOAD SWAP10 SWAP1 SWAP3 AND SWAP9 AND SWAP8 SWAP1 SWAP8 OR SWAP1 SWAP7 SSTORE PUSH1 0x84 CALLDATALOAD PUSH1 0x4 DUP3 ADD SSTORE PUSH1 0x5 DUP2 ADD DUP6 SWAP1 SSTORE PUSH1 0x7 DUP2 ADD DUP1 SLOAD PUSH1 0xFF NOT AND SWAP1 SSTORE DUP8 MLOAD PUSH1 0x8 DUP3 ADD SWAP1 PUSH1 0x1 PUSH1 0x1 PUSH1 0x40 SHL SUB DUP2 GT PUSH2 0x6636 JUMPI PUSH1 0x20 SWAP10 PUSH2 0x6549 DUP3 PUSH2 0x18BE DUP6 SLOAD PUSH2 0x7485 JUMP JUMPDEST DUP11 SWAP1 PUSH1 0x1F DUP4 GT PUSH1 0x1 EQ PUSH2 0x65D2 JUMPI PUSH1 0xA SWAP5 SWAP4 SWAP3 SWAP2 DUP10 SWAP2 DUP4 PUSH2 0x65C7 JUMPI JUMPDEST POP POP PUSH1 0x0 NOT PUSH1 0x3 DUP4 SWAP1 SHL SHR NOT AND SWAP1 DUP10 SHL OR SWAP1 SSTORE JUMPDEST TIMESTAMP PUSH1 0x9 DUP3 ADD SSTORE ADD SSTORE PUSH1 0x40 MLOAD SWAP2 CALLDATALOAD DUP3 MSTORE PUSH1 0x84 CALLDATALOAD DUP7 DUP4 ADD MSTORE PUSH1 0x1 DUP1 PUSH1 0xA0 SHL SUB AND SWAP1 DUP5 PUSH32 0x423C1C5A44471CBE0EE64AD1F1E4B8907ABB5695E29943721742AB300D609559 PUSH1 0x40 CALLER SWAP4 LOG4 SSTORE PUSH1 0x40 MLOAD SWAP1 DUP2 MSTORE RETURN JUMPDEST ADD MLOAD SWAP1 POP CODESIZE DUP1 PUSH2 0x6564 JUMP JUMPDEST SWAP4 SWAP3 SWAP2 DUP10 SWAP2 PUSH1 0x1F NOT DUP3 AND SWAP1 DUP5 DUP12 MSTORE DUP14 DUP12 KECCAK256 SWAP2 DUP12 JUMPDEST DUP2 DUP2 LT PUSH2 0x661F JUMPI POP SWAP7 DUP4 PUSH1 0xA SWAP9 LT PUSH2 0x6606 JUMPI JUMPDEST POP POP POP DUP2 SHL ADD SWAP1 SSTORE PUSH2 0x6578 JUMP JUMPDEST ADD MLOAD PUSH1 0x0 NOT PUSH1 0xF8 DUP5 PUSH1 0x3 SHL AND SHR NOT AND SWAP1 SSTORE CODESIZE DUP1 DUP1 PUSH2 0x65F9 JUMP JUMPDEST DUP3 DUP10 ADD MLOAD DUP5 SSTORE DUP14 SWAP6 SWAP1 SWAP4 ADD SWAP3 SWAP2 DUP16 ADD SWAP2 DUP16 ADD PUSH2 0x65E6 JUMP JUMPDEST PUSH4 0x4E487B71 PUSH1 0xE0 SHL DUP8 MSTORE PUSH1 0x41 PUSH1 0x4 MSTORE PUSH1 0x24 DUP8 REVERT JUMPDEST DUP3 MLOAD PUSH1 0x1 PUSH1 0x1 PUSH1 0xA0 SHL SUB AND DUP2 DUP4 ADD SSTORE PUSH1 0x20 SWAP1 SWAP3 ADD SWAP2 PUSH1 0x1 ADD PUSH2 0x64C1 JUMP JUMPDEST DUP5 DUP10 MSTORE DUP3 DUP10 KECCAK256 PUSH2 0x667B SWAP2 DUP2 ADD SWAP1 DUP6 ADD PUSH2 0x79FD JUMP JUMPDEST CODESIZE PUSH2 0x64B6 JUMP JUMPDEST DUP2 DUP1 PUSH2 0x668E DUP2 SWAP4 CALLVALUE PUSH2 0x7973 JUMP JUMPDEST DUP2 DUP2 ISZERO PUSH2 0x66A5 JUMPI JUMPDEST CALLER SWAP1 CALL ISZERO PUSH2 0xF03 JUMPI DUP5 CODESIZE PUSH2 0x647A JUMP JUMPDEST POP PUSH2 0x8FC PUSH2 0x6696 JUMP JUMPDEST PUSH1 0x40 MLOAD PUSH4 0x23B872DD PUSH1 0xE0 SHL DUP2 MSTORE SWAP2 POP PUSH1 0x20 SWAP1 DUP3 SWAP1 DUP2 SWAP1 PUSH2 0x66D3 SWAP1 ADDRESS CALLER PUSH1 0x4 DUP6 ADD PUSH2 0x7998 JUMP JUMPDEST SUB DUP2 DUP10 PUSH1 0x1 PUSH1 0x1 PUSH1 0xA0 SHL SUB DUP13 AND GAS CALL DUP1 ISZERO PUSH2 0x1008 JUMPI PUSH2 0x66F3 JUMPI JUMPDEST POP PUSH2 0x647D JUMP JUMPDEST PUSH2 0x670A SWAP1 PUSH1 0x20 RETURNDATASIZE DUP2 GT PUSH2 0x710 JUMPI PUSH2 0x701 DUP2 DUP4 PUSH2 0x7400 JUMP JUMPDEST POP CODESIZE PUSH2 0x66ED JUMP JUMPDEST PUSH1 0x40 MLOAD PUSH3 0x461BCD PUSH1 0xE5 SHL DUP2 MSTORE PUSH1 0x20 PUSH1 0x4 DUP3 ADD MSTORE PUSH1 0x1B PUSH1 0x24 DUP3 ADD MSTORE PUSH27 0x496E76616C6964207265717569726564207369676E617475726573 PUSH1 0x28 SHL PUSH1 0x44 DUP3 ADD MSTORE PUSH1 0x64 SWAP1 REVERT JUMPDEST POP DUP3 MLOAD PUSH1 0x84 CALLDATALOAD GT ISZERO PUSH2 0x62E8 JUMP JUMPDEST PUSH1 0x40 MLOAD PUSH3 0x461BCD PUSH1 0xE5 SHL DUP2 MSTORE PUSH1 0x20 PUSH1 0x4 DUP3 ADD MSTORE PUSH1 0x17 PUSH1 0x24 DUP3 ADD MSTORE PUSH23 0x4E656564206174206C656173742032207369676E657273 PUSH1 0x48 SHL PUSH1 0x44 DUP3 ADD MSTORE PUSH1 0x64 SWAP1 REVERT JUMPDEST POP CALLVALUE PUSH2 0x4F4 JUMPI PUSH1 0x20 CALLDATASIZE PUSH1 0x3 NOT ADD SLT PUSH2 0x4F4 JUMPI PUSH1 0x4 CALLDATALOAD PUSH2 0x67BD PUSH2 0x7A59 JUMP JUMPDEST DUP1 DUP3 MSTORE PUSH1 0xF PUSH1 0x20 MSTORE DUP2 PUSH1 0x40 DUP2 KECCAK256 PUSH1 0x5 DUP2 ADD DUP1 SLOAD SWAP2 PUSH2 0x67E1 PUSH1 0xFF DUP5 PUSH1 0xA0 SHR AND ISZERO PUSH2 0x7C19 JUMP JUMPDEST PUSH2 0x67F1 PUSH1 0xFF DUP5 PUSH1 0xA8 SHR AND ISZERO PUSH2 0x7D37 JUMP JUMPDEST DUP1 SLOAD PUSH1 0x1 PUSH1 0x1 PUSH1 0xA0 SHL SUB SWAP3 SWAP1 DUP4 AND SWAP1 CALLER DUP3 EQ DUP1 ISZERO PUSH2 0x6905 JUMPI JUMPDEST DUP1 ISZERO PUSH2 0x68F8 JUMPI JUMPDEST PUSH2 0x681A SWAP1 PUSH2 0x7E4F JUMP JUMPDEST PUSH1 0xFF PUSH1 0xA8 SHL NOT DUP6 AND PUSH1 0x1 PUSH1 0xA8 SHL OR SWAP1 SSTORE PUSH1 0x4 DUP3 ADD SLOAD PUSH1 0x24 SLOAD DUP5 SWAP2 PUSH2 0x6846 SWAP2 PUSH2 0x2710 SWAP1 PUSH2 0x1AE1 SWAP1 DUP4 PUSH2 0x792A JUMP JUMPDEST SWAP5 AND SWAP1 DUP2 PUSH2 0x689D JUMPI POP POP DUP4 SWAP3 DUP4 SWAP3 DUP4 SWAP3 SLOAD AND DUP3 DUP3 ISZERO PUSH2 0x6894 JUMPI JUMPDEST CALL ISZERO PUSH2 0x621 JUMPI JUMPDEST CALLER SWAP1 PUSH32 0xA4FFF0BA60D1DF5BCDBD79B981E0DFFAE057173E562567C1C8C2C4208DB6B01E DUP4 DUP1 LOG3 PUSH1 0x1 DUP2 SSTORE DUP1 RETURN JUMPDEST POP PUSH2 0x8FC PUSH2 0x6860 JUMP JUMPDEST SWAP1 SWAP2 POP PUSH1 0x20 SWAP4 SWAP3 POP PUSH2 0x68C5 SWAP5 PUSH1 0x40 MLOAD DUP1 SWAP7 DUP2 SWAP6 DUP3 SWAP5 PUSH4 0xA9059CBB PUSH1 0xE0 SHL DUP5 MSTORE PUSH1 0x4 DUP5 ADD PUSH2 0x7BFE JUMP JUMPDEST SUB SWAP3 GAS CALL DUP1 ISZERO PUSH2 0x412B JUMPI PUSH2 0x68DA JUMPI JUMPDEST POP PUSH2 0x6867 JUMP JUMPDEST PUSH2 0x68F1 SWAP1 PUSH1 0x20 RETURNDATASIZE DUP2 GT PUSH2 0x710 JUMPI PUSH2 0x701 DUP2 DUP4 PUSH2 0x7400 JUMP JUMPDEST POP CODESIZE PUSH2 0x68D4 JUMP JUMPDEST POP PUSH1 0x8 DUP4 ADD SLOAD TIMESTAMP GT PUSH2 0x6811 JUMP JUMPDEST POP DUP4 PUSH1 0x1 DUP5 ADD SLOAD AND CALLER EQ PUSH2 0x680A JUMP JUMPDEST POP CALLVALUE PUSH2 0x4F4 JUMPI DUP1 PUSH1 0x3 NOT CALLDATASIZE ADD SLT PUSH2 0x4F4 JUMPI PUSH1 0x20 PUSH1 0x16 SLOAD PUSH1 0x40 MLOAD SWAP1 DUP2 MSTORE RETURN JUMPDEST POP CALLVALUE PUSH2 0x4F4 JUMPI DUP1 PUSH1 0x3 NOT CALLDATASIZE ADD SLT PUSH2 0x4F4 JUMPI PUSH1 0x20 PUSH1 0x12 SLOAD PUSH1 0x40 MLOAD SWAP1 DUP2 MSTORE RETURN JUMPDEST POP CALLVALUE PUSH2 0x4F4 JUMPI PUSH1 0x20 CALLDATASIZE PUSH1 0x3 NOT ADD SLT PUSH2 0x4F4 JUMPI PUSH1 0x40 SWAP1 PUSH1 0x4 CALLDATALOAD DUP2 MSTORE PUSH1 0x15 PUSH1 0x20 MSTORE KECCAK256 DUP1 SLOAD PUSH2 0x4F0 PUSH1 0x1 DUP4 ADD SLOAD SWAP3 PUSH1 0x3 DUP2 ADD SLOAD PUSH1 0x4 DUP3 ADD SLOAD PUSH1 0x5 DUP4 ADD SLOAD SWAP2 PUSH1 0x1 DUP1 PUSH1 0xA0 SHL SUB PUSH2 0x69A5 PUSH1 0x2 DUP3 PUSH1 0x6 DUP9 ADD SLOAD AND SWAP7 ADD PUSH2 0x74BF JUMP JUMPDEST PUSH1 0x40 MLOAD SWAP9 DUP10 SWAP9 PUSH1 0xFF DUP1 DUP1 DUP8 PUSH1 0x8 SHR AND SWAP7 AND SWAP5 DUP4 PUSH1 0x8 SHR AND SWAP3 AND SWAP1 DUP11 PUSH2 0x75D0 JUMP JUMPDEST POP CALLVALUE PUSH2 0x4F4 JUMPI PUSH1 0x20 CALLDATASIZE PUSH1 0x3 NOT ADD SLT PUSH2 0x4F4 JUMPI PUSH1 0x20 PUSH2 0x15A3 PUSH1 0x4 CALLDATALOAD PUSH2 0x851F JUMP JUMPDEST POP CALLVALUE PUSH2 0x4F4 JUMPI PUSH1 0x40 CALLDATASIZE PUSH1 0x3 NOT ADD SLT PUSH2 0x4F4 JUMPI PUSH1 0x40 PUSH1 0x20 SWAP2 PUSH2 0x6A03 PUSH2 0x7331 JUMP JUMPDEST PUSH1 0x4 CALLDATALOAD DUP3 MSTORE PUSH1 0x22 DUP5 MSTORE DUP3 DUP3 KECCAK256 PUSH1 0x1 PUSH1 0x1 PUSH1 0xA0 SHL SUB SWAP1 SWAP2 AND DUP3 MSTORE PUSH1 0x6 ADD DUP4 MSTORE KECCAK256 SLOAD PUSH1 0x40 MLOAD SWAP1 DUP2 MSTORE RETURN JUMPDEST POP CALLVALUE PUSH2 0x4F4 JUMPI PUSH1 0x20 CALLDATASIZE PUSH1 0x3 NOT ADD SLT PUSH2 0x4F4 JUMPI PUSH1 0x40 SWAP1 PUSH1 0x4 CALLDATALOAD DUP2 MSTORE PUSH1 0x2 PUSH1 0x20 MSTORE KECCAK256 PUSH1 0x1 DUP1 PUSH1 0xA0 SHL SUB SWAP1 DUP2 DUP2 SLOAD AND SWAP1 DUP3 PUSH1 0x1 DUP3 ADD SLOAD AND SWAP3 PUSH2 0x6ACC PUSH1 0x2 DUP4 ADD SLOAD SWAP2 PUSH1 0x3 DUP5 ADD SLOAD AND PUSH2 0x6ABE PUSH2 0x6A7E PUSH1 0x4 DUP7 ADD PUSH2 0x74BF JUMP JUMPDEST PUSH2 0x6A8A PUSH1 0x5 DUP8 ADD PUSH2 0x74BF JUMP JUMPDEST SWAP3 PUSH1 0x7 PUSH1 0x6 DUP9 ADD SLOAD SWAP8 ADD SLOAD SWAP6 PUSH1 0x40 MLOAD SWAP10 DUP11 SWAP10 DUP11 MSTORE PUSH1 0x20 DUP11 ADD MSTORE PUSH1 0x40 DUP10 ADD MSTORE PUSH1 0x60 DUP9 ADD MSTORE PUSH2 0x100 DUP1 PUSH1 0x80 DUP10 ADD MSTORE DUP8 ADD SWAP1 PUSH2 0x7588 JUMP JUMPDEST SWAP1 DUP6 DUP3 SUB PUSH1 0xA0 DUP8 ADD MSTORE PUSH2 0x7588 JUMP JUMPDEST SWAP2 PUSH1 0xC0 DUP5 ADD MSTORE PUSH1 0xE0 DUP4 ADD MSTORE SUB SWAP1 RETURN JUMPDEST POP PUSH2 0x140 CALLDATASIZE PUSH1 0x3 NOT ADD SLT PUSH2 0x4F4 JUMPI PUSH2 0x6AF1 PUSH2 0x72EF JUMP JUMPDEST SWAP1 PUSH2 0x6AFA PUSH2 0x7305 JUMP JUMPDEST SWAP1 PUSH2 0x6B03 PUSH2 0x731B JUMP JUMPDEST SWAP1 PUSH1 0x84 CALLDATALOAD PUSH1 0x1 PUSH1 0x1 PUSH1 0x40 SHL SUB DUP2 GT PUSH2 0x783 JUMPI PUSH2 0x6B23 SWAP1 CALLDATASIZE SWAP1 PUSH1 0x4 ADD PUSH2 0x735B JUMP JUMPDEST SWAP1 SWAP4 SWAP1 SWAP3 SWAP1 PUSH1 0xA4 CALLDATALOAD PUSH1 0x1 PUSH1 0x1 PUSH1 0x40 SHL SUB DUP2 GT PUSH2 0x106C JUMPI PUSH2 0x6B47 SWAP1 CALLDATASIZE SWAP1 PUSH1 0x4 ADD PUSH2 0x735B JUMP JUMPDEST SWAP7 SWAP1 SWAP2 PUSH1 0xC4 CALLDATALOAD ISZERO ISZERO PUSH1 0xC4 CALLDATALOAD SUB PUSH2 0x1A48 JUMPI PUSH2 0x124 CALLDATALOAD PUSH1 0x1 PUSH1 0x1 PUSH1 0x40 SHL SUB DUP2 GT PUSH2 0x3752 JUMPI PUSH2 0x6B77 SWAP1 CALLDATASIZE SWAP1 PUSH1 0x4 ADD PUSH2 0x743E JUMP JUMPDEST SWAP8 PUSH2 0x6B80 PUSH2 0x7A59 JUMP JUMPDEST PUSH1 0x1 PUSH1 0x1 PUSH1 0xA0 SHL SUB SWAP4 PUSH2 0x6B96 DUP5 DUP7 AND ISZERO ISZERO PUSH2 0x789C JUMP JUMPDEST DUP5 DUP7 AND ISZERO PUSH2 0x70A1 JUMPI DUP5 DUP7 AND DUP8 MSTORE PUSH1 0x13 PUSH1 0x20 MSTORE PUSH1 0xFF PUSH1 0x40 DUP9 KECCAK256 SLOAD AND ISZERO PUSH2 0x7061 JUMPI PUSH1 0x14 SLOAD PUSH1 0xE4 CALLDATALOAD GT PUSH2 0x7027 JUMPI PUSH2 0x6BCE TIMESTAMP PUSH2 0x104 CALLDATALOAD GT PUSH2 0x7B3B JUMP JUMPDEST PUSH1 0x24 CALLDATALOAD ISZERO PUSH2 0x6FE2 JUMPI PUSH2 0x6BEA PUSH2 0x2710 PUSH2 0x29EB PUSH1 0x24 SLOAD PUSH1 0x24 CALLDATALOAD PUSH2 0x792A JUMP JUMPDEST DUP4 DUP7 AND PUSH2 0x6F88 JUMPI CALLVALUE LT PUSH2 0x6F4B JUMPI JUMPDEST PUSH1 0x12 SLOAD SWAP8 PUSH2 0x6C05 DUP10 PUSH2 0x7A7C JUMP JUMPDEST PUSH1 0x12 SSTORE DUP9 DUP9 MSTORE PUSH1 0x11 PUSH1 0x20 MSTORE PUSH1 0x40 DUP9 KECCAK256 DUP1 SLOAD PUSH1 0x1 PUSH1 0x1 PUSH1 0xA0 SHL SUB NOT SWAP1 DUP2 AND CALLER OR DUP3 SSTORE PUSH1 0x1 DUP3 ADD DUP1 SLOAD DUP3 AND DUP9 DUP11 AND OR SWAP1 SSTORE PUSH1 0x24 CALLDATALOAD PUSH1 0x2 DUP4 ADD SSTORE PUSH1 0x3 DUP3 ADD DUP1 SLOAD DUP3 AND DUP8 DUP11 AND OR SWAP1 SSTORE PUSH1 0x4 DUP3 ADD DUP1 SLOAD SWAP1 SWAP2 AND DUP10 DUP10 AND OR SWAP1 SSTORE SWAP10 PUSH1 0x1 PUSH1 0x1 PUSH1 0x40 SHL SUB DUP3 GT PUSH2 0x4F1C JUMPI DUP2 SWAP1 PUSH2 0x6C84 DUP3 DUP14 PUSH1 0x5 PUSH2 0x6C7D DUP2 DUP4 ADD SLOAD PUSH2 0x7485 JUMP JUMPDEST SWAP2 ADD PUSH2 0x7A14 JUMP JUMPDEST DUP10 SWAP1 PUSH1 0x1F DUP4 GT PUSH1 0x1 EQ PUSH2 0x6EDF JUMPI DUP11 SWAP3 PUSH2 0x6ED4 JUMPI JUMPDEST POP POP DUP2 PUSH1 0x1 SHL SWAP2 PUSH1 0x0 NOT SWAP1 PUSH1 0x3 SHL SHR NOT AND OR PUSH1 0x5 DUP11 ADD SSTORE JUMPDEST PUSH1 0x1 PUSH1 0x1 PUSH1 0x40 SHL SUB DUP3 GT PUSH2 0x6636 JUMPI DUP2 SWAP1 PUSH2 0x6CDA DUP3 PUSH2 0x6CD1 PUSH1 0x6 DUP14 ADD SLOAD PUSH2 0x7485 JUMP JUMPDEST PUSH1 0x6 DUP14 ADD PUSH2 0x7A14 JUMP JUMPDEST DUP8 SWAP1 PUSH1 0x1F DUP4 GT PUSH1 0x1 EQ PUSH2 0x6E68 JUMPI DUP9 SWAP3 PUSH2 0x6E5D JUMPI JUMPDEST POP POP DUP2 PUSH1 0x1 SHL SWAP2 PUSH1 0x0 NOT SWAP1 PUSH1 0x3 SHL SHR NOT AND OR PUSH1 0x6 DUP9 ADD SSTORE JUMPDEST PUSH2 0x6D15 PUSH1 0xC4 CALLDATALOAD PUSH1 0x7 DUP10 ADD PUSH2 0x7919 JUMP JUMPDEST PUSH1 0xE4 CALLDATALOAD PUSH1 0x8 DUP9 ADD SSTORE PUSH1 0x9 DUP8 ADD DUP1 SLOAD PUSH2 0xFFFF NOT AND SWAP1 SSTORE DUP8 MLOAD PUSH1 0x1 PUSH1 0x1 PUSH1 0x40 SHL SUB DUP2 GT PUSH2 0x219E JUMPI PUSH1 0x20 SWAP9 PUSH2 0x6D57 DUP3 PUSH2 0x6D4E PUSH1 0xA DUP13 ADD SLOAD PUSH2 0x7485 JUMP JUMPDEST PUSH1 0xA DUP13 ADD PUSH2 0x7A14 JUMP JUMPDEST DUP10 SWAP1 PUSH1 0x1F DUP4 GT PUSH1 0x1 EQ PUSH2 0x6DED JUMPI SWAP2 DUP1 PUSH1 0x1 SWAP10 SWAP11 SWAP3 DUP8 SWAP6 SWAP5 DUP11 SWAP3 PUSH2 0x6DE2 JUMPI JUMPDEST POP POP PUSH1 0x0 NOT PUSH1 0x3 DUP4 SWAP1 SHL SHR NOT AND SWAP1 DUP10 SHL OR PUSH1 0xA DUP3 ADD SSTORE JUMPDEST TIMESTAMP PUSH1 0xB DUP3 ADD SSTORE PUSH1 0xC PUSH2 0x104 CALLDATALOAD SWAP2 ADD SSTORE DUP2 PUSH1 0x40 MLOAD SWAP6 AND DUP6 MSTORE PUSH1 0x24 CALLDATALOAD DUP10 DUP7 ADD MSTORE AND PUSH1 0x40 DUP5 ADD MSTORE AND SWAP1 DUP5 PUSH32 0xE62B186361C4713B5A5E86B986E61E14AD1284777FE00D5D231CAC2E1E35F793 PUSH1 0x60 CALLER SWAP4 LOG4 SSTORE PUSH1 0x40 MLOAD SWAP1 DUP2 MSTORE RETURN JUMPDEST ADD MLOAD SWAP1 POP CODESIZE DUP1 PUSH2 0x6D75 JUMP JUMPDEST SWAP1 PUSH1 0xA DUP11 ADD DUP9 MSTORE DUP11 DUP9 KECCAK256 SWAP2 DUP9 JUMPDEST PUSH1 0x1F NOT DUP6 AND DUP2 LT PUSH2 0x6E46 JUMPI POP SWAP3 PUSH1 0x1 SWAP10 SWAP11 SWAP3 DUP11 SWAP3 DUP9 SWAP7 SWAP6 DUP4 PUSH1 0x1F NOT DUP2 AND LT PUSH2 0x6E2D JUMPI JUMPDEST POP POP POP DUP2 SHL ADD PUSH1 0xA DUP3 ADD SSTORE PUSH2 0x6D8C JUMP JUMPDEST ADD MLOAD PUSH1 0x0 NOT PUSH1 0xF8 DUP5 PUSH1 0x3 SHL AND SHR NOT AND SWAP1 SSTORE CODESIZE DUP1 DUP1 PUSH2 0x6E1D JUMP JUMPDEST SWAP2 SWAP3 DUP13 PUSH1 0x1 DUP2 SWAP3 DUP7 DUP6 ADD MLOAD DUP2 SSTORE ADD SWAP5 ADD SWAP3 ADD PUSH2 0x6DFA JUMP JUMPDEST ADD CALLDATALOAD SWAP1 POP CODESIZE DUP1 PUSH2 0x6CEE JUMP JUMPDEST PUSH1 0x6 DUP12 ADD DUP10 MSTORE PUSH1 0x20 DUP10 KECCAK256 DUP10 SWAP5 POP SWAP2 JUMPDEST PUSH1 0x1F NOT DUP5 AND DUP6 LT PUSH2 0x6EBC JUMPI PUSH1 0x1 SWAP5 POP DUP4 PUSH1 0x1F NOT DUP2 AND LT PUSH2 0x6EA2 JUMPI JUMPDEST POP POP POP DUP2 SHL ADD PUSH1 0x6 DUP9 ADD SSTORE PUSH2 0x6D06 JUMP JUMPDEST ADD CALLDATALOAD PUSH1 0x0 NOT PUSH1 0x3 DUP5 SWAP1 SHL PUSH1 0xF8 AND SHR NOT AND SWAP1 SSTORE CODESIZE DUP1 DUP1 PUSH2 0x6E92 JUMP JUMPDEST DUP2 DUP2 ADD CALLDATALOAD DUP4 SSTORE PUSH1 0x20 SWAP5 DUP6 ADD SWAP5 PUSH1 0x1 SWAP1 SWAP4 ADD SWAP3 ADD PUSH2 0x6E77 JUMP JUMPDEST ADD CALLDATALOAD SWAP1 POP CODESIZE DUP1 PUSH2 0x6C98 JUMP JUMPDEST PUSH1 0x5 DUP14 ADD DUP12 MSTORE PUSH1 0x20 DUP12 KECCAK256 DUP12 SWAP5 POP SWAP2 JUMPDEST PUSH1 0x1F NOT DUP5 AND DUP6 LT PUSH2 0x6F33 JUMPI PUSH1 0x1 SWAP5 POP DUP4 PUSH1 0x1F NOT DUP2 AND LT PUSH2 0x6F19 JUMPI JUMPDEST POP POP POP DUP2 SHL ADD PUSH1 0x5 DUP11 ADD SSTORE PUSH2 0x6CB0 JUMP JUMPDEST ADD CALLDATALOAD PUSH1 0x0 NOT PUSH1 0x3 DUP5 SWAP1 SHL PUSH1 0xF8 AND SHR NOT AND SWAP1 SSTORE CODESIZE DUP1 DUP1 PUSH2 0x6F09 JUMP JUMPDEST DUP2 DUP2 ADD CALLDATALOAD DUP4 SSTORE PUSH1 0x20 SWAP5 DUP6 ADD SWAP5 PUSH1 0x1 SWAP1 SWAP4 ADD SWAP3 ADD PUSH2 0x6EEE JUMP JUMPDEST PUSH1 0x40 MLOAD PUSH3 0x461BCD PUSH1 0xE5 SHL DUP2 MSTORE PUSH1 0x20 PUSH1 0x4 DUP3 ADD MSTORE PUSH1 0x15 PUSH1 0x24 DUP3 ADD MSTORE PUSH21 0x125B9CDD59999A58DA595B9D08115512081CD95B9D PUSH1 0x5A SHL PUSH1 0x44 DUP3 ADD MSTORE PUSH1 0x64 SWAP1 REVERT JUMPDEST PUSH1 0x20 PUSH2 0x6FAA SWAP2 PUSH1 0x40 MLOAD DUP1 SWAP4 DUP2 SWAP3 PUSH4 0x23B872DD PUSH1 0xE0 SHL DUP4 MSTORE ADDRESS CALLER PUSH1 0x4 DUP6 ADD PUSH2 0x7998 JUMP JUMPDEST SUB DUP2 DUP12 DUP11 DUP10 AND GAS CALL DUP1 ISZERO PUSH2 0x51D3 JUMPI PUSH2 0x6FC3 JUMPI JUMPDEST POP PUSH2 0x6BF8 JUMP JUMPDEST PUSH2 0x6FDB SWAP1 PUSH1 0x20 RETURNDATASIZE PUSH1 0x20 GT PUSH2 0x710 JUMPI PUSH2 0x701 DUP2 DUP4 PUSH2 0x7400 JUMP JUMPDEST POP CODESIZE PUSH2 0x6FBD JUMP JUMPDEST PUSH1 0x40 MLOAD PUSH3 0x461BCD PUSH1 0xE5 SHL DUP2 MSTORE PUSH1 0x20 PUSH1 0x4 DUP3 ADD MSTORE PUSH1 0x1D PUSH1 0x24 DUP3 ADD MSTORE PUSH32 0x416D6F756E74206D7573742062652067726561746572207468616E2030000000 PUSH1 0x44 DUP3 ADD MSTORE PUSH1 0x64 SWAP1 REVERT JUMPDEST PUSH1 0x40 MLOAD PUSH3 0x461BCD PUSH1 0xE5 SHL DUP2 MSTORE PUSH1 0x20 PUSH1 0x4 DUP3 ADD MSTORE PUSH1 0x12 PUSH1 0x24 DUP3 ADD MSTORE PUSH18 0x8EC2E640D8D2DAD2E840E8DEDE40D0D2CED PUSH1 0x73 SHL PUSH1 0x44 DUP3 ADD MSTORE PUSH1 0x64 SWAP1 REVERT JUMPDEST PUSH1 0x40 MLOAD PUSH3 0x461BCD PUSH1 0xE5 SHL DUP2 MSTORE PUSH1 0x20 PUSH1 0x4 DUP3 ADD MSTORE PUSH1 0x18 PUSH1 0x24 DUP3 ADD MSTORE PUSH24 0x10DBDB9D1C9858DD081B9BDD081DDA1A5D195B1A5CDD1959 PUSH1 0x42 SHL PUSH1 0x44 DUP3 ADD MSTORE PUSH1 0x64 SWAP1 REVERT JUMPDEST PUSH1 0x40 MLOAD PUSH3 0x461BCD PUSH1 0xE5 SHL DUP2 MSTORE PUSH1 0x20 PUSH1 0x4 DUP3 ADD MSTORE PUSH1 0x17 PUSH1 0x24 DUP3 ADD MSTORE PUSH23 0x125B9D985B1A59081D185C99D95D0818DBDB9D1C9858DD PUSH1 0x4A SHL PUSH1 0x44 DUP3 ADD MSTORE PUSH1 0x64 SWAP1 REVERT JUMPDEST POP CALLVALUE PUSH2 0x4F4 JUMPI DUP1 PUSH1 0x3 NOT CALLDATASIZE ADD SLT PUSH2 0x4F4 JUMPI PUSH1 0x20 PUSH2 0x15A3 PUSH2 0x84EF JUMP JUMPDEST POP CALLVALUE PUSH2 0x4F4 JUMPI PUSH2 0x710A CALLDATASIZE PUSH2 0x72CB JUMP JUMPDEST SWAP1 PUSH2 0x7113 PUSH2 0x7A59 JUMP JUMPDEST PUSH2 0x711D DUP3 DUP3 PUSH2 0x8435 JUMP JUMPDEST DUP1 DUP5 MSTORE PUSH1 0x20 SWAP1 PUSH1 0x17 DUP3 MSTORE PUSH1 0xFF PUSH1 0x40 DUP7 KECCAK256 SLOAD AND ISZERO PUSH2 0x728C JUMPI DUP1 DUP6 MSTORE PUSH1 0x18 DUP3 MSTORE PUSH1 0x40 DUP6 KECCAK256 SLOAD TIMESTAMP LT PUSH2 0x7250 JUMPI DUP5 MSTORE PUSH1 0x17 DUP2 MSTORE PUSH1 0x40 DUP5 KECCAK256 DUP1 SLOAD PUSH1 0xFF NOT AND SWAP1 SSTORE DUP4 SWAP1 PUSH2 0x7164 DUP5 DUP5 PUSH2 0x82B0 JUMP JUMPDEST PUSH1 0x1 PUSH1 0x1 PUSH1 0xA0 SHL SUB DUP1 DUP5 AND SWAP8 SWAP3 SWAP6 SWAP3 SWAP4 DUP9 SWAP3 SWAP2 PUSH2 0x7182 DUP5 ISZERO ISZERO PUSH2 0x8073 JUMP JUMPDEST DUP8 ISZERO SWAP3 PUSH2 0x718F DUP5 ISZERO PUSH2 0x80BA JUMP JUMPDEST AND SWAP1 DUP2 PUSH2 0x71E2 JUMPI POP POP SWAP1 DUP6 SWAP2 DUP4 SWAP1 PUSH2 0x71D9 JUMPI JUMPDEST DUP4 SWAP3 DUP4 SWAP3 DUP4 SWAP3 CALL ISZERO PUSH2 0x60D JUMPI PUSH1 0x0 DUP1 MLOAD PUSH1 0x20 PUSH2 0x8790 DUP4 CODECOPY DUP2 MLOAD SWAP2 MSTORE SWAP3 PUSH1 0x40 SWAP3 JUMPDEST PUSH2 0x71CE DUP5 MLOAD DUP1 SWAP5 PUSH2 0x75AD JUMP JUMPDEST DUP3 ADD MSTORE LOG3 PUSH1 0x1 DUP2 SSTORE DUP1 RETURN JUMPDEST POP PUSH2 0x8FC PUSH2 0x71A2 JUMP JUMPDEST PUSH1 0x40 MLOAD PUSH4 0xA9059CBB PUSH1 0xE0 SHL DUP2 MSTORE SWAP8 SWAP5 DUP8 SWAP5 POP DUP9 SWAP4 POP DUP4 SWAP2 DUP3 SWAP1 PUSH2 0x720A SWAP1 DUP9 SWAP1 PUSH1 0x4 DUP5 ADD PUSH2 0x7BFE JUMP JUMPDEST SUB SWAP3 GAS CALL SWAP3 DUP4 ISZERO PUSH2 0x717 JUMPI PUSH1 0x0 DUP1 MLOAD PUSH1 0x20 PUSH2 0x8790 DUP4 CODECOPY DUP2 MLOAD SWAP2 MSTORE SWAP5 PUSH1 0x40 SWAP5 PUSH2 0x7233 JUMPI JUMPDEST POP PUSH2 0x71C2 JUMP JUMPDEST PUSH2 0x7249 SWAP1 DUP3 RETURNDATASIZE DUP5 GT PUSH2 0x710 JUMPI PUSH2 0x701 DUP2 DUP4 PUSH2 0x7400 JUMP JUMPDEST POP CODESIZE PUSH2 0x722D JUMP JUMPDEST PUSH1 0x40 MLOAD PUSH3 0x461BCD PUSH1 0xE5 SHL DUP2 MSTORE PUSH1 0x4 DUP2 ADD DUP4 SWAP1 MSTORE PUSH1 0x14 PUSH1 0x24 DUP3 ADD MSTORE PUSH20 0x111958591B1A5B99481B9BDD081C995858DA1959 PUSH1 0x62 SHL PUSH1 0x44 DUP3 ADD MSTORE PUSH1 0x64 SWAP1 REVERT JUMPDEST PUSH1 0x40 MLOAD PUSH3 0x461BCD PUSH1 0xE5 SHL DUP2 MSTORE PUSH1 0x4 DUP2 ADD DUP4 SWAP1 MSTORE PUSH1 0x17 PUSH1 0x24 DUP3 ADD MSTORE PUSH23 0x105D5D1BC81C99599D5B99081B9BDD08195B98589B1959 PUSH1 0x4A SHL PUSH1 0x44 DUP3 ADD MSTORE PUSH1 0x64 SWAP1 REVERT JUMPDEST PUSH1 0x40 SWAP1 PUSH1 0x3 NOT ADD SLT PUSH2 0x72EA JUMPI PUSH1 0x4 CALLDATALOAD SWAP1 PUSH1 0x24 CALLDATALOAD PUSH1 0x7 DUP2 LT ISZERO PUSH2 0x72EA JUMPI SWAP1 JUMP JUMPDEST PUSH1 0x0 DUP1 REVERT JUMPDEST PUSH1 0x4 CALLDATALOAD SWAP1 PUSH1 0x1 PUSH1 0x1 PUSH1 0xA0 SHL SUB DUP3 AND DUP3 SUB PUSH2 0x72EA JUMPI JUMP JUMPDEST PUSH1 0x44 CALLDATALOAD SWAP1 PUSH1 0x1 PUSH1 0x1 PUSH1 0xA0 SHL SUB DUP3 AND DUP3 SUB PUSH2 0x72EA JUMPI JUMP JUMPDEST PUSH1 0x64 CALLDATALOAD SWAP1 PUSH1 0x1 PUSH1 0x1 PUSH1 0xA0 SHL SUB DUP3 AND DUP3 SUB PUSH2 0x72EA JUMPI JUMP JUMPDEST PUSH1 0x24 CALLDATALOAD SWAP1 PUSH1 0x1 PUSH1 0x1 PUSH1 0xA0 SHL SUB DUP3 AND DUP3 SUB PUSH2 0x72EA JUMPI JUMP JUMPDEST CALLDATALOAD SWAP1 PUSH1 0x1 PUSH1 0x1 PUSH1 0xA0 SHL SUB DUP3 AND DUP3 SUB PUSH2 0x72EA JUMPI JUMP JUMPDEST SWAP2 DUP2 PUSH1 0x1F DUP5 ADD SLT ISZERO PUSH2 0x72EA JUMPI DUP3 CALLDATALOAD SWAP2 PUSH1 0x1 PUSH1 0x1 PUSH1 0x40 SHL SUB DUP4 GT PUSH2 0x72EA JUMPI PUSH1 0x20 DUP4 DUP2 DUP7 ADD SWAP6 ADD ADD GT PUSH2 0x72EA JUMPI JUMP JUMPDEST PUSH1 0x24 CALLDATALOAD SWAP1 DUP2 ISZERO ISZERO DUP3 SUB PUSH2 0x72EA JUMPI JUMP JUMPDEST PUSH1 0x40 DUP2 ADD SWAP1 DUP2 LT PUSH1 0x1 PUSH1 0x1 PUSH1 0x40 SHL SUB DUP3 GT OR PUSH2 0x73B2 JUMPI PUSH1 0x40 MSTORE JUMP JUMPDEST PUSH4 0x4E487B71 PUSH1 0xE0 SHL PUSH1 0x0 MSTORE PUSH1 0x41 PUSH1 0x4 MSTORE PUSH1 0x24 PUSH1 0x0 REVERT JUMPDEST PUSH2 0x100 DUP2 ADD SWAP1 DUP2 LT PUSH1 0x1 PUSH1 0x1 PUSH1 0x40 SHL SUB DUP3 GT OR PUSH2 0x73B2 JUMPI PUSH1 0x40 MSTORE JUMP JUMPDEST PUSH2 0x160 DUP2 ADD SWAP1 DUP2 LT PUSH1 0x1 PUSH1 0x1 PUSH1 0x40 SHL SUB DUP3 GT OR PUSH2 0x73B2 JUMPI PUSH1 0x40 MSTORE JUMP JUMPDEST PUSH1 0x1F SWAP1 SWAP2 ADD PUSH1 0x1F NOT AND DUP2 ADD SWAP1 PUSH1 0x1 PUSH1 0x1 PUSH1 0x40 SHL SUB DUP3 GT SWAP1 DUP3 LT OR PUSH2 0x73B2 JUMPI PUSH1 0x40 MSTORE JUMP JUMPDEST PUSH1 0x1 PUSH1 0x1 PUSH1 0x40 SHL SUB DUP2 GT PUSH2 0x73B2 JUMPI PUSH1 0x1F ADD PUSH1 0x1F NOT AND PUSH1 0x20 ADD SWAP1 JUMP JUMPDEST DUP2 PUSH1 0x1F DUP3 ADD SLT ISZERO PUSH2 0x72EA JUMPI DUP1 CALLDATALOAD SWAP1 PUSH2 0x7455 DUP3 PUSH2 0x7423 JUMP JUMPDEST SWAP3 PUSH2 0x7463 PUSH1 0x40 MLOAD SWAP5 DUP6 PUSH2 0x7400 JUMP JUMPDEST DUP3 DUP5 MSTORE PUSH1 0x20 DUP4 DUP4 ADD ADD GT PUSH2 0x72EA JUMPI DUP2 PUSH1 0x0 SWAP3 PUSH1 0x20 DUP1 SWAP4 ADD DUP4 DUP7 ADD CALLDATACOPY DUP4 ADD ADD MSTORE SWAP1 JUMP JUMPDEST SWAP1 PUSH1 0x1 DUP3 DUP2 SHR SWAP3 AND DUP1 ISZERO PUSH2 0x74B5 JUMPI JUMPDEST PUSH1 0x20 DUP4 LT EQ PUSH2 0x749F JUMPI JUMP JUMPDEST PUSH4 0x4E487B71 PUSH1 0xE0 SHL PUSH1 0x0 MSTORE PUSH1 0x22 PUSH1 0x4 MSTORE PUSH1 0x24 PUSH1 0x0 REVERT JUMPDEST SWAP2 PUSH1 0x7F AND SWAP2 PUSH2 0x7494 JUMP JUMPDEST SWAP1 PUSH1 0x40 MLOAD SWAP2 DUP3 PUSH1 0x0 DUP3 SLOAD SWAP3 PUSH2 0x74D3 DUP5 PUSH2 0x7485 JUMP JUMPDEST SWAP1 DUP2 DUP5 MSTORE PUSH1 0x1 SWAP5 DUP6 DUP2 AND SWAP1 DUP2 PUSH1 0x0 EQ PUSH2 0x7542 JUMPI POP PUSH1 0x1 EQ PUSH2 0x74FF JUMPI JUMPDEST POP POP PUSH2 0x74FD SWAP3 POP SUB DUP4 PUSH2 0x7400 JUMP JUMPDEST JUMP JUMPDEST SWAP1 SWAP4 SWAP2 POP PUSH1 0x0 MSTORE PUSH1 0x20 SWAP1 DUP2 PUSH1 0x0 KECCAK256 SWAP4 PUSH1 0x0 SWAP2 JUMPDEST DUP2 DUP4 LT PUSH2 0x752A JUMPI POP POP PUSH2 0x74FD SWAP4 POP DUP3 ADD ADD CODESIZE DUP1 PUSH2 0x74EF JUMP JUMPDEST DUP6 SLOAD DUP9 DUP5 ADD DUP6 ADD MSTORE SWAP5 DUP6 ADD SWAP5 DUP8 SWAP5 POP SWAP2 DUP4 ADD SWAP2 PUSH2 0x7512 JUMP JUMPDEST SWAP2 POP POP PUSH2 0x74FD SWAP5 POP PUSH1 0x20 SWAP3 POP PUSH1 0xFF NOT AND DUP3 DUP5 ADD MSTORE ISZERO ISZERO PUSH1 0x5 SHL DUP3 ADD ADD CODESIZE DUP1 PUSH2 0x74EF JUMP JUMPDEST PUSH1 0x0 JUMPDEST DUP4 DUP2 LT PUSH2 0x7578 JUMPI POP POP PUSH1 0x0 SWAP2 ADD MSTORE JUMP JUMPDEST DUP2 DUP2 ADD MLOAD DUP4 DUP3 ADD MSTORE PUSH1 0x20 ADD PUSH2 0x7568 JUMP JUMPDEST SWAP1 PUSH1 0x20 SWAP2 PUSH2 0x75A1 DUP2 MLOAD DUP1 SWAP3 DUP2 DUP6 MSTORE DUP6 DUP1 DUP7 ADD SWAP2 ADD PUSH2 0x7565 JUMP JUMPDEST PUSH1 0x1F ADD PUSH1 0x1F NOT AND ADD ADD SWAP1 JUMP JUMPDEST SWAP1 PUSH1 0x7 DUP3 LT ISZERO PUSH2 0x75BA JUMPI MSTORE JUMP JUMPDEST PUSH4 0x4E487B71 PUSH1 0xE0 SHL PUSH1 0x0 MSTORE PUSH1 0x21 PUSH1 0x4 MSTORE PUSH1 0x24 PUSH1 0x0 REVERT JUMPDEST SWAP8 SWAP4 PUSH2 0x75F0 PUSH2 0x100 SWAP9 SWAP5 SWAP8 SWAP4 PUSH2 0x7612 SWAP4 SWAP13 SWAP12 SWAP8 SWAP13 DUP12 MSTORE PUSH1 0x20 DUP12 ADD SWAP1 PUSH2 0x75AD JUMP JUMPDEST PUSH1 0x1 PUSH1 0x1 PUSH1 0xA0 SHL SUB SWAP7 DUP8 AND PUSH1 0x40 DUP11 ADD MSTORE PUSH2 0x120 PUSH1 0x60 DUP11 ADD DUP2 SWAP1 MSTORE DUP10 ADD SWAP1 PUSH2 0x7588 JUMP JUMPDEST SWAP9 ISZERO ISZERO PUSH1 0x80 DUP9 ADD MSTORE ISZERO ISZERO PUSH1 0xA0 DUP8 ADD MSTORE PUSH1 0xC0 DUP7 ADD MSTORE PUSH1 0xE0 DUP6 ADD MSTORE AND SWAP2 ADD MSTORE JUMP JUMPDEST PUSH1 0x1 PUSH1 0x1 PUSH1 0x40 SHL SUB DUP2 GT PUSH2 0x73B2 JUMPI PUSH1 0x5 SHL PUSH1 0x20 ADD SWAP1 JUMP JUMPDEST DUP2 PUSH1 0x1F DUP3 ADD SLT ISZERO PUSH2 0x72EA JUMPI DUP1 CALLDATALOAD SWAP2 PUSH2 0x765F DUP4 PUSH2 0x7631 JUMP JUMPDEST SWAP3 PUSH2 0x766D PUSH1 0x40 MLOAD SWAP5 DUP6 PUSH2 0x7400 JUMP JUMPDEST DUP1 DUP5 MSTORE PUSH1 0x20 SWAP3 DUP4 DUP1 DUP7 ADD SWAP3 PUSH1 0x5 SHL DUP3 ADD ADD SWAP3 DUP4 GT PUSH2 0x72EA JUMPI DUP4 ADD SWAP1 JUMPDEST DUP3 DUP3 LT PUSH2 0x7697 JUMPI POP POP POP POP SWAP1 JUMP JUMPDEST DUP4 DUP1 SWAP2 PUSH2 0x76A3 DUP5 PUSH2 0x7347 JUMP JUMPDEST DUP2 MSTORE ADD SWAP2 ADD SWAP1 PUSH2 0x7689 JUMP JUMPDEST SWAP2 SWAP1 PUSH1 0x20 DUP4 ADD SWAP3 PUSH1 0x4 DUP3 LT ISZERO PUSH2 0x75BA JUMPI MSTORE JUMP JUMPDEST SWAP3 PUSH1 0xA0 SWAP5 SWAP2 SWAP8 SWAP7 SWAP6 SWAP3 PUSH1 0xC0 DUP6 ADD SWAP9 DUP6 MSTORE PUSH1 0x20 DUP6 ADD MSTORE PUSH1 0x40 DUP5 ADD MSTORE PUSH1 0x60 DUP4 ADD MSTORE PUSH1 0x80 DUP3 ADD MSTORE ADD MSTORE JUMP JUMPDEST SWAP11 SWAP7 SWAP3 SWAP2 SWAP13 SWAP15 SWAP14 SWAP13 PUSH2 0x1A0 SWAP13 SWAP9 SWAP10 SWAP6 DUP13 PUSH1 0x60 PUSH2 0x7778 SWAP14 SWAP10 SWAP5 PUSH2 0x774C SWAP9 PUSH2 0x773E SWAP8 PUSH1 0x1 DUP1 PUSH1 0xA0 SHL SUB DUP1 SWAP8 DUP2 DUP1 SWAP6 AND DUP8 MSTORE AND PUSH1 0x20 DUP7 ADD MSTORE PUSH1 0x40 DUP6 ADD MSTORE AND SWAP2 ADD MSTORE AND PUSH1 0x80 DUP13 ADD MSTORE PUSH2 0x1C0 DUP1 PUSH1 0xA0 DUP14 ADD MSTORE DUP12 ADD SWAP1 PUSH2 0x7588 JUMP JUMPDEST SWAP1 DUP10 DUP3 SUB PUSH1 0xC0 DUP12 ADD MSTORE PUSH2 0x7588 JUMP JUMPDEST SWAP5 ISZERO ISZERO PUSH1 0xE0 DUP9 ADD MSTORE PUSH2 0x100 DUP8 ADD MSTORE ISZERO ISZERO PUSH2 0x120 DUP7 ADD MSTORE ISZERO ISZERO PUSH2 0x140 DUP6 ADD MSTORE DUP4 DUP3 SUB PUSH2 0x160 DUP6 ADD MSTORE PUSH2 0x7588 JUMP JUMPDEST SWAP5 PUSH2 0x180 DUP3 ADD MSTORE ADD MSTORE JUMP JUMPDEST PUSH1 0x1 PUSH1 0x1 PUSH1 0xA0 SHL SUB SWAP2 DUP3 AND DUP2 MSTORE SWAP2 DUP2 AND PUSH1 0x20 DUP4 ADD MSTORE SWAP2 DUP3 AND PUSH1 0x40 DUP3 ADD MSTORE PUSH1 0x60 DUP2 ADD SWAP3 SWAP1 SWAP3 MSTORE PUSH1 0x80 DUP3 ADD SWAP3 SWAP1 SWAP3 MSTORE SWAP2 AND PUSH1 0xA0 DUP3 ADD MSTORE SWAP1 ISZERO ISZERO PUSH1 0xC0 DUP3 ADD MSTORE SWAP1 ISZERO ISZERO PUSH1 0xE0 DUP3 ADD MSTORE PUSH2 0x160 PUSH2 0x100 DUP3 ADD DUP2 SWAP1 MSTORE SWAP3 SWAP5 SWAP4 SWAP3 PUSH2 0x140 SWAP3 PUSH2 0x77E6 SWAP2 DUP4 ADD SWAP1 PUSH2 0x7588 JUMP JUMPDEST SWAP5 PUSH2 0x120 DUP3 ADD MSTORE ADD MSTORE JUMP JUMPDEST SWAP1 PUSH1 0x5 DUP3 LT ISZERO PUSH2 0x75BA JUMPI MSTORE JUMP JUMPDEST SWAP12 SWAP11 SWAP10 SWAP7 SWAP3 SWAP5 DUP13 PUSH1 0x60 PUSH2 0x783F SWAP4 PUSH2 0x140 SWAP13 SWAP10 SWAP6 SWAP8 PUSH2 0x786B SWAP13 SWAP10 PUSH1 0x1 DUP1 PUSH1 0xA0 SHL SUB DUP1 SWAP11 DUP2 DUP1 SWAP6 AND DUP8 MSTORE AND PUSH1 0x20 DUP7 ADD MSTORE PUSH1 0x40 DUP6 ADD MSTORE AND SWAP2 ADD MSTORE PUSH1 0x80 DUP14 ADD SWAP1 PUSH2 0x77F1 JUMP JUMPDEST PUSH1 0xA0 DUP12 ADD MSTORE AND PUSH1 0xC0 DUP10 ADD MSTORE ISZERO ISZERO PUSH1 0xE0 DUP9 ADD MSTORE ISZERO ISZERO PUSH2 0x100 DUP8 ADD MSTORE PUSH2 0x160 DUP1 PUSH2 0x120 DUP9 ADD MSTORE DUP7 ADD SWAP1 PUSH2 0x7588 JUMP JUMPDEST SWAP4 ADD MSTORE JUMP JUMPDEST PUSH1 0x1 SLOAD PUSH1 0x1 PUSH1 0x1 PUSH1 0xA0 SHL SUB AND CALLER SUB PUSH2 0x7884 JUMPI JUMP JUMPDEST PUSH1 0x40 MLOAD PUSH4 0x118CDAA7 PUSH1 0xE0 SHL DUP2 MSTORE CALLER PUSH1 0x4 DUP3 ADD MSTORE PUSH1 0x24 SWAP1 REVERT JUMPDEST ISZERO PUSH2 0x78A3 JUMPI JUMP JUMPDEST PUSH1 0x40 MLOAD PUSH3 0x461BCD PUSH1 0xE5 SHL DUP2 MSTORE PUSH1 0x20 PUSH1 0x4 DUP3 ADD MSTORE PUSH1 0x11 PUSH1 0x24 DUP3 ADD MSTORE PUSH17 0x125B9D985B1A59081C9958DA5C1A595B9D PUSH1 0x7A SHL PUSH1 0x44 DUP3 ADD MSTORE PUSH1 0x64 SWAP1 REVERT JUMPDEST ISZERO PUSH2 0x78E3 JUMPI JUMP JUMPDEST PUSH1 0x40 MLOAD PUSH3 0x461BCD PUSH1 0xE5 SHL DUP2 MSTORE PUSH1 0x20 PUSH1 0x4 DUP3 ADD MSTORE PUSH1 0xE PUSH1 0x24 DUP3 ADD MSTORE PUSH14 0x125B9D985B1A5908185B5BDD5B9D PUSH1 0x92 SHL PUSH1 0x44 DUP3 ADD MSTORE PUSH1 0x64 SWAP1 REVERT JUMPDEST SWAP1 PUSH1 0xFF DUP1 NOT DUP4 SLOAD AND SWAP2 ISZERO ISZERO AND OR SWAP1 SSTORE JUMP JUMPDEST DUP2 DUP2 MUL SWAP3 SWAP2 DUP2 ISZERO SWAP2 DUP5 DIV EQ OR ISZERO PUSH2 0x793D JUMPI JUMP JUMPDEST PUSH4 0x4E487B71 PUSH1 0xE0 SHL PUSH1 0x0 MSTORE PUSH1 0x11 PUSH1 0x4 MSTORE PUSH1 0x24 PUSH1 0x0 REVERT JUMPDEST DUP2 ISZERO PUSH2 0x795D JUMPI DIV SWAP1 JUMP JUMPDEST PUSH4 0x4E487B71 PUSH1 0xE0 SHL PUSH1 0x0 MSTORE PUSH1 0x12 PUSH1 0x4 MSTORE PUSH1 0x24 PUSH1 0x0 REVERT JUMPDEST SWAP2 SWAP1 DUP3 SUB SWAP2 DUP3 GT PUSH2 0x793D JUMPI JUMP JUMPDEST SWAP1 DUP2 PUSH1 0x20 SWAP2 SUB SLT PUSH2 0x72EA JUMPI MLOAD DUP1 ISZERO ISZERO DUP2 SUB PUSH2 0x72EA JUMPI SWAP1 JUMP JUMPDEST PUSH1 0x1 PUSH1 0x1 PUSH1 0xA0 SHL SUB SWAP2 DUP3 AND DUP2 MSTORE SWAP2 AND PUSH1 0x20 DUP3 ADD MSTORE PUSH1 0x40 DUP2 ADD SWAP2 SWAP1 SWAP2 MSTORE PUSH1 0x60 ADD SWAP1 JUMP JUMPDEST ISZERO PUSH2 0x79C1 JUMPI JUMP JUMPDEST PUSH1 0x40 MLOAD PUSH3 0x461BCD PUSH1 0xE5 SHL DUP2 MSTORE PUSH1 0x20 PUSH1 0x4 DUP3 ADD MSTORE PUSH1 0x14 PUSH1 0x24 DUP3 ADD MSTORE PUSH20 0x125B9CDD59999A58DA595B9D081C185E5B595B9D PUSH1 0x62 SHL PUSH1 0x44 DUP3 ADD MSTORE PUSH1 0x64 SWAP1 REVERT JUMPDEST DUP2 DUP2 LT PUSH2 0x7A08 JUMPI POP POP JUMP JUMPDEST PUSH1 0x0 DUP2 SSTORE PUSH1 0x1 ADD PUSH2 0x79FD JUMP JUMPDEST SWAP2 SWAP1 PUSH1 0x1F DUP2 GT PUSH2 0x7A23 JUMPI POP POP POP JUMP JUMPDEST PUSH2 0x74FD SWAP3 PUSH1 0x0 MSTORE PUSH1 0x20 PUSH1 0x0 KECCAK256 SWAP1 PUSH1 0x20 PUSH1 0x1F DUP5 ADD PUSH1 0x5 SHR DUP4 ADD SWAP4 LT PUSH2 0x7A4F JUMPI JUMPDEST PUSH1 0x1F ADD PUSH1 0x5 SHR ADD SWAP1 PUSH2 0x79FD JUMP JUMPDEST SWAP1 SWAP2 POP DUP2 SWAP1 PUSH2 0x7A42 JUMP JUMPDEST PUSH1 0x2 PUSH1 0x0 SLOAD EQ PUSH2 0x7A6A JUMPI PUSH1 0x2 PUSH1 0x0 SSTORE JUMP JUMPDEST PUSH1 0x40 MLOAD PUSH4 0x3EE5AEB5 PUSH1 0xE0 SHL DUP2 MSTORE PUSH1 0x4 SWAP1 REVERT JUMPDEST PUSH1 0x0 NOT DUP2 EQ PUSH2 0x793D JUMPI PUSH1 0x1 ADD SWAP1 JUMP JUMPDEST DUP1 MLOAD DUP3 LT ISZERO PUSH2 0x7A9F JUMPI PUSH1 0x20 SWAP2 PUSH1 0x5 SHL ADD ADD SWAP1 JUMP JUMPDEST PUSH4 0x4E487B71 PUSH1 0xE0 SHL PUSH1 0x0 MSTORE PUSH1 0x32 PUSH1 0x4 MSTORE PUSH1 0x24 PUSH1 0x0 REVERT JUMPDEST SWAP2 SWAP1 DUP3 ADD DUP1 SWAP3 GT PUSH2 0x793D JUMPI JUMP JUMPDEST ISZERO PUSH2 0x7AC9 JUMPI JUMP JUMPDEST PUSH1 0x40 MLOAD PUSH3 0x461BCD PUSH1 0xE5 SHL DUP2 MSTORE PUSH1 0x20 PUSH1 0x4 DUP3 ADD MSTORE PUSH1 0xC PUSH1 0x24 DUP3 ADD MSTORE PUSH12 0x8CCACA40E8DEDE40D0D2CED PUSH1 0xA3 SHL PUSH1 0x44 DUP3 ADD MSTORE PUSH1 0x64 SWAP1 REVERT JUMPDEST ISZERO PUSH2 0x7B04 JUMPI JUMP JUMPDEST PUSH1 0x40 MLOAD PUSH3 0x461BCD PUSH1 0xE5 SHL DUP2 MSTORE PUSH1 0x20 PUSH1 0x4 DUP3 ADD MSTORE PUSH1 0xF PUSH1 0x24 DUP3 ADD MSTORE PUSH15 0x24B73B30B634B21030B93134BA32B9 PUSH1 0x89 SHL PUSH1 0x44 DUP3 ADD MSTORE PUSH1 0x64 SWAP1 REVERT JUMPDEST ISZERO PUSH2 0x7B42 JUMPI JUMP JUMPDEST PUSH1 0x40 MLOAD PUSH3 0x461BCD PUSH1 0xE5 SHL DUP2 MSTORE PUSH1 0x20 PUSH1 0x4 DUP3 ADD MSTORE PUSH1 0x10 PUSH1 0x24 DUP3 ADD MSTORE PUSH16 0x496E76616C696420646561646C696E65 PUSH1 0x80 SHL PUSH1 0x44 DUP3 ADD MSTORE PUSH1 0x64 SWAP1 REVERT JUMPDEST ISZERO PUSH2 0x7B81 JUMPI JUMP JUMPDEST PUSH1 0x40 MLOAD PUSH3 0x461BCD PUSH1 0xE5 SHL DUP2 MSTORE PUSH1 0x20 PUSH1 0x4 DUP3 ADD MSTORE PUSH1 0x18 PUSH1 0x24 DUP3 ADD MSTORE PUSH24 0x115CD8DC9BDDC8185B1C9958591E4818DBDB5C1B195D1959 PUSH1 0x42 SHL PUSH1 0x44 DUP3 ADD MSTORE PUSH1 0x64 SWAP1 REVERT JUMPDEST ISZERO PUSH2 0x7BC8 JUMPI JUMP JUMPDEST PUSH1 0x40 MLOAD PUSH3 0x461BCD PUSH1 0xE5 SHL DUP2 MSTORE PUSH1 0x20 PUSH1 0x4 DUP3 ADD MSTORE PUSH1 0xE PUSH1 0x24 DUP3 ADD MSTORE PUSH14 0x139BDD08185D5D1A1BDC9A5E9959 PUSH1 0x92 SHL PUSH1 0x44 DUP3 ADD MSTORE PUSH1 0x64 SWAP1 REVERT JUMPDEST PUSH1 0x1 PUSH1 0x1 PUSH1 0xA0 SHL SUB SWAP1 SWAP2 AND DUP2 MSTORE PUSH1 0x20 DUP2 ADD SWAP2 SWAP1 SWAP2 MSTORE PUSH1 0x40 ADD SWAP1 JUMP JUMPDEST ISZERO PUSH2 0x7C20 JUMPI JUMP JUMPDEST PUSH1 0x40 MLOAD PUSH3 0x461BCD PUSH1 0xE5 SHL DUP2 MSTORE PUSH1 0x20 PUSH1 0x4 DUP3 ADD MSTORE PUSH1 0x18 PUSH1 0x24 DUP3 ADD MSTORE PUSH24 0x14185E5B595B9D08185B1C9958591E48195E1958DD5D1959 PUSH1 0x42 SHL PUSH1 0x44 DUP3 ADD MSTORE PUSH1 0x64 SWAP1 REVERT JUMPDEST ISZERO PUSH2 0x7C67 JUMPI JUMP JUMPDEST PUSH1 0x40 MLOAD PUSH3 0x461BCD PUSH1 0xE5 SHL DUP2 MSTORE PUSH1 0x20 PUSH1 0x4 DUP3 ADD MSTORE PUSH1 0xF PUSH1 0x24 DUP3 ADD MSTORE PUSH15 0x14185E5B595B9D08195E1C1A5C9959 PUSH1 0x8A SHL PUSH1 0x44 DUP3 ADD MSTORE PUSH1 0x64 SWAP1 REVERT JUMPDEST DUP1 SLOAD DUP3 LT ISZERO PUSH2 0x7A9F JUMPI PUSH1 0x0 MSTORE PUSH1 0x20 PUSH1 0x0 KECCAK256 ADD SWAP1 PUSH1 0x0 SWAP1 JUMP JUMPDEST ISZERO PUSH2 0x7CBD JUMPI JUMP JUMPDEST PUSH1 0x40 MLOAD PUSH3 0x461BCD PUSH1 0xE5 SHL DUP2 MSTORE PUSH1 0x20 PUSH1 0x4 DUP3 ADD MSTORE PUSH1 0x12 PUSH1 0x24 DUP3 ADD MSTORE PUSH18 0x2737BA1030903B30B634B21039B4B3B732B9 PUSH1 0x71 SHL PUSH1 0x44 DUP3 ADD MSTORE PUSH1 0x64 SWAP1 REVERT JUMPDEST ISZERO PUSH2 0x7CFE JUMPI JUMP JUMPDEST PUSH1 0x40 MLOAD PUSH3 0x461BCD PUSH1 0xE5 SHL DUP2 MSTORE PUSH1 0x20 PUSH1 0x4 DUP3 ADD MSTORE PUSH1 0x11 PUSH1 0x24 DUP3 ADD MSTORE PUSH17 0x14185E5B595B9D0818D85B98D95B1B1959 PUSH1 0x7A SHL PUSH1 0x44 DUP3 ADD MSTORE PUSH1 0x64 SWAP1 REVERT JUMPDEST ISZERO PUSH2 0x7D3E JUMPI JUMP JUMPDEST PUSH1 0x40 MLOAD PUSH3 0x461BCD PUSH1 0xE5 SHL DUP2 MSTORE PUSH1 0x20 PUSH1 0x4 DUP3 ADD MSTORE PUSH1 0x19 PUSH1 0x24 DUP3 ADD MSTORE PUSH25 0x14185E5B595B9D08185B1C9958591E4818D85B98D95B1B1959 PUSH1 0x3A SHL PUSH1 0x44 DUP3 ADD MSTORE PUSH1 0x64 SWAP1 REVERT JUMPDEST PUSH1 0x0 MSTORE PUSH1 0x8 PUSH1 0x20 MSTORE PUSH1 0x40 PUSH1 0x0 KECCAK256 PUSH1 0xFF PUSH1 0x3 DUP3 ADD SLOAD PUSH1 0xA0 SHR AND SWAP1 PUSH1 0x5 DUP3 LT ISZERO PUSH2 0x75BA JUMPI DUP2 PUSH2 0x7DB2 JUMPI PUSH1 0x4 SWAP2 POP ADD SLOAD TIMESTAMP LT ISZERO SWAP1 JUMP JUMPDEST PUSH1 0x1 DUP3 SUB PUSH2 0x7DC6 JUMPI PUSH1 0x4 SWAP2 POP ADD SLOAD TIMESTAMP LT ISZERO SWAP1 JUMP JUMPDEST PUSH1 0x3 DUP3 SUB PUSH2 0x7DDA JUMPI PUSH1 0x4 SWAP2 POP ADD SLOAD NUMBER LT ISZERO SWAP1 JUMP JUMPDEST POP PUSH1 0x2 DUP2 SUB PUSH2 0x7DE9 JUMPI POP PUSH1 0x1 SWAP1 JUMP JUMPDEST PUSH1 0x4 EQ PUSH2 0x7DF5 JUMPI PUSH1 0x0 SWAP1 JUMP JUMPDEST PUSH1 0x1 SWAP1 JUMP JUMPDEST DUP1 SLOAD DUP3 LT ISZERO PUSH2 0x7A9F JUMPI PUSH1 0x0 MSTORE PUSH1 0x20 PUSH1 0x0 KECCAK256 SWAP1 PUSH1 0x1 SHL ADD SWAP1 PUSH1 0x0 SWAP1 JUMP JUMPDEST SWAP1 DUP2 PUSH1 0x20 SWAP2 SUB SLT PUSH2 0x72EA JUMPI MLOAD PUSH1 0x1 PUSH1 0x1 PUSH1 0xA0 SHL SUB DUP2 AND DUP2 SUB PUSH2 0x72EA JUMPI SWAP1 JUMP JUMPDEST PUSH1 0x1 PUSH1 0x1 PUSH1 0xA0 SHL SUB SWAP2 DUP3 AND DUP2 MSTORE SWAP2 AND PUSH1 0x20 DUP3 ADD MSTORE PUSH1 0x40 ADD SWAP1 JUMP JUMPDEST ISZERO PUSH2 0x7E56 JUMPI JUMP JUMPDEST PUSH1 0x40 MLOAD PUSH3 0x461BCD PUSH1 0xE5 SHL DUP2 MSTORE PUSH1 0x20 PUSH1 0x4 DUP3 ADD MSTORE PUSH1 0x18 PUSH1 0x24 DUP3 ADD MSTORE PUSH24 0x139BDD08185D5D1A1BDC9A5E9959081D1BC818D85B98D95B PUSH1 0x42 SHL PUSH1 0x44 DUP3 ADD MSTORE PUSH1 0x64 SWAP1 REVERT JUMPDEST PUSH1 0x0 SWAP1 DUP2 MSTORE PUSH1 0x20 PUSH1 0xF DUP2 MSTORE PUSH1 0x40 DUP3 KECCAK256 SWAP1 PUSH1 0x5 DUP3 ADD SLOAD PUSH1 0xFF DUP2 PUSH1 0xA0 SHR AND SWAP1 DUP2 ISZERO PUSH2 0x801E JUMPI JUMPDEST POP DUP1 ISZERO PUSH2 0x8011 JUMPI JUMPDEST PUSH2 0x800C JUMPI PUSH1 0x1 DUP1 PUSH1 0xA0 SHL SUB SWAP1 DUP2 PUSH1 0x2 DUP5 ADD SLOAD AND SWAP3 PUSH1 0x3 DUP2 ADD SLOAD PUSH1 0x40 MLOAD PUSH4 0x31A9108F PUSH1 0xE1 SHL DUP2 MSTORE DUP2 PUSH1 0x4 DUP3 ADD MSTORE DUP4 DUP2 PUSH1 0x24 DUP2 DUP10 GAS STATICCALL DUP8 SWAP2 DUP2 PUSH2 0x7FED JUMPI JUMPDEST POP PUSH2 0x7F0C JUMPI POP POP POP POP POP POP SWAP1 JUMP JUMPDEST DUP5 DUP1 PUSH1 0x1 DUP6 ADD SLOAD AND SWAP2 AND SUB PUSH2 0x7FE5 JUMPI PUSH2 0x7F43 DUP4 DUP6 PUSH1 0x1 DUP3 SWAP6 ADD SLOAD AND PUSH1 0x40 MLOAD DUP1 SWAP4 DUP2 SWAP3 PUSH4 0xE985E9C5 PUSH1 0xE0 SHL DUP4 MSTORE ADDRESS SWAP1 PUSH1 0x4 DUP5 ADD PUSH2 0x7E35 JUMP JUMPDEST SUB DUP2 DUP10 GAS STATICCALL DUP8 SWAP2 DUP2 PUSH2 0x7FC6 JUMPI JUMPDEST POP PUSH2 0x7FAD JUMPI JUMPDEST POP PUSH1 0x24 PUSH1 0x40 MLOAD DUP1 SWAP7 DUP2 SWAP4 PUSH4 0x20604BF PUSH1 0xE2 SHL DUP4 MSTORE PUSH1 0x4 DUP4 ADD MSTORE GAS STATICCALL SWAP3 DUP4 SWAP2 DUP6 SWAP5 PUSH2 0x7F8E JUMPI JUMPDEST POP POP PUSH2 0x7F86 JUMPI POP POP SWAP1 JUMP JUMPDEST AND ADDRESS EQ SWAP2 SWAP1 POP JUMP JUMPDEST PUSH2 0x7FA5 SWAP3 SWAP5 POP DUP1 RETURNDATASIZE LT PUSH2 0x1128 JUMPI PUSH2 0x111A DUP2 DUP4 PUSH2 0x7400 JUMP JUMPDEST SWAP2 CODESIZE DUP1 PUSH2 0x7F7B JUMP JUMPDEST SWAP1 SWAP2 POP PUSH2 0x7FBC JUMPI DUP2 SWAP1 CODESIZE PUSH2 0x7F56 JUMP JUMPDEST POP POP POP POP POP PUSH1 0x1 SWAP1 JUMP JUMPDEST PUSH2 0x7FDE SWAP2 SWAP3 POP DUP5 RETURNDATASIZE DUP7 GT PUSH2 0x710 JUMPI PUSH2 0x701 DUP2 DUP4 PUSH2 0x7400 JUMP JUMPDEST SWAP1 CODESIZE PUSH2 0x7F50 JUMP JUMPDEST POP POP POP POP POP SWAP1 JUMP JUMPDEST PUSH2 0x8005 SWAP2 SWAP3 POP DUP6 RETURNDATASIZE DUP8 GT PUSH2 0x1128 JUMPI PUSH2 0x111A DUP2 DUP4 PUSH2 0x7400 JUMP JUMPDEST SWAP1 CODESIZE PUSH2 0x7EFE JUMP JUMPDEST POP POP SWAP1 JUMP JUMPDEST POP PUSH1 0x8 DUP3 ADD SLOAD TIMESTAMP GT PUSH2 0x7EC2 JUMP JUMPDEST PUSH1 0xFF SWAP2 POP PUSH1 0xA8 SHR AND CODESIZE PUSH2 0x7EBA JUMP JUMPDEST ISZERO PUSH2 0x8033 JUMPI JUMP JUMPDEST PUSH1 0x40 MLOAD PUSH3 0x461BCD PUSH1 0xE5 SHL DUP2 MSTORE PUSH1 0x20 PUSH1 0x4 DUP3 ADD MSTORE PUSH1 0x18 PUSH1 0x24 DUP3 ADD MSTORE PUSH24 0x1499599D5B9908185B1C9958591E481C1C9BD8D95CDCD959 PUSH1 0x42 SHL PUSH1 0x44 DUP3 ADD MSTORE PUSH1 0x64 SWAP1 REVERT JUMPDEST ISZERO PUSH2 0x807A JUMPI JUMP JUMPDEST PUSH1 0x40 MLOAD PUSH3 0x461BCD PUSH1 0xE5 SHL DUP2 MSTORE PUSH1 0x20 PUSH1 0x4 DUP3 ADD MSTORE PUSH1 0x18 PUSH1 0x24 DUP3 ADD MSTORE PUSH24 0x125B9D985B1A59081C99599D5B99081C9958DA5C1A595B9D PUSH1 0x42 SHL PUSH1 0x44 DUP3 ADD MSTORE PUSH1 0x64 SWAP1 REVERT JUMPDEST ISZERO PUSH2 0x80C1 JUMPI JUMP JUMPDEST PUSH1 0x40 MLOAD PUSH3 0x461BCD PUSH1 0xE5 SHL DUP2 MSTORE PUSH1 0x20 PUSH1 0x4 DUP3 ADD MSTORE PUSH1 0x15 PUSH1 0x24 DUP3 ADD MSTORE PUSH21 0x125B9D985B1A59081C99599D5B9908185B5BDD5B9D PUSH1 0x5A SHL PUSH1 0x44 DUP3 ADD MSTORE PUSH1 0x64 SWAP1 REVERT JUMPDEST SWAP1 PUSH1 0x7 DUP2 LT ISZERO PUSH2 0x75BA JUMPI DUP1 PUSH2 0x814E JUMPI POP PUSH1 0x0 SWAP1 DUP2 MSTORE PUSH1 0x2 PUSH1 0x20 MSTORE PUSH1 0x40 SWAP1 KECCAK256 DUP1 SLOAD PUSH1 0x1 PUSH1 0x1 PUSH1 0xA0 SHL SUB SWAP3 DUP4 AND SWAP1 DUP4 AND DUP2 EQ SWAP3 SWAP1 SWAP2 DUP4 ISZERO PUSH2 0x813E JUMPI JUMPDEST POP POP POP SWAP1 JUMP JUMPDEST PUSH1 0x1 ADD SLOAD AND EQ SWAP1 POP CODESIZE DUP1 DUP1 PUSH2 0x8138 JUMP JUMPDEST PUSH1 0x1 DUP2 SUB PUSH2 0x8186 JUMPI POP PUSH1 0x0 SWAP1 DUP2 MSTORE PUSH1 0x5 PUSH1 0x20 MSTORE PUSH1 0x40 SWAP1 KECCAK256 DUP1 SLOAD PUSH1 0x1 PUSH1 0x1 PUSH1 0xA0 SHL SUB SWAP3 DUP4 AND SWAP1 DUP4 AND DUP2 EQ SWAP3 SWAP1 SWAP2 DUP4 ISZERO PUSH2 0x813E JUMPI POP POP POP SWAP1 JUMP JUMPDEST PUSH1 0x2 DUP2 SUB PUSH2 0x81C9 JUMPI POP PUSH1 0x0 DUP2 DUP2 MSTORE PUSH1 0x7 PUSH1 0x20 MSTORE PUSH1 0x40 SWAP1 KECCAK256 PUSH1 0x1 ADD SLOAD PUSH1 0x1 PUSH1 0x1 PUSH1 0xA0 SHL SUB DUP1 DUP5 AND SWAP2 AND EQ SWAP2 SWAP1 DUP3 ISZERO PUSH2 0x81BC JUMPI POP POP SWAP1 JUMP JUMPDEST PUSH2 0x81C6 SWAP3 POP PUSH2 0x8475 JUMP JUMPDEST SWAP1 JUMP JUMPDEST PUSH1 0x3 DUP2 SUB PUSH2 0x8201 JUMPI POP PUSH1 0x0 SWAP1 DUP2 MSTORE PUSH1 0x8 PUSH1 0x20 MSTORE PUSH1 0x40 SWAP1 KECCAK256 DUP1 SLOAD PUSH1 0x1 PUSH1 0x1 PUSH1 0xA0 SHL SUB SWAP3 DUP4 AND SWAP1 DUP4 AND DUP2 EQ SWAP3 SWAP1 SWAP2 DUP4 ISZERO PUSH2 0x813E JUMPI POP POP POP SWAP1 JUMP JUMPDEST PUSH1 0x4 DUP2 SUB PUSH2 0x822A JUMPI POP PUSH1 0x0 SWAP1 DUP2 MSTORE PUSH1 0x9 PUSH1 0x20 MSTORE PUSH1 0x40 SWAP1 KECCAK256 SLOAD PUSH1 0x1 PUSH1 0x1 PUSH1 0xA0 SHL SUB SWAP2 DUP3 AND SWAP2 AND EQ SWAP1 JUMP JUMPDEST PUSH1 0x5 EQ PUSH2 0x8238 JUMPI POP POP PUSH1 0x0 SWAP1 JUMP JUMPDEST PUSH1 0x0 SWAP1 DUP2 MSTORE PUSH1 0xF PUSH1 0x20 MSTORE PUSH1 0x40 SWAP1 KECCAK256 DUP1 SLOAD PUSH1 0x1 PUSH1 0x1 PUSH1 0xA0 SHL SUB SWAP3 DUP4 AND SWAP1 DUP4 AND DUP2 EQ SWAP3 SWAP1 SWAP2 DUP4 ISZERO PUSH2 0x813E JUMPI POP POP POP SWAP1 JUMP JUMPDEST SWAP1 PUSH1 0x7 DUP2 LT ISZERO PUSH2 0x75BA JUMPI PUSH1 0x1 EQ PUSH2 0x828D JUMPI POP PUSH1 0x1 SLOAD PUSH1 0x1 PUSH1 0x1 PUSH1 0xA0 SHL SUB SWAP2 DUP3 AND SWAP2 AND EQ SWAP1 JUMP JUMPDEST PUSH1 0x0 SWAP1 DUP2 MSTORE PUSH1 0x5 PUSH1 0x20 MSTORE PUSH1 0x40 SWAP1 KECCAK256 PUSH1 0x2 ADD SLOAD PUSH1 0x1 PUSH1 0x1 PUSH1 0xA0 SHL SUB SWAP2 DUP3 AND SWAP2 AND EQ SWAP1 JUMP JUMPDEST SWAP1 PUSH1 0x7 DUP2 LT ISZERO PUSH2 0x75BA JUMPI DUP1 PUSH2 0x82EC JUMPI POP PUSH1 0x0 MSTORE PUSH1 0x2 PUSH1 0x20 MSTORE PUSH1 0x40 PUSH1 0x0 KECCAK256 SWAP1 PUSH1 0x1 DUP1 PUSH1 0xA0 SHL SUB SWAP1 DUP2 DUP4 SLOAD AND SWAP2 PUSH1 0x3 PUSH1 0x2 DUP6 ADD SLOAD SWAP5 ADD SLOAD AND SWAP2 SWAP3 SWAP2 SWAP1 JUMP JUMPDEST PUSH1 0x1 DUP2 SUB PUSH2 0x8321 JUMPI POP PUSH1 0x0 SWAP1 DUP2 MSTORE PUSH1 0x5 PUSH1 0x20 MSTORE PUSH1 0x40 SWAP1 KECCAK256 DUP1 SLOAD PUSH1 0x3 DUP3 ADD SLOAD PUSH1 0x4 SWAP1 SWAP3 ADD SLOAD PUSH1 0x1 PUSH1 0x1 PUSH1 0xA0 SHL SUB SWAP2 DUP3 AND SWAP4 SWAP2 AND SWAP1 JUMP JUMPDEST PUSH1 0x3 DUP2 SUB PUSH2 0x8356 JUMPI POP PUSH1 0x0 SWAP1 DUP2 MSTORE PUSH1 0x8 PUSH1 0x20 MSTORE PUSH1 0x40 SWAP1 KECCAK256 DUP1 SLOAD PUSH1 0x2 DUP3 ADD SLOAD PUSH1 0x3 SWAP1 SWAP3 ADD SLOAD PUSH1 0x1 PUSH1 0x1 PUSH1 0xA0 SHL SUB SWAP2 DUP3 AND SWAP4 SWAP2 AND SWAP1 JUMP JUMPDEST PUSH1 0x5 EQ PUSH2 0x8369 JUMPI POP PUSH1 0x0 SWAP1 PUSH1 0x0 SWAP1 PUSH1 0x0 SWAP1 JUMP JUMPDEST PUSH1 0x0 MSTORE PUSH1 0xF PUSH1 0x20 MSTORE PUSH1 0x40 PUSH1 0x0 KECCAK256 SWAP1 PUSH1 0x4 DUP3 ADD SLOAD SWAP1 PUSH2 0x2710 PUSH2 0x838C PUSH1 0x24 SLOAD DUP5 PUSH2 0x792A JUMP JUMPDEST DIV PUSH1 0x5 PUSH2 0x83A4 PUSH1 0x1 DUP1 PUSH1 0xA0 SHL SUB SWAP3 DUP4 DUP8 SLOAD AND SWAP6 PUSH2 0x7AB5 JUMP JUMPDEST SWAP5 ADD SLOAD AND SWAP2 SWAP3 SWAP2 SWAP1 JUMP JUMPDEST SWAP1 PUSH1 0x7 DUP2 LT ISZERO PUSH2 0x75BA JUMPI DUP1 PUSH2 0x83DE JUMPI POP PUSH1 0x0 SWAP1 DUP2 MSTORE PUSH1 0x2 PUSH1 0x20 MSTORE PUSH1 0x40 SWAP1 KECCAK256 SLOAD PUSH1 0x1 PUSH1 0x1 PUSH1 0xA0 SHL SUB SWAP2 DUP3 AND SWAP2 AND EQ SWAP1 JUMP JUMPDEST PUSH1 0x3 DUP2 SUB PUSH2 0x8407 JUMPI POP PUSH1 0x0 SWAP1 DUP2 MSTORE PUSH1 0x8 PUSH1 0x20 MSTORE PUSH1 0x40 SWAP1 KECCAK256 SLOAD PUSH1 0x1 PUSH1 0x1 PUSH1 0xA0 SHL SUB SWAP2 DUP3 AND SWAP2 AND EQ SWAP1 JUMP JUMPDEST PUSH1 0x5 EQ PUSH2 0x8415 JUMPI POP POP PUSH1 0x0 SWAP1 JUMP JUMPDEST PUSH1 0x0 SWAP1 DUP2 MSTORE PUSH1 0xF PUSH1 0x20 MSTORE PUSH1 0x40 SWAP1 KECCAK256 SLOAD PUSH1 0x1 PUSH1 0x1 PUSH1 0xA0 SHL SUB SWAP2 DUP3 AND SWAP2 AND EQ SWAP1 JUMP JUMPDEST SWAP1 PUSH1 0x40 MLOAD SWAP1 PUSH1 0x20 DUP3 ADD SWAP3 DUP4 MSTORE PUSH1 0x7 DUP2 LT ISZERO PUSH2 0x75BA JUMPI PUSH1 0xF8 SHL PUSH1 0x40 DUP3 ADD MSTORE PUSH1 0x21 DUP2 MSTORE PUSH1 0x60 DUP2 ADD PUSH1 0x1 PUSH1 0x1 PUSH1 0x40 SHL SUB DUP2 GT DUP3 DUP3 LT OR PUSH2 0x73B2 JUMPI PUSH1 0x40 MSTORE MLOAD SWAP1 KECCAK256 SWAP1 JUMP JUMPDEST PUSH1 0x0 MSTORE PUSH1 0x7 PUSH1 0x20 MSTORE PUSH1 0x40 PUSH1 0x0 KECCAK256 SWAP1 PUSH1 0x0 SWAP2 DUP1 SLOAD SWAP3 JUMPDEST DUP4 DUP2 LT PUSH2 0x849A JUMPI POP POP POP POP PUSH1 0x0 SWAP1 JUMP JUMPDEST PUSH2 0x84A4 DUP2 DUP4 PUSH2 0x7C9E JUMP JUMPDEST SWAP1 SLOAD PUSH1 0x3 SWAP2 SWAP1 SWAP2 SHL SHR PUSH1 0x1 PUSH1 0x1 PUSH1 0xA0 SHL SUB SWAP1 DUP2 AND SWAP1 DUP5 AND EQ PUSH2 0x84CE JUMPI PUSH2 0x84C9 SWAP1 PUSH2 0x7A7C JUMP JUMPDEST PUSH2 0x848A JUMP JUMPDEST POP POP POP POP PUSH1 0x1 SWAP1 JUMP JUMPDEST SWAP1 PUSH1 0x7 DUP2 LT ISZERO PUSH2 0x75BA JUMPI PUSH1 0x0 MSTORE PUSH1 0x20 MSTORE PUSH1 0x40 PUSH1 0x0 KECCAK256 SWAP1 JUMP JUMPDEST PUSH1 0x19 SLOAD DUP1 ISZERO PUSH2 0x8519 JUMPI PUSH1 0x1C SLOAD SWAP1 PUSH2 0x2710 SWAP2 DUP3 DUP2 MUL SWAP3 DUP2 DUP5 DIV EQ SWAP1 ISZERO OR ISZERO PUSH2 0x793D JUMPI PUSH2 0x81C6 SWAP2 PUSH2 0x7953 JUMP JUMPDEST POP PUSH1 0x0 SWAP1 JUMP JUMPDEST PUSH1 0x0 MSTORE PUSH1 0x22 PUSH1 0x20 MSTORE PUSH1 0x40 PUSH1 0x0 KECCAK256 DUP1 SLOAD SWAP1 DUP2 ISZERO PUSH2 0x8557 JUMPI PUSH1 0x3 ADD SLOAD SWAP1 PUSH2 0x2710 SWAP2 DUP3 DUP2 MUL SWAP3 DUP2 DUP5 DIV EQ SWAP1 ISZERO OR ISZERO PUSH2 0x793D JUMPI PUSH2 0x81C6 SWAP2 PUSH2 0x7953 JUMP JUMPDEST POP POP PUSH1 0x0 SWAP1 JUMP JUMPDEST PUSH1 0x1 PUSH1 0x1 PUSH1 0xA0 SHL SUB AND PUSH1 0x0 SWAP1 DUP2 MSTORE PUSH1 0x23 PUSH1 0x20 MSTORE PUSH1 0x40 SWAP1 KECCAK256 DUP1 SLOAD SWAP1 DUP2 ISZERO PUSH2 0x8557 JUMPI PUSH1 0x3 ADD SLOAD SWAP1 PUSH2 0x2710 SWAP2 DUP3 DUP2 MUL SWAP3 DUP2 DUP5 DIV EQ SWAP1 ISZERO OR ISZERO PUSH2 0x793D JUMPI PUSH2 0x81C6 SWAP2 PUSH2 0x7953 JUMP JUMPDEST PUSH1 0x1C SLOAD DUP1 ISZERO PUSH2 0x8519 JUMPI PUSH2 0x81C6 SWAP1 PUSH1 0x1A SLOAD PUSH2 0x7953 JUMP JUMPDEST PUSH1 0x0 MSTORE PUSH1 0x22 PUSH1 0x20 MSTORE PUSH1 0x40 PUSH1 0x0 KECCAK256 PUSH1 0x3 DUP2 ADD SLOAD DUP1 ISZERO PUSH2 0x8557 JUMPI PUSH1 0x1 PUSH2 0x81C6 SWAP3 ADD SLOAD PUSH2 0x7953 JUMP JUMPDEST PUSH1 0x1 PUSH1 0x1 PUSH1 0xA0 SHL SUB AND PUSH1 0x0 SWAP1 DUP2 MSTORE PUSH1 0x23 PUSH1 0x20 MSTORE PUSH1 0x40 SWAP1 KECCAK256 PUSH1 0x3 DUP2 ADD SLOAD DUP1 ISZERO PUSH2 0x8557 JUMPI PUSH1 0x1 PUSH2 0x81C6 SWAP3 ADD SLOAD PUSH2 0x7953 JUMP JUMPDEST PUSH1 0x0 SWAP1 DUP2 MSTORE PUSH1 0x11 PUSH1 0x20 MSTORE PUSH1 0x40 DUP2 KECCAK256 SWAP1 PUSH2 0x862F PUSH1 0x2 DUP4 ADD SLOAD PUSH2 0x2710 PUSH2 0x1AE1 PUSH1 0x24 SLOAD DUP4 PUSH2 0x792A JUMP JUMPDEST PUSH1 0x3 DUP4 ADD SLOAD SWAP1 SWAP3 PUSH1 0x1 PUSH1 0x1 PUSH1 0xA0 SHL SUB SWAP2 DUP3 AND DUP1 PUSH2 0x8676 JUMPI POP DUP3 DUP1 SWAP5 DUP2 SWAP4 DUP3 SWAP4 SLOAD AND DUP3 DUP3 ISZERO PUSH2 0x866D JUMPI JUMPDEST CALL ISZERO PUSH2 0x8661 JUMPI POP JUMP JUMPDEST PUSH1 0x40 MLOAD SWAP1 RETURNDATASIZE SWAP1 DUP3 RETURNDATACOPY RETURNDATASIZE SWAP1 REVERT JUMPDEST POP PUSH2 0x8FC PUSH2 0x8658 JUMP JUMPDEST PUSH1 0x20 SWAP3 PUSH2 0x869D SWAP6 SWAP3 SLOAD AND DUP5 PUSH1 0x40 MLOAD DUP1 SWAP8 DUP2 SWAP6 DUP3 SWAP5 PUSH4 0xA9059CBB PUSH1 0xE0 SHL DUP5 MSTORE PUSH1 0x4 DUP5 ADD PUSH2 0x7BFE JUMP JUMPDEST SUB SWAP3 GAS CALL SWAP1 DUP2 ISZERO PUSH2 0x8661 JUMPI POP PUSH2 0x86B0 JUMPI POP JUMP JUMPDEST PUSH2 0x86C7 SWAP1 PUSH1 0x20 RETURNDATASIZE DUP2 GT PUSH2 0x710 JUMPI PUSH2 0x701 DUP2 DUP4 PUSH2 0x7400 JUMP JUMPDEST POP JUMP JUMPDEST PUSH1 0x0 MSTORE PUSH1 0x11 PUSH1 0x20 MSTORE PUSH1 0x40 PUSH1 0x0 KECCAK256 PUSH1 0x9 DUP2 ADD SLOAD PUSH1 0xFF DUP2 AND SWAP1 DUP2 ISZERO PUSH2 0x8701 JUMPI JUMPDEST POP PUSH2 0x8519 JUMPI PUSH1 0xC ADD SLOAD TIMESTAMP GT PUSH2 0x86FC JUMPI PUSH1 0x1 SWAP1 JUMP JUMPDEST PUSH1 0x0 SWAP1 JUMP JUMPDEST PUSH1 0xFF SWAP2 POP PUSH1 0x8 SHR AND CODESIZE PUSH2 0x86E8 JUMP INVALID SWAP14 GT 0xD9 0x4C PUSH9 0x5E1EE38AEED69B4A2E DUP5 PUSH24 0x8ED5E75C68D4547C4BFA22011DBD7A90D5311504A50223C7 PUSH6 0x91841F7084B4 EXTCODEHASH PUSH26 0xEF30D9E097EA2800D3684EAFC2EB7DEAC97BC1917FCEDC984E3D MOD PUSH18 0xD4E83B359890323D5D1C2DE32B28D17C356C 0xED PUSH3 0x44ED82 EXTCODECOPY 0xA6 0xBE 0xF GT 0xBC DUP10 0xC EXTCODEHASH 0xAF 0xCF EXTCODECOPY 0x29 0xCB 0x23 TIMESTAMP 0xC EQ 0x24 CALLDATASIZE TIMESTAMP 0xE9 ADDRESS 0xB5 0xE0 PUSH31 0x6D0A4BFE1B5B220AD616D44B9D56E9C8140DD76AB5CB0771A53CEE706E46AE 0x2E SWAP5 DELEGATECALL SWAP4 REVERT COINBASE DUP13 0xBD 0xE5 0x22 0xA9 0x2B SWAP7 0x1E 0x2D DUP13 0x24 0xB7 JUMP LOG0 0x29 0xE0 0xE3 0xE4 0xA8 0xE3 ISZERO SSTORE 0x27 SWAP6 LOG2 PUSH31 0x9866678BE0079C531659141344CD1FD0A4F28419497F9722A3DAAFE3B4186F PUSH12 0x6457E0554E943290FA0AFD2B DUP5 PUSH18 0xDE94AF606D97BEF9C8DB987DD5283385E57A 0x5E PC MSIZE 0xF7 MLOAD 0xB3 0xC2 0xD8 SWAP5 SWAP6 DIV 0xD7 BYTE PUSH4 0xFD259A5A DUP11 SHL 0xC SDIV MULMOD SWAP12 CALLDATALOAD 0x1E CODESIZE CALLVALUE STATICCALL PUSH4 0xEA01DC50 0x4A 0x5C MSTORE8 0x2D SWAP12 SUB DUP15 PUSH32 0x169BA617B799E1A14BCFBCC4DB0FFAAC7E7BC62C2BE4BC16E1F97BEC92DE0242 LOG4 PUSH17 0xB3A392F190EE929EB1F02152A7A4587C04 0xFB PUSH27 0x6F366328A264697066735822122029ED603B63055DAD5709FA31F8 0xD3 PUSH3 0x30FADF DUP1 0x4D 0x5E POP PREVRANDAO 0x4A PUSH12 0x8E41C39FBC9D1C64736F6C63 NUMBER STOP ADDMOD EQ STOP CALLER "},"methodIdentifiers":{"analytics()":"80d5ac8a","approveRefund(uint256)":"348a71a6","autoRefundEnabled(uint256)":"d0ebfee6","batchPayment(address[],uint256[],address)":"58a830e0","calculateSplitAmount(uint256,uint256)":"d59fd900","canExecuteCustomContractPayment(uint256)":"badfdca0","canExecuteNFTPayment(uint256)":"4f38a854","cancelConditionalPayment(uint256)":"bdd29ee8","cancelCustomContractPayment(uint256)":"7ba982a0","cancelMultiSigPayment(uint256)":"180baa66","cancelNFTPayment(uint256)":"14f46451","cancelSubscription(uint256)":"21235083","checkCondition(uint256)":"e9ce65fe","conditionalPayments(uint256)":"dccce94e","createConditionalPayment(address,uint256,address,uint8,uint256,address,string)":"85e16dc8","createCustomContractPayment(address,uint256,address,address,bytes,bytes,bool,uint256,uint256,string)":"060158bf","createEscrow(address,address,uint256,address,uint256,string)":"9fde5016","createMultiSigPayment(address[],address,uint256,address,uint256,uint256,string)":"16f4d4d9","createNFTPayment(address,address,uint256,uint256,address,string,uint256)":"6355c83c","createSplitPayment((address,uint256)[],uint256,address,string)":"3bba87d3","createSubscription(address,uint256,address,uint256)":"34e90455","customContractPayments(uint256)":"d7b4be0d","dailyAnalytics(uint256)":"648d3f4f","disputes(uint256)":"564a565d","enableAutoRefund(uint256,uint8,uint256)":"85ec97d6","escrowFee()":"6a5b428b","escrowPayments(uint256)":"921db076","executeAutoRefund(uint256,uint8)":"00952898","executeConditionalPayment(uint256)":"f7a37324","executeCustomContractPayment(uint256)":"59a3159a","executeNFTPayment(uint256)":"e614a1a4","executeSplitPayment(uint256)":"326bcfd4","executeSubscriptionPayment(uint256)":"4102b1fb","feeRecipient()":"46904840","generateLinkHash(address,uint256,address,string,uint256)":"c3721d1d","getAveragePaymentAmount()":"cf979ed0","getConditionalPayment(uint256)":"fa56d0aa","getCustomContractPayment(uint256)":"9fbdef02","getDailyAnalytics(uint256)":"814781be","getDailyAveragePaymentAmount(uint256)":"256fcf7f","getDailyPaymentTypeVolume(uint256,uint8)":"56a0457a","getDailySuccessRate(uint256)":"0aadf797","getDailyTokenVolume(uint256,address)":"09242309","getDisputeStatus(uint256)":"20f7aa3f","getEscrow(uint256)":"7d19e596","getGlobalAnalytics()":"f3c1c3be","getMultiSigPayment(uint256)":"24597c5c","getNFTPayment(uint256)":"b7cc8b6d","getPayment(bytes32)":"e66eefc8","getPaymentTypeVolume(uint8)":"432741b1","getRefundRequest(uint256)":"0abfbb75","getSplitPayment(uint256)":"2225a2e7","getSplitRecipients(uint256)":"2d5a4b21","getSuccessRate()":"05785ad4","getTokenVolume(address)":"f57892d5","getUserAnalytics(address)":"8598bcc4","getUserAveragePaymentAmount(address)":"9f2789cc","getUserPaymentTypeVolume(address,uint8)":"cbfb5a6a","getUserSuccessRate(address)":"64bbe51a","getUserTokenVolume(address,address)":"778163de","hasSignedMultiSig(uint256,address)":"879909d0","isContractWhitelisted(address)":"c057058a","isLinkProcessed(bytes32)":"781cebfa","maxGasLimit()":"5e45da23","multiSigPayments(uint256)":"94e00a33","nextConditionalId()":"6041cae9","nextCustomContractId()":"0db6cd7a","nextEscrowId()":"89cb29dd","nextMultiSigId()":"839c8a3f","nextNFTId()":"c909adc0","nextRefundId()":"139136a8","nextSplitId()":"df04abab","nextSubscriptionId()":"da58935f","nftPayments(uint256)":"cd39d2d6","owner()":"8da5cb5b","payments(bytes32)":"0716326d","platformFee()":"26232a2e","processPaymentLink(address,uint256,address,string,string,bytes32)":"31c531c6","processRefund(uint256)":"dac87ca4","processedLinks(bytes32)":"ac44eef1","raiseDispute(uint256,string)":"5aef573c","refundDeadlines(uint256)":"f67dc95f","refundEscrow(uint256)":"356f9dfd","refundRequests(uint256)":"7d974ade","releaseEscrow(uint256)":"ed653164","renounceOwnership()":"715018a6","requestRefund(uint256,uint8,string)":"beff5702","resolveDispute(uint256,bool,string)":"2840662d","setMaxGasLimit(uint256)":"1776834a","signMultiSigPayment(uint256)":"9d2c10be","splitPayments(uint256)":"b882bacb","subscriptions(uint256)":"2d5bbf60","transferOwnership(address)":"f2fde38b","updateEscrowFee(uint256)":"3d2098d9","updateFeeRecipient(address)":"f160d369","updatePlatformFee(uint256)":"aa0b5988","userAnalytics(address)":"c800adaf","whitelistContract(address,bool)":"a672990c","whitelistedContracts(address)":"391feebb"}}}}}