{
  "_format": "hh-sol-artifact-1",
  "contractName": "MonadPay",
  "sourceName": "contracts/MonadPay.sol",
  "abi": [
    {
      "inputs": [
        {
          "internalType": "address",
          "name": "_feeRecipient",
          "type": "address"
        }
      ],
      "stateMutability": "nonpayable",
      "type": "constructor"
    },
    {
      "inputs": [
        {
          "internalType": "address",
          "name": "owner",
          "type": "address"
        }
      ],
      "name": "OwnableInvalidOwner",
      "type": "error"
    },
    {
      "inputs": [
        {
          "internalType": "address",
          "name": "account",
          "type": "address"
        }
      ],
      "name": "OwnableUnauthorizedAccount",
      "type": "error"
    },
    {
      "inputs": [],
      "name": "ReentrancyGuardReentrantCall",
      "type": "error"
    },
    {
      "anonymous": false,
      "inputs": [
        {
          "indexed": true,
          "internalType": "uint256",
          "name": "paymentId",
          "type": "uint256"
        },
        {
          "indexed": false,
          "internalType": "enum MonadPay.PaymentType",
          "name": "paymentType",
          "type": "uint8"
        },
        {
          "indexed": true,
          "internalType": "address",
          "name": "recipient",
          "type": "address"
        },
        {
          "indexed": false,
          "internalType": "uint256",
          "name": "amount",
          "type": "uint256"
        }
      ],
      "name": "AutoRefundExecuted",
      "type": "event"
    },
    {
      "anonymous": false,
      "inputs": [
        {
          "indexed": true,
          "internalType": "address",
          "name": "from",
          "type": "address"
        },
        {
          "indexed": false,
          "internalType": "uint256",
          "name": "totalAmount",
          "type": "uint256"
        },
        {
          "indexed": false,
          "internalType": "uint256",
          "name": "recipientCount",
          "type": "uint256"
        }
      ],
      "name": "BatchPaymentProcessed",
      "type": "event"
    },
    {
      "anonymous": false,
      "inputs": [
        {
          "indexed": true,
          "internalType": "uint256",
          "name": "conditionalId",
          "type": "uint256"
        },
        {
          "indexed": true,
          "internalType": "address",
          "name": "canceller",
          "type": "address"
        }
      ],
      "name": "ConditionalPaymentCancelled",
      "type": "event"
    },
    {
      "anonymous": false,
      "inputs": [
        {
          "indexed": true,
          "internalType": "uint256",
          "name": "conditionalId",
          "type": "uint256"
        },
        {
          "indexed": true,
          "internalType": "address",
          "name": "payer",
          "type": "address"
        },
        {
          "indexed": true,
          "internalType": "address",
          "name": "recipient",
          "type": "address"
        },
        {
          "indexed": false,
          "internalType": "uint256",
          "name": "amount",
          "type": "uint256"
        },
        {
          "indexed": false,
          "internalType": "enum MonadPay.ConditionType",
          "name": "conditionType",
          "type": "uint8"
        },
        {
          "indexed": false,
          "internalType": "uint256",
          "name": "conditionValue",
          "type": "uint256"
        }
      ],
      "name": "ConditionalPaymentCreated",
      "type": "event"
    },
    {
      "anonymous": false,
      "inputs": [
        {
          "indexed": true,
          "internalType": "uint256",
          "name": "conditionalId",
          "type": "uint256"
        },
        {
          "indexed": true,
          "internalType": "address",
          "name": "recipient",
          "type": "address"
        },
        {
          "indexed": false,
          "internalType": "uint256",
          "name": "amount",
          "type": "uint256"
        }
      ],
      "name": "ConditionalPaymentExecuted",
      "type": "event"
    },
    {
      "anonymous": false,
      "inputs": [
        {
          "indexed": true,
          "internalType": "address",
          "name": "contractAddress",
          "type": "address"
        },
        {
          "indexed": false,
          "internalType": "bool",
          "name": "whitelisted",
          "type": "bool"
        }
      ],
      "name": "ContractWhitelisted",
      "type": "event"
    },
    {
      "anonymous": false,
      "inputs": [
        {
          "indexed": true,
          "internalType": "uint256",
          "name": "customContractId",
          "type": "uint256"
        },
        {
          "indexed": true,
          "internalType": "address",
          "name": "canceller",
          "type": "address"
        }
      ],
      "name": "CustomContractPaymentCancelled",
      "type": "event"
    },
    {
      "anonymous": false,
      "inputs": [
        {
          "indexed": true,
          "internalType": "uint256",
          "name": "customContractId",
          "type": "uint256"
        },
        {
          "indexed": true,
          "internalType": "address",
          "name": "payer",
          "type": "address"
        },
        {
          "indexed": true,
          "internalType": "address",
          "name": "recipient",
          "type": "address"
        },
        {
          "indexed": false,
          "internalType": "address",
          "name": "targetContract",
          "type": "address"
        },
        {
          "indexed": false,
          "internalType": "uint256",
          "name": "amount",
          "type": "uint256"
        },
        {
          "indexed": false,
          "internalType": "address",
          "name": "token",
          "type": "address"
        }
      ],
      "name": "CustomContractPaymentCreated",
      "type": "event"
    },
    {
      "anonymous": false,
      "inputs": [
        {
          "indexed": true,
          "internalType": "uint256",
          "name": "customContractId",
          "type": "uint256"
        },
        {
          "indexed": true,
          "internalType": "address",
          "name": "payer",
          "type": "address"
        },
        {
          "indexed": true,
          "internalType": "address",
          "name": "recipient",
          "type": "address"
        },
        {
          "indexed": false,
          "internalType": "address",
          "name": "targetContract",
          "type": "address"
        },
        {
          "indexed": false,
          "internalType": "uint256",
          "name": "amount",
          "type": "uint256"
        },
        {
          "indexed": false,
          "internalType": "bool",
          "name": "success",
          "type": "bool"
        }
      ],
      "name": "CustomContractPaymentExecuted",
      "type": "event"
    },
    {
      "anonymous": false,
      "inputs": [
        {
          "indexed": true,
          "internalType": "uint256",
          "name": "date",
          "type": "uint256"
        },
        {
          "indexed": false,
          "internalType": "uint256",
          "name": "dailyPayments",
          "type": "uint256"
        },
        {
          "indexed": false,
          "internalType": "uint256",
          "name": "dailyVolume",
          "type": "uint256"
        }
      ],
      "name": "DailyAnalyticsUpdated",
      "type": "event"
    },
    {
      "anonymous": false,
      "inputs": [
        {
          "indexed": true,
          "internalType": "uint256",
          "name": "escrowId",
          "type": "uint256"
        },
        {
          "indexed": true,
          "internalType": "address",
          "name": "raiser",
          "type": "address"
        }
      ],
      "name": "DisputeRaised",
      "type": "event"
    },
    {
      "anonymous": false,
      "inputs": [
        {
          "indexed": true,
          "internalType": "uint256",
          "name": "escrowId",
          "type": "uint256"
        },
        {
          "indexed": false,
          "internalType": "enum MonadPay.DisputeStatus",
          "name": "resolution",
          "type": "uint8"
        },
        {
          "indexed": true,
          "internalType": "address",
          "name": "resolver",
          "type": "address"
        }
      ],
      "name": "DisputeResolved",
      "type": "event"
    },
    {
      "anonymous": false,
      "inputs": [
        {
          "indexed": true,
          "internalType": "uint256",
          "name": "escrowId",
          "type": "uint256"
        },
        {
          "indexed": true,
          "internalType": "address",
          "name": "payer",
          "type": "address"
        },
        {
          "indexed": true,
          "internalType": "address",
          "name": "recipient",
          "type": "address"
        },
        {
          "indexed": false,
          "internalType": "address",
          "name": "arbiter",
          "type": "address"
        },
        {
          "indexed": false,
          "internalType": "uint256",
          "name": "amount",
          "type": "uint256"
        },
        {
          "indexed": false,
          "internalType": "address",
          "name": "token",
          "type": "address"
        },
        {
          "indexed": false,
          "internalType": "uint256",
          "name": "deadline",
          "type": "uint256"
        }
      ],
      "name": "EscrowCreated",
      "type": "event"
    },
    {
      "anonymous": false,
      "inputs": [
        {
          "indexed": true,
          "internalType": "uint256",
          "name": "escrowId",
          "type": "uint256"
        },
        {
          "indexed": true,
          "internalType": "address",
          "name": "payer",
          "type": "address"
        },
        {
          "indexed": false,
          "internalType": "uint256",
          "name": "amount",
          "type": "uint256"
        }
      ],
      "name": "EscrowRefunded",
      "type": "event"
    },
    {
      "anonymous": false,
      "inputs": [
        {
          "indexed": true,
          "internalType": "uint256",
          "name": "escrowId",
          "type": "uint256"
        },
        {
          "indexed": true,
          "internalType": "address",
          "name": "recipient",
          "type": "address"
        },
        {
          "indexed": false,
          "internalType": "uint256",
          "name": "amount",
          "type": "uint256"
        }
      ],
      "name": "EscrowReleased",
      "type": "event"
    },
    {
      "anonymous": false,
      "inputs": [
        {
          "indexed": true,
          "internalType": "uint256",
          "name": "multiSigId",
          "type": "uint256"
        },
        {
          "indexed": true,
          "internalType": "address",
          "name": "canceller",
          "type": "address"
        }
      ],
      "name": "MultiSigPaymentCancelled",
      "type": "event"
    },
    {
      "anonymous": false,
      "inputs": [
        {
          "indexed": true,
          "internalType": "uint256",
          "name": "multiSigId",
          "type": "uint256"
        },
        {
          "indexed": true,
          "internalType": "address",
          "name": "creator",
          "type": "address"
        },
        {
          "indexed": true,
          "internalType": "address",
          "name": "recipient",
          "type": "address"
        },
        {
          "indexed": false,
          "internalType": "uint256",
          "name": "amount",
          "type": "uint256"
        },
        {
          "indexed": false,
          "internalType": "uint256",
          "name": "requiredSignatures",
          "type": "uint256"
        }
      ],
      "name": "MultiSigPaymentCreated",
      "type": "event"
    },
    {
      "anonymous": false,
      "inputs": [
        {
          "indexed": true,
          "internalType": "uint256",
          "name": "multiSigId",
          "type": "uint256"
        },
        {
          "indexed": true,
          "internalType": "address",
          "name": "recipient",
          "type": "address"
        },
        {
          "indexed": false,
          "internalType": "uint256",
          "name": "amount",
          "type": "uint256"
        }
      ],
      "name": "MultiSigPaymentExecuted",
      "type": "event"
    },
    {
      "anonymous": false,
      "inputs": [
        {
          "indexed": true,
          "internalType": "uint256",
          "name": "multiSigId",
          "type": "uint256"
        },
        {
          "indexed": true,
          "internalType": "address",
          "name": "signer",
          "type": "address"
        },
        {
          "indexed": false,
          "internalType": "uint256",
          "name": "currentSignatures",
          "type": "uint256"
        },
        {
          "indexed": false,
          "internalType": "uint256",
          "name": "requiredSignatures",
          "type": "uint256"
        }
      ],
      "name": "MultiSigPaymentSigned",
      "type": "event"
    },
    {
      "anonymous": false,
      "inputs": [
        {
          "indexed": true,
          "internalType": "uint256",
          "name": "nftPaymentId",
          "type": "uint256"
        },
        {
          "indexed": true,
          "internalType": "address",
          "name": "canceller",
          "type": "address"
        }
      ],
      "name": "NFTPaymentCancelled",
      "type": "event"
    },
    {
      "anonymous": false,
      "inputs": [
        {
          "indexed": true,
          "internalType": "uint256",
          "name": "nftPaymentId",
          "type": "uint256"
        },
        {
          "indexed": true,
          "internalType": "address",
          "name": "payer",
          "type": "address"
        },
        {
          "indexed": true,
          "internalType": "address",
          "name": "recipient",
          "type": "address"
        },
        {
          "indexed": false,
          "internalType": "address",
          "name": "nftContract",
          "type": "address"
        },
        {
          "indexed": false,
          "internalType": "uint256",
          "name": "tokenId",
          "type": "uint256"
        },
        {
          "indexed": false,
          "internalType": "uint256",
          "name": "price",
          "type": "uint256"
        }
      ],
      "name": "NFTPaymentCreated",
      "type": "event"
    },
    {
      "anonymous": false,
      "inputs": [
        {
          "indexed": true,
          "internalType": "uint256",
          "name": "nftPaymentId",
          "type": "uint256"
        },
        {
          "indexed": true,
          "internalType": "address",
          "name": "payer",
          "type": "address"
        },
        {
          "indexed": true,
          "internalType": "address",
          "name": "recipient",
          "type": "address"
        },
        {
          "indexed": false,
          "internalType": "address",
          "name": "nftContract",
          "type": "address"
        },
        {
          "indexed": false,
          "internalType": "uint256",
          "name": "tokenId",
          "type": "uint256"
        }
      ],
      "name": "NFTPaymentExecuted",
      "type": "event"
    },
    {
      "anonymous": false,
      "inputs": [
        {
          "indexed": true,
          "internalType": "address",
          "name": "previousOwner",
          "type": "address"
        },
        {
          "indexed": true,
          "internalType": "address",
          "name": "newOwner",
          "type": "address"
        }
      ],
      "name": "OwnershipTransferred",
      "type": "event"
    },
    {
      "anonymous": false,
      "inputs": [
        {
          "indexed": false,
          "internalType": "uint256",
          "name": "totalPayments",
          "type": "uint256"
        },
        {
          "indexed": false,
          "internalType": "uint256",
          "name": "totalVolume",
          "type": "uint256"
        },
        {
          "indexed": false,
          "internalType": "uint256",
          "name": "totalFees",
          "type": "uint256"
        }
      ],
      "name": "PaymentAnalyticsUpdated",
      "type": "event"
    },
    {
      "anonymous": false,
      "inputs": [
        {
          "indexed": true,
          "internalType": "bytes32",
          "name": "linkHash",
          "type": "bytes32"
        },
        {
          "indexed": true,
          "internalType": "address",
          "name": "from",
          "type": "address"
        },
        {
          "indexed": true,
          "internalType": "address",
          "name": "to",
          "type": "address"
        },
        {
          "indexed": false,
          "internalType": "uint256",
          "name": "amount",
          "type": "uint256"
        },
        {
          "indexed": false,
          "internalType": "address",
          "name": "token",
          "type": "address"
        },
        {
          "indexed": false,
          "internalType": "string",
          "name": "label",
          "type": "string"
        }
      ],
      "name": "PaymentProcessed",
      "type": "event"
    },
    {
      "anonymous": false,
      "inputs": [
        {
          "indexed": true,
          "internalType": "uint256",
          "name": "refundId",
          "type": "uint256"
        },
        {
          "indexed": true,
          "internalType": "address",
          "name": "approver",
          "type": "address"
        }
      ],
      "name": "RefundApproved",
      "type": "event"
    },
    {
      "anonymous": false,
      "inputs": [
        {
          "indexed": true,
          "internalType": "uint256",
          "name": "refundId",
          "type": "uint256"
        },
        {
          "indexed": true,
          "internalType": "uint256",
          "name": "paymentId",
          "type": "uint256"
        },
        {
          "indexed": true,
          "internalType": "address",
          "name": "recipient",
          "type": "address"
        },
        {
          "indexed": false,
          "internalType": "uint256",
          "name": "amount",
          "type": "uint256"
        }
      ],
      "name": "RefundProcessed",
      "type": "event"
    },
    {
      "anonymous": false,
      "inputs": [
        {
          "indexed": true,
          "internalType": "uint256",
          "name": "refundId",
          "type": "uint256"
        },
        {
          "indexed": true,
          "internalType": "uint256",
          "name": "paymentId",
          "type": "uint256"
        },
        {
          "indexed": false,
          "internalType": "enum MonadPay.PaymentType",
          "name": "paymentType",
          "type": "uint8"
        },
        {
          "indexed": true,
          "internalType": "address",
          "name": "requester",
          "type": "address"
        },
        {
          "indexed": false,
          "internalType": "string",
          "name": "reason",
          "type": "string"
        }
      ],
      "name": "RefundRequested",
      "type": "event"
    },
    {
      "anonymous": false,
      "inputs": [
        {
          "indexed": true,
          "internalType": "uint256",
          "name": "splitId",
          "type": "uint256"
        },
        {
          "indexed": true,
          "internalType": "address",
          "name": "payer",
          "type": "address"
        },
        {
          "indexed": false,
          "internalType": "uint256",
          "name": "totalAmount",
          "type": "uint256"
        },
        {
          "indexed": false,
          "internalType": "uint256",
          "name": "recipientCount",
          "type": "uint256"
        }
      ],
      "name": "SplitPaymentCreated",
      "type": "event"
    },
    {
      "anonymous": false,
      "inputs": [
        {
          "indexed": true,
          "internalType": "uint256",
          "name": "splitId",
          "type": "uint256"
        },
        {
          "indexed": true,
          "internalType": "address",
          "name": "payer",
          "type": "address"
        },
        {
          "indexed": false,
          "internalType": "uint256",
          "name": "totalAmount",
          "type": "uint256"
        },
        {
          "indexed": false,
          "internalType": "uint256",
          "name": "recipientCount",
          "type": "uint256"
        }
      ],
      "name": "SplitPaymentExecuted",
      "type": "event"
    },
    {
      "anonymous": false,
      "inputs": [
        {
          "indexed": true,
          "internalType": "uint256",
          "name": "subscriptionId",
          "type": "uint256"
        },
        {
          "indexed": true,
          "internalType": "address",
          "name": "subscriber",
          "type": "address"
        },
        {
          "indexed": true,
          "internalType": "address",
          "name": "recipient",
          "type": "address"
        },
        {
          "indexed": false,
          "internalType": "uint256",
          "name": "amount",
          "type": "uint256"
        },
        {
          "indexed": false,
          "internalType": "uint256",
          "name": "interval",
          "type": "uint256"
        }
      ],
      "name": "SubscriptionCreated",
      "type": "event"
    },
    {
      "anonymous": false,
      "inputs": [
        {
          "indexed": true,
          "internalType": "uint256",
          "name": "subscriptionId",
          "type": "uint256"
        },
        {
          "indexed": false,
          "internalType": "uint256",
          "name": "amount",
          "type": "uint256"
        },
        {
          "indexed": false,
          "internalType": "uint256",
          "name": "timestamp",
          "type": "uint256"
        }
      ],
      "name": "SubscriptionPayment",
      "type": "event"
    },
    {
      "inputs": [],
      "name": "analytics",
      "outputs": [
        {
          "internalType": "uint256",
          "name": "totalPayments",
          "type": "uint256"
        },
        {
          "internalType": "uint256",
          "name": "totalVolume",
          "type": "uint256"
        },
        {
          "internalType": "uint256",
          "name": "totalFees",
          "type": "uint256"
        },
        {
          "internalType": "uint256",
          "name": "successfulPayments",
          "type": "uint256"
        },
        {
          "internalType": "uint256",
          "name": "failedPayments",
          "type": "uint256"
        },
        {
          "internalType": "uint256",
          "name": "refundedPayments",
          "type": "uint256"
        }
      ],
      "stateMutability": "view",
      "type": "function"
    },
    {
      "inputs": [
        {
          "internalType": "uint256",
          "name": "refundId",
          "type": "uint256"
        }
      ],
      "name": "approveRefund",
      "outputs": [],
      "stateMutability": "nonpayable",
      "type": "function"
    },
    {
      "inputs": [
        {
          "internalType": "uint256",
          "name": "",
          "type": "uint256"
        }
      ],
      "name": "autoRefundEnabled",
      "outputs": [
        {
          "internalType": "bool",
          "name": "",
          "type": "bool"
        }
      ],
      "stateMutability": "view",
      "type": "function"
    },
    {
      "inputs": [
        {
          "internalType": "address[]",
          "name": "recipients",
          "type": "address[]"
        },
        {
          "internalType": "uint256[]",
          "name": "amounts",
          "type": "uint256[]"
        },
        {
          "internalType": "address",
          "name": "token",
          "type": "address"
        }
      ],
      "name": "batchPayment",
      "outputs": [],
      "stateMutability": "payable",
      "type": "function"
    },
    {
      "inputs": [
        {
          "internalType": "uint256",
          "name": "splitId",
          "type": "uint256"
        },
        {
          "internalType": "uint256",
          "name": "recipientIndex",
          "type": "uint256"
        }
      ],
      "name": "calculateSplitAmount",
      "outputs": [
        {
          "internalType": "uint256",
          "name": "",
          "type": "uint256"
        }
      ],
      "stateMutability": "view",
      "type": "function"
    },
    {
      "inputs": [
        {
          "internalType": "uint256",
          "name": "customContractId",
          "type": "uint256"
        }
      ],
      "name": "canExecuteCustomContractPayment",
      "outputs": [
        {
          "internalType": "bool",
          "name": "",
          "type": "bool"
        }
      ],
      "stateMutability": "view",
      "type": "function"
    },
    {
      "inputs": [
        {
          "internalType": "uint256",
          "name": "nftPaymentId",
          "type": "uint256"
        }
      ],
      "name": "canExecuteNFTPayment",
      "outputs": [
        {
          "internalType": "bool",
          "name": "",
          "type": "bool"
        }
      ],
      "stateMutability": "view",
      "type": "function"
    },
    {
      "inputs": [
        {
          "internalType": "uint256",
          "name": "conditionalId",
          "type": "uint256"
        }
      ],
      "name": "cancelConditionalPayment",
      "outputs": [],
      "stateMutability": "nonpayable",
      "type": "function"
    },
    {
      "inputs": [
        {
          "internalType": "uint256",
          "name": "customContractId",
          "type": "uint256"
        }
      ],
      "name": "cancelCustomContractPayment",
      "outputs": [],
      "stateMutability": "nonpayable",
      "type": "function"
    },
    {
      "inputs": [
        {
          "internalType": "uint256",
          "name": "multiSigId",
          "type": "uint256"
        }
      ],
      "name": "cancelMultiSigPayment",
      "outputs": [],
      "stateMutability": "nonpayable",
      "type": "function"
    },
    {
      "inputs": [
        {
          "internalType": "uint256",
          "name": "nftPaymentId",
          "type": "uint256"
        }
      ],
      "name": "cancelNFTPayment",
      "outputs": [],
      "stateMutability": "nonpayable",
      "type": "function"
    },
    {
      "inputs": [
        {
          "internalType": "uint256",
          "name": "subscriptionId",
          "type": "uint256"
        }
      ],
      "name": "cancelSubscription",
      "outputs": [],
      "stateMutability": "nonpayable",
      "type": "function"
    },
    {
      "inputs": [
        {
          "internalType": "uint256",
          "name": "conditionalId",
          "type": "uint256"
        }
      ],
      "name": "checkCondition",
      "outputs": [
        {
          "internalType": "bool",
          "name": "",
          "type": "bool"
        }
      ],
      "stateMutability": "view",
      "type": "function"
    },
    {
      "inputs": [
        {
          "internalType": "uint256",
          "name": "",
          "type": "uint256"
        }
      ],
      "name": "conditionalPayments",
      "outputs": [
        {
          "internalType": "address",
          "name": "payer",
          "type": "address"
        },
        {
          "internalType": "address",
          "name": "recipient",
          "type": "address"
        },
        {
          "internalType": "uint256",
          "name": "amount",
          "type": "uint256"
        },
        {
          "internalType": "address",
          "name": "token",
          "type": "address"
        },
        {
          "internalType": "enum MonadPay.ConditionType",
          "name": "conditionType",
          "type": "uint8"
        },
        {
          "internalType": "uint256",
          "name": "conditionValue",
          "type": "uint256"
        },
        {
          "internalType": "address",
          "name": "priceOracle",
          "type": "address"
        },
        {
          "internalType": "bool",
          "name": "executed",
          "type": "bool"
        },
        {
          "internalType": "bool",
          "name": "cancelled",
          "type": "bool"
        },
        {
          "internalType": "string",
          "name": "description",
          "type": "string"
        },
        {
          "internalType": "uint256",
          "name": "createdAt",
          "type": "uint256"
        }
      ],
      "stateMutability": "view",
      "type": "function"
    },
    {
      "inputs": [
        {
          "internalType": "address",
          "name": "recipient",
          "type": "address"
        },
        {
          "internalType": "uint256",
          "name": "amount",
          "type": "uint256"
        },
        {
          "internalType": "address",
          "name": "token",
          "type": "address"
        },
        {
          "internalType": "enum MonadPay.ConditionType",
          "name": "conditionType",
          "type": "uint8"
        },
        {
          "internalType": "uint256",
          "name": "conditionValue",
          "type": "uint256"
        },
        {
          "internalType": "address",
          "name": "priceOracle",
          "type": "address"
        },
        {
          "internalType": "string",
          "name": "description",
          "type": "string"
        }
      ],
      "name": "createConditionalPayment",
      "outputs": [
        {
          "internalType": "uint256",
          "name": "",
          "type": "uint256"
        }
      ],
      "stateMutability": "payable",
      "type": "function"
    },
    {
      "inputs": [
        {
          "internalType": "address",
          "name": "recipient",
          "type": "address"
        },
        {
          "internalType": "uint256",
          "name": "amount",
          "type": "uint256"
        },
        {
          "internalType": "address",
          "name": "token",
          "type": "address"
        },
        {
          "internalType": "address",
          "name": "targetContract",
          "type": "address"
        },
        {
          "internalType": "bytes",
          "name": "callData",
          "type": "bytes"
        },
        {
          "internalType": "bytes",
          "name": "expectedReturn",
          "type": "bytes"
        },
        {
          "internalType": "bool",
          "name": "requiresReturn",
          "type": "bool"
        },
        {
          "internalType": "uint256",
          "name": "gasLimit",
          "type": "uint256"
        },
        {
          "internalType": "uint256",
          "name": "deadline",
          "type": "uint256"
        },
        {
          "internalType": "string",
          "name": "description",
          "type": "string"
        }
      ],
      "name": "createCustomContractPayment",
      "outputs": [
        {
          "internalType": "uint256",
          "name": "",
          "type": "uint256"
        }
      ],
      "stateMutability": "payable",
      "type": "function"
    },
    {
      "inputs": [
        {
          "internalType": "address",
          "name": "recipient",
          "type": "address"
        },
        {
          "internalType": "address",
          "name": "arbiter",
          "type": "address"
        },
        {
          "internalType": "uint256",
          "name": "amount",
          "type": "uint256"
        },
        {
          "internalType": "address",
          "name": "token",
          "type": "address"
        },
        {
          "internalType": "uint256",
          "name": "deadline",
          "type": "uint256"
        },
        {
          "internalType": "string",
          "name": "description",
          "type": "string"
        }
      ],
      "name": "createEscrow",
      "outputs": [
        {
          "internalType": "uint256",
          "name": "",
          "type": "uint256"
        }
      ],
      "stateMutability": "payable",
      "type": "function"
    },
    {
      "inputs": [
        {
          "internalType": "address[]",
          "name": "signers",
          "type": "address[]"
        },
        {
          "internalType": "address",
          "name": "recipient",
          "type": "address"
        },
        {
          "internalType": "uint256",
          "name": "amount",
          "type": "uint256"
        },
        {
          "internalType": "address",
          "name": "token",
          "type": "address"
        },
        {
          "internalType": "uint256",
          "name": "requiredSignatures",
          "type": "uint256"
        },
        {
          "internalType": "uint256",
          "name": "deadline",
          "type": "uint256"
        },
        {
          "internalType": "string",
          "name": "description",
          "type": "string"
        }
      ],
      "name": "createMultiSigPayment",
      "outputs": [
        {
          "internalType": "uint256",
          "name": "",
          "type": "uint256"
        }
      ],
      "stateMutability": "payable",
      "type": "function"
    },
    {
      "inputs": [
        {
          "internalType": "address",
          "name": "recipient",
          "type": "address"
        },
        {
          "internalType": "address",
          "name": "nftContract",
          "type": "address"
        },
        {
          "internalType": "uint256",
          "name": "tokenId",
          "type": "uint256"
        },
        {
          "internalType": "uint256",
          "name": "price",
          "type": "uint256"
        },
        {
          "internalType": "address",
          "name": "paymentToken",
          "type": "address"
        },
        {
          "internalType": "string",
          "name": "description",
          "type": "string"
        },
        {
          "internalType": "uint256",
          "name": "deadline",
          "type": "uint256"
        }
      ],
      "name": "createNFTPayment",
      "outputs": [
        {
          "internalType": "uint256",
          "name": "",
          "type": "uint256"
        }
      ],
      "stateMutability": "payable",
      "type": "function"
    },
    {
      "inputs": [
        {
          "components": [
            {
              "internalType": "address",
              "name": "recipient",
              "type": "address"
            },
            {
              "internalType": "uint256",
              "name": "percentage",
              "type": "uint256"
            }
          ],
          "internalType": "struct MonadPay.SplitRecipient[]",
          "name": "recipients",
          "type": "tuple[]"
        },
        {
          "internalType": "uint256",
          "name": "totalAmount",
          "type": "uint256"
        },
        {
          "internalType": "address",
          "name": "token",
          "type": "address"
        },
        {
          "internalType": "string",
          "name": "description",
          "type": "string"
        }
      ],
      "name": "createSplitPayment",
      "outputs": [
        {
          "internalType": "uint256",
          "name": "",
          "type": "uint256"
        }
      ],
      "stateMutability": "payable",
      "type": "function"
    },
    {
      "inputs": [
        {
          "internalType": "address",
          "name": "recipient",
          "type": "address"
        },
        {
          "internalType": "uint256",
          "name": "amount",
          "type": "uint256"
        },
        {
          "internalType": "address",
          "name": "token",
          "type": "address"
        },
        {
          "internalType": "uint256",
          "name": "interval",
          "type": "uint256"
        }
      ],
      "name": "createSubscription",
      "outputs": [
        {
          "internalType": "uint256",
          "name": "",
          "type": "uint256"
        }
      ],
      "stateMutability": "nonpayable",
      "type": "function"
    },
    {
      "inputs": [
        {
          "internalType": "uint256",
          "name": "",
          "type": "uint256"
        }
      ],
      "name": "customContractPayments",
      "outputs": [
        {
          "internalType": "address",
          "name": "payer",
          "type": "address"
        },
        {
          "internalType": "address",
          "name": "recipient",
          "type": "address"
        },
        {
          "internalType": "uint256",
          "name": "amount",
          "type": "uint256"
        },
        {
          "internalType": "address",
          "name": "token",
          "type": "address"
        },
        {
          "internalType": "address",
          "name": "targetContract",
          "type": "address"
        },
        {
          "internalType": "bytes",
          "name": "callData",
          "type": "bytes"
        },
        {
          "internalType": "bytes",
          "name": "expectedReturn",
          "type": "bytes"
        },
        {
          "internalType": "bool",
          "name": "requiresReturn",
          "type": "bool"
        },
        {
          "internalType": "uint256",
          "name": "gasLimit",
          "type": "uint256"
        },
        {
          "internalType": "bool",
          "name": "executed",
          "type": "bool"
        },
        {
          "internalType": "bool",
          "name": "cancelled",
          "type": "bool"
        },
        {
          "internalType": "string",
          "name": "description",
          "type": "string"
        },
        {
          "internalType": "uint256",
          "name": "createdAt",
          "type": "uint256"
        },
        {
          "internalType": "uint256",
          "name": "deadline",
          "type": "uint256"
        }
      ],
      "stateMutability": "view",
      "type": "function"
    },
    {
      "inputs": [
        {
          "internalType": "uint256",
          "name": "",
          "type": "uint256"
        }
      ],
      "name": "dailyAnalytics",
      "outputs": [
        {
          "internalType": "uint256",
          "name": "totalPayments",
          "type": "uint256"
        },
        {
          "internalType": "uint256",
          "name": "totalVolume",
          "type": "uint256"
        },
        {
          "internalType": "uint256",
          "name": "totalFees",
          "type": "uint256"
        },
        {
          "internalType": "uint256",
          "name": "successfulPayments",
          "type": "uint256"
        },
        {
          "internalType": "uint256",
          "name": "failedPayments",
          "type": "uint256"
        },
        {
          "internalType": "uint256",
          "name": "refundedPayments",
          "type": "uint256"
        }
      ],
      "stateMutability": "view",
      "type": "function"
    },
    {
      "inputs": [
        {
          "internalType": "uint256",
          "name": "",
          "type": "uint256"
        }
      ],
      "name": "disputes",
      "outputs": [
        {
          "internalType": "enum MonadPay.DisputeStatus",
          "name": "",
          "type": "uint8"
        }
      ],
      "stateMutability": "view",
      "type": "function"
    },
    {
      "inputs": [
        {
          "internalType": "uint256",
          "name": "paymentId",
          "type": "uint256"
        },
        {
          "internalType": "enum MonadPay.PaymentType",
          "name": "paymentType",
          "type": "uint8"
        },
        {
          "internalType": "uint256",
          "name": "deadline",
          "type": "uint256"
        }
      ],
      "name": "enableAutoRefund",
      "outputs": [],
      "stateMutability": "nonpayable",
      "type": "function"
    },
    {
      "inputs": [],
      "name": "escrowFee",
      "outputs": [
        {
          "internalType": "uint256",
          "name": "",
          "type": "uint256"
        }
      ],
      "stateMutability": "view",
      "type": "function"
    },
    {
      "inputs": [
        {
          "internalType": "uint256",
          "name": "",
          "type": "uint256"
        }
      ],
      "name": "escrowPayments",
      "outputs": [
        {
          "internalType": "address",
          "name": "payer",
          "type": "address"
        },
        {
          "internalType": "address",
          "name": "recipient",
          "type": "address"
        },
        {
          "internalType": "address",
          "name": "arbiter",
          "type": "address"
        },
        {
          "internalType": "uint256",
          "name": "amount",
          "type": "uint256"
        },
        {
          "internalType": "address",
          "name": "token",
          "type": "address"
        },
        {
          "internalType": "uint256",
          "name": "deadline",
          "type": "uint256"
        },
        {
          "internalType": "bool",
          "name": "completed",
          "type": "bool"
        },
        {
          "internalType": "bool",
          "name": "disputed",
          "type": "bool"
        },
        {
          "internalType": "bool",
          "name": "released",
          "type": "bool"
        },
        {
          "internalType": "string",
          "name": "description",
          "type": "string"
        },
        {
          "internalType": "uint256",
          "name": "createdAt",
          "type": "uint256"
        }
      ],
      "stateMutability": "view",
      "type": "function"
    },
    {
      "inputs": [
        {
          "internalType": "uint256",
          "name": "paymentId",
          "type": "uint256"
        },
        {
          "internalType": "enum MonadPay.PaymentType",
          "name": "paymentType",
          "type": "uint8"
        }
      ],
      "name": "executeAutoRefund",
      "outputs": [],
      "stateMutability": "nonpayable",
      "type": "function"
    },
    {
      "inputs": [
        {
          "internalType": "uint256",
          "name": "conditionalId",
          "type": "uint256"
        }
      ],
      "name": "executeConditionalPayment",
      "outputs": [],
      "stateMutability": "nonpayable",
      "type": "function"
    },
    {
      "inputs": [
        {
          "internalType": "uint256",
          "name": "customContractId",
          "type": "uint256"
        }
      ],
      "name": "executeCustomContractPayment",
      "outputs": [],
      "stateMutability": "nonpayable",
      "type": "function"
    },
    {
      "inputs": [
        {
          "internalType": "uint256",
          "name": "nftPaymentId",
          "type": "uint256"
        }
      ],
      "name": "executeNFTPayment",
      "outputs": [],
      "stateMutability": "nonpayable",
      "type": "function"
    },
    {
      "inputs": [
        {
          "internalType": "uint256",
          "name": "splitId",
          "type": "uint256"
        }
      ],
      "name": "executeSplitPayment",
      "outputs": [],
      "stateMutability": "nonpayable",
      "type": "function"
    },
    {
      "inputs": [
        {
          "internalType": "uint256",
          "name": "subscriptionId",
          "type": "uint256"
        }
      ],
      "name": "executeSubscriptionPayment",
      "outputs": [],
      "stateMutability": "nonpayable",
      "type": "function"
    },
    {
      "inputs": [],
      "name": "feeRecipient",
      "outputs": [
        {
          "internalType": "address",
          "name": "",
          "type": "address"
        }
      ],
      "stateMutability": "view",
      "type": "function"
    },
    {
      "inputs": [
        {
          "internalType": "address",
          "name": "to",
          "type": "address"
        },
        {
          "internalType": "uint256",
          "name": "amount",
          "type": "uint256"
        },
        {
          "internalType": "address",
          "name": "token",
          "type": "address"
        },
        {
          "internalType": "string",
          "name": "label",
          "type": "string"
        },
        {
          "internalType": "uint256",
          "name": "nonce",
          "type": "uint256"
        }
      ],
      "name": "generateLinkHash",
      "outputs": [
        {
          "internalType": "bytes32",
          "name": "",
          "type": "bytes32"
        }
      ],
      "stateMutability": "pure",
      "type": "function"
    },
    {
      "inputs": [],
      "name": "getAveragePaymentAmount",
      "outputs": [
        {
          "internalType": "uint256",
          "name": "",
          "type": "uint256"
        }
      ],
      "stateMutability": "view",
      "type": "function"
    },
    {
      "inputs": [
        {
          "internalType": "uint256",
          "name": "conditionalId",
          "type": "uint256"
        }
      ],
      "name": "getConditionalPayment",
      "outputs": [
        {
          "internalType": "address",
          "name": "payer",
          "type": "address"
        },
        {
          "internalType": "address",
          "name": "recipient",
          "type": "address"
        },
        {
          "internalType": "uint256",
          "name": "amount",
          "type": "uint256"
        },
        {
          "internalType": "address",
          "name": "token",
          "type": "address"
        },
        {
          "internalType": "enum MonadPay.ConditionType",
          "name": "conditionType",
          "type": "uint8"
        },
        {
          "internalType": "uint256",
          "name": "conditionValue",
          "type": "uint256"
        },
        {
          "internalType": "address",
          "name": "priceOracle",
          "type": "address"
        },
        {
          "internalType": "bool",
          "name": "executed",
          "type": "bool"
        },
        {
          "internalType": "bool",
          "name": "cancelled",
          "type": "bool"
        },
        {
          "internalType": "string",
          "name": "description",
          "type": "string"
        },
        {
          "internalType": "uint256",
          "name": "createdAt",
          "type": "uint256"
        }
      ],
      "stateMutability": "view",
      "type": "function"
    },
    {
      "inputs": [
        {
          "internalType": "uint256",
          "name": "customContractId",
          "type": "uint256"
        }
      ],
      "name": "getCustomContractPayment",
      "outputs": [
        {
          "internalType": "address",
          "name": "payer",
          "type": "address"
        },
        {
          "internalType": "address",
          "name": "recipient",
          "type": "address"
        },
        {
          "internalType": "uint256",
          "name": "amount",
          "type": "uint256"
        },
        {
          "internalType": "address",
          "name": "token",
          "type": "address"
        },
        {
          "internalType": "address",
          "name": "targetContract",
          "type": "address"
        },
        {
          "internalType": "bytes",
          "name": "callData",
          "type": "bytes"
        },
        {
          "internalType": "bytes",
          "name": "expectedReturn",
          "type": "bytes"
        },
        {
          "internalType": "bool",
          "name": "requiresReturn",
          "type": "bool"
        },
        {
          "internalType": "uint256",
          "name": "gasLimit",
          "type": "uint256"
        },
        {
          "internalType": "bool",
          "name": "executed",
          "type": "bool"
        },
        {
          "internalType": "bool",
          "name": "cancelled",
          "type": "bool"
        },
        {
          "internalType": "string",
          "name": "description",
          "type": "string"
        },
        {
          "internalType": "uint256",
          "name": "createdAt",
          "type": "uint256"
        },
        {
          "internalType": "uint256",
          "name": "deadline",
          "type": "uint256"
        }
      ],
      "stateMutability": "view",
      "type": "function"
    },
    {
      "inputs": [
        {
          "internalType": "uint256",
          "name": "date",
          "type": "uint256"
        }
      ],
      "name": "getDailyAnalytics",
      "outputs": [
        {
          "internalType": "uint256",
          "name": "totalPayments",
          "type": "uint256"
        },
        {
          "internalType": "uint256",
          "name": "totalVolume",
          "type": "uint256"
        },
        {
          "internalType": "uint256",
          "name": "totalFees",
          "type": "uint256"
        },
        {
          "internalType": "uint256",
          "name": "successfulPayments",
          "type": "uint256"
        },
        {
          "internalType": "uint256",
          "name": "failedPayments",
          "type": "uint256"
        },
        {
          "internalType": "uint256",
          "name": "refundedPayments",
          "type": "uint256"
        }
      ],
      "stateMutability": "view",
      "type": "function"
    },
    {
      "inputs": [
        {
          "internalType": "uint256",
          "name": "date",
          "type": "uint256"
        }
      ],
      "name": "getDailyAveragePaymentAmount",
      "outputs": [
        {
          "internalType": "uint256",
          "name": "",
          "type": "uint256"
        }
      ],
      "stateMutability": "view",
      "type": "function"
    },
    {
      "inputs": [
        {
          "internalType": "uint256",
          "name": "date",
          "type": "uint256"
        },
        {
          "internalType": "enum MonadPay.PaymentType",
          "name": "paymentType",
          "type": "uint8"
        }
      ],
      "name": "getDailyPaymentTypeVolume",
      "outputs": [
        {
          "internalType": "uint256",
          "name": "",
          "type": "uint256"
        }
      ],
      "stateMutability": "view",
      "type": "function"
    },
    {
      "inputs": [
        {
          "internalType": "uint256",
          "name": "date",
          "type": "uint256"
        }
      ],
      "name": "getDailySuccessRate",
      "outputs": [
        {
          "internalType": "uint256",
          "name": "",
          "type": "uint256"
        }
      ],
      "stateMutability": "view",
      "type": "function"
    },
    {
      "inputs": [
        {
          "internalType": "uint256",
          "name": "date",
          "type": "uint256"
        },
        {
          "internalType": "address",
          "name": "token",
          "type": "address"
        }
      ],
      "name": "getDailyTokenVolume",
      "outputs": [
        {
          "internalType": "uint256",
          "name": "",
          "type": "uint256"
        }
      ],
      "stateMutability": "view",
      "type": "function"
    },
    {
      "inputs": [
        {
          "internalType": "uint256",
          "name": "escrowId",
          "type": "uint256"
        }
      ],
      "name": "getDisputeStatus",
      "outputs": [
        {
          "internalType": "enum MonadPay.DisputeStatus",
          "name": "",
          "type": "uint8"
        }
      ],
      "stateMutability": "view",
      "type": "function"
    },
    {
      "inputs": [
        {
          "internalType": "uint256",
          "name": "escrowId",
          "type": "uint256"
        }
      ],
      "name": "getEscrow",
      "outputs": [
        {
          "components": [
            {
              "internalType": "address",
              "name": "payer",
              "type": "address"
            },
            {
              "internalType": "address",
              "name": "recipient",
              "type": "address"
            },
            {
              "internalType": "address",
              "name": "arbiter",
              "type": "address"
            },
            {
              "internalType": "uint256",
              "name": "amount",
              "type": "uint256"
            },
            {
              "internalType": "address",
              "name": "token",
              "type": "address"
            },
            {
              "internalType": "uint256",
              "name": "deadline",
              "type": "uint256"
            },
            {
              "internalType": "bool",
              "name": "completed",
              "type": "bool"
            },
            {
              "internalType": "bool",
              "name": "disputed",
              "type": "bool"
            },
            {
              "internalType": "bool",
              "name": "released",
              "type": "bool"
            },
            {
              "internalType": "string",
              "name": "description",
              "type": "string"
            },
            {
              "internalType": "uint256",
              "name": "createdAt",
              "type": "uint256"
            }
          ],
          "internalType": "struct MonadPay.EscrowPayment",
          "name": "",
          "type": "tuple"
        }
      ],
      "stateMutability": "view",
      "type": "function"
    },
    {
      "inputs": [],
      "name": "getGlobalAnalytics",
      "outputs": [
        {
          "internalType": "uint256",
          "name": "totalPayments",
          "type": "uint256"
        },
        {
          "internalType": "uint256",
          "name": "totalVolume",
          "type": "uint256"
        },
        {
          "internalType": "uint256",
          "name": "totalFees",
          "type": "uint256"
        },
        {
          "internalType": "uint256",
          "name": "successfulPayments",
          "type": "uint256"
        },
        {
          "internalType": "uint256",
          "name": "failedPayments",
          "type": "uint256"
        },
        {
          "internalType": "uint256",
          "name": "refundedPayments",
          "type": "uint256"
        }
      ],
      "stateMutability": "view",
      "type": "function"
    },
    {
      "inputs": [
        {
          "internalType": "uint256",
          "name": "multiSigId",
          "type": "uint256"
        }
      ],
      "name": "getMultiSigPayment",
      "outputs": [
        {
          "internalType": "address[]",
          "name": "signers",
          "type": "address[]"
        },
        {
          "internalType": "address",
          "name": "recipient",
          "type": "address"
        },
        {
          "internalType": "uint256",
          "name": "amount",
          "type": "uint256"
        },
        {
          "internalType": "address",
          "name": "token",
          "type": "address"
        },
        {
          "internalType": "uint256",
          "name": "requiredSignatures",
          "type": "uint256"
        },
        {
          "internalType": "uint256",
          "name": "currentSignatures",
          "type": "uint256"
        },
        {
          "internalType": "bool",
          "name": "executed",
          "type": "bool"
        },
        {
          "internalType": "string",
          "name": "description",
          "type": "string"
        },
        {
          "internalType": "uint256",
          "name": "createdAt",
          "type": "uint256"
        },
        {
          "internalType": "uint256",
          "name": "deadline",
          "type": "uint256"
        }
      ],
      "stateMutability": "view",
      "type": "function"
    },
    {
      "inputs": [
        {
          "internalType": "uint256",
          "name": "nftPaymentId",
          "type": "uint256"
        }
      ],
      "name": "getNFTPayment",
      "outputs": [
        {
          "internalType": "address",
          "name": "payer",
          "type": "address"
        },
        {
          "internalType": "address",
          "name": "recipient",
          "type": "address"
        },
        {
          "internalType": "address",
          "name": "nftContract",
          "type": "address"
        },
        {
          "internalType": "uint256",
          "name": "tokenId",
          "type": "uint256"
        },
        {
          "internalType": "uint256",
          "name": "price",
          "type": "uint256"
        },
        {
          "internalType": "address",
          "name": "paymentToken",
          "type": "address"
        },
        {
          "internalType": "bool",
          "name": "executed",
          "type": "bool"
        },
        {
          "internalType": "bool",
          "name": "cancelled",
          "type": "bool"
        },
        {
          "internalType": "string",
          "name": "description",
          "type": "string"
        },
        {
          "internalType": "uint256",
          "name": "createdAt",
          "type": "uint256"
        },
        {
          "internalType": "uint256",
          "name": "deadline",
          "type": "uint256"
        }
      ],
      "stateMutability": "view",
      "type": "function"
    },
    {
      "inputs": [
        {
          "internalType": "bytes32",
          "name": "linkHash",
          "type": "bytes32"
        }
      ],
      "name": "getPayment",
      "outputs": [
        {
          "components": [
            {
              "internalType": "address",
              "name": "from",
              "type": "address"
            },
            {
              "internalType": "address",
              "name": "to",
              "type": "address"
            },
            {
              "internalType": "uint256",
              "name": "amount",
              "type": "uint256"
            },
            {
              "internalType": "address",
              "name": "token",
              "type": "address"
            },
            {
              "internalType": "string",
              "name": "label",
              "type": "string"
            },
            {
              "internalType": "string",
              "name": "message",
              "type": "string"
            },
            {
              "internalType": "uint256",
              "name": "timestamp",
              "type": "uint256"
            },
            {
              "internalType": "bytes32",
              "name": "linkHash",
              "type": "bytes32"
            }
          ],
          "internalType": "struct MonadPay.Payment",
          "name": "",
          "type": "tuple"
        }
      ],
      "stateMutability": "view",
      "type": "function"
    },
    {
      "inputs": [
        {
          "internalType": "enum MonadPay.PaymentType",
          "name": "paymentType",
          "type": "uint8"
        }
      ],
      "name": "getPaymentTypeVolume",
      "outputs": [
        {
          "internalType": "uint256",
          "name": "",
          "type": "uint256"
        }
      ],
      "stateMutability": "view",
      "type": "function"
    },
    {
      "inputs": [
        {
          "internalType": "uint256",
          "name": "refundId",
          "type": "uint256"
        }
      ],
      "name": "getRefundRequest",
      "outputs": [
        {
          "internalType": "uint256",
          "name": "paymentId",
          "type": "uint256"
        },
        {
          "internalType": "enum MonadPay.PaymentType",
          "name": "paymentType",
          "type": "uint8"
        },
        {
          "internalType": "address",
          "name": "requester",
          "type": "address"
        },
        {
          "internalType": "string",
          "name": "reason",
          "type": "string"
        },
        {
          "internalType": "bool",
          "name": "approved",
          "type": "bool"
        },
        {
          "internalType": "bool",
          "name": "processed",
          "type": "bool"
        },
        {
          "internalType": "uint256",
          "name": "createdAt",
          "type": "uint256"
        },
        {
          "internalType": "uint256",
          "name": "processedAt",
          "type": "uint256"
        },
        {
          "internalType": "address",
          "name": "approver",
          "type": "address"
        }
      ],
      "stateMutability": "view",
      "type": "function"
    },
    {
      "inputs": [
        {
          "internalType": "uint256",
          "name": "splitId",
          "type": "uint256"
        }
      ],
      "name": "getSplitPayment",
      "outputs": [
        {
          "internalType": "address",
          "name": "payer",
          "type": "address"
        },
        {
          "internalType": "uint256",
          "name": "totalAmount",
          "type": "uint256"
        },
        {
          "internalType": "address",
          "name": "token",
          "type": "address"
        },
        {
          "internalType": "bool",
          "name": "executed",
          "type": "bool"
        },
        {
          "internalType": "string",
          "name": "description",
          "type": "string"
        },
        {
          "internalType": "uint256",
          "name": "createdAt",
          "type": "uint256"
        },
        {
          "internalType": "uint256",
          "name": "recipientCount",
          "type": "uint256"
        }
      ],
      "stateMutability": "view",
      "type": "function"
    },
    {
      "inputs": [
        {
          "internalType": "uint256",
          "name": "splitId",
          "type": "uint256"
        }
      ],
      "name": "getSplitRecipients",
      "outputs": [
        {
          "components": [
            {
              "internalType": "address",
              "name": "recipient",
              "type": "address"
            },
            {
              "internalType": "uint256",
              "name": "percentage",
              "type": "uint256"
            }
          ],
          "internalType": "struct MonadPay.SplitRecipient[]",
          "name": "",
          "type": "tuple[]"
        }
      ],
      "stateMutability": "view",
      "type": "function"
    },
    {
      "inputs": [],
      "name": "getSuccessRate",
      "outputs": [
        {
          "internalType": "uint256",
          "name": "",
          "type": "uint256"
        }
      ],
      "stateMutability": "view",
      "type": "function"
    },
    {
      "inputs": [
        {
          "internalType": "address",
          "name": "token",
          "type": "address"
        }
      ],
      "name": "getTokenVolume",
      "outputs": [
        {
          "internalType": "uint256",
          "name": "",
          "type": "uint256"
        }
      ],
      "stateMutability": "view",
      "type": "function"
    },
    {
      "inputs": [
        {
          "internalType": "address",
          "name": "user",
          "type": "address"
        }
      ],
      "name": "getUserAnalytics",
      "outputs": [
        {
          "internalType": "uint256",
          "name": "totalPayments",
          "type": "uint256"
        },
        {
          "internalType": "uint256",
          "name": "totalVolume",
          "type": "uint256"
        },
        {
          "internalType": "uint256",
          "name": "totalFees",
          "type": "uint256"
        },
        {
          "internalType": "uint256",
          "name": "successfulPayments",
          "type": "uint256"
        },
        {
          "internalType": "uint256",
          "name": "failedPayments",
          "type": "uint256"
        },
        {
          "internalType": "uint256",
          "name": "refundedPayments",
          "type": "uint256"
        }
      ],
      "stateMutability": "view",
      "type": "function"
    },
    {
      "inputs": [
        {
          "internalType": "address",
          "name": "user",
          "type": "address"
        }
      ],
      "name": "getUserAveragePaymentAmount",
      "outputs": [
        {
          "internalType": "uint256",
          "name": "",
          "type": "uint256"
        }
      ],
      "stateMutability": "view",
      "type": "function"
    },
    {
      "inputs": [
        {
          "internalType": "address",
          "name": "user",
          "type": "address"
        },
        {
          "internalType": "enum MonadPay.PaymentType",
          "name": "paymentType",
          "type": "uint8"
        }
      ],
      "name": "getUserPaymentTypeVolume",
      "outputs": [
        {
          "internalType": "uint256",
          "name": "",
          "type": "uint256"
        }
      ],
      "stateMutability": "view",
      "type": "function"
    },
    {
      "inputs": [
        {
          "internalType": "address",
          "name": "user",
          "type": "address"
        }
      ],
      "name": "getUserSuccessRate",
      "outputs": [
        {
          "internalType": "uint256",
          "name": "",
          "type": "uint256"
        }
      ],
      "stateMutability": "view",
      "type": "function"
    },
    {
      "inputs": [
        {
          "internalType": "address",
          "name": "user",
          "type": "address"
        },
        {
          "internalType": "address",
          "name": "token",
          "type": "address"
        }
      ],
      "name": "getUserTokenVolume",
      "outputs": [
        {
          "internalType": "uint256",
          "name": "",
          "type": "uint256"
        }
      ],
      "stateMutability": "view",
      "type": "function"
    },
    {
      "inputs": [
        {
          "internalType": "uint256",
          "name": "multiSigId",
          "type": "uint256"
        },
        {
          "internalType": "address",
          "name": "signer",
          "type": "address"
        }
      ],
      "name": "hasSignedMultiSig",
      "outputs": [
        {
          "internalType": "bool",
          "name": "",
          "type": "bool"
        }
      ],
      "stateMutability": "view",
      "type": "function"
    },
    {
      "inputs": [
        {
          "internalType": "address",
          "name": "contractAddress",
          "type": "address"
        }
      ],
      "name": "isContractWhitelisted",
      "outputs": [
        {
          "internalType": "bool",
          "name": "",
          "type": "bool"
        }
      ],
      "stateMutability": "view",
      "type": "function"
    },
    {
      "inputs": [
        {
          "internalType": "bytes32",
          "name": "linkHash",
          "type": "bytes32"
        }
      ],
      "name": "isLinkProcessed",
      "outputs": [
        {
          "internalType": "bool",
          "name": "",
          "type": "bool"
        }
      ],
      "stateMutability": "view",
      "type": "function"
    },
    {
      "inputs": [],
      "name": "maxGasLimit",
      "outputs": [
        {
          "internalType": "uint256",
          "name": "",
          "type": "uint256"
        }
      ],
      "stateMutability": "view",
      "type": "function"
    },
    {
      "inputs": [
        {
          "internalType": "uint256",
          "name": "",
          "type": "uint256"
        }
      ],
      "name": "multiSigPayments",
      "outputs": [
        {
          "internalType": "address",
          "name": "recipient",
          "type": "address"
        },
        {
          "internalType": "uint256",
          "name": "amount",
          "type": "uint256"
        },
        {
          "internalType": "address",
          "name": "token",
          "type": "address"
        },
        {
          "internalType": "uint256",
          "name": "requiredSignatures",
          "type": "uint256"
        },
        {
          "internalType": "uint256",
          "name": "currentSignatures",
          "type": "uint256"
        },
        {
          "internalType": "bool",
          "name": "executed",
          "type": "bool"
        },
        {
          "internalType": "string",
          "name": "description",
          "type": "string"
        },
        {
          "internalType": "uint256",
          "name": "createdAt",
          "type": "uint256"
        },
        {
          "internalType": "uint256",
          "name": "deadline",
          "type": "uint256"
        }
      ],
      "stateMutability": "view",
      "type": "function"
    },
    {
      "inputs": [],
      "name": "nextConditionalId",
      "outputs": [
        {
          "internalType": "uint256",
          "name": "",
          "type": "uint256"
        }
      ],
      "stateMutability": "view",
      "type": "function"
    },
    {
      "inputs": [],
      "name": "nextCustomContractId",
      "outputs": [
        {
          "internalType": "uint256",
          "name": "",
          "type": "uint256"
        }
      ],
      "stateMutability": "view",
      "type": "function"
    },
    {
      "inputs": [],
      "name": "nextEscrowId",
      "outputs": [
        {
          "internalType": "uint256",
          "name": "",
          "type": "uint256"
        }
      ],
      "stateMutability": "view",
      "type": "function"
    },
    {
      "inputs": [],
      "name": "nextMultiSigId",
      "outputs": [
        {
          "internalType": "uint256",
          "name": "",
          "type": "uint256"
        }
      ],
      "stateMutability": "view",
      "type": "function"
    },
    {
      "inputs": [],
      "name": "nextNFTId",
      "outputs": [
        {
          "internalType": "uint256",
          "name": "",
          "type": "uint256"
        }
      ],
      "stateMutability": "view",
      "type": "function"
    },
    {
      "inputs": [],
      "name": "nextRefundId",
      "outputs": [
        {
          "internalType": "uint256",
          "name": "",
          "type": "uint256"
        }
      ],
      "stateMutability": "view",
      "type": "function"
    },
    {
      "inputs": [],
      "name": "nextSplitId",
      "outputs": [
        {
          "internalType": "uint256",
          "name": "",
          "type": "uint256"
        }
      ],
      "stateMutability": "view",
      "type": "function"
    },
    {
      "inputs": [],
      "name": "nextSubscriptionId",
      "outputs": [
        {
          "internalType": "uint256",
          "name": "",
          "type": "uint256"
        }
      ],
      "stateMutability": "view",
      "type": "function"
    },
    {
      "inputs": [
        {
          "internalType": "uint256",
          "name": "",
          "type": "uint256"
        }
      ],
      "name": "nftPayments",
      "outputs": [
        {
          "internalType": "address",
          "name": "payer",
          "type": "address"
        },
        {
          "internalType": "address",
          "name": "recipient",
          "type": "address"
        },
        {
          "internalType": "address",
          "name": "nftContract",
          "type": "address"
        },
        {
          "internalType": "uint256",
          "name": "tokenId",
          "type": "uint256"
        },
        {
          "internalType": "uint256",
          "name": "price",
          "type": "uint256"
        },
        {
          "internalType": "address",
          "name": "paymentToken",
          "type": "address"
        },
        {
          "internalType": "bool",
          "name": "executed",
          "type": "bool"
        },
        {
          "internalType": "bool",
          "name": "cancelled",
          "type": "bool"
        },
        {
          "internalType": "string",
          "name": "description",
          "type": "string"
        },
        {
          "internalType": "uint256",
          "name": "createdAt",
          "type": "uint256"
        },
        {
          "internalType": "uint256",
          "name": "deadline",
          "type": "uint256"
        }
      ],
      "stateMutability": "view",
      "type": "function"
    },
    {
      "inputs": [],
      "name": "owner",
      "outputs": [
        {
          "internalType": "address",
          "name": "",
          "type": "address"
        }
      ],
      "stateMutability": "view",
      "type": "function"
    },
    {
      "inputs": [
        {
          "internalType": "bytes32",
          "name": "",
          "type": "bytes32"
        }
      ],
      "name": "payments",
      "outputs": [
        {
          "internalType": "address",
          "name": "from",
          "type": "address"
        },
        {
          "internalType": "address",
          "name": "to",
          "type": "address"
        },
        {
          "internalType": "uint256",
          "name": "amount",
          "type": "uint256"
        },
        {
          "internalType": "address",
          "name": "token",
          "type": "address"
        },
        {
          "internalType": "string",
          "name": "label",
          "type": "string"
        },
        {
          "internalType": "string",
          "name": "message",
          "type": "string"
        },
        {
          "internalType": "uint256",
          "name": "timestamp",
          "type": "uint256"
        },
        {
          "internalType": "bytes32",
          "name": "linkHash",
          "type": "bytes32"
        }
      ],
      "stateMutability": "view",
      "type": "function"
    },
    {
      "inputs": [],
      "name": "platformFee",
      "outputs": [
        {
          "internalType": "uint256",
          "name": "",
          "type": "uint256"
        }
      ],
      "stateMutability": "view",
      "type": "function"
    },
    {
      "inputs": [
        {
          "internalType": "address",
          "name": "to",
          "type": "address"
        },
        {
          "internalType": "uint256",
          "name": "amount",
          "type": "uint256"
        },
        {
          "internalType": "address",
          "name": "token",
          "type": "address"
        },
        {
          "internalType": "string",
          "name": "label",
          "type": "string"
        },
        {
          "internalType": "string",
          "name": "message",
          "type": "string"
        },
        {
          "internalType": "bytes32",
          "name": "linkHash",
          "type": "bytes32"
        }
      ],
      "name": "processPaymentLink",
      "outputs": [],
      "stateMutability": "payable",
      "type": "function"
    },
    {
      "inputs": [
        {
          "internalType": "uint256",
          "name": "refundId",
          "type": "uint256"
        }
      ],
      "name": "processRefund",
      "outputs": [],
      "stateMutability": "nonpayable",
      "type": "function"
    },
    {
      "inputs": [
        {
          "internalType": "bytes32",
          "name": "",
          "type": "bytes32"
        }
      ],
      "name": "processedLinks",
      "outputs": [
        {
          "internalType": "bool",
          "name": "",
          "type": "bool"
        }
      ],
      "stateMutability": "view",
      "type": "function"
    },
    {
      "inputs": [
        {
          "internalType": "uint256",
          "name": "escrowId",
          "type": "uint256"
        },
        {
          "internalType": "string",
          "name": "reason",
          "type": "string"
        }
      ],
      "name": "raiseDispute",
      "outputs": [],
      "stateMutability": "nonpayable",
      "type": "function"
    },
    {
      "inputs": [
        {
          "internalType": "uint256",
          "name": "",
          "type": "uint256"
        }
      ],
      "name": "refundDeadlines",
      "outputs": [
        {
          "internalType": "uint256",
          "name": "",
          "type": "uint256"
        }
      ],
      "stateMutability": "view",
      "type": "function"
    },
    {
      "inputs": [
        {
          "internalType": "uint256",
          "name": "escrowId",
          "type": "uint256"
        }
      ],
      "name": "refundEscrow",
      "outputs": [],
      "stateMutability": "nonpayable",
      "type": "function"
    },
    {
      "inputs": [
        {
          "internalType": "uint256",
          "name": "",
          "type": "uint256"
        }
      ],
      "name": "refundRequests",
      "outputs": [
        {
          "internalType": "uint256",
          "name": "paymentId",
          "type": "uint256"
        },
        {
          "internalType": "enum MonadPay.PaymentType",
          "name": "paymentType",
          "type": "uint8"
        },
        {
          "internalType": "address",
          "name": "requester",
          "type": "address"
        },
        {
          "internalType": "string",
          "name": "reason",
          "type": "string"
        },
        {
          "internalType": "bool",
          "name": "approved",
          "type": "bool"
        },
        {
          "internalType": "bool",
          "name": "processed",
          "type": "bool"
        },
        {
          "internalType": "uint256",
          "name": "createdAt",
          "type": "uint256"
        },
        {
          "internalType": "uint256",
          "name": "processedAt",
          "type": "uint256"
        },
        {
          "internalType": "address",
          "name": "approver",
          "type": "address"
        }
      ],
      "stateMutability": "view",
      "type": "function"
    },
    {
      "inputs": [
        {
          "internalType": "uint256",
          "name": "escrowId",
          "type": "uint256"
        }
      ],
      "name": "releaseEscrow",
      "outputs": [],
      "stateMutability": "nonpayable",
      "type": "function"
    },
    {
      "inputs": [],
      "name": "renounceOwnership",
      "outputs": [],
      "stateMutability": "nonpayable",
      "type": "function"
    },
    {
      "inputs": [
        {
          "internalType": "uint256",
          "name": "paymentId",
          "type": "uint256"
        },
        {
          "internalType": "enum MonadPay.PaymentType",
          "name": "paymentType",
          "type": "uint8"
        },
        {
          "internalType": "string",
          "name": "reason",
          "type": "string"
        }
      ],
      "name": "requestRefund",
      "outputs": [
        {
          "internalType": "uint256",
          "name": "",
          "type": "uint256"
        }
      ],
      "stateMutability": "nonpayable",
      "type": "function"
    },
    {
      "inputs": [
        {
          "internalType": "uint256",
          "name": "escrowId",
          "type": "uint256"
        },
        {
          "internalType": "bool",
          "name": "favorPayer",
          "type": "bool"
        },
        {
          "internalType": "string",
          "name": "resolution",
          "type": "string"
        }
      ],
      "name": "resolveDispute",
      "outputs": [],
      "stateMutability": "nonpayable",
      "type": "function"
    },
    {
      "inputs": [
        {
          "internalType": "uint256",
          "name": "_maxGasLimit",
          "type": "uint256"
        }
      ],
      "name": "setMaxGasLimit",
      "outputs": [],
      "stateMutability": "nonpayable",
      "type": "function"
    },
    {
      "inputs": [
        {
          "internalType": "uint256",
          "name": "multiSigId",
          "type": "uint256"
        }
      ],
      "name": "signMultiSigPayment",
      "outputs": [],
      "stateMutability": "nonpayable",
      "type": "function"
    },
    {
      "inputs": [
        {
          "internalType": "uint256",
          "name": "",
          "type": "uint256"
        }
      ],
      "name": "splitPayments",
      "outputs": [
        {
          "internalType": "address",
          "name": "payer",
          "type": "address"
        },
        {
          "internalType": "uint256",
          "name": "totalAmount",
          "type": "uint256"
        },
        {
          "internalType": "address",
          "name": "token",
          "type": "address"
        },
        {
          "internalType": "bool",
          "name": "executed",
          "type": "bool"
        },
        {
          "internalType": "string",
          "name": "description",
          "type": "string"
        },
        {
          "internalType": "uint256",
          "name": "createdAt",
          "type": "uint256"
        }
      ],
      "stateMutability": "view",
      "type": "function"
    },
    {
      "inputs": [
        {
          "internalType": "uint256",
          "name": "",
          "type": "uint256"
        }
      ],
      "name": "subscriptions",
      "outputs": [
        {
          "internalType": "address",
          "name": "subscriber",
          "type": "address"
        },
        {
          "internalType": "address",
          "name": "recipient",
          "type": "address"
        },
        {
          "internalType": "uint256",
          "name": "amount",
          "type": "uint256"
        },
        {
          "internalType": "address",
          "name": "token",
          "type": "address"
        },
        {
          "internalType": "uint256",
          "name": "interval",
          "type": "uint256"
        },
        {
          "internalType": "uint256",
          "name": "lastPayment",
          "type": "uint256"
        },
        {
          "internalType": "bool",
          "name": "active",
          "type": "bool"
        }
      ],
      "stateMutability": "view",
      "type": "function"
    },
    {
      "inputs": [
        {
          "internalType": "address",
          "name": "newOwner",
          "type": "address"
        }
      ],
      "name": "transferOwnership",
      "outputs": [],
      "stateMutability": "nonpayable",
      "type": "function"
    },
    {
      "inputs": [
        {
          "internalType": "uint256",
          "name": "_escrowFee",
          "type": "uint256"
        }
      ],
      "name": "updateEscrowFee",
      "outputs": [],
      "stateMutability": "nonpayable",
      "type": "function"
    },
    {
      "inputs": [
        {
          "internalType": "address",
          "name": "_feeRecipient",
          "type": "address"
        }
      ],
      "name": "updateFeeRecipient",
      "outputs": [],
      "stateMutability": "nonpayable",
      "type": "function"
    },
    {
      "inputs": [
        {
          "internalType": "uint256",
          "name": "_platformFee",
          "type": "uint256"
        }
      ],
      "name": "updatePlatformFee",
      "outputs": [],
      "stateMutability": "nonpayable",
      "type": "function"
    },
    {
      "inputs": [
        {
          "internalType": "address",
          "name": "",
          "type": "address"
        }
      ],
      "name": "userAnalytics",
      "outputs": [
        {
          "internalType": "uint256",
          "name": "totalPayments",
          "type": "uint256"
        },
        {
          "internalType": "uint256",
          "name": "totalVolume",
          "type": "uint256"
        },
        {
          "internalType": "uint256",
          "name": "totalFees",
          "type": "uint256"
        },
        {
          "internalType": "uint256",
          "name": "successfulPayments",
          "type": "uint256"
        },
        {
          "internalType": "uint256",
          "name": "failedPayments",
          "type": "uint256"
        },
        {
          "internalType": "uint256",
          "name": "refundedPayments",
          "type": "uint256"
        }
      ],
      "stateMutability": "view",
      "type": "function"
    },
    {
      "inputs": [
        {
          "internalType": "address",
          "name": "contractAddress",
          "type": "address"
        },
        {
          "internalType": "bool",
          "name": "whitelisted",
          "type": "bool"
        }
      ],
      "name": "whitelistContract",
      "outputs": [],
      "stateMutability": "nonpayable",
      "type": "function"
    },
    {
      "inputs": [
        {
          "internalType": "address",
          "name": "",
          "type": "address"
        }
      ],
      "name": "whitelistedContracts",
      "outputs": [
        {
          "internalType": "bool",
          "name": "",
          "type": "bool"
        }
      ],
      "stateMutability": "view",
      "type": "function"
    },
    {
      "stateMutability": "payable",
      "type": "receive"
    }
  ],
  "bytecode": "0x6080346200010357601f620089c438819003918201601f19168301916001600160401b0383118484101762000108578084926020946040528339810103126200010357516001600160a01b03908181169081900362000103576001806000553315620000ea578054336001600160a01b03198083168217845560405195909392167f8be0079c531659141344cd1fd0a4f28419497f9722a3daafe3b4186f6b6457e0600080a380600a5580600b5580600c5580600d5580600e5580601055806012556207a1206014556016556019602455603260255560265416176026556188a590816200011f8239f35b604051631e4fbdf760e01b815260006004820152602490fd5b600080fd5b634e487b7160e01b600052604160045260246000fdfe6080604052600436101561001b575b361561001957600080fd5b005b6000803560e01c8062952898146170fb57806305785ad4146170e0578063060158bf14616adb5780630716326d14616a2b57806309242309146169e45780630aadf797146169c55780630abfbb75146169505780630db6cd7a14616932578063139136a81461691457806314f46451146167a057806316f4d4d91461626b5780631776834a14616209578063180baa661461602257806320f7aa3f146143195780632123508314615fa65780632225a2e714615f1257806324597c5c14615dca578063256fcf7f14615dab57806326232a2e14615d8d5780632840662d14615a005780632d5a4b211461591b5780632d5bbf601461589d57806331c531c614615316578063326bcfd414615045578063348a71a614614f6857806334e9045514614dcb578063356f9dfd14614c24578063391feebb146117b35780633bba87d3146146dd5780633d2098d9146146ac5780634102b1fb146143c8578063432741b114614394578063469048401461436b5780634f38a8541461434c578063564a565d1461431957806356a0457a146142f157806358a830e014613f4657806359a3159a146138d45780635aef573c146137925780635e45da23146137745780636041cae9146137565780636355c83c14613330578063648d3f4f14612f0057806364bbe51a1461330c5780636a5b428b146132ee578063715018a6146132a3578063778163de14613255578063781cebfa14611d125780637ba982a0146131815780637d19e59614612fc65780637d974ade14612f4d57806380d5ac8a146107ea578063814781be14612f00578063839c8a3f14612ee25780638598bcc4146116a957806385e16dc81461292057806385ec97d6146128b1578063879909d01461286557806389cb29dd146128475780638da5cb5b1461281e578063921db0761461275257806394e00a33146126a45780639d2c10be146123315780639f2789cc1461230d5780639fbdef02146122635780639fde501614611e31578063a672990c14611d72578063aa0b598814611d41578063ac44eef114611d12578063b7cc8b6d14611c8a578063b882bacb14611c02578063badfdca014611be3578063bdd29ee814611a4c578063beff5702146117f2578063c057058a146117b3578063c3721d1d14611704578063c800adaf146116a9578063c909adc01461168b578063cbfb5a6a14611633578063cd39d2d6146115ab578063cf979ed014611588578063d0ebfee614611559578063d59fd900146114bc578063d7b4be0d14611412578063da58935f146113f4578063dac87ca414611267578063dccce94e146111dc578063df04abab146111be578063e614a1a414610cdf578063e66eefc814610b99578063e9ce65fe14610b70578063ed65316414610916578063f160d36914610897578063f2fde38b1461081f578063f3c1c3be146107ea578063f57892d5146107b1578063f67dc95f14610787578063f7a37324146104f75763fa56d0aa14610467575061000e565b346104f45760203660031901126104f457604090600435815260086020522060018060a01b036104f0818354169282600182015416926002820154936003830154916004840154906005850154916104c66006600788015497016174bf565b94604051998a9960ff8660a81c16968560ff8860a01c1697169560ff8560a01c169416928c6177fe565b0390f35b80fd5b50346104f45760208060031936011261078357600435610515617a59565b808352600882526040832060058101805461053660ff8260a01c1615617c19565b61054660ff8260a81c1615617cf7565b61054f84617d7f565b1561074a5760ff60a01b1916600160a01b17905560028101805460245491949186906127109061057f908461792a565b04600385019260018060a01b0393858582541680156000146106375750505050818080808660018a0154168b549082821561062e575bf11561062157801580156105ed575b5050506001600080516020618710833981519152935b0154169354604051908152a36001815580f35b82809281928660265416908390610618575bf11561060d578538806105c4565b6040513d87823e3d90fd5b506108fc6105ff565b50604051903d90823e3d90fd5b506108fc6105b5565b600189015460405163a9059cbb60e01b8082529697949590948593928492839161066791908d1660048401617bfe565b03925af1801561073f57610722575b5082610697575b5050506001600080516020618710833981519152936105da565b918491846106bf97945416908a866026541691604051998a9586948593845260048401617bfe565b03925af190811561071757600080516020618710833981519152946001926106ea575b81955061067d565b61070990853d8711610710575b6107018183617400565b810190617980565b50386106e2565b503d6106f7565b6040513d89823e3d90fd5b61073890863d8811610710576107018183617400565b5038610676565b6040513d8c823e3d90fd5b60405162461bcd60e51b815260048101869052601160248201527010dbdb991a5d1a5bdb881b9bdd081b595d607a1b6044820152606490fd5b5080fd5b50346104f45760203660031901126104f45760406020916004358152601883522054604051908152f35b50346104f45760203660031901126104f4576020906040906001600160a01b036107d96172ef565b168152601f83522054604051908152f35b50346104f457806003193601126104f457601954601a54906104f0601b54601c54601d5490601e5492604051968796876176c1565b50346104f45760203660031901126104f4576108396172ef565b610841617870565b6001600160a01b0390811690811561087e57600180546001600160a01b031981168417909155166000805160206187d0833981519152600080a380f35b604051631e4fbdf760e01b815260048101849052602490fd5b50346104f45760203660031901126104f4576108b16172ef565b6108b9617870565b6001600160a01b031680156108df57602680546001600160a01b03191691909117905580f35b60405162461bcd60e51b815260206004820152600f60248201526e496e76616c6964206164647265737360881b6044820152606490fd5b50346104f45760208060031936011261078357600435610934617a59565b8083526005825260408320600681019283549361095460ff861615617b7a565b60ff8560081c16610b365782546001600160a01b03956201000191871633148015610b27575b61098390617bc1565b62ff00ff191617905560038201938585546127106109a36025548361792a565b04906004860185858254168015600014610a3a5750505050818080808660018a0154168b5490828215610a31575bf1156106215780158015610a08575b5050506001600080516020618770833981519152930154169354604051908152a36001815580f35b82809281928660265416908390610a28575bf11561060d578538806109e0565b506108fc610a1a565b506108fc6109d1565b600189015460405163a9059cbb60e01b80825296979495909485939284928391610a6a91908d1660048401617bfe565b03925af1801561073f57610b0a575b5082610a9a575b5050506001600080516020618770833981519152936105da565b91849184610ac297945416908a866026541691604051998a9586948593845260048401617bfe565b03925af19081156107175760008051602061877083398151915294600192610aed575b819550610a80565b610b0390853d8711610710576107018183617400565b5038610ae5565b610b2090863d8811610710576107018183617400565b5038610a79565b5060028501548716331461097a565b60405162461bcd60e51b8152600481018390526012602482015271115cd8dc9bddc81a5cc8191a5cdc1d5d195960721b6044820152606490fd5b50346104f45760203660031901126104f4576020610b8f600435617d7f565b6040519015158152f35b50346104f457602090816003193601126104f4578060409160e08351610bbe816173c8565b8281528286820152828582015282606082015260606080820152606060a08201528260c08201520152600435815260028352209060405191610bff836173c8565b80546001600160a01b0390811684526001820154811683850190815260028301546040860190815260038401548316606087019081529092610ccf9190610c48600487016174bf565b9160808901928352610c5c600588016174bf565b9560a08a0196875282600760068a01549960c08d019a8b5201549660e08c019788528a826040519d8e9d8e525116908c0152511660408a0152516060890152511660808701525192610cbc610100948560a0890152610120880190617588565b9051868203601f190160c0880152617588565b925160e085015251908301520390f35b50346104f45760203660031901126104f457610cf9617a59565b6004358152600f60205260408120600581018054610d1d60ff8260a01c1615617c19565b610d2d60ff8260a81c1615617cf7565b610d3d6008840154421115617c60565b600283019260018060a01b03845416926003820192835490604051916331a9108f60e11b83528060048401526020836024818a5afa92831561103257899361119d575b5060018501805490976001600160a01b03918216949091168490036111595760405163e985e9c560e01b815260208180610dbe308960048401617e35565b0381855afa90811561112f578b9161113a575b5080156110c3575b156110705760ff60a01b19909216600160a01b17845584548992906001600160a01b0316813b1561106c5783610e2695604051968795869485936323b872dd60e01b855260048501617998565b03925af180156107175761103d575b5085906004830154612710610e4c6024548361792a565b835491900492906001600160a01b031680610f20575050855483918291829182916001600160a01b0316828215610f17575bf1156106215780158015610edb575b505050610ed16000805160206187b0833981519152915b549354945492546040516001600160a01b0396871696958616956004359591938493909290911683617bfe565b0390a46001815580f35b6026548392839283926001600160a01b0316908390610f0e575bf115610f0357843880610e8d565b6040513d86823e3d90fd5b506108fc610ef5565b506108fc610e7e565b875460405163a9059cbb60e01b808252959693949093602093859390928492918391610f58916001600160a01b031660048401617bfe565b03925af1801561103257611013575b5082610f89575b505050610ed16000805160206187b083398151915291610ea4565b5460265460405192835291939260209285926001600160a01b039081169284928c928492610fbd9290911660048401617bfe565b03925af1908115611008576000805160206187b083398151915292610ed192610fe9575b819350610f6e565b6110019060203d602011610710576107018183617400565b5038610fe1565b6040513d88823e3d90fd5b61102b9060203d602011610710576107018183617400565b5038610f67565b6040513d8b823e3d90fd5b9095906001600160401b038111611058576040529438610e35565b634e487b7160e01b82526041600452602482fd5b8380fd5b60405162461bcd60e51b815260206004820152602560248201527f436f6e7472616374206e6f7420617070726f76656420746f207472616e7366656044820152641c8813919560da1b6064820152608490fd5b5060405163020604bf60e21b815260048101839052602081602481855afa90811561112f578b91611100575b506001600160a01b03163014610dd9565b611122915060203d602011611128575b61111a8183617400565b810190617e16565b386110ef565b503d611110565b6040513d8d823e3d90fd5b611153915060203d602011610710576107018183617400565b38610dd1565b606460405162461bcd60e51b815260206004820152602060248201527f4e4654206e6f206c6f6e676572206f776e656420627920726563697069656e746044820152fd5b6111b791935060203d6020116111285761111a8183617400565b9138610d80565b50346104f457806003193601126104f4576020600e54604051908152f35b50346104f45760203660031901126104f457604090600435815260086020522060018060a01b03906104f082825416928060018401541692600281015493600382015492600483015490600584015491600761123a600687016174bf565b95015495604051998a9960ff8660a81c16968560ff8860a01c1697169560ff8560a01c169416928c6177fe565b50346104f457602090816003193601126104f45760043591611287617a59565b828252601581526040822092600384019384549460ff8616156113b957610100866112b960ff889960081c161561802c565b61ff0019161790554260058201556112da815460ff600184015416906182b0565b6001600160a01b0380841697929693879289929091906112fb841515618073565b84159261130884156180ba565b16908161134e5750508390611345575b839283928392f11561060d57600080516020618810833981519152915b5493604051908152a46001815580f35b506108fc611318565b90915085939250611376969460405180988195829463a9059cbb60e01b845260048401617bfe565b03925af1928315610717576000805160206188108339815191529361139c575b50611335565b6113b290833d8511610710576107018183617400565b5038611396565b60405162461bcd60e51b81526004810185905260136024820152721499599d5b99081b9bdd08185c1c1c9bdd9959606a1b6044820152606490fd5b50346104f457806003193601126104f4576020600a54604051908152f35b50346104f45760203660031901126104f457604090600435815260116020522060018060a01b03906104f08282541692806001840154169260028101549482600383015416926004830154169061146b600584016174bf565b90611478600685016174bf565b60ff600786015416600886015491600987015494611498600a89016174bf565b96600c600b8a0154990154996040519d8e9d8e9860ff808c60081c169b16996176e9565b50346104f45760403660031901126104f4576040602435916004358152600960205220906001820191825482101561151a57602092600161150861271094600261151195015493617dfa565b5001549061792a565b04604051908152f35b60405162461bcd60e51b8152602060048201526017602482015276092dcecc2d8d2c840e4cac6d2e0d2cadce840d2dcc8caf604b1b6044820152606490fd5b50346104f45760203660031901126104f45760ff60406020926004358152601784522054166040519015158152f35b50346104f457806003193601126104f45760206115a36185a0565b604051908152f35b50346104f45760203660031901126104f4576040906004358152600f6020522060018060a01b03906104f0828254169280600184015416928160028201541694600382015492600483015491600584015490611609600686016174bf565b9360086007870154960154966040519a8b9a60ff8660a81c169660ff8760a01c169616948c617783565b50346104f45760403660031901126104f45761164d6172ef565b602435906007821015611687576001600160a01b0316825260236020908152604090922061167e91906008016184d7565b54604051908152f35b8280fd5b50346104f457806003193601126104f4576020601054604051908152f35b50346104f45760203660031901126104f4576040906001600160a01b036116ce6172ef565b16815260236020522080546104f060018301549260028101549060038101546005600483015492015492604051968796876176c1565b50346104f45760a03660031901126104f45761171e6172ef565b611726617305565b606435929091906001600160401b0384116104f457506117a86088611751602095369060040161743e565b926040519384918783019660018060601b0319809260601b168852602435603485015260601b1660548301526117908151809289606886019101617565565b81016084356068820152036068810184520182617400565b519020604051908152f35b50346104f45760203660031901126104f45760209060ff906040906001600160a01b036117de6172ef565b168152601384522054166040519015158152f35b50346104f45760603660031901126104f4576024356004356007821015611687576001600160401b0390604435828111611a485761183490369060040161743e565b91825115611a11576118473385846180fe565b156119cd576016549361185985617a7c565b6016558486526015602090815260408720848155600180820180546001600160a81b03191660ff8616173360081b610100600160a81b03161790558651929890949192600284019290919082116119b9579082916118c4826118be8c98979654617485565b85617a14565b8a90601f8311600114611949576000805160206188308339815191529697839283929361193e575b501b916000199060031b1c19161790555b6003810161ffff19815416905560044291015561191d60405180926175ad565b6040878201528061193333966040830190617588565b0390a4604051908152f35b8b01519250386118ec565b8381528b8120601f19841698939290915b8d8c8b83106119a3575050508260008051602061883083398151915298991061198a575b5050811b0190556118fd565b8a015160001960f88460031b161c19169055388061197e565b83015184558d995092850192918201910161195a565b634e487b7160e01b81526041600452602490fd5b606460405162461bcd60e51b815260206004820152602060248201527f4e6f7420617574686f72697a656420746f207265717565737420726566756e646044820152fd5b60405162461bcd60e51b815260206004820152600f60248201526e1499585cdbdb881c995c5d5a5c9959608a1b6044820152606490fd5b8480fd5b50346104f457602090816003193601126104f457600435611a6b617a59565b808252600883526040822080546001600160a01b039081169133839003611ba6578495600582969596018054611aa760ff8260a01c1615617c19565b611ab760ff8260a81c1615617d37565b60ff60a81b1916600160a81b1790556002820154602454611ae8919061271090611ae1908361792a565b0490617ab5565b9383600384015416908115600014611b4a575050508392839283925416828215611b41575bf115610621575b33907f2097c18cc603395dcc2830c81099f82d472042301ab0f2941cbe36cd2a8079c08380a36001815580f35b506108fc611b0d565b909195869450611b7295935060405180968195829463a9059cbb60e01b845260048401617bfe565b03925af18015610f0357611b88575b5050611b14565b81611b9e92903d10610710576107018183617400565b503880611b81565b60405162461bcd60e51b815260048101879052601560248201527413db9b1e481c185e595c8818d85b8818d85b98d95b605a1b6044820152606490fd5b50346104f45760203660031901126104f4576020610b8f6004356186ca565b50346104f45760203660031901126104f457604090600435815260096020522060018060a01b038082541690611c8060028401549360ff60038201546005611c4c600485016174bf565b93015494604051978897885260208801528116604087015260a01c161515606085015260c0608085015260c0840190617588565b9060a08301520390f35b50346104f45760203660031901126104f4576040906004358152600f6020522060018060a01b03906104f0828254169183600182015416928460028301541694600383015490600484015492600585015490600786015494611cf36006600889015498016174bf565b946040519a8b9a60ff8660a81c169660ff8760a01c169616948c617783565b50346104f45760203660031901126104f45760ff60406020926004358152600384522054166040519015158152f35b50346104f45760203660031901126104f457600435611d5e617870565b611d6c6103e8821115617ac2565b60245580f35b50346104f45760403660031901126104f457611d8c6172ef565b611d94617388565b90611d9d617870565b6001600160a01b0316908115611df15760207f46fe0810a41e3dbf985c77c9f30207ce6eda91dcba24d8de583b6ea30ac16f009183855260138252611de58160408720617919565b6040519015158152a280f35b60405162461bcd60e51b8152602060048201526018602482015277496e76616c696420636f6e7472616374206164647265737360401b6044820152606490fd5b5060c03660031901126104f457611e466172ef565b611e4e617331565b90611e5761731b565b9260a4356001600160401b03811161078357611e7790369060040161743e565b92611e80617a59565b611e946001600160a01b038416151561789c565b611ea86001600160a01b0382161515617afd565b611eb560443515156178dc565b611ec24260843511617b3b565b6001600160a01b0381163314158061224d575b611ede90617afd565b600b5492611eeb84617a7c565b600b5582611f0c612710611f0360255460443561792a565b04604435617ab5565b6001600160a01b0388166121ea57611f26813410156179ba565b8034116121b2575b50505b60405194611f3e866173e4565b3386526001600160a01b0382811660208089019182528583166040808b0191825260443560608c019081528c861660808d0190815260843560a08e0190815260c08e018c815260e08f018d90526101008f018d90526101208f0199909952426101408f01528c8c52600595869052928b208d5181549089166001600160a01b03199182161782559651600182018054918a1691891691909117905593516002850180549189169188169190911790559051600384015551600483018054919096169416939093179093559051908201559051909690600688019061202490151582617919565b60e08701511515815461ff0062ff00006101008b0151151560101b169260081b169062ffff0019161717905561012086015196875160018060401b03811161219e576020986120838261207a6007860154617485565b60078601617a14565b8990601f831160011461212b5798826008936101409360019b9c8b92612120575b5050600019600383901b1c1916908a1b1760078501555b015191015560405192858060a01b0316835260443587840152848060a01b031660408301526084356060830152838060a01b031690847fa89651b7914f6ff550f9788ccdc8f1afb167e1013270d5c591aa8b8f95afbb8460803393a455604051908152f35b0151905038806120a4565b906007840188528a882091885b601f19851681106121875750836101409360019b9c938c93600897601f1981161061216e575b505050811b0160078501556120bb565b015160001960f88460031b161c1916905538808061215e565b91928c600181928685015181550194019201612138565b634e487b7160e01b86526041600452602486fd5b81806121bf819334617973565b8181156121e1575b3390f1156121d6578238611f2e565b6040513d84823e3d90fd5b506108fc6121c7565b6040516323b872dd60e01b815291506020908290819061220f90303360048501617998565b0381876001600160a01b038c165af18015610f035761222f575b50611f31565b6122469060203d8111610710576107018183617400565b5038612229565b506001600160a01b038181169084161415611ed5565b50346104f45760203660031901126104f457604090600435815260116020522060018060a01b03906104f082825416836001840154169260028101549480600383015416906004830154169260ff600784015416906008840154600985015492600b86015495600c810154976122db600583016174bf565b906122f4600a6122ed600686016174bf565b94016174bf565b976040519d8e9d8e9860ff808c60081c169b16996176e9565b50346104f45760203660031901126104f45760206115a361232c6172ef565b6185da565b50346104f457602080600319360112610783576004359081835260078152604083209161236560ff60078501541615617c19565b612375600a840154421115617c60565b600683019233855283835260ff60408620541661266e5780549385805b86811061262d575b506123a9919293949550617cb6565b3385528352604084209060ff1991600183825416179055600460058201916123d18354617a7c565b8093550154906040518181528286820152847fec50fd9ae03362c2e5c58b8a16b6cdd5bf4185c209637034c767159c7717fd6860403393a31015612413578380f35b8184526007835260408420906007820190815461243360ff821615617c19565b60058401546004850154116125ee57906001911617905560028101928354856127106124616024548461792a565b04600385019260018060a01b0393858582541680156000146125015750505050818080808660018a0154168b54908282156124f8575bf11561062157801580156124cf575b5050506001600080516020618730833981519152935b0154169354604051908152a33880808380f35b828092819286602654169083906124ef575bf11561060d578538806124a6565b506108fc6124e1565b506108fc612497565b600189015460405163a9059cbb60e01b8082529697949590948593928492839161253191908d1660048401617bfe565b03925af1801561073f576125d1575b5082612561575b5050506001600080516020618730833981519152936124bc565b9184918461258997945416908a866026541691604051998a9586948593845260048401617bfe565b03925af190811561071757600080516020618730833981519152946001926125b4575b819550612547565b6125ca90853d8711610710576107018183617400565b50386125ac565b6125e790863d8811610710576107018183617400565b5038612540565b60405162461bcd60e51b8152600481018790526017602482015276496e73756666696369656e74207369676e61747572657360481b6044820152606490fd5b6126378185617c9e565b905460039190911b1c6001600160a01b0316331461265d5761265890617a7c565b612392565b5093945084935060016123a961239a565b60405162461bcd60e51b815260048101849052600e60248201526d105b1c9958591e481cda59db995960921b6044820152606490fd5b50346104f45760203660031901126104f457604090600435815260076020522060018060a01b039081600182015416906002810154926003820154166127426004830154600584015460ff60078601541690612702600887016174bf565b92600a600988015497015495604051998a998a5260208a0152604089015260608801526080870152151560a08601526101208060c0870152850190617588565b9160e08401526101008301520390f35b50346104f45760203660031901126104f457604090600435815260056020522060018060a01b038082541690612813816001850154169360ff836002830154169360038301549060048401541660058401549060068501549260086127b9600788016174bf565b960154976040519a8b9a8b5260208b015260408a01526060890152608088015260a0870152818116151560c0870152818160081c16151560e087015260101c16151561010085015261016080610120860152840190617588565b906101408301520390f35b50346104f457806003193601126104f4576001546040516001600160a01b039091168152602090f35b50346104f457806003193601126104f4576020600b54604051908152f35b50346104f45760403660031901126104f45760ff6040602092612886617331565b6004358252600785528282206001600160a01b03909116825260060184522054604051911615158152f35b50346104f45760603660031901126104f4576004356024356007811015611687576128fd90604435926128ed6128e83384846183ae565b617bc1565b6128f8428511617b3b565b618435565b8252601760205260408220600160ff198254161790556018602052604082205580f35b5060e03660031901126104f4576129356172ef565b9061293e617305565b906064906005823510156104f45760a435916001600160a01b03831683036107835760c4356001600160401b0381116116875761297f90369060040161743e565b612987617a59565b61299b6001600160a01b038716151561789c565b6129a860243515156178dc565b60843515612ea5578293823515600014612d90574260843510612d52575b600d54946129d386617a7c565b600d55846129f46127106129eb60245460243561792a565b04602435617ab5565b6001600160a01b038916612cef57612a0e813410156179ba565b803411612cc2575b50505b60405196612a26886173e4565b3388526001600160a01b0389811660208a015260243560408a0152166060880152612cae5782356080870190815260843560a08801526001600160a01b0391821660c088015260e08701859052610100870185905261012087019290925242610140870152848452600860209081526040808620885181549085166001600160a01b03199182161782559289015160018201805491861691909416179092558701516002820155606087015160038201805494519299949293909291166005841015612c9a576001600160a81b03199091161760a092831b60ff60a01b9081169190911790915586820151600489015560c087015160058901805460e08a01516101008b01516001600160b01b03199092166001600160a01b03949094169390931792151590941b9092161791151560a81b60ff60a81b16919091179055610120850151805190969060068201906001600160401b03811161219e57602098612b93826118be8554617485565b8990601f8311600114612c2f5792826101409360019a9b936007968b92612c24575b5050600019600383901b1c1916908a1b1790555b0151910155612be460405192602435845287840190356177f1565b6084356040830152838060a01b031690847f55a813c3285f7e2147f6a7bc9ea9f8046f44775356663ae289ea3c19cf7e6c5a60603393a455604051908152f35b015190503880612bb5565b8388528a88209190601f198416895b818110612c8357509360019a9b93600796938c93836101409810612c6a575b505050811b019055612bc9565b015160001960f88460031b161c19169055388080612c5d565b92938d600181928786015181550195019301612c3e565b634e487b7160e01b87526021600452602487fd5b634e487b7160e01b84526021600452602484fd5b8180612ccf819334617973565b818115612ce6575b3390f115610f03578438612a16565b506108fc612cd7565b6040516323b872dd60e01b8152915060209082908190612d1490303360048501617998565b0381896001600160a01b038d165af1801561100857612d34575b50612a19565b612d4b9060203d8111610710576107018183617400565b5038612d2e565b60405162461bcd60e51b815260206004820152601760248201527644656c6179206d75737420626520696e2066757475726560481b60448201528390fd5b935082936001833514600014612df157426084351115612db0575b6129c6565b60405162461bcd60e51b815260206004820152601a6024820152795363686564756c65206d75737420626520696e2066757475726560301b60448201528390fd5b935082936002833514600014612e4b576001600160a01b0381166129c65760405162461bcd60e51b8152602060048201526015602482015274141c9a58d9481bdc9858db19481c995c5d5a5c9959605a1b60448201528390fd5b935082936003833503612dab574360843511612dab5760405162461bcd60e51b815260206004820152601e60248201527f426c6f636b206e756d626572206d75737420626520696e20667574757265000060448201528390fd5b5060405162461bcd60e51b8152602060048201526017602482015276496e76616c696420636f6e646974696f6e2076616c756560481b6044820152fd5b50346104f457806003193601126104f4576020600c54604051908152f35b50346104f45760203660031901126104f457604090600435815260226020522080546104f060018301549260028101549060038101546005600483015492015492604051968796876176c1565b50346104f45760203660031901126104f457604090600435815260156020522080546104f0600183015492612f84600282016174bf565b906003810154600482015490600660058401549360018060a01b039182910154169460405198899860ff80808760081c169616948360081c169216908a6175d0565b50346104f45760203660031901126104f457806040916101408351612fea816173e4565b82815282602082015282858201528260608201528260808201528260a08201528260c08201528260e082015282610100820152606061012082015201526004358152600560205220600860405191613041836173e4565b80546001600160a01b039081168452600182015481166020850152600282015481166040850152600382015460608501526004820154166080840152600581015460a0840152600681015460ff818116151560c086015281841c8116151560e086015260109190911c1615156101008401526130bf600782016174bf565b610120840152015461014082015260405180916020825260018060a01b03815116602083015260018060a01b03602082015116604083015260018060a01b0360408201511660608301526060810151608083015260018060a01b0360808201511660a083015260a081015160c083015260c0810151151560e083015260e081015115156101008301526101008101511515610120830152610120810151610140613176610160928383870152610180860190617588565b920151908301520390f35b50346104f45760203660031901126104f45760043561319e617a59565b80825260116020526040822061010060098201916131fb8354916131c560ff841615617c19565b6131d560ff8460081c1615617d37565b8054336001600160a01b039182161491908215613247575b508115613239575b50617e4f565b61ff00191617905561320c81618609565b33907fbef45b5c4fdb463d6596771970adc0a4aece4e3bcdc4b8204403f09998f1d1458380a36001815580f35b600c915001544211386131f5565b6001541633149150386131ed565b50346104f45760403660031901126104f45760406020916132746172ef565b61327c617331565b6001600160a01b039182168352602385528383209116825260060183522054604051908152f35b50346104f457806003193601126104f4576132bc617870565b600180546001600160a01b0319811690915581906001600160a01b03166000805160206187d08339815191528280a380f35b50346104f457806003193601126104f4576020602554604051908152f35b50346104f45760203660031901126104f45760206115a361332b6172ef565b61855e565b5060e03660031901126104f4576133456172ef565b9061334e617331565b6001600160a01b039260443592608435858116939192906064359085900361106c576001600160401b039560a4358781116137525761339190369060040161743e565b92888060c435926133a0617a59565b16956133ad87151561789c565b169384156137165783156136e1576133c6428311617b3b565b6040516331a9108f60e11b81526004810184905260209a908b816024818a5afa8991816136c2575b506134265760405162461bcd60e51b8152600481018d9052600b60248201526a125b9d985b1a590813919560aa1b6044820152606490fd5b16869003613680576010549861343b8a617a7c565b601055876134586127106134516024548961792a565b0487617ab5565b8c8b8061362b57505061346d813410156179ba565b8034116135fe575b50505b898852600f8b526040882080546001600160a01b0319908116331782556001808301805483168b179055600283018054909216891790915560038201869055600482018790556005820180546001600160b01b031916909b17909a558251909160068301919081116135ea576134f8816134f28454617485565b84617a14565b8c8d601f8311600114613578575081906008958c9261356d575b5050600019600383901b1c1916908b1b1790555b4260078201550155604051928352878301526040820152847ffb699d62cfee2c3015efc1d5ac18caafad1715342d8beddf22647b816ec8f47960603393a455604051908152f35b015190503880613512565b838c52808c208d93929091601f198416908e905b8282106135c65750509683600898106135ad575b505050811b019055613526565b015160001960f88460031b161c191690553880806135a0565b83968a958294958394989a9b9c0151815501960194018f959398979694929161358c565b634e487b7160e01b8a52604160045260248afd5b818061360b819334617973565b818115613622575b3390f115610717578738613475565b506108fc613613565b61364e91926040519485809481936323b872dd60e01b8352303360048501617998565b03925af1801561103257613663575b50613478565b613679908c8d3d10610710576107018183617400565b503861365d565b60405162461bcd60e51b8152600481018b9052601a602482015279139195081b9bdd081bdddb995908189e481c9958da5c1a595b9d60321b6044820152606490fd5b6136da9192508d803d106111285761111a8183617400565b90386133ee565b60405162461bcd60e51b815260206004820152600d60248201526c496e76616c696420707269636560981b6044820152606490fd5b60405162461bcd60e51b8152602060048201526014602482015273125b9d985b1a59081391950818dbdb9d1c9858dd60621b6044820152606490fd5b8580fd5b50346104f457806003193601126104f4576020600d54604051908152f35b50346104f457806003193601126104f4576020601454604051908152f35b50346104f45760403660031901126104f4576004356024356001600160401b038111611687576137c690369060040161743e565b5080825260056020526040822060068101906138098254916137eb60ff841615617b7a565b8054336001600160a01b03918216149182156138c3575b5050617bc1565b828452600660205260ff60408520541660048110156138af576138715761ff001916610100179055808252600660205260408220805460ff1916600117905533907f84a477df8a28a4276ca6dee4458a06c3015f30c477d9c949ede4e13ff8a552b48380a380f35b60405162461bcd60e51b8152602060048201526016602482015275111a5cdc1d5d1948185b1c9958591e481c985a5cd95960521b6044820152606490fd5b634e487b7160e01b85526021600452602485fd5b600191925001541633143880613802565b50346104f45760203660031901126104f4576138ee617a59565b600435815260116020526040812061391c60ff600983015461391282821615617c19565b60081c1615617cf7565b61392c600c820154421115617c60565b60018060a01b03600482015416826008830154916040519082600586015461395381617485565b9060018116908115613f315750600114613efa575b50829184959385920393f13d15613ef257803d61398481617423565b906139926040519283617400565b81523d85602083013e5b60ff60078501541680613eeb575b613e86575b50613a37575b60018060a01b0382541660018060a01b0360018401541691600260018060a01b0360048601541694015460405194855260208501521592831560408201527f1a693c2a5913be77e48f46e055f0995c89b023ed0b868e3e5501a7d1e4769394606060043592a4613a27575b6001815580f35b613a32600435618609565b613a20565b826002830154612710613a4c6024548361792a565b600386015491900491906001600160a01b031680613da95750508180808060018060a01b03600189015416600289015490828215613da0575bf115610621578015908115613d70575b5050505b60098201805460ff191660011790558154600283015460038401546024546001600160a01b039384169391909116919061271090613ad7908361792a565b0462015180420493613aea601954617a7c565b601955613af8601c54617a7c565b601c55613b0783601a54617ab5565b601a55613b1682601b54617ab5565b601b55838852601f60205260408820613b30848254617ab5565b905560068852602160205260408820613b4a848254617ab5565b90558088526020805260408820613b618154617a7c565b90558488526022938460205260408920613b7b8154617a7c565b905585895284602052600360408a2001613b958154617a7c565b905585895284602052600160408a2001613bb0858254617ab5565b905585895284602052600260408a2001613bcb848254617ab5565b905585895284602052600660408a2001818a5260205260408920613bf0858254617ab5565b905585895284602052600860408a200160068a5260205260408920613c16858254617ab5565b905585895284602052600760408a2001828a5260205260408920613c3a8154617a7c565b90558189526023928360205260408a20613c548154617a7c565b9055828a5283602052600360408b2001613c6e8154617a7c565b9055828a5283602052600160408b2001613c89868254617ab5565b9055828a5283602052613ca4600260408c2001918254617ab5565b905581895282602052600660408a200190895260205260408820613cc9848254617ab5565b905587526020526008604087200160068752602052613ced60408720918254617ab5565b90557f03ab5ecc3cf81889615cb75ca1bcadcbf3a3b4ba23f8d6cfff47f725cdf2d0566060601954601a54601b549060405192835260208301526040820152a18185526020527f35139513cb27a61903989651bc70cbd70bf8837723259bed449c299aee68d11860408086206001815491015482519182526020820152a26139b5565b82809291819260018060a01b0360265416908390613d97575bf1156121d657823880613a95565b506108fc613d89565b506108fc613a85565b600186015460405163a9059cbb60e01b815293945060209284929183918a918391613de0916001600160a01b031660048401617bfe565b03925af1801561060d57613e67575b5080613dfc575b50613a99565b600383015460265460405163a9059cbb60e01b81529260209284926001600160a01b039182169284928a928492613e399290911660048401617bfe565b03925af18015610f035715613df657613e609060203d602011610710576107018183617400565b5038613df6565b613e7f9060203d602011610710576107018183617400565b5038613def565b905060208151910120613e9b600684016174bf565b6020815191012003613eae5780386139af565b60405162461bcd60e51b81526020600482015260156024820152740a4cae8eae4dc40ecc2d8eaca40dad2e6dac2e8c6d605b1b6044820152606490fd5b50816139aa565b80606061399c565b90506005860184526020842084905b828210613f1a575050820183613968565b805482860152889550602090910190600101613f09565b60ff1916855250801515028301905083613968565b5060603660031901126104f4576001600160401b0360043581811161168757613f73903690600401617648565b602491823590811161106c573660238201121561106c578060040135613f9881617631565b91613fa66040519384617400565b818352602091858385019160051b830101913683116142ed5786849101915b8383106142dd5750505050613fd8617305565b613fe0617a59565b83518351036142a057835115614263578593845b878551871015614023575061401761401d916140108888617a8b565b5190617ab5565b95617a7c565b94613ff4565b94918593916127106140368a548361792a565b04956140428783617ab5565b6001600160a01b0394851680614169575061405f813410156179ba565b865b84518110156140ac578780808089614079868b617a8b565b5116614085868d617a8b565b51908282156140a3575bf1156107175761409e90617a7c565b614061565b506108fc61408f565b50929450949295839196811590811561413f575b50505050803411614107575b50505b51906040519283528201527fb970e74562b0c8f675cebbac6859159a9ec67b0eb2972ac7971d3bb05857e83e60403392a26001815580f35b8180614114819334617973565b818115614136575b3390f11561412b5783856140cc565b6040513d85823e3d90fd5b506108fc61411c565b83928392839260265416908390614160575bf11561062157818780806140c0565b506108fc614151565b949392919690505b82518110156141f25780878561418a6141b49487617a8b565b5116614196838a617a8b565b516040516323b872dd60e01b81529485928392903360048501617998565b03818d8a5af191821561073f576141d0926141d5575b50617a7c565b614171565b6141eb90893d8b11610710576107018183617400565b508a6141ca565b509590935084919281614209575b505050506140cf565b61422f9360265416886040518096819582946323b872dd60e01b84523360048501617998565b03925af1801561060d57614246575b828180614200565b61425c90833d8511610710576107018183617400565b508461423e565b60405162461bcd60e51b81526004810183905260168187015275456d70747920726563697069656e747320617272617960501b6044820152606490fd5b60405162461bcd60e51b81526004810183905260168187015275082e4e4c2f2e640d8cadccee8d040dad2e6dac2e8c6d60531b6044820152606490fd5b8235815291810191849101613fc5565b8780fd5b50346104f45761167e6020916008604061430a366172cb565b939081526022865220016184d7565b50346104f45760203660031901126104f45760ff60406104f09260043581526006602052205416604051918291826176ae565b50346104f45760203660031901126104f4576020610b8f600435617e96565b50346104f457806003193601126104f4576026546040516001600160a01b039091168152602090f35b50346104f45760203660031901126104f4576004356007811015610783578160409160209352602183522054604051908152f35b50346104f45760208060031936011261078357600435906143e7617a59565b81835260048152604083209060ff6006830154161561466e57600582016144148154600485015490617ab5565b421061463357600283019283549061443c6127106144346024548561792a565b048093617973565b6003820180546001600160a01b03939190841680614531575050478754116144ec578880808594819796600183960154168282156144e3575bf1156121d65781159081156144b5575b50505050906000805160206187f0833981519152926040925b429055549082519182524290820152a26001815580f35b839283928392602698979854169083906144da575bf115610f03579084388080614485565b506108fc6144ca565b506108fc614475565b60405162461bcd60e51b815260048101879052601d60248201527f496e73756666696369656e7420636f6e74726163742062616c616e63650000006044820152606490fd5b92876145699186859b999897949b5416958d85600188015416906040518096819582946323b872dd60e01b9c8d855260048501617998565b03925af1801561112f57614616575b5089846145a0575b50505050506000805160206187f08339815191529350906040929161449e565b818089989799969a54169354169160265416936145cb6040519a8b9687958694855260048501617998565b03925af1928315611008576000805160206187f0833981519152946040946145f9575b819293948189614580565b61460f90843d8611610710576107018183617400565b50386145ee565b61462c90883d8a11610710576107018183617400565b5038614578565b60405162461bcd60e51b815260048101839052601360248201527214185e5b595b9d081b9bdd08191d59481e595d606a1b6044820152606490fd5b6064906040519062461bcd60e51b825260048201526017602482015276537562736372697074696f6e206e6f742061637469766560481b6044820152fd5b50346104f45760203660031901126104f4576004356146c9617870565b6146d76103e8821115617ac2565b60255580f35b5060803660031901126104f4576001600160401b039060043582811161078357366023820112156107835780600401359161471783617631565b916147256040519384617400565b83835260208301906024809560061b8201019036821161106c578501915b818310614bec57505050614755617305565b92606492833586811161106c5761477090369060040161743e565b94614779617a59565b6001958683511115614bac576014835111614b735761479a843515156178dc565b84958786905b614ad0575b50612710809703614a905750846147d9600e54976147c289617a7c565b600e556147d18754883561792a565b048635617ab5565b6001600160a01b039093169283614a35576147f6813410156179ba565b803411614a08575b50505b85855260096020526040852080546001600160a01b03191633178155843560028201556003810180546001600160a81b03191690931790925580519788116149f55761485d886148546004850154617485565b60048501617a14565b602090601f8911600114614987579780918899879998999261497c575b5050600019600383901b1c191690861b1760048201555b42600582015584849101965b6148e3575b5060209550516040519135825285820152837f849cfbf56c9c5abf75d7abf882bbd8cf18d03c96dd688a45e057e31ece8c17b860403393a355604051908152f35b8151811015614977576148f68183617a8b565b518754600160401b81101561496457808761491492018a5589617dfa565b91909161495157805182546001600160a01b0319166001600160a01b03919091161782556020015190860155849061494b90617a7c565b9061489d565b634e487b7160e01b865260048690528486fd5b634e487b7160e01b865260416004528486fd5b6148a2565b01519050388061487a565b906004830186526020862091865b601f198b1681106149df5750918991899a938a999a94601f198116106149c6575b505050811b016004820155614891565b015160001960f88460031b161c191690553880806149b6565b8183015184559289019260209283019201614995565b634e487b7160e01b855260416004528385fd5b8180614a15819334617973565b818115614a2c575b3390f115610f035784386147fe565b506108fc614a1d565b6040516323b872dd60e01b8152915060209082908190614a5a90303360048501617998565b038189875af1801561100857614a71575b50614801565b614a899060203d602011610710576107018183617400565b5038614a6b565b60405162461bcd60e51b815260206004820152601c818701527b50657263656e7461676573206d7573742073756d20746f203130302560201b6044820152fd5b968451881015614b6d57614af96001600160a01b03614aef8a88617a8b565b515116151561789c565b6020614b058987617a8b565b51015115614b3657614b30614b2a8a926020614b218c8a617a8b565b51015190617ab5565b98617a7c565b906147a0565b5060405162461bcd60e51b81526020600482015260128187015271496e76616c69642070657263656e7461676560701b6044820152fd5b966147a5565b60405162461bcd60e51b81526020600482015260138186015272546f6f206d616e7920726563697069656e747360681b60448201528690fd5b60405162461bcd60e51b815260206004820152601a81860152794e656564206174206c65617374203220726563697069656e747360301b60448201528690fd5b60408336031261106c5760206040918251614c0681617397565b614c0f86617347565b81528286013583820152815201920191614743565b50346104f45760208060031936011261078357600435614c42617a59565b80835260058252604083206006810192835493614c6260ff861615617b7a565b600583015442118015614dbe575b15614d855760018060a01b0390600182855416968733148015614d76575b614c9790617bc1565b60ff1916179055856003840195614cb88754612710611ae16025548361792a565b9083600487015416908115600014614d0e5750508180809285885416828215614d05575bf11561060d57600080516020618750833981519152925b54169354604051908152a36001815580f35b506108fc614cdc565b90859291614d33979460405180998195829463a9059cbb60e01b845260048401617bfe565b03925af19384156107175760008051602061875083398151915294614d59575b50614cf3565b614d6f90843d8611610710576107018183617400565b5038614d53565b50600286015484163314614c8e565b60405162461bcd60e51b815260048101839052601160248201527010d85b9b9bdd081c99599d5b99081e595d607a1b6044820152606490fd5b5060ff8560081c16614c70565b50346104f45760803660031901126104f457614de56172ef565b602435614df0617305565b6001600160a01b03928316919060643590614e0c84151561789c565b614e178315156178dc565b8115614f3057600a5494614e2a86617a7c565b600a556040519160e083016001600160401b03811184821017614f1c57602098614ee394936006938a936040523386528b86018a815260408701928a845280606089019316835260808801938a855281604060a08b019780895260c08c019960018b528152602060049052209951169260018060a01b031993848b5416178a558260018b019151168482541617905551600289015560038801925116908254161790555160048501555160058401555115159101617919565b60405191825284820152827f11a7acdb40f12388db0682ce7cdb5ffb4d01939a9b0cf653f7c1af7c2f238ad860403393a4604051908152f35b634e487b7160e01b89526041600452602489fd5b60405162461bcd60e51b815260206004820152601060248201526f125b9d985b1a59081a5b9d195c9d985b60821b6044820152606490fd5b50346104f45760203660031901126104f4576004358082526015602052604082206003810190815491614fa160ff8460081c161561802c565b614fb5825460ff6001850154163391618267565b156150045760ff1990921660011790915560060180546001600160a01b03191633908117909155907fc7ff055f95cfa75c0a183d1e0afddc7e1eb3f5e7596c23faf6952969eca71c4d8380a380f35b60405162461bcd60e51b81526020600482015260196024820152784e6f7420617574686f72697a656420746f20617070726f766560381b6044820152606490fd5b50346104f4576020806003193601126107835760043590615064617a59565b8183526009815260408320916003830191825461508760ff8260a01c1615617c19565b600160a01b9060ff60a01b191617835560028401928354948661271096602493886150b386548461792a565b0491839060019a8b97888801985b6151de575b50505050811590811561510c575b5050915495549254604080519485529484015250506001600160a01b03909316926000805160206188508339815191529190a3815580f35b549394936001600160a01b0390811680615161575083928392839260265416908390615158575bf11561100857600080516020618850833981519152926040925b9192889194386150d4565b506108fc615133565b9087945061518d97939250602654168b60405180998195829463a9059cbb60e01b845260048401617bfe565b03925af19283156151d357600080516020618850833981519152946040946151b6575b5061514d565b6151cc90833d8511610710576107018183617400565b50386151b0565b6040513d8a823e3d90fd5b9091929394955087548d8186101561530d575060001981019081116152fa57908d8c848f978c849b9a998299989783146000146152da575050505050835b86546001600160a01b03908c908e9083168061526d575050839283926152438a8594617dfa565b505416828215615264575bf1156110085761525e8d94617a7c565b936150c1565b506108fc61524e565b91896152a29a96506152829195949295617dfa565b5054168b604051809a8195829463a9059cbb60e01b845260048401617bfe565b03925af19081156151d3578e9561525e926152bd5750617a7c565b6152d3908d803d10610710576107018183617400565b50386141ca565b6115086152ec936152f4965493617dfa565b048095617973565b9361521c565b50634e487b7160e01b8d5260116004528cfd5b969594506150c6565b5060c03660031901126104f45761532b6172ef565b615333617305565b6064356001600160401b03811161106c5761535290369060040161743e565b916084356001600160401b038111611a485761537290369060040161743e565b61537a617a59565b60a4358552600360205260ff60408620541661585f576153a46001600160a01b038316151561789c565b6153b160243515156178dc565b60a4358552600360205260408520600160ff19825416179055846127106153dc60245460243561792a565b046153e981602435617973565b6001600160a01b03861661578a57828080809361540a6024353410156179ba565b818115615781575b6001600160a01b038a1690f115610621578015908115615751575b505050602435341161571e575b60405190615447826173c8565b3382526001600160a01b038381166020808501918252602435604080870191825288851660608801908152608088018b815260a08901979097524260c089015260a43560e089018190528c52600293849052908b20875181546001600160a01b0319908116918816919091178255945160018201805487169188169190911790559151928201929092559051600382018054909316931692909217905590518051919291906001600160401b0382116156905781906155168261550d6004880154617485565b60048801617a14565b602090601f83116001146156af5789926156a4575b50508160011b916000199060031b1c19161760048301555b60a08101518051906001600160401b038211615690576155738261556a6005870154617485565b60058701617a14565b602090601f831160011461561e5791806007949260e0948b92615613575b50508160011b916000199060031b1c19161760058501555b60c08101516006850155015191015560405191602435835260018060a01b031660208301526060604083015260018060a01b0316917f03274906bfdfd1e2a40010a7d795b1c688359b01fb51baef3387a7ea5c09b2c6339280610ed160a435946060830190617588565b015190503880615591565b906005850189526020892091895b601f19851681106156785750926007949260019260e09583601f1981161061565f575b505050811b0160058501556155a9565b015160001960f88460031b161c1916905538808061564f565b9192602060018192868501518155019401920161562c565b634e487b7160e01b88526041600452602488fd5b01519050388061552b565b9250600485018952602089209089935b601f1984168510615703576001945083601f198116106156ea575b505050811b016004830155615543565b015160001960f88460031b161c191690553880806156da565b818101518355602094850194600190930192909101906156bf565b8480808061572e60243534617973565b818115615748575b3390f161543a576040513d86823e3d90fd5b506108fc615736565b82809291819260018060a01b0360265416908390615778575bf115610f035784388061542d565b506108fc61576a565b506108fc615412565b6040516323b872dd60e01b8152919250602090829081906157b090883360048501617998565b03818a6001600160a01b038a165af1801561071757615840575b50806157d7575b5061543a565b6026546040516323b872dd60e01b8152916020918391829161580791906001600160a01b03163360048501617998565b0381896001600160a01b0389165af1801561100857156157d1576158399060203d602011610710576107018183617400565b50386157d1565b6158589060203d602011610710576107018183617400565b50386157ca565b60405162461bcd60e51b8152602060048201526016602482015275131a5b9ac8185b1c9958591e481c1c9bd8d95cdcd95960521b6044820152606490fd5b50346104f45760203660031901126104f457604060e091600435815260046020522060018060a01b038082541691816001820154169160028201549060038301541660048301549160ff600660058601549501541694604051968752602087015260408601526060850152608084015260a0830152151560c0820152f35b50346104f457602090816003193601126104f45790600435825260098152600180604084200192835461594d81617631565b9061595b6040519283617400565b8082528482018096845285842084915b8383106159c057505050506040519380850191818652518092526040850195925b8281106159995785870386f35b835180516001600160a01b031688528201518288015260409096019592810192840161598c565b95600288829a9860409a97989a516159d781617397565b60018060a01b03865416815284860154838201528152019201920191909795979694939661596b565b50346104f45760603660031901126104f457600435615a1d617388565b6044356001600160401b03811161106c57615a3c90369060040161743e565b50615a45617a59565b818352600560209081526040842060028101546001600160a01b03919082163303615d5a5760068101805460ff8160081c1615615d1d579081615a8f60ff8a979695941615617b7a565b600160ff198092161782556003830190612710615ab083546025549061792a565b04928815615bb4575090615ad99291898852600687526002604089209182541617905554617ab5565b92826004830154168015600014615b575750508392839283925416828215615b4e575bf1156121d6575b15615b46576002905b7fd479d35c2c3aee3d59f9972a1214f8effa0c54c4f8ff4dcf020913c0a5e27c6260405180615b3c3395826176ae565b0390a36001815580f35b600390615b0c565b506108fc615afc565b9094508492615b80949254168860405180968195829463a9059cbb60e01b845260048401617bfe565b03925af1801561060d57615b96575b5050615b03565b81615bac92903d10610710576107018183617400565b503880615b8f565b89885260068752604088208054909216600317909155805462ff00001916620100001790556004830180549295919392851680615c5157505050848080938560018395015416905490828215615c48575bf1156121d6578115908115615c1e575b50505050615b03565b83928392839260265416908390615c3f575bf1156121d65782388080615c15565b506108fc615c30565b506108fc615c05565b91615c8488979593876001849b959997015416945460405194858094819363a9059cbb60e01b998a845260048401617bfe565b03925af1801561100857615d00575b5082615ca5575b505050505050615b03565b615cc994828795541692602654169160405196879586948593845260048401617bfe565b03925af1801561060d57615ce2575b8080808793615c9a565b81615cf892903d10610710576107018183617400565b503880615cd8565b615d1690873d8911610710576107018183617400565b5038615c93565b60405162461bcd60e51b81526004810186905260156024820152744e6f206469737075746520746f207265736f6c766560581b6044820152606490fd5b60405162461bcd60e51b815260048101849052600b60248201526a2737ba1030b93134ba32b960a91b6044820152606490fd5b50346104f457806003193601126104f4576020602454604051908152f35b50346104f45760203660031901126104f45760206115a36004356185b5565b50346104f45760203660031901126104f457600435815260076020526040812060018060a01b0360018201541691600282015460018060a01b03600384015416916004840154600585015460ff60078701541691600987015495600a88015495604051998a99602081549c8d815201809c828a5260208a20908a5b818110615ef357505050615e6891615e628d806008940390617400565b016174bf565b966040519a61014090818d01918d52518091526101608c019c915b818110615ed45750505060208a015260408901526060880152608087015260a0860152151560c085015283850360e085015292938493615ec39190617588565b916101008401526101208301520390f35b82516001600160a01b03168e5260209d8e019d90920191600101615e83565b82546001600160a01b0316845260209093019260019283019201615e45565b50346104f45760203660031901126104f457604090600435815260096020522060018060a01b038082541690600283015492615f9760038201549260ff600584015494615f666004600187015496016174bf565b92604051988998895260208901528116604088015260a01c161515606086015260e0608086015260e0850190617588565b9160a084015260c08301520390f35b50346104f45760203660031901126104f4576004803582526020526040812080546001600160a01b03163303615fe457600601805460ff1916905580f35b60405162461bcd60e51b81526020600482015260166024820152752737ba1039bab139b1b934b83a34b7b71037bbb732b960511b6044820152606490fd5b50346104f45760208060031936011261078357600435616040617a59565b808352600782526040832091600783019283549161606160ff841615617c19565b600a8201544211156161cb57859486938354945b85811061618e575b5061608e6001929394959697617cb6565b60ff19161790556160ac6002830154612710611ae16024548361792a565b921561617a57818552808520546003909201548593926001600160a01b03908116929116806161215750508280928192828215616118575bf115610621575b33907f5fd84c46b0ccdf886bb0a6d26bf9ea9f1a487c166cc462f218cf2e09493ca3ba8380a36001815580f35b506108fc6160e4565b81949261614694929360405180968195829463a9059cbb60e01b845260048401617bfe565b03925af18015610f035761615c575b50506160eb565b8161617292903d10610710576107018183617400565b503880616155565b634e487b7160e01b85526032600452602485fd5b6161988186617c9e565b905460039190911b1c6001600160a01b031633146161be576161b990617a7c565b616075565b506001965061608e61607d565b6064906040519062461bcd60e51b82526004820152601760248201527614185e5b595b9d081b9bdd08195e1c1a5c9959081e595d604a1b6044820152fd5b50346104f45760203660031901126104f457600435616226617870565b80156162325760145580f35b60405162461bcd60e51b8152602060048201526011602482015270125b9d985b1a590819d85cc81b1a5b5a5d607a1b6044820152606490fd5b5060e03660031901126104f4576004356001600160401b03811161078357616297903690600401617648565b61629f617331565b6162a761731b565b60a435929060c4356001600160401b038111613752576162cb90369060040161743e565b906162d4617a59565b600283511061676157608435151580616754575b15616711576163016001600160a01b038516151561789c565b604493616310853515156178dc565b61631b428711617b3b565b865b845181101561642d576001600160a01b036163388287617a8b565b5116156163f85760018082018083116163e457815b616362575b505061635d90617a7c565b61631d565b86518110156163df576001600160a01b0361637d8489617a8b565b51166001600160a01b03616391838a617a8b565b5116146163a8576163a28291617a7c565b9061634d565b60405162461bcd60e51b815260206004820152601060248201526f223ab83634b1b0ba329039b4b3b732b960811b818a0152606490fd5b616352565b634e487b7160e01b8a52601160045260248afd5b60405162461bcd60e51b815260206004820152600e60248201526d24b73b30b634b21039b4b3b732b960911b81880152606490fd5b50909391959294600c549561644187617a7c565b600c55846164586127106147d1602454883561792a565b6001600160a01b0388166166ae57616472813410156179ba565b803411616681575b50505b868552600760205260408520815190916001600160401b03821161663657600160401b8211616636576020908354838555808410616667575b500182875260208720875b83811061664a5750505050600181810180546001600160a01b038681166001600160a01b031992831617909255863560028501556003840180549990921698169790971790965560843560048201556005810185905560078101805460ff19169055875160088201906001600160401b03811161663657602099616549826118be8554617485565b8a90601f83116001146165d257600a949392918991836165c7575b5050600019600383901b1c191690891b1790555b4260098201550155604051913582526084358683015260018060a01b031690847f423c1c5a44471cbe0ee64ad1f1e4b8907abb5695e29943721742ab300d60955960403393a455604051908152f35b015190503880616564565b9392918991601f19821690848b528d8b20918b5b81811061661f57509683600a9810616606575b505050811b019055616578565b015160001960f88460031b161c191690553880806165f9565b8289015184558d9590930192918f01918f016165e6565b634e487b7160e01b87526041600452602487fd5b82516001600160a01b0316818301556020909201916001016164c1565b84895282892061667b9181019085016179fd565b386164b6565b818061668e819334617973565b8181156166a5575b3390f115610f0357843861647a565b506108fc616696565b6040516323b872dd60e01b81529150602090829081906166d390303360048501617998565b0381896001600160a01b038c165af18015611008576166f3575b5061647d565b61670a9060203d8111610710576107018183617400565b50386166ed565b60405162461bcd60e51b815260206004820152601b60248201527a496e76616c6964207265717569726564207369676e61747572657360281b6044820152606490fd5b50825160843511156162e8565b60405162461bcd60e51b81526020600482015260176024820152764e656564206174206c656173742032207369676e65727360481b6044820152606490fd5b50346104f45760203660031901126104f4576004356167bd617a59565b808252600f6020528160408120600581018054916167e160ff8460a01c1615617c19565b6167f160ff8460a81c1615617d37565b80546001600160a01b0392908316903382148015616905575b80156168f8575b61681a90617e4f565b60ff60a81b198516600160a81b179055600482015460245484916168469161271090611ae1908361792a565b9416908161689d5750508392839283925416828215616894575bf115610621575b33907fa4fff0ba60d1df5bcdbd79b981e0dffae057173e562567c1c8c2c4208db6b01e8380a36001815580f35b506108fc616860565b90915060209392506168c59460405180968195829463a9059cbb60e01b845260048401617bfe565b03925af1801561412b576168da575b50616867565b6168f19060203d8111610710576107018183617400565b50386168d4565b5060088301544211616811565b5083600184015416331461680a565b50346104f457806003193601126104f4576020601654604051908152f35b50346104f457806003193601126104f4576020601254604051908152f35b50346104f45760203660031901126104f457604090600435815260156020522080546104f06001830154926003810154600482015460058301549160018060a01b036169a560028260068801541696016174bf565b60405198899860ff80808760081c169616948360081c169216908a6175d0565b50346104f45760203660031901126104f45760206115a360043561851f565b50346104f45760403660031901126104f4576040602091616a03617331565b6004358252602284528282206001600160a01b03909116825260060183522054604051908152f35b50346104f45760203660031901126104f457604090600435815260026020522060018060a01b039081815416908260018201541692616acc600283015491600384015416616abe616a7e600486016174bf565b616a8a600587016174bf565b926007600688015497015495604051998a998a5260208a015260408901526060880152610100806080890152870190617588565b9085820360a0870152617588565b9160c084015260e08301520390f35b506101403660031901126104f457616af16172ef565b90616afa617305565b90616b0361731b565b906084356001600160401b03811161078357616b2390369060040161735b565b909390929060a4356001600160401b03811161106c57616b4790369060040161735b565b96909160c435151560c43503611a4857610124356001600160401b03811161375257616b7790369060040161743e565b97616b80617a59565b6001600160a01b0393616b96848616151561789c565b848616156170a1578486168752601360205260ff604088205416156170615760145460e4351161702757616bce426101043511617b3b565b60243515616fe257616bea6127106129eb60245460243561792a565b838616616f88573410616f4b575b60125497616c0589617a7c565b60125588885260116020526040882080546001600160a01b0319908116331782556001820180548216888a1617905560243560028301556003820180548216878a16179055600482018054909116898916179055996001600160401b038211614f1c578190616c84828d6005616c7d81830154617485565b9101617a14565b8990601f8311600114616edf578a92616ed4575b50508160011b916000199060031b1c19161760058a01555b6001600160401b038211616636578190616cda82616cd160068d0154617485565b60068d01617a14565b8790601f8311600114616e68578892616e5d575b50508160011b916000199060031b1c19161760068801555b616d1560c43560078901617919565b60e435600888015560098701805461ffff1916905587516001600160401b03811161219e57602098616d5782616d4e600a8c0154617485565b600a8c01617a14565b8990601f8311600114616ded5791806001999a928795948a92616de2575b5050600019600383901b1c191690891b17600a8201555b42600b820155600c610104359101558160405195168552602435898601521660408401521690847fe62b186361c4713b5a5e86b986e61e14ad1284777fe00d5d231cac2e1e35f79360603393a455604051908152f35b015190503880616d75565b90600a8a0188528a882091885b601f1985168110616e465750926001999a928a9288969583601f19811610616e2d575b505050811b01600a820155616d8c565b015160001960f88460031b161c19169055388080616e1d565b91928c600181928685015181550194019201616dfa565b013590503880616cee565b60068b01895260208920899450915b601f1984168510616ebc576001945083601f19811610616ea2575b505050811b016006880155616d06565b0135600019600384901b60f8161c19169055388080616e92565b81810135835560209485019460019093019201616e77565b013590503880616c98565b60058d018b5260208b208b9450915b601f1984168510616f33576001945083601f19811610616f19575b505050811b0160058a0155616cb0565b0135600019600384901b60f8161c19169055388080616f09565b81810135835560209485019460019093019201616eee565b60405162461bcd60e51b8152602060048201526015602482015274125b9cdd59999a58da595b9d08115512081cd95b9d605a1b6044820152606490fd5b6020616faa91604051809381926323b872dd60e01b8352303360048501617998565b03818b8a89165af180156151d357616fc3575b50616bf8565b616fdb9060203d602011610710576107018183617400565b5038616fbd565b60405162461bcd60e51b815260206004820152601d60248201527f416d6f756e74206d7573742062652067726561746572207468616e20300000006044820152606490fd5b60405162461bcd60e51b815260206004820152601260248201527108ec2e640d8d2dad2e840e8dede40d0d2ced60731b6044820152606490fd5b60405162461bcd60e51b815260206004820152601860248201527710dbdb9d1c9858dd081b9bdd081dda1a5d195b1a5cdd195960421b6044820152606490fd5b60405162461bcd60e51b8152602060048201526017602482015276125b9d985b1a59081d185c99d95d0818dbdb9d1c9858dd604a1b6044820152606490fd5b50346104f457806003193601126104f45760206115a36184ef565b50346104f45761710a366172cb565b90617113617a59565b61711d8282618435565b8084526020906017825260ff6040862054161561728c5780855260188252604085205442106172505784526017815260408420805460ff19169055839061716484846182b0565b6001600160a01b038084169792959293889291617182841515618073565b87159261718f84156180ba565b1690816171e257505090859183906171d9575b839283928392f11561060d57600080516020618790833981519152926040925b6171ce845180946175ad565b820152a36001815580f35b506108fc6171a2565b60405163a9059cbb60e01b815297948794508893508391829061720a90889060048401617bfe565b03925af19283156107175760008051602061879083398151915294604094617233575b506171c2565b61724990823d8411610710576107018183617400565b503861722d565b60405162461bcd60e51b8152600481018390526014602482015273111958591b1a5b99481b9bdd081c995858da195960621b6044820152606490fd5b60405162461bcd60e51b8152600481018390526017602482015276105d5d1bc81c99599d5b99081b9bdd08195b98589b1959604a1b6044820152606490fd5b60409060031901126172ea576004359060243560078110156172ea5790565b600080fd5b600435906001600160a01b03821682036172ea57565b604435906001600160a01b03821682036172ea57565b606435906001600160a01b03821682036172ea57565b602435906001600160a01b03821682036172ea57565b35906001600160a01b03821682036172ea57565b9181601f840112156172ea578235916001600160401b0383116172ea57602083818601950101116172ea57565b6024359081151582036172ea57565b604081019081106001600160401b038211176173b257604052565b634e487b7160e01b600052604160045260246000fd5b61010081019081106001600160401b038211176173b257604052565b61016081019081106001600160401b038211176173b257604052565b601f909101601f19168101906001600160401b038211908210176173b257604052565b6001600160401b0381116173b257601f01601f191660200190565b81601f820112156172ea5780359061745582617423565b926174636040519485617400565b828452602083830101116172ea57816000926020809301838601378301015290565b90600182811c921680156174b5575b602083101461749f57565b634e487b7160e01b600052602260045260246000fd5b91607f1691617494565b90604051918260008254926174d384617485565b90818452600194858116908160001461754257506001146174ff575b50506174fd92500383617400565b565b9093915060005260209081600020936000915b81831061752a5750506174fd935082010138806174ef565b85548884018501529485019487945091830191617512565b9150506174fd94506020925060ff191682840152151560051b82010138806174ef565b60005b8381106175785750506000910152565b8181015183820152602001617568565b906020916175a181518092818552858086019101617565565b601f01601f1916010190565b9060078210156175ba5752565b634e487b7160e01b600052602160045260246000fd5b97936175f061010098949793617612939c9b979c8b5260208b01906175ad565b6001600160a01b0396871660408a015261012060608a01819052890190617588565b9815156080880152151560a087015260c086015260e085015216910152565b6001600160401b0381116173b25760051b60200190565b81601f820112156172ea5780359161765f83617631565b9261766d6040519485617400565b808452602092838086019260051b8201019283116172ea578301905b828210617697575050505090565b8380916176a384617347565b815201910190617689565b9190602083019260048210156175ba5752565b9260a094919796959260c0850198855260208501526040840152606083015260808201520152565b9a9692919c9e9d9c6101a09c9899958c60606177789d999461774c9861773e9760018060a01b0380978180951687521660208601526040850152169101521660808c01526101c08060a08d01528b0190617588565b9089820360c08b0152617588565b94151560e088015261010087015215156101208601521515610140850152838203610160850152617588565b946101808201520152565b6001600160a01b0391821681529181166020830152918216604082015260608101929092526080820192909252911660a082015290151560c082015290151560e0820152610160610100820181905292949392610140926177e691830190617588565b946101208201520152565b9060058210156175ba5752565b9b9a999692948c606061783f936101409c99959761786b9c9960018060a01b03809a81809516875216602086015260408501521691015260808d01906177f1565b60a08b01521660c0890152151560e0880152151561010087015261016080610120880152860190617588565b930152565b6001546001600160a01b0316330361788457565b60405163118cdaa760e01b8152336004820152602490fd5b156178a357565b60405162461bcd60e51b8152602060048201526011602482015270125b9d985b1a59081c9958da5c1a595b9d607a1b6044820152606490fd5b156178e357565b60405162461bcd60e51b815260206004820152600e60248201526d125b9d985b1a5908185b5bdd5b9d60921b6044820152606490fd5b9060ff801983541691151516179055565b8181029291811591840414171561793d57565b634e487b7160e01b600052601160045260246000fd5b811561795d570490565b634e487b7160e01b600052601260045260246000fd5b9190820391821161793d57565b908160209103126172ea575180151581036172ea5790565b6001600160a01b03918216815291166020820152604081019190915260600190565b156179c157565b60405162461bcd60e51b8152602060048201526014602482015273125b9cdd59999a58da595b9d081c185e5b595b9d60621b6044820152606490fd5b818110617a08575050565b600081556001016179fd565b9190601f8111617a2357505050565b6174fd926000526020600020906020601f840160051c83019310617a4f575b601f0160051c01906179fd565b9091508190617a42565b600260005414617a6a576002600055565b604051633ee5aeb560e01b8152600490fd5b600019811461793d5760010190565b8051821015617a9f5760209160051b010190565b634e487b7160e01b600052603260045260246000fd5b9190820180921161793d57565b15617ac957565b60405162461bcd60e51b815260206004820152600c60248201526b08ccaca40e8dede40d0d2ced60a31b6044820152606490fd5b15617b0457565b60405162461bcd60e51b815260206004820152600f60248201526e24b73b30b634b21030b93134ba32b960891b6044820152606490fd5b15617b4257565b60405162461bcd60e51b815260206004820152601060248201526f496e76616c696420646561646c696e6560801b6044820152606490fd5b15617b8157565b60405162461bcd60e51b8152602060048201526018602482015277115cd8dc9bddc8185b1c9958591e4818dbdb5c1b195d195960421b6044820152606490fd5b15617bc857565b60405162461bcd60e51b815260206004820152600e60248201526d139bdd08185d5d1a1bdc9a5e995960921b6044820152606490fd5b6001600160a01b039091168152602081019190915260400190565b15617c2057565b60405162461bcd60e51b815260206004820152601860248201527714185e5b595b9d08185b1c9958591e48195e1958dd5d195960421b6044820152606490fd5b15617c6757565b60405162461bcd60e51b815260206004820152600f60248201526e14185e5b595b9d08195e1c1a5c9959608a1b6044820152606490fd5b8054821015617a9f5760005260206000200190600090565b15617cbd57565b60405162461bcd60e51b81526020600482015260126024820152712737ba1030903b30b634b21039b4b3b732b960711b6044820152606490fd5b15617cfe57565b60405162461bcd60e51b815260206004820152601160248201527014185e5b595b9d0818d85b98d95b1b1959607a1b6044820152606490fd5b15617d3e57565b60405162461bcd60e51b815260206004820152601960248201527814185e5b595b9d08185b1c9958591e4818d85b98d95b1b1959603a1b6044820152606490fd5b6000526008602052604060002060ff600382015460a01c169060058210156175ba5781617db25760049150015442101590565b60018203617dc65760049150015442101590565b60038203617dda5760049150015443101590565b5060028103617de95750600190565b600414617df557600090565b600190565b8054821015617a9f5760005260206000209060011b0190600090565b908160209103126172ea57516001600160a01b03811681036172ea5790565b6001600160a01b0391821681529116602082015260400190565b15617e5657565b60405162461bcd60e51b8152602060048201526018602482015277139bdd08185d5d1a1bdc9a5e9959081d1bc818d85b98d95b60421b6044820152606490fd5b60009081526020600f81526040822090600582015460ff8160a01c1690811561801e575b508015618011575b61800c5760018060a01b0390816002840154169260038101546040516331a9108f60e11b81528160048201528381602481895afa879181617fed575b50617f0c5750505050505090565b8480600185015416911603617fe557617f438385600182950154166040518093819263e985e9c560e01b8352309060048401617e35565b0381895afa879181617fc6575b50617fad575b5060246040518096819363020604bf60e21b835260048301525afa9283918594617f8e575b5050617f8657505090565b163014919050565b617fa5929450803d106111285761111a8183617400565b913880617f7b565b909150617fbc57819038617f56565b5050505050600190565b617fde919250843d8611610710576107018183617400565b9038617f50565b505050505090565b618005919250853d87116111285761111a8183617400565b9038617efe565b505090565b5060088201544211617ec2565b60ff915060a81c1638617eba565b1561803357565b60405162461bcd60e51b81526020600482015260186024820152771499599d5b9908185b1c9958591e481c1c9bd8d95cdcd95960421b6044820152606490fd5b1561807a57565b60405162461bcd60e51b8152602060048201526018602482015277125b9d985b1a59081c99599d5b99081c9958da5c1a595b9d60421b6044820152606490fd5b156180c157565b60405162461bcd60e51b8152602060048201526015602482015274125b9d985b1a59081c99599d5b9908185b5bdd5b9d605a1b6044820152606490fd5b9060078110156175ba578061814e5750600090815260026020526040902080546001600160a01b039283169083168114929091831561813e575b50505090565b6001015416149050388080618138565b600181036181865750600090815260056020526040902080546001600160a01b039283169083168114929091831561813e5750505090565b600281036181c957506000818152600760205260409020600101546001600160a01b03808416911614919082156181bc57505090565b6181c69250618475565b90565b600381036182015750600090815260086020526040902080546001600160a01b039283169083168114929091831561813e5750505090565b6004810361822a57506000908152600960205260409020546001600160a01b0391821691161490565b600514618238575050600090565b6000908152600f6020526040902080546001600160a01b039283169083168114929091831561813e5750505090565b9060078110156175ba5760011461828d57506001546001600160a01b0391821691161490565b6000908152600560205260409020600201546001600160a01b0391821691161490565b9060078110156175ba57806182ec5750600052600260205260406000209060018060a01b03908183541691600360028501549401541691929190565b6001810361832157506000908152600560205260409020805460038201546004909201546001600160a01b0391821693911690565b6003810361835657506000908152600860205260409020805460028201546003909201546001600160a01b0391821693911690565b6005146183695750600090600090600090565b600052600f60205260406000209060048201549061271061838c6024548461792a565b0460056183a460018060a01b03928387541695617ab5565b9401541691929190565b9060078110156175ba57806183de57506000908152600260205260409020546001600160a01b0391821691161490565b6003810361840757506000908152600860205260409020546001600160a01b0391821691161490565b600514618415575050600090565b6000908152600f60205260409020546001600160a01b0391821691161490565b90604051906020820192835260078110156175ba5760f81b604082015260218152606081016001600160401b038111828210176173b25760405251902090565b60005260076020526040600020906000918054925b83811061849a5750505050600090565b6184a48183617c9e565b905460039190911b1c6001600160a01b03908116908416146184ce576184c990617a7c565b61848a565b50505050600190565b9060078110156175ba57600052602052604060002090565b601954801561851957601c54906127109182810292818404149015171561793d576181c691617953565b50600090565b6000526022602052604060002080549081156185575760030154906127109182810292818404149015171561793d576181c691617953565b5050600090565b6001600160a01b0316600090815260236020526040902080549081156185575760030154906127109182810292818404149015171561793d576181c691617953565b601c548015618519576181c690601a54617953565b60005260226020526040600020600381015480156185575760016181c6920154617953565b6001600160a01b03166000908152602360205260409020600381015480156185575760016181c6920154617953565b60009081526011602052604081209061862f6002830154612710611ae16024548361792a565b600383015490926001600160a01b0391821680618676575082809481938293541682821561866d575bf1156186615750565b604051903d90823e3d90fd5b506108fc618658565b60209261869d959254168460405180978195829463a9059cbb60e01b845260048401617bfe565b03925af190811561866157506186b05750565b6186c79060203d8111610710576107018183617400565b50565b60005260116020526040600020600981015460ff8116908115618701575b5061851957600c015442116186fc57600190565b600090565b60ff915060081c16386186e856fe9d11d94c685e1ee38aeed69b4a2e84778ed5e75c68d4547c4bfa22011dbd7a90d5311504a50223c76591841f7084b43f79ef30d9e097ea2800d3684eafc2eb7deac97bc1917fcedc984e3d0671d4e83b359890323d5d1c2de32b28d17c356ced6244ed823ca6be0f11bc890c3fafcf3c29cb23420c14243642e930b5e07e6d0a4bfe1b5b220ad616d44b9d56e9c8140dd76ab5cb0771a53cee706e46ae2e94f493fd418cbde522a92b961e2d8c24b756a029e0e3e4a8e315552795a27e9866678be0079c531659141344cd1fd0a4f28419497f9722a3daafe3b4186f6b6457e0554e943290fa0afd2b8471de94af606d97bef9c8db987dd5283385e57a5e5859f751b3c2d8949504d71a63fd259a5a8a1b0c05099b351e3834fa63ea01dc504a5c532d9b038e7f169ba617b799e1a14bcfbcc4db0ffaac7e7bc62c2be4bc16e1f97bec92de0242a470b3a392f190ee929eb1f02152a7a4587c04fb7a6f366328a264697066735822122029ed603b63055dad5709fa31f8d36230fadf804d5e50444a6b8e41c39fbc9d1c64736f6c63430008140033",
  "linkReferences": {},
  "deployedLinkReferences": {}
}